{"contracts/Products.sol":{"Products":{"abi":[{"anonymous":false,"inputs":[{"indexed":false,"internalType":"address","name":"manufacturer","type":"address"},{"indexed":false,"internalType":"string","name":"name","type":"string"},{"indexed":false,"internalType":"string","name":"manufacturerName","type":"string"},{"indexed":false,"internalType":"string","name":"barcode","type":"string"},{"indexed":false,"internalType":"string","name":"manufacturedTime","type":"string"}],"name":"NewProduct","type":"event"},{"anonymous":false,"inputs":[{"indexed":false,"internalType":"string","name":"name","type":"string"},{"indexed":false,"internalType":"string","name":"manufacturerName","type":"string"},{"indexed":false,"internalType":"string","name":"barcode","type":"string"},{"indexed":false,"internalType":"address","name":"buyer","type":"address"},{"indexed":false,"internalType":"address","name":"seller","type":"address"},{"indexed":false,"internalType":"uint256","name":"transferTime","type":"uint256"}],"name":"ProductOwnershipTransfer","type":"event"},{"inputs":[{"internalType":"address","name":"_manufacturer","type":"address"},{"internalType":"string","name":"_name","type":"string"},{"internalType":"string","name":"_manufacturerName","type":"string"},{"internalType":"string","name":"_barcode","type":"string"},{"internalType":"string","name":"_manufacturedTime","type":"string"}],"name":"addProduct","outputs":[],"stateMutability":"nonpayable","type":"function"},{"inputs":[{"internalType":"string","name":"","type":"string"}],"name":"barcodeToProduct","outputs":[{"internalType":"string","name":"name","type":"string"},{"internalType":"string","name":"manufacturerName","type":"string"},{"internalType":"string","name":"barcode","type":"string"},{"internalType":"string","name":"manufacturedTime","type":"string"}],"stateMutability":"view","type":"function"},{"inputs":[{"internalType":"string","name":"_barcode","type":"string"}],"name":"getProductByBarcode","outputs":[{"components":[{"internalType":"string","name":"name","type":"string"},{"internalType":"string","name":"manufacturerName","type":"string"},{"internalType":"string","name":"barcode","type":"string"},{"internalType":"string","name":"manufacturedTime","type":"string"}],"internalType":"struct Types.Product","name":"","type":"tuple"}],"stateMutability":"view","type":"function"},{"inputs":[{"internalType":"string","name":"_barcode","type":"string"}],"name":"getProductHistoryLength","outputs":[{"internalType":"uint256","name":"","type":"uint256"}],"stateMutability":"view","type":"function"},{"inputs":[{"internalType":"address","name":"user","type":"address"}],"name":"getUserProductCount","outputs":[{"internalType":"uint256","name":"","type":"uint256"}],"stateMutability":"view","type":"function"},{"inputs":[{"internalType":"string","name":"","type":"string"}],"name":"productExists","outputs":[{"internalType":"bool","name":"","type":"bool"}],"stateMutability":"view","type":"function"},{"inputs":[{"internalType":"string","name":"","type":"string"},{"internalType":"uint256","name":"","type":"uint256"}],"name":"productHistory","outputs":[{"internalType":"address","name":"owner","type":"address"},{"internalType":"uint256","name":"timestamp","type":"uint256"}],"stateMutability":"view","type":"function"},{"inputs":[{"internalType":"uint256","name":"","type":"uint256"}],"name":"products","outputs":[{"internalType":"string","name":"name","type":"string"},{"internalType":"string","name":"manufacturerName","type":"string"},{"internalType":"string","name":"barcode","type":"string"},{"internalType":"string","name":"manufacturedTime","type":"string"}],"stateMutability":"view","type":"function"},{"inputs":[{"internalType":"address","name":"_seller","type":"address"},{"internalType":"address","name":"_buyer","type":"address"},{"internalType":"string","name":"_barcode","type":"string"}],"name":"sell","outputs":[],"stateMutability":"nonpayable","type":"function"},{"inputs":[{"internalType":"address","name":"_users","type":"address"}],"name":"setUsersContract","outputs":[],"stateMutability":"nonpayable","type":"function"},{"inputs":[{"internalType":"address","name":"","type":"address"},{"internalType":"uint256","name":"","type":"uint256"}],"name":"userProducts","outputs":[{"internalType":"string","name":"","type":"string"}],"stateMutability":"view","type":"function"},{"inputs":[],"name":"users","outputs":[{"internalType":"contract Users","name":"","type":"address"}],"stateMutability":"view","type":"function"}],"evm":{"bytecode":{"linkReferences":{},"object":"6080604052348015600f57600080fd5b506124558061001f6000396000f3fe608060405234801561001057600080fd5b50600436106100b45760003560e01c80638addc051116100715780638addc051146101e0578063c60bdc7f14610210578063e0c57ec81461022c578063e5e20ac914610248578063f202027514610264578063f9b8cc1b14610282576100b4565b806301970b11146100b957806306433b29146100ea57806334dd12921461011a5780633d5278831461014a5780636e2b48961461017a5780637acc0b20146101ad575b600080fd5b6100d360048036038101906100ce91906115a8565b6102b2565b6040516100e1929190611654565b60405180910390f35b61010460048036038101906100ff919061167d565b610329565b60405161011191906116c6565b60405180910390f35b610134600480360381019061012f919061167d565b610354565b60405161014191906117d8565b60405180910390f35b610164600480360381019061015f9190611826565b61063f565b60405161017191906118b0565b60405180910390f35b610194600480360381019061018f919061167d565b6106f8565b6040516101a494939291906118d2565b60405180910390f35b6101c760048036038101906101c29190611933565b61095e565b6040516101d794939291906118d2565b60405180910390f35b6101fa60048036038101906101f5919061167d565b610bbe565b604051610207919061197b565b60405180910390f35b61022a60048036038101906102259190611996565b610bf4565b005b610246600480360381019061024191906119c3565b610c37565b005b610262600480360381019061025d9190611a32565b610fdd565b005b61026c611323565b6040516102799190611b7c565b60405180910390f35b61029c60048036038101906102979190611996565b611347565b6040516102a991906116c6565b60405180910390f35b60038280516020810182018051848252602083016020850120818352809550505050505081815481106102e457600080fd5b9060005260206000209060020201600091509150508060000160009054906101000a900473ffffffffffffffffffffffffffffffffffffffff16908060010154905082565b600060038260405161033b9190611bd3565b9081526020016040518091039020805490509050919050565b61035c611393565b60048260405161036c9190611bd3565b908152602001604051809103902060009054906101000a900460ff166103c7576040517f08c379a00000000000000000000000000000000000000000000000000000000081526004016103be90611c36565b60405180910390fd5b6005826040516103d79190611bd3565b908152602001604051809103902060405180608001604052908160008201805461040090611c85565b80601f016020809104026020016040519081016040528092919081815260200182805461042c90611c85565b80156104795780601f1061044e57610100808354040283529160200191610479565b820191906000526020600020905b81548152906001019060200180831161045c57829003601f168201915b5050505050815260200160018201805461049290611c85565b80601f01602080910402602001604051908101604052809291908181526020018280546104be90611c85565b801561050b5780601f106104e05761010080835404028352916020019161050b565b820191906000526020600020905b8154815290600101906020018083116104ee57829003601f168201915b5050505050815260200160028201805461052490611c85565b80601f016020809104026020016040519081016040528092919081815260200182805461055090611c85565b801561059d5780601f106105725761010080835404028352916020019161059d565b820191906000526020600020905b81548152906001019060200180831161058057829003601f168201915b505050505081526020016003820180546105b690611c85565b80601f01602080910402602001604051908101604052809291908181526020018280546105e290611c85565b801561062f5780601f106106045761010080835404028352916020019161062f565b820191906000526020600020905b81548152906001019060200180831161061257829003601f168201915b5050505050815250509050919050565b6002602052816000526040600020818154811061065b57600080fd5b9060005260206000200160009150915050805461067790611c85565b80601f01602080910402602001604051908101604052809291908181526020018280546106a390611c85565b80156106f05780601f106106c5576101008083540402835291602001916106f0565b820191906000526020600020905b8154815290600101906020018083116106d357829003601f168201915b505050505081565b60058180516020810182018051848252602083016020850120818352809550505050505060009150905080600001805461073190611c85565b80601f016020809104026020016040519081016040528092919081815260200182805461075d90611c85565b80156107aa5780601f1061077f576101008083540402835291602001916107aa565b820191906000526020600020905b81548152906001019060200180831161078d57829003601f168201915b5050505050908060010180546107bf90611c85565b80601f01602080910402602001604051908101604052809291908181526020018280546107eb90611c85565b80156108385780601f1061080d57610100808354040283529160200191610838565b820191906000526020600020905b81548152906001019060200180831161081b57829003601f168201915b50505050509080600201805461084d90611c85565b80601f016020809104026020016040519081016040528092919081815260200182805461087990611c85565b80156108c65780601f1061089b576101008083540402835291602001916108c6565b820191906000526020600020905b8154815290600101906020018083116108a957829003601f168201915b5050505050908060030180546108db90611c85565b80601f016020809104026020016040519081016040528092919081815260200182805461090790611c85565b80156109545780601f1061092957610100808354040283529160200191610954565b820191906000526020600020905b81548152906001019060200180831161093757829003601f168201915b5050505050905084565b6001818154811061096e57600080fd5b906000526020600020906004020160009150905080600001805461099190611c85565b80601f01602080910402602001604051908101604052809291908181526020018280546109bd90611c85565b8015610a0a5780601f106109df57610100808354040283529160200191610a0a565b820191906000526020600020905b8154815290600101906020018083116109ed57829003601f168201915b505050505090806001018054610a1f90611c85565b80601f0160208091040260200160405190810160405280929190818152602001828054610a4b90611c85565b8015610a985780601f10610a6d57610100808354040283529160200191610a98565b820191906000526020600020905b815481529060010190602001808311610a7b57829003601f168201915b505050505090806002018054610aad90611c85565b80601f0160208091040260200160405190810160405280929190818152602001828054610ad990611c85565b8015610b265780601f10610afb57610100808354040283529160200191610b26565b820191906000526020600020905b815481529060010190602001808311610b0957829003601f168201915b505050505090806003018054610b3b90611c85565b80601f0160208091040260200160405190810160405280929190818152602001828054610b6790611c85565b8015610bb45780601f10610b8957610100808354040283529160200191610bb4565b820191906000526020600020905b815481529060010190602001808311610b9757829003601f168201915b5050505050905084565b6004818051602081018201805184825260208301602085012081835280955050505050506000915054906101000a900460ff1681565b806000806101000a81548173ffffffffffffffffffffffffffffffffffffffff021916908373ffffffffffffffffffffffffffffffffffffffff16021790555050565b600481604051610c479190611bd3565b908152602001604051809103902060009054906101000a900460ff16610ca2576040517f08c379a0000000000000000000000000000000000000000000000000000000008152600401610c9990611c36565b60405180910390fd5b6000600260008573ffffffffffffffffffffffffffffffffffffffff1673ffffffffffffffffffffffffffffffffffffffff16815260200190815260200160002090506000808280549050905060005b8380549050811015610d56578480519060200120848281548110610d1957610d18611cb6565b5b90600052602060002001604051610d309190611d88565b604051809103902003610d495780915060019250610d56565b8080600101915050610cf2565b5081610d97576040517f08c379a0000000000000000000000000000000000000000000000000000000008152600401610d8e90611deb565b60405180910390fd5b8260018480549050610da99190611e3a565b81548110610dba57610db9611cb6565b5b90600052602060002001838281548110610dd757610dd6611cb6565b5b906000526020600020019081610ded919061203b565b5082805480610dff57610dfe612123565b5b600190038181906000526020600020016000610e1b91906113bb565b9055600260008673ffffffffffffffffffffffffffffffffffffffff1673ffffffffffffffffffffffffffffffffffffffff16815260200190815260200160002084908060018154018082558091505060019003906000526020600020016000909190919091509081610e8e9190612152565b50600384604051610e9f9190611bd3565b908152602001604051809103902060405180604001604052808773ffffffffffffffffffffffffffffffffffffffff16815260200142815250908060018154018082558091505060019003906000526020600020906002020160009091909190915060008201518160000160006101000a81548173ffffffffffffffffffffffffffffffffffffffff021916908373ffffffffffffffffffffffffffffffffffffffff1602179055506020820151816001015550507ff1a45fa7f75bd961b42f13b6aa3442145db6a280fa2e9743042b26b08626c3e7600585604051610f859190611bd3565b9081526020016040518091039020600001600586604051610fa69190611bd3565b908152602001604051809103902060010186888a42604051610fcd969594939291906122a8565b60405180910390a1505050505050565b600482604051610fed9190611bd3565b908152602001604051809103902060009054906101000a900460ff1615611049576040517f08c379a000000000000000000000000000000000000000000000000000000000815260040161104090612390565b60405180910390fd5b60006040518060800160405280868152602001858152602001848152602001838152509050600181908060018154018082558091505060019003906000526020600020906004020160009091909190915060008201518160000190816110af9190612152565b5060208201518160010190816110c59190612152565b5060408201518160020190816110db9190612152565b5060608201518160030190816110f19190612152565b505050806005846040516111059190611bd3565b908152602001604051809103902060008201518160000190816111289190612152565b50602082015181600101908161113e9190612152565b5060408201518160020190816111549190612152565b50606082015181600301908161116a9190612152565b5090505060016004846040516111809190611bd3565b908152602001604051809103902060006101000a81548160ff021916908315150217905550600260008773ffffffffffffffffffffffffffffffffffffffff1673ffffffffffffffffffffffffffffffffffffffff168152602001908152602001600020839080600181540180825580915050600190039060005260206000200160009091909190915090816112169190612152565b506003836040516112279190611bd3565b908152602001604051809103902060405180604001604052808873ffffffffffffffffffffffffffffffffffffffff16815260200142815250908060018154018082558091505060019003906000526020600020906002020160009091909190915060008201518160000160006101000a81548173ffffffffffffffffffffffffffffffffffffffff021916908373ffffffffffffffffffffffffffffffffffffffff1602179055506020820151816001015550507f1c6dd0df93e82aba12c0d62842d917c64dbefd30f23b8628e4908641d03775dd86868686866040516113139594939291906123b0565b60405180910390a1505050505050565b60008054906101000a900473ffffffffffffffffffffffffffffffffffffffff1681565b6000600260008373ffffffffffffffffffffffffffffffffffffffff1673ffffffffffffffffffffffffffffffffffffffff168152602001908152602001600020805490509050919050565b6040518060800160405280606081526020016060815260200160608152602001606081525090565b5080546113c790611c85565b6000825580601f106113d957506113f8565b601f0160209004906000526020600020908101906113f791906113fb565b5b50565b5b808211156114145760008160009055506001016113fc565b5090565b6000604051905090565b600080fd5b600080fd5b600080fd5b600080fd5b6000601f19601f8301169050919050565b7f4e487b7100000000000000000000000000000000000000000000000000000000600052604160045260246000fd5b61147f82611436565b810181811067ffffffffffffffff8211171561149e5761149d611447565b5b80604052505050565b60006114b1611418565b90506114bd8282611476565b919050565b600067ffffffffffffffff8211156114dd576114dc611447565b5b6114e682611436565b9050602081019050919050565b82818337600083830152505050565b6000611515611510846114c2565b6114a7565b90508281526020810184848401111561153157611530611431565b5b61153c8482856114f3565b509392505050565b600082601f8301126115595761155861142c565b5b8135611569848260208601611502565b91505092915050565b6000819050919050565b61158581611572565b811461159057600080fd5b50565b6000813590506115a28161157c565b92915050565b600080604083850312156115bf576115be611422565b5b600083013567ffffffffffffffff8111156115dd576115dc611427565b5b6115e985828601611544565b92505060206115fa85828601611593565b9150509250929050565b600073ffffffffffffffffffffffffffffffffffffffff82169050919050565b600061162f82611604565b9050919050565b61163f81611624565b82525050565b61164e81611572565b82525050565b60006040820190506116696000830185611636565b6116766020830184611645565b9392505050565b60006020828403121561169357611692611422565b5b600082013567ffffffffffffffff8111156116b1576116b0611427565b5b6116bd84828501611544565b91505092915050565b60006020820190506116db6000830184611645565b92915050565b600081519050919050565b600082825260208201905092915050565b60005b8381101561171b578082015181840152602081019050611700565b60008484015250505050565b6000611732826116e1565b61173c81856116ec565b935061174c8185602086016116fd565b61175581611436565b840191505092915050565b6000608083016000830151848203600086015261177d8282611727565b915050602083015184820360208601526117978282611727565b915050604083015184820360408601526117b18282611727565b915050606083015184820360608601526117cb8282611727565b9150508091505092915050565b600060208201905081810360008301526117f28184611760565b905092915050565b61180381611624565b811461180e57600080fd5b50565b600081359050611820816117fa565b92915050565b6000806040838503121561183d5761183c611422565b5b600061184b85828601611811565b925050602061185c85828601611593565b9150509250929050565b600082825260208201905092915050565b6000611882826116e1565b61188c8185611866565b935061189c8185602086016116fd565b6118a581611436565b840191505092915050565b600060208201905081810360008301526118ca8184611877565b905092915050565b600060808201905081810360008301526118ec8187611877565b905081810360208301526119008186611877565b905081810360408301526119148185611877565b905081810360608301526119288184611877565b905095945050505050565b60006020828403121561194957611948611422565b5b600061195784828501611593565b91505092915050565b60008115159050919050565b61197581611960565b82525050565b6000602082019050611990600083018461196c565b92915050565b6000602082840312156119ac576119ab611422565b5b60006119ba84828501611811565b91505092915050565b6000806000606084860312156119dc576119db611422565b5b60006119ea86828701611811565b93505060206119fb86828701611811565b925050604084013567ffffffffffffffff811115611a1c57611a1b611427565b5b611a2886828701611544565b9150509250925092565b600080600080600060a08688031215611a4e57611a4d611422565b5b6000611a5c88828901611811565b955050602086013567ffffffffffffffff811115611a7d57611a7c611427565b5b611a8988828901611544565b945050604086013567ffffffffffffffff811115611aaa57611aa9611427565b5b611ab688828901611544565b935050606086013567ffffffffffffffff811115611ad757611ad6611427565b5b611ae388828901611544565b925050608086013567ffffffffffffffff811115611b0457611b03611427565b5b611b1088828901611544565b9150509295509295909350565b6000819050919050565b6000611b42611b3d611b3884611604565b611b1d565b611604565b9050919050565b6000611b5482611b27565b9050919050565b6000611b6682611b49565b9050919050565b611b7681611b5b565b82525050565b6000602082019050611b916000830184611b6d565b92915050565b600081905092915050565b6000611bad826116e1565b611bb78185611b97565b9350611bc78185602086016116fd565b80840191505092915050565b6000611bdf8284611ba2565b915081905092915050565b7f50726f64756374206e6f7420666f756e64000000000000000000000000000000600082015250565b6000611c20601183611866565b9150611c2b82611bea565b602082019050919050565b60006020820190508181036000830152611c4f81611c13565b9050919050565b7f4e487b7100000000000000000000000000000000000000000000000000000000600052602260045260246000fd5b60006002820490506001821680611c9d57607f821691505b602082108103611cb057611caf611c56565b5b50919050565b7f4e487b7100000000000000000000000000000000000000000000000000000000600052603260045260246000fd5b600081905092915050565b60008190508160005260206000209050919050565b60008154611d1281611c85565b611d1c8186611ce5565b94506001821660008114611d375760018114611d4c57611d7f565b60ff1983168652811515820286019350611d7f565b611d5585611cf0565b60005b83811015611d7757815481890152600182019150602081019050611d58565b838801955050505b50505092915050565b6000611d948284611d05565b915081905092915050565b7f50726f64756374206e6f7420696e2073656c6c657220696e76656e746f727900600082015250565b6000611dd5601f83611866565b9150611de082611d9f565b602082019050919050565b60006020820190508181036000830152611e0481611dc8565b9050919050565b7f4e487b7100000000000000000000000000000000000000000000000000000000600052601160045260246000fd5b6000611e4582611572565b9150611e5083611572565b9250828203905081811115611e6857611e67611e0b565b5b92915050565b600081549050611e7d81611c85565b9050919050565b60008190508160005260206000209050919050565b60008190508160005260206000209050919050565b60006020601f8301049050919050565b600082821b905092915050565b600060088302611efb7fffffffffffffffffffffffffffffffffffffffffffffffffffffffffffffffff82611ebe565b611f058683611ebe565b95508019841693508086168417925050509392505050565b6000611f38611f33611f2e84611572565b611b1d565b611572565b9050919050565b6000819050919050565b611f5283611f1d565b611f66611f5e82611f3f565b848454611ecb565b825550505050565b600090565b611f7b611f6e565b611f86818484611f49565b505050565b5b81811015611faa57611f9f600082611f73565b600181019050611f8c565b5050565b601f821115611fef57611fc081611e84565b611fc984611eae565b81016020851015611fd8578190505b611fec611fe485611eae565b830182611f8b565b50505b505050565b600082821c905092915050565b600061201260001984600802611ff4565b1980831691505092915050565b600061202b8383612001565b9150826002028217905092915050565b818103612049575050612121565b61205282611e6e565b67ffffffffffffffff81111561206b5761206a611447565b5b6120758254611c85565b612080828285611fae565b6000601f8311600181146120af576000841561209d578287015490505b6120a7858261201f565b86555061211a565b601f1984166120bd87611e99565b96506120c886611e84565b60005b828110156120f0578489015482556001820191506001850194506020810190506120cb565b8683101561210d5784890154612109601f891682612001565b8355505b6001600288020188555050505b5050505050505b565b7f4e487b7100000000000000000000000000000000000000000000000000000000600052603160045260246000fd5b61215b826116e1565b67ffffffffffffffff81111561217457612173611447565b5b61217e8254611c85565b612189828285611fae565b600060209050601f8311600181146121bc57600084156121aa578287015190505b6121b4858261201f565b86555061221c565b601f1984166121ca86611e84565b60005b828110156121f2578489015182556001820191506020850194506020810190506121cd565b8683101561220f578489015161220b601f891682612001565b8355505b6001600288020188555050505b505050505050565b6000815461223181611c85565b61223b8186611866565b94506001821660008114612256576001811461226c5761229f565b60ff19831686528115156020028601935061229f565b61227585611e84565b60005b8381101561229757815481890152600182019150602081019050612278565b808801955050505b50505092915050565b600060c08201905081810360008301526122c28189612224565b905081810360208301526122d68188612224565b905081810360408301526122ea8187611877565b90506122f96060830186611636565b6123066080830185611636565b61231360a0830184611645565b979650505050505050565b7f50726f647563742077697468207468697320626172636f646520616c7265616460008201527f7920657869737473000000000000000000000000000000000000000000000000602082015250565b600061237a602883611866565b91506123858261231e565b604082019050919050565b600060208201905081810360008301526123a98161236d565b9050919050565b600060a0820190506123c56000830188611636565b81810360208301526123d78187611877565b905081810360408301526123eb8186611877565b905081810360608301526123ff8185611877565b905081810360808301526124138184611877565b9050969550505050505056fea2646970667358221220821560ab0b3ba72a65b3513204ac3289653ee16abe05ab1e8b9582fd6ffb815164736f6c634300081e0033","opcodes":"PUSH1 0x80 PUSH1 0x40 MSTORE CALLVALUE DUP1 ISZERO PUSH1 0xF JUMPI PUSH1 0x0 DUP1 REVERT JUMPDEST POP PUSH2 0x2455 DUP1 PUSH2 0x1F PUSH1 0x0 CODECOPY PUSH1 0x0 RETURN INVALID PUSH1 0x80 PUSH1 0x40 MSTORE CALLVALUE DUP1 ISZERO PUSH2 0x10 JUMPI PUSH1 0x0 DUP1 REVERT JUMPDEST POP PUSH1 0x4 CALLDATASIZE LT PUSH2 0xB4 JUMPI PUSH1 0x0 CALLDATALOAD PUSH1 0xE0 SHR DUP1 PUSH4 0x8ADDC051 GT PUSH2 0x71 JUMPI DUP1 PUSH4 0x8ADDC051 EQ PUSH2 0x1E0 JUMPI DUP1 PUSH4 0xC60BDC7F EQ PUSH2 0x210 JUMPI DUP1 PUSH4 0xE0C57EC8 EQ PUSH2 0x22C JUMPI DUP1 PUSH4 0xE5E20AC9 EQ PUSH2 0x248 JUMPI DUP1 PUSH4 0xF2020275 EQ PUSH2 0x264 JUMPI DUP1 PUSH4 0xF9B8CC1B EQ PUSH2 0x282 JUMPI PUSH2 0xB4 JUMP JUMPDEST DUP1 PUSH4 0x1970B11 EQ PUSH2 0xB9 JUMPI DUP1 PUSH4 0x6433B29 EQ PUSH2 0xEA JUMPI DUP1 PUSH4 0x34DD1292 EQ PUSH2 0x11A JUMPI DUP1 PUSH4 0x3D527883 EQ PUSH2 0x14A JUMPI DUP1 PUSH4 0x6E2B4896 EQ PUSH2 0x17A JUMPI DUP1 PUSH4 0x7ACC0B20 EQ PUSH2 0x1AD JUMPI JUMPDEST PUSH1 0x0 DUP1 REVERT JUMPDEST PUSH2 0xD3 PUSH1 0x4 DUP1 CALLDATASIZE SUB DUP2 ADD SWAP1 PUSH2 0xCE SWAP2 SWAP1 PUSH2 0x15A8 JUMP JUMPDEST PUSH2 0x2B2 JUMP JUMPDEST PUSH1 0x40 MLOAD PUSH2 0xE1 SWAP3 SWAP2 SWAP1 PUSH2 0x1654 JUMP JUMPDEST PUSH1 0x40 MLOAD DUP1 SWAP2 SUB SWAP1 RETURN JUMPDEST PUSH2 0x104 PUSH1 0x4 DUP1 CALLDATASIZE SUB DUP2 ADD SWAP1 PUSH2 0xFF SWAP2 SWAP1 PUSH2 0x167D JUMP JUMPDEST PUSH2 0x329 JUMP JUMPDEST PUSH1 0x40 MLOAD PUSH2 0x111 SWAP2 SWAP1 PUSH2 0x16C6 JUMP JUMPDEST PUSH1 0x40 MLOAD DUP1 SWAP2 SUB SWAP1 RETURN JUMPDEST PUSH2 0x134 PUSH1 0x4 DUP1 CALLDATASIZE SUB DUP2 ADD SWAP1 PUSH2 0x12F SWAP2 SWAP1 PUSH2 0x167D JUMP JUMPDEST PUSH2 0x354 JUMP JUMPDEST PUSH1 0x40 MLOAD PUSH2 0x141 SWAP2 SWAP1 PUSH2 0x17D8 JUMP JUMPDEST PUSH1 0x40 MLOAD DUP1 SWAP2 SUB SWAP1 RETURN JUMPDEST PUSH2 0x164 PUSH1 0x4 DUP1 CALLDATASIZE SUB DUP2 ADD SWAP1 PUSH2 0x15F SWAP2 SWAP1 PUSH2 0x1826 JUMP JUMPDEST PUSH2 0x63F JUMP JUMPDEST PUSH1 0x40 MLOAD PUSH2 0x171 SWAP2 SWAP1 PUSH2 0x18B0 JUMP JUMPDEST PUSH1 0x40 MLOAD DUP1 SWAP2 SUB SWAP1 RETURN JUMPDEST PUSH2 0x194 PUSH1 0x4 DUP1 CALLDATASIZE SUB DUP2 ADD SWAP1 PUSH2 0x18F SWAP2 SWAP1 PUSH2 0x167D JUMP JUMPDEST PUSH2 0x6F8 JUMP JUMPDEST PUSH1 0x40 MLOAD PUSH2 0x1A4 SWAP5 SWAP4 SWAP3 SWAP2 SWAP1 PUSH2 0x18D2 JUMP JUMPDEST PUSH1 0x40 MLOAD DUP1 SWAP2 SUB SWAP1 RETURN JUMPDEST PUSH2 0x1C7 PUSH1 0x4 DUP1 CALLDATASIZE SUB DUP2 ADD SWAP1 PUSH2 0x1C2 SWAP2 SWAP1 PUSH2 0x1933 JUMP JUMPDEST PUSH2 0x95E JUMP JUMPDEST PUSH1 0x40 MLOAD PUSH2 0x1D7 SWAP5 SWAP4 SWAP3 SWAP2 SWAP1 PUSH2 0x18D2 JUMP JUMPDEST PUSH1 0x40 MLOAD DUP1 SWAP2 SUB SWAP1 RETURN JUMPDEST PUSH2 0x1FA PUSH1 0x4 DUP1 CALLDATASIZE SUB DUP2 ADD SWAP1 PUSH2 0x1F5 SWAP2 SWAP1 PUSH2 0x167D JUMP JUMPDEST PUSH2 0xBBE JUMP JUMPDEST PUSH1 0x40 MLOAD PUSH2 0x207 SWAP2 SWAP1 PUSH2 0x197B JUMP JUMPDEST PUSH1 0x40 MLOAD DUP1 SWAP2 SUB SWAP1 RETURN JUMPDEST PUSH2 0x22A PUSH1 0x4 DUP1 CALLDATASIZE SUB DUP2 ADD SWAP1 PUSH2 0x225 SWAP2 SWAP1 PUSH2 0x1996 JUMP JUMPDEST PUSH2 0xBF4 JUMP JUMPDEST STOP JUMPDEST PUSH2 0x246 PUSH1 0x4 DUP1 CALLDATASIZE SUB DUP2 ADD SWAP1 PUSH2 0x241 SWAP2 SWAP1 PUSH2 0x19C3 JUMP JUMPDEST PUSH2 0xC37 JUMP JUMPDEST STOP JUMPDEST PUSH2 0x262 PUSH1 0x4 DUP1 CALLDATASIZE SUB DUP2 ADD SWAP1 PUSH2 0x25D SWAP2 SWAP1 PUSH2 0x1A32 JUMP JUMPDEST PUSH2 0xFDD JUMP JUMPDEST STOP JUMPDEST PUSH2 0x26C PUSH2 0x1323 JUMP JUMPDEST PUSH1 0x40 MLOAD PUSH2 0x279 SWAP2 SWAP1 PUSH2 0x1B7C JUMP JUMPDEST PUSH1 0x40 MLOAD DUP1 SWAP2 SUB SWAP1 RETURN JUMPDEST PUSH2 0x29C PUSH1 0x4 DUP1 CALLDATASIZE SUB DUP2 ADD SWAP1 PUSH2 0x297 SWAP2 SWAP1 PUSH2 0x1996 JUMP JUMPDEST PUSH2 0x1347 JUMP JUMPDEST PUSH1 0x40 MLOAD PUSH2 0x2A9 SWAP2 SWAP1 PUSH2 0x16C6 JUMP JUMPDEST PUSH1 0x40 MLOAD DUP1 SWAP2 SUB SWAP1 RETURN JUMPDEST PUSH1 0x3 DUP3 DUP1 MLOAD PUSH1 0x20 DUP2 ADD DUP3 ADD DUP1 MLOAD DUP5 DUP3 MSTORE PUSH1 0x20 DUP4 ADD PUSH1 0x20 DUP6 ADD KECCAK256 DUP2 DUP4 MSTORE DUP1 SWAP6 POP POP POP POP POP POP DUP2 DUP2 SLOAD DUP2 LT PUSH2 0x2E4 JUMPI PUSH1 0x0 DUP1 REVERT JUMPDEST SWAP1 PUSH1 0x0 MSTORE PUSH1 0x20 PUSH1 0x0 KECCAK256 SWAP1 PUSH1 0x2 MUL ADD PUSH1 0x0 SWAP2 POP SWAP2 POP POP DUP1 PUSH1 0x0 ADD PUSH1 0x0 SWAP1 SLOAD SWAP1 PUSH2 0x100 EXP SWAP1 DIV PUSH20 0xFFFFFFFFFFFFFFFFFFFFFFFFFFFFFFFFFFFFFFFF AND SWAP1 DUP1 PUSH1 0x1 ADD SLOAD SWAP1 POP DUP3 JUMP JUMPDEST PUSH1 0x0 PUSH1 0x3 DUP3 PUSH1 0x40 MLOAD PUSH2 0x33B SWAP2 SWAP1 PUSH2 0x1BD3 JUMP JUMPDEST SWAP1 DUP2 MSTORE PUSH1 0x20 ADD PUSH1 0x40 MLOAD DUP1 SWAP2 SUB SWAP1 KECCAK256 DUP1 SLOAD SWAP1 POP SWAP1 POP SWAP2 SWAP1 POP JUMP JUMPDEST PUSH2 0x35C PUSH2 0x1393 JUMP JUMPDEST PUSH1 0x4 DUP3 PUSH1 0x40 MLOAD PUSH2 0x36C SWAP2 SWAP1 PUSH2 0x1BD3 JUMP JUMPDEST SWAP1 DUP2 MSTORE PUSH1 0x20 ADD PUSH1 0x40 MLOAD DUP1 SWAP2 SUB SWAP1 KECCAK256 PUSH1 0x0 SWAP1 SLOAD SWAP1 PUSH2 0x100 EXP SWAP1 DIV PUSH1 0xFF AND PUSH2 0x3C7 JUMPI PUSH1 0x40 MLOAD PUSH32 0x8C379A000000000000000000000000000000000000000000000000000000000 DUP2 MSTORE PUSH1 0x4 ADD PUSH2 0x3BE SWAP1 PUSH2 0x1C36 JUMP JUMPDEST PUSH1 0x40 MLOAD DUP1 SWAP2 SUB SWAP1 REVERT JUMPDEST PUSH1 0x5 DUP3 PUSH1 0x40 MLOAD PUSH2 0x3D7 SWAP2 SWAP1 PUSH2 0x1BD3 JUMP JUMPDEST SWAP1 DUP2 MSTORE PUSH1 0x20 ADD PUSH1 0x40 MLOAD DUP1 SWAP2 SUB SWAP1 KECCAK256 PUSH1 0x40 MLOAD DUP1 PUSH1 0x80 ADD PUSH1 0x40 MSTORE SWAP1 DUP2 PUSH1 0x0 DUP3 ADD DUP1 SLOAD PUSH2 0x400 SWAP1 PUSH2 0x1C85 JUMP JUMPDEST DUP1 PUSH1 0x1F ADD PUSH1 0x20 DUP1 SWAP2 DIV MUL PUSH1 0x20 ADD PUSH1 0x40 MLOAD SWAP1 DUP2 ADD PUSH1 0x40 MSTORE DUP1 SWAP3 SWAP2 SWAP1 DUP2 DUP2 MSTORE PUSH1 0x20 ADD DUP3 DUP1 SLOAD PUSH2 0x42C SWAP1 PUSH2 0x1C85 JUMP JUMPDEST DUP1 ISZERO PUSH2 0x479 JUMPI DUP1 PUSH1 0x1F LT PUSH2 0x44E JUMPI PUSH2 0x100 DUP1 DUP4 SLOAD DIV MUL DUP4 MSTORE SWAP2 PUSH1 0x20 ADD SWAP2 PUSH2 0x479 JUMP JUMPDEST DUP3 ADD SWAP2 SWAP1 PUSH1 0x0 MSTORE PUSH1 0x20 PUSH1 0x0 KECCAK256 SWAP1 JUMPDEST DUP2 SLOAD DUP2 MSTORE SWAP1 PUSH1 0x1 ADD SWAP1 PUSH1 0x20 ADD DUP1 DUP4 GT PUSH2 0x45C JUMPI DUP3 SWAP1 SUB PUSH1 0x1F AND DUP3 ADD SWAP2 JUMPDEST POP POP POP POP POP DUP2 MSTORE PUSH1 0x20 ADD PUSH1 0x1 DUP3 ADD DUP1 SLOAD PUSH2 0x492 SWAP1 PUSH2 0x1C85 JUMP JUMPDEST DUP1 PUSH1 0x1F ADD PUSH1 0x20 DUP1 SWAP2 DIV MUL PUSH1 0x20 ADD PUSH1 0x40 MLOAD SWAP1 DUP2 ADD PUSH1 0x40 MSTORE DUP1 SWAP3 SWAP2 SWAP1 DUP2 DUP2 MSTORE PUSH1 0x20 ADD DUP3 DUP1 SLOAD PUSH2 0x4BE SWAP1 PUSH2 0x1C85 JUMP JUMPDEST DUP1 ISZERO PUSH2 0x50B JUMPI DUP1 PUSH1 0x1F LT PUSH2 0x4E0 JUMPI PUSH2 0x100 DUP1 DUP4 SLOAD DIV MUL DUP4 MSTORE SWAP2 PUSH1 0x20 ADD SWAP2 PUSH2 0x50B JUMP JUMPDEST DUP3 ADD SWAP2 SWAP1 PUSH1 0x0 MSTORE PUSH1 0x20 PUSH1 0x0 KECCAK256 SWAP1 JUMPDEST DUP2 SLOAD DUP2 MSTORE SWAP1 PUSH1 0x1 ADD SWAP1 PUSH1 0x20 ADD DUP1 DUP4 GT PUSH2 0x4EE JUMPI DUP3 SWAP1 SUB PUSH1 0x1F AND DUP3 ADD SWAP2 JUMPDEST POP POP POP POP POP DUP2 MSTORE PUSH1 0x20 ADD PUSH1 0x2 DUP3 ADD DUP1 SLOAD PUSH2 0x524 SWAP1 PUSH2 0x1C85 JUMP JUMPDEST DUP1 PUSH1 0x1F ADD PUSH1 0x20 DUP1 SWAP2 DIV MUL PUSH1 0x20 ADD PUSH1 0x40 MLOAD SWAP1 DUP2 ADD PUSH1 0x40 MSTORE DUP1 SWAP3 SWAP2 SWAP1 DUP2 DUP2 MSTORE PUSH1 0x20 ADD DUP3 DUP1 SLOAD PUSH2 0x550 SWAP1 PUSH2 0x1C85 JUMP JUMPDEST DUP1 ISZERO PUSH2 0x59D JUMPI DUP1 PUSH1 0x1F LT PUSH2 0x572 JUMPI PUSH2 0x100 DUP1 DUP4 SLOAD DIV MUL DUP4 MSTORE SWAP2 PUSH1 0x20 ADD SWAP2 PUSH2 0x59D JUMP JUMPDEST DUP3 ADD SWAP2 SWAP1 PUSH1 0x0 MSTORE PUSH1 0x20 PUSH1 0x0 KECCAK256 SWAP1 JUMPDEST DUP2 SLOAD DUP2 MSTORE SWAP1 PUSH1 0x1 ADD SWAP1 PUSH1 0x20 ADD DUP1 DUP4 GT PUSH2 0x580 JUMPI DUP3 SWAP1 SUB PUSH1 0x1F AND DUP3 ADD SWAP2 JUMPDEST POP POP POP POP POP DUP2 MSTORE PUSH1 0x20 ADD PUSH1 0x3 DUP3 ADD DUP1 SLOAD PUSH2 0x5B6 SWAP1 PUSH2 0x1C85 JUMP JUMPDEST DUP1 PUSH1 0x1F ADD PUSH1 0x20 DUP1 SWAP2 DIV MUL PUSH1 0x20 ADD PUSH1 0x40 MLOAD SWAP1 DUP2 ADD PUSH1 0x40 MSTORE DUP1 SWAP3 SWAP2 SWAP1 DUP2 DUP2 MSTORE PUSH1 0x20 ADD DUP3 DUP1 SLOAD PUSH2 0x5E2 SWAP1 PUSH2 0x1C85 JUMP JUMPDEST DUP1 ISZERO PUSH2 0x62F JUMPI DUP1 PUSH1 0x1F LT PUSH2 0x604 JUMPI PUSH2 0x100 DUP1 DUP4 SLOAD DIV MUL DUP4 MSTORE SWAP2 PUSH1 0x20 ADD SWAP2 PUSH2 0x62F JUMP JUMPDEST DUP3 ADD SWAP2 SWAP1 PUSH1 0x0 MSTORE PUSH1 0x20 PUSH1 0x0 KECCAK256 SWAP1 JUMPDEST DUP2 SLOAD DUP2 MSTORE SWAP1 PUSH1 0x1 ADD SWAP1 PUSH1 0x20 ADD DUP1 DUP4 GT PUSH2 0x612 JUMPI DUP3 SWAP1 SUB PUSH1 0x1F AND DUP3 ADD SWAP2 JUMPDEST POP POP POP POP POP DUP2 MSTORE POP POP SWAP1 POP SWAP2 SWAP1 POP JUMP JUMPDEST PUSH1 0x2 PUSH1 0x20 MSTORE DUP2 PUSH1 0x0 MSTORE PUSH1 0x40 PUSH1 0x0 KECCAK256 DUP2 DUP2 SLOAD DUP2 LT PUSH2 0x65B JUMPI PUSH1 0x0 DUP1 REVERT JUMPDEST SWAP1 PUSH1 0x0 MSTORE PUSH1 0x20 PUSH1 0x0 KECCAK256 ADD PUSH1 0x0 SWAP2 POP SWAP2 POP POP DUP1 SLOAD PUSH2 0x677 SWAP1 PUSH2 0x1C85 JUMP JUMPDEST DUP1 PUSH1 0x1F ADD PUSH1 0x20 DUP1 SWAP2 DIV MUL PUSH1 0x20 ADD PUSH1 0x40 MLOAD SWAP1 DUP2 ADD PUSH1 0x40 MSTORE DUP1 SWAP3 SWAP2 SWAP1 DUP2 DUP2 MSTORE PUSH1 0x20 ADD DUP3 DUP1 SLOAD PUSH2 0x6A3 SWAP1 PUSH2 0x1C85 JUMP JUMPDEST DUP1 ISZERO PUSH2 0x6F0 JUMPI DUP1 PUSH1 0x1F LT PUSH2 0x6C5 JUMPI PUSH2 0x100 DUP1 DUP4 SLOAD DIV MUL DUP4 MSTORE SWAP2 PUSH1 0x20 ADD SWAP2 PUSH2 0x6F0 JUMP JUMPDEST DUP3 ADD SWAP2 SWAP1 PUSH1 0x0 MSTORE PUSH1 0x20 PUSH1 0x0 KECCAK256 SWAP1 JUMPDEST DUP2 SLOAD DUP2 MSTORE SWAP1 PUSH1 0x1 ADD SWAP1 PUSH1 0x20 ADD DUP1 DUP4 GT PUSH2 0x6D3 JUMPI DUP3 SWAP1 SUB PUSH1 0x1F AND DUP3 ADD SWAP2 JUMPDEST POP POP POP POP POP DUP2 JUMP JUMPDEST PUSH1 0x5 DUP2 DUP1 MLOAD PUSH1 0x20 DUP2 ADD DUP3 ADD DUP1 MLOAD DUP5 DUP3 MSTORE PUSH1 0x20 DUP4 ADD PUSH1 0x20 DUP6 ADD KECCAK256 DUP2 DUP4 MSTORE DUP1 SWAP6 POP POP POP POP POP POP PUSH1 0x0 SWAP2 POP SWAP1 POP DUP1 PUSH1 0x0 ADD DUP1 SLOAD PUSH2 0x731 SWAP1 PUSH2 0x1C85 JUMP JUMPDEST DUP1 PUSH1 0x1F ADD PUSH1 0x20 DUP1 SWAP2 DIV MUL PUSH1 0x20 ADD PUSH1 0x40 MLOAD SWAP1 DUP2 ADD PUSH1 0x40 MSTORE DUP1 SWAP3 SWAP2 SWAP1 DUP2 DUP2 MSTORE PUSH1 0x20 ADD DUP3 DUP1 SLOAD PUSH2 0x75D SWAP1 PUSH2 0x1C85 JUMP JUMPDEST DUP1 ISZERO PUSH2 0x7AA JUMPI DUP1 PUSH1 0x1F LT PUSH2 0x77F JUMPI PUSH2 0x100 DUP1 DUP4 SLOAD DIV MUL DUP4 MSTORE SWAP2 PUSH1 0x20 ADD SWAP2 PUSH2 0x7AA JUMP JUMPDEST DUP3 ADD SWAP2 SWAP1 PUSH1 0x0 MSTORE PUSH1 0x20 PUSH1 0x0 KECCAK256 SWAP1 JUMPDEST DUP2 SLOAD DUP2 MSTORE SWAP1 PUSH1 0x1 ADD SWAP1 PUSH1 0x20 ADD DUP1 DUP4 GT PUSH2 0x78D JUMPI DUP3 SWAP1 SUB PUSH1 0x1F AND DUP3 ADD SWAP2 JUMPDEST POP POP POP POP POP SWAP1 DUP1 PUSH1 0x1 ADD DUP1 SLOAD PUSH2 0x7BF SWAP1 PUSH2 0x1C85 JUMP JUMPDEST DUP1 PUSH1 0x1F ADD PUSH1 0x20 DUP1 SWAP2 DIV MUL PUSH1 0x20 ADD PUSH1 0x40 MLOAD SWAP1 DUP2 ADD PUSH1 0x40 MSTORE DUP1 SWAP3 SWAP2 SWAP1 DUP2 DUP2 MSTORE PUSH1 0x20 ADD DUP3 DUP1 SLOAD PUSH2 0x7EB SWAP1 PUSH2 0x1C85 JUMP JUMPDEST DUP1 ISZERO PUSH2 0x838 JUMPI DUP1 PUSH1 0x1F LT PUSH2 0x80D JUMPI PUSH2 0x100 DUP1 DUP4 SLOAD DIV MUL DUP4 MSTORE SWAP2 PUSH1 0x20 ADD SWAP2 PUSH2 0x838 JUMP JUMPDEST DUP3 ADD SWAP2 SWAP1 PUSH1 0x0 MSTORE PUSH1 0x20 PUSH1 0x0 KECCAK256 SWAP1 JUMPDEST DUP2 SLOAD DUP2 MSTORE SWAP1 PUSH1 0x1 ADD SWAP1 PUSH1 0x20 ADD DUP1 DUP4 GT PUSH2 0x81B JUMPI DUP3 SWAP1 SUB PUSH1 0x1F AND DUP3 ADD SWAP2 JUMPDEST POP POP POP POP POP SWAP1 DUP1 PUSH1 0x2 ADD DUP1 SLOAD PUSH2 0x84D SWAP1 PUSH2 0x1C85 JUMP JUMPDEST DUP1 PUSH1 0x1F ADD PUSH1 0x20 DUP1 SWAP2 DIV MUL PUSH1 0x20 ADD PUSH1 0x40 MLOAD SWAP1 DUP2 ADD PUSH1 0x40 MSTORE DUP1 SWAP3 SWAP2 SWAP1 DUP2 DUP2 MSTORE PUSH1 0x20 ADD DUP3 DUP1 SLOAD PUSH2 0x879 SWAP1 PUSH2 0x1C85 JUMP JUMPDEST DUP1 ISZERO PUSH2 0x8C6 JUMPI DUP1 PUSH1 0x1F LT PUSH2 0x89B JUMPI PUSH2 0x100 DUP1 DUP4 SLOAD DIV MUL DUP4 MSTORE SWAP2 PUSH1 0x20 ADD SWAP2 PUSH2 0x8C6 JUMP JUMPDEST DUP3 ADD SWAP2 SWAP1 PUSH1 0x0 MSTORE PUSH1 0x20 PUSH1 0x0 KECCAK256 SWAP1 JUMPDEST DUP2 SLOAD DUP2 MSTORE SWAP1 PUSH1 0x1 ADD SWAP1 PUSH1 0x20 ADD DUP1 DUP4 GT PUSH2 0x8A9 JUMPI DUP3 SWAP1 SUB PUSH1 0x1F AND DUP3 ADD SWAP2 JUMPDEST POP POP POP POP POP SWAP1 DUP1 PUSH1 0x3 ADD DUP1 SLOAD PUSH2 0x8DB SWAP1 PUSH2 0x1C85 JUMP JUMPDEST DUP1 PUSH1 0x1F ADD PUSH1 0x20 DUP1 SWAP2 DIV MUL PUSH1 0x20 ADD PUSH1 0x40 MLOAD SWAP1 DUP2 ADD PUSH1 0x40 MSTORE DUP1 SWAP3 SWAP2 SWAP1 DUP2 DUP2 MSTORE PUSH1 0x20 ADD DUP3 DUP1 SLOAD PUSH2 0x907 SWAP1 PUSH2 0x1C85 JUMP JUMPDEST DUP1 ISZERO PUSH2 0x954 JUMPI DUP1 PUSH1 0x1F LT PUSH2 0x929 JUMPI PUSH2 0x100 DUP1 DUP4 SLOAD DIV MUL DUP4 MSTORE SWAP2 PUSH1 0x20 ADD SWAP2 PUSH2 0x954 JUMP JUMPDEST DUP3 ADD SWAP2 SWAP1 PUSH1 0x0 MSTORE PUSH1 0x20 PUSH1 0x0 KECCAK256 SWAP1 JUMPDEST DUP2 SLOAD DUP2 MSTORE SWAP1 PUSH1 0x1 ADD SWAP1 PUSH1 0x20 ADD DUP1 DUP4 GT PUSH2 0x937 JUMPI DUP3 SWAP1 SUB PUSH1 0x1F AND DUP3 ADD SWAP2 JUMPDEST POP POP POP POP POP SWAP1 POP DUP5 JUMP JUMPDEST PUSH1 0x1 DUP2 DUP2 SLOAD DUP2 LT PUSH2 0x96E JUMPI PUSH1 0x0 DUP1 REVERT JUMPDEST SWAP1 PUSH1 0x0 MSTORE PUSH1 0x20 PUSH1 0x0 KECCAK256 SWAP1 PUSH1 0x4 MUL ADD PUSH1 0x0 SWAP2 POP SWAP1 POP DUP1 PUSH1 0x0 ADD DUP1 SLOAD PUSH2 0x991 SWAP1 PUSH2 0x1C85 JUMP JUMPDEST DUP1 PUSH1 0x1F ADD PUSH1 0x20 DUP1 SWAP2 DIV MUL PUSH1 0x20 ADD PUSH1 0x40 MLOAD SWAP1 DUP2 ADD PUSH1 0x40 MSTORE DUP1 SWAP3 SWAP2 SWAP1 DUP2 DUP2 MSTORE PUSH1 0x20 ADD DUP3 DUP1 SLOAD PUSH2 0x9BD SWAP1 PUSH2 0x1C85 JUMP JUMPDEST DUP1 ISZERO PUSH2 0xA0A JUMPI DUP1 PUSH1 0x1F LT PUSH2 0x9DF JUMPI PUSH2 0x100 DUP1 DUP4 SLOAD DIV MUL DUP4 MSTORE SWAP2 PUSH1 0x20 ADD SWAP2 PUSH2 0xA0A JUMP JUMPDEST DUP3 ADD SWAP2 SWAP1 PUSH1 0x0 MSTORE PUSH1 0x20 PUSH1 0x0 KECCAK256 SWAP1 JUMPDEST DUP2 SLOAD DUP2 MSTORE SWAP1 PUSH1 0x1 ADD SWAP1 PUSH1 0x20 ADD DUP1 DUP4 GT PUSH2 0x9ED JUMPI DUP3 SWAP1 SUB PUSH1 0x1F AND DUP3 ADD SWAP2 JUMPDEST POP POP POP POP POP SWAP1 DUP1 PUSH1 0x1 ADD DUP1 SLOAD PUSH2 0xA1F SWAP1 PUSH2 0x1C85 JUMP JUMPDEST DUP1 PUSH1 0x1F ADD PUSH1 0x20 DUP1 SWAP2 DIV MUL PUSH1 0x20 ADD PUSH1 0x40 MLOAD SWAP1 DUP2 ADD PUSH1 0x40 MSTORE DUP1 SWAP3 SWAP2 SWAP1 DUP2 DUP2 MSTORE PUSH1 0x20 ADD DUP3 DUP1 SLOAD PUSH2 0xA4B SWAP1 PUSH2 0x1C85 JUMP JUMPDEST DUP1 ISZERO PUSH2 0xA98 JUMPI DUP1 PUSH1 0x1F LT PUSH2 0xA6D JUMPI PUSH2 0x100 DUP1 DUP4 SLOAD DIV MUL DUP4 MSTORE SWAP2 PUSH1 0x20 ADD SWAP2 PUSH2 0xA98 JUMP JUMPDEST DUP3 ADD SWAP2 SWAP1 PUSH1 0x0 MSTORE PUSH1 0x20 PUSH1 0x0 KECCAK256 SWAP1 JUMPDEST DUP2 SLOAD DUP2 MSTORE SWAP1 PUSH1 0x1 ADD SWAP1 PUSH1 0x20 ADD DUP1 DUP4 GT PUSH2 0xA7B JUMPI DUP3 SWAP1 SUB PUSH1 0x1F AND DUP3 ADD SWAP2 JUMPDEST POP POP POP POP POP SWAP1 DUP1 PUSH1 0x2 ADD DUP1 SLOAD PUSH2 0xAAD SWAP1 PUSH2 0x1C85 JUMP JUMPDEST DUP1 PUSH1 0x1F ADD PUSH1 0x20 DUP1 SWAP2 DIV MUL PUSH1 0x20 ADD PUSH1 0x40 MLOAD SWAP1 DUP2 ADD PUSH1 0x40 MSTORE DUP1 SWAP3 SWAP2 SWAP1 DUP2 DUP2 MSTORE PUSH1 0x20 ADD DUP3 DUP1 SLOAD PUSH2 0xAD9 SWAP1 PUSH2 0x1C85 JUMP JUMPDEST DUP1 ISZERO PUSH2 0xB26 JUMPI DUP1 PUSH1 0x1F LT PUSH2 0xAFB JUMPI PUSH2 0x100 DUP1 DUP4 SLOAD DIV MUL DUP4 MSTORE SWAP2 PUSH1 0x20 ADD SWAP2 PUSH2 0xB26 JUMP JUMPDEST DUP3 ADD SWAP2 SWAP1 PUSH1 0x0 MSTORE PUSH1 0x20 PUSH1 0x0 KECCAK256 SWAP1 JUMPDEST DUP2 SLOAD DUP2 MSTORE SWAP1 PUSH1 0x1 ADD SWAP1 PUSH1 0x20 ADD DUP1 DUP4 GT PUSH2 0xB09 JUMPI DUP3 SWAP1 SUB PUSH1 0x1F AND DUP3 ADD SWAP2 JUMPDEST POP POP POP POP POP SWAP1 DUP1 PUSH1 0x3 ADD DUP1 SLOAD PUSH2 0xB3B SWAP1 PUSH2 0x1C85 JUMP JUMPDEST DUP1 PUSH1 0x1F ADD PUSH1 0x20 DUP1 SWAP2 DIV MUL PUSH1 0x20 ADD PUSH1 0x40 MLOAD SWAP1 DUP2 ADD PUSH1 0x40 MSTORE DUP1 SWAP3 SWAP2 SWAP1 DUP2 DUP2 MSTORE PUSH1 0x20 ADD DUP3 DUP1 SLOAD PUSH2 0xB67 SWAP1 PUSH2 0x1C85 JUMP JUMPDEST DUP1 ISZERO PUSH2 0xBB4 JUMPI DUP1 PUSH1 0x1F LT PUSH2 0xB89 JUMPI PUSH2 0x100 DUP1 DUP4 SLOAD DIV MUL DUP4 MSTORE SWAP2 PUSH1 0x20 ADD SWAP2 PUSH2 0xBB4 JUMP JUMPDEST DUP3 ADD SWAP2 SWAP1 PUSH1 0x0 MSTORE PUSH1 0x20 PUSH1 0x0 KECCAK256 SWAP1 JUMPDEST DUP2 SLOAD DUP2 MSTORE SWAP1 PUSH1 0x1 ADD SWAP1 PUSH1 0x20 ADD DUP1 DUP4 GT PUSH2 0xB97 JUMPI DUP3 SWAP1 SUB PUSH1 0x1F AND DUP3 ADD SWAP2 JUMPDEST POP POP POP POP POP SWAP1 POP DUP5 JUMP JUMPDEST PUSH1 0x4 DUP2 DUP1 MLOAD PUSH1 0x20 DUP2 ADD DUP3 ADD DUP1 MLOAD DUP5 DUP3 MSTORE PUSH1 0x20 DUP4 ADD PUSH1 0x20 DUP6 ADD KECCAK256 DUP2 DUP4 MSTORE DUP1 SWAP6 POP POP POP POP POP POP PUSH1 0x0 SWAP2 POP SLOAD SWAP1 PUSH2 0x100 EXP SWAP1 DIV PUSH1 0xFF AND DUP2 JUMP JUMPDEST DUP1 PUSH1 0x0 DUP1 PUSH2 0x100 EXP DUP2 SLOAD DUP2 PUSH20 0xFFFFFFFFFFFFFFFFFFFFFFFFFFFFFFFFFFFFFFFF MUL NOT AND SWAP1 DUP4 PUSH20 0xFFFFFFFFFFFFFFFFFFFFFFFFFFFFFFFFFFFFFFFF AND MUL OR SWAP1 SSTORE POP POP JUMP JUMPDEST PUSH1 0x4 DUP2 PUSH1 0x40 MLOAD PUSH2 0xC47 SWAP2 SWAP1 PUSH2 0x1BD3 JUMP JUMPDEST SWAP1 DUP2 MSTORE PUSH1 0x20 ADD PUSH1 0x40 MLOAD DUP1 SWAP2 SUB SWAP1 KECCAK256 PUSH1 0x0 SWAP1 SLOAD SWAP1 PUSH2 0x100 EXP SWAP1 DIV PUSH1 0xFF AND PUSH2 0xCA2 JUMPI PUSH1 0x40 MLOAD PUSH32 0x8C379A000000000000000000000000000000000000000000000000000000000 DUP2 MSTORE PUSH1 0x4 ADD PUSH2 0xC99 SWAP1 PUSH2 0x1C36 JUMP JUMPDEST PUSH1 0x40 MLOAD DUP1 SWAP2 SUB SWAP1 REVERT JUMPDEST PUSH1 0x0 PUSH1 0x2 PUSH1 0x0 DUP6 PUSH20 0xFFFFFFFFFFFFFFFFFFFFFFFFFFFFFFFFFFFFFFFF AND PUSH20 0xFFFFFFFFFFFFFFFFFFFFFFFFFFFFFFFFFFFFFFFF AND DUP2 MSTORE PUSH1 0x20 ADD SWAP1 DUP2 MSTORE PUSH1 0x20 ADD PUSH1 0x0 KECCAK256 SWAP1 POP PUSH1 0x0 DUP1 DUP3 DUP1 SLOAD SWAP1 POP SWAP1 POP PUSH1 0x0 JUMPDEST DUP4 DUP1 SLOAD SWAP1 POP DUP2 LT ISZERO PUSH2 0xD56 JUMPI DUP5 DUP1 MLOAD SWAP1 PUSH1 0x20 ADD KECCAK256 DUP5 DUP3 DUP2 SLOAD DUP2 LT PUSH2 0xD19 JUMPI PUSH2 0xD18 PUSH2 0x1CB6 JUMP JUMPDEST JUMPDEST SWAP1 PUSH1 0x0 MSTORE PUSH1 0x20 PUSH1 0x0 KECCAK256 ADD PUSH1 0x40 MLOAD PUSH2 0xD30 SWAP2 SWAP1 PUSH2 0x1D88 JUMP JUMPDEST PUSH1 0x40 MLOAD DUP1 SWAP2 SUB SWAP1 KECCAK256 SUB PUSH2 0xD49 JUMPI DUP1 SWAP2 POP PUSH1 0x1 SWAP3 POP PUSH2 0xD56 JUMP JUMPDEST DUP1 DUP1 PUSH1 0x1 ADD SWAP2 POP POP PUSH2 0xCF2 JUMP JUMPDEST POP DUP2 PUSH2 0xD97 JUMPI PUSH1 0x40 MLOAD PUSH32 0x8C379A000000000000000000000000000000000000000000000000000000000 DUP2 MSTORE PUSH1 0x4 ADD PUSH2 0xD8E SWAP1 PUSH2 0x1DEB JUMP JUMPDEST PUSH1 0x40 MLOAD DUP1 SWAP2 SUB SWAP1 REVERT JUMPDEST DUP3 PUSH1 0x1 DUP5 DUP1 SLOAD SWAP1 POP PUSH2 0xDA9 SWAP2 SWAP1 PUSH2 0x1E3A JUMP JUMPDEST DUP2 SLOAD DUP2 LT PUSH2 0xDBA JUMPI PUSH2 0xDB9 PUSH2 0x1CB6 JUMP JUMPDEST JUMPDEST SWAP1 PUSH1 0x0 MSTORE PUSH1 0x20 PUSH1 0x0 KECCAK256 ADD DUP4 DUP3 DUP2 SLOAD DUP2 LT PUSH2 0xDD7 JUMPI PUSH2 0xDD6 PUSH2 0x1CB6 JUMP JUMPDEST JUMPDEST SWAP1 PUSH1 0x0 MSTORE PUSH1 0x20 PUSH1 0x0 KECCAK256 ADD SWAP1 DUP2 PUSH2 0xDED SWAP2 SWAP1 PUSH2 0x203B JUMP JUMPDEST POP DUP3 DUP1 SLOAD DUP1 PUSH2 0xDFF JUMPI PUSH2 0xDFE PUSH2 0x2123 JUMP JUMPDEST JUMPDEST PUSH1 0x1 SWAP1 SUB DUP2 DUP2 SWAP1 PUSH1 0x0 MSTORE PUSH1 0x20 PUSH1 0x0 KECCAK256 ADD PUSH1 0x0 PUSH2 0xE1B SWAP2 SWAP1 PUSH2 0x13BB JUMP JUMPDEST SWAP1 SSTORE PUSH1 0x2 PUSH1 0x0 DUP7 PUSH20 0xFFFFFFFFFFFFFFFFFFFFFFFFFFFFFFFFFFFFFFFF AND PUSH20 0xFFFFFFFFFFFFFFFFFFFFFFFFFFFFFFFFFFFFFFFF AND DUP2 MSTORE PUSH1 0x20 ADD SWAP1 DUP2 MSTORE PUSH1 0x20 ADD PUSH1 0x0 KECCAK256 DUP5 SWAP1 DUP1 PUSH1 0x1 DUP2 SLOAD ADD DUP1 DUP3 SSTORE DUP1 SWAP2 POP POP PUSH1 0x1 SWAP1 SUB SWAP1 PUSH1 0x0 MSTORE PUSH1 0x20 PUSH1 0x0 KECCAK256 ADD PUSH1 0x0 SWAP1 SWAP2 SWAP1 SWAP2 SWAP1 SWAP2 POP SWAP1 DUP2 PUSH2 0xE8E SWAP2 SWAP1 PUSH2 0x2152 JUMP JUMPDEST POP PUSH1 0x3 DUP5 PUSH1 0x40 MLOAD PUSH2 0xE9F SWAP2 SWAP1 PUSH2 0x1BD3 JUMP JUMPDEST SWAP1 DUP2 MSTORE PUSH1 0x20 ADD PUSH1 0x40 MLOAD DUP1 SWAP2 SUB SWAP1 KECCAK256 PUSH1 0x40 MLOAD DUP1 PUSH1 0x40 ADD PUSH1 0x40 MSTORE DUP1 DUP8 PUSH20 0xFFFFFFFFFFFFFFFFFFFFFFFFFFFFFFFFFFFFFFFF AND DUP2 MSTORE PUSH1 0x20 ADD TIMESTAMP DUP2 MSTORE POP SWAP1 DUP1 PUSH1 0x1 DUP2 SLOAD ADD DUP1 DUP3 SSTORE DUP1 SWAP2 POP POP PUSH1 0x1 SWAP1 SUB SWAP1 PUSH1 0x0 MSTORE PUSH1 0x20 PUSH1 0x0 KECCAK256 SWAP1 PUSH1 0x2 MUL ADD PUSH1 0x0 SWAP1 SWAP2 SWAP1 SWAP2 SWAP1 SWAP2 POP PUSH1 0x0 DUP3 ADD MLOAD DUP2 PUSH1 0x0 ADD PUSH1 0x0 PUSH2 0x100 EXP DUP2 SLOAD DUP2 PUSH20 0xFFFFFFFFFFFFFFFFFFFFFFFFFFFFFFFFFFFFFFFF MUL NOT AND SWAP1 DUP4 PUSH20 0xFFFFFFFFFFFFFFFFFFFFFFFFFFFFFFFFFFFFFFFF AND MUL OR SWAP1 SSTORE POP PUSH1 0x20 DUP3 ADD MLOAD DUP2 PUSH1 0x1 ADD SSTORE POP POP PUSH32 0xF1A45FA7F75BD961B42F13B6AA3442145DB6A280FA2E9743042B26B08626C3E7 PUSH1 0x5 DUP6 PUSH1 0x40 MLOAD PUSH2 0xF85 SWAP2 SWAP1 PUSH2 0x1BD3 JUMP JUMPDEST SWAP1 DUP2 MSTORE PUSH1 0x20 ADD PUSH1 0x40 MLOAD DUP1 SWAP2 SUB SWAP1 KECCAK256 PUSH1 0x0 ADD PUSH1 0x5 DUP7 PUSH1 0x40 MLOAD PUSH2 0xFA6 SWAP2 SWAP1 PUSH2 0x1BD3 JUMP JUMPDEST SWAP1 DUP2 MSTORE PUSH1 0x20 ADD PUSH1 0x40 MLOAD DUP1 SWAP2 SUB SWAP1 KECCAK256 PUSH1 0x1 ADD DUP7 DUP9 DUP11 TIMESTAMP PUSH1 0x40 MLOAD PUSH2 0xFCD SWAP7 SWAP6 SWAP5 SWAP4 SWAP3 SWAP2 SWAP1 PUSH2 0x22A8 JUMP JUMPDEST PUSH1 0x40 MLOAD DUP1 SWAP2 SUB SWAP1 LOG1 POP POP POP POP POP POP JUMP JUMPDEST PUSH1 0x4 DUP3 PUSH1 0x40 MLOAD PUSH2 0xFED SWAP2 SWAP1 PUSH2 0x1BD3 JUMP JUMPDEST SWAP1 DUP2 MSTORE PUSH1 0x20 ADD PUSH1 0x40 MLOAD DUP1 SWAP2 SUB SWAP1 KECCAK256 PUSH1 0x0 SWAP1 SLOAD SWAP1 PUSH2 0x100 EXP SWAP1 DIV PUSH1 0xFF AND ISZERO PUSH2 0x1049 JUMPI PUSH1 0x40 MLOAD PUSH32 0x8C379A000000000000000000000000000000000000000000000000000000000 DUP2 MSTORE PUSH1 0x4 ADD PUSH2 0x1040 SWAP1 PUSH2 0x2390 JUMP JUMPDEST PUSH1 0x40 MLOAD DUP1 SWAP2 SUB SWAP1 REVERT JUMPDEST PUSH1 0x0 PUSH1 0x40 MLOAD DUP1 PUSH1 0x80 ADD PUSH1 0x40 MSTORE DUP1 DUP7 DUP2 MSTORE PUSH1 0x20 ADD DUP6 DUP2 MSTORE PUSH1 0x20 ADD DUP5 DUP2 MSTORE PUSH1 0x20 ADD DUP4 DUP2 MSTORE POP SWAP1 POP PUSH1 0x1 DUP2 SWAP1 DUP1 PUSH1 0x1 DUP2 SLOAD ADD DUP1 DUP3 SSTORE DUP1 SWAP2 POP POP PUSH1 0x1 SWAP1 SUB SWAP1 PUSH1 0x0 MSTORE PUSH1 0x20 PUSH1 0x0 KECCAK256 SWAP1 PUSH1 0x4 MUL ADD PUSH1 0x0 SWAP1 SWAP2 SWAP1 SWAP2 SWAP1 SWAP2 POP PUSH1 0x0 DUP3 ADD MLOAD DUP2 PUSH1 0x0 ADD SWAP1 DUP2 PUSH2 0x10AF SWAP2 SWAP1 PUSH2 0x2152 JUMP JUMPDEST POP PUSH1 0x20 DUP3 ADD MLOAD DUP2 PUSH1 0x1 ADD SWAP1 DUP2 PUSH2 0x10C5 SWAP2 SWAP1 PUSH2 0x2152 JUMP JUMPDEST POP PUSH1 0x40 DUP3 ADD MLOAD DUP2 PUSH1 0x2 ADD SWAP1 DUP2 PUSH2 0x10DB SWAP2 SWAP1 PUSH2 0x2152 JUMP JUMPDEST POP PUSH1 0x60 DUP3 ADD MLOAD DUP2 PUSH1 0x3 ADD SWAP1 DUP2 PUSH2 0x10F1 SWAP2 SWAP1 PUSH2 0x2152 JUMP JUMPDEST POP POP POP DUP1 PUSH1 0x5 DUP5 PUSH1 0x40 MLOAD PUSH2 0x1105 SWAP2 SWAP1 PUSH2 0x1BD3 JUMP JUMPDEST SWAP1 DUP2 MSTORE PUSH1 0x20 ADD PUSH1 0x40 MLOAD DUP1 SWAP2 SUB SWAP1 KECCAK256 PUSH1 0x0 DUP3 ADD MLOAD DUP2 PUSH1 0x0 ADD SWAP1 DUP2 PUSH2 0x1128 SWAP2 SWAP1 PUSH2 0x2152 JUMP JUMPDEST POP PUSH1 0x20 DUP3 ADD MLOAD DUP2 PUSH1 0x1 ADD SWAP1 DUP2 PUSH2 0x113E SWAP2 SWAP1 PUSH2 0x2152 JUMP JUMPDEST POP PUSH1 0x40 DUP3 ADD MLOAD DUP2 PUSH1 0x2 ADD SWAP1 DUP2 PUSH2 0x1154 SWAP2 SWAP1 PUSH2 0x2152 JUMP JUMPDEST POP PUSH1 0x60 DUP3 ADD MLOAD DUP2 PUSH1 0x3 ADD SWAP1 DUP2 PUSH2 0x116A SWAP2 SWAP1 PUSH2 0x2152 JUMP JUMPDEST POP SWAP1 POP POP PUSH1 0x1 PUSH1 0x4 DUP5 PUSH1 0x40 MLOAD PUSH2 0x1180 SWAP2 SWAP1 PUSH2 0x1BD3 JUMP JUMPDEST SWAP1 DUP2 MSTORE PUSH1 0x20 ADD PUSH1 0x40 MLOAD DUP1 SWAP2 SUB SWAP1 KECCAK256 PUSH1 0x0 PUSH2 0x100 EXP DUP2 SLOAD DUP2 PUSH1 0xFF MUL NOT AND SWAP1 DUP4 ISZERO ISZERO MUL OR SWAP1 SSTORE POP PUSH1 0x2 PUSH1 0x0 DUP8 PUSH20 0xFFFFFFFFFFFFFFFFFFFFFFFFFFFFFFFFFFFFFFFF AND PUSH20 0xFFFFFFFFFFFFFFFFFFFFFFFFFFFFFFFFFFFFFFFF AND DUP2 MSTORE PUSH1 0x20 ADD SWAP1 DUP2 MSTORE PUSH1 0x20 ADD PUSH1 0x0 KECCAK256 DUP4 SWAP1 DUP1 PUSH1 0x1 DUP2 SLOAD ADD DUP1 DUP3 SSTORE DUP1 SWAP2 POP POP PUSH1 0x1 SWAP1 SUB SWAP1 PUSH1 0x0 MSTORE PUSH1 0x20 PUSH1 0x0 KECCAK256 ADD PUSH1 0x0 SWAP1 SWAP2 SWAP1 SWAP2 SWAP1 SWAP2 POP SWAP1 DUP2 PUSH2 0x1216 SWAP2 SWAP1 PUSH2 0x2152 JUMP JUMPDEST POP PUSH1 0x3 DUP4 PUSH1 0x40 MLOAD PUSH2 0x1227 SWAP2 SWAP1 PUSH2 0x1BD3 JUMP JUMPDEST SWAP1 DUP2 MSTORE PUSH1 0x20 ADD PUSH1 0x40 MLOAD DUP1 SWAP2 SUB SWAP1 KECCAK256 PUSH1 0x40 MLOAD DUP1 PUSH1 0x40 ADD PUSH1 0x40 MSTORE DUP1 DUP9 PUSH20 0xFFFFFFFFFFFFFFFFFFFFFFFFFFFFFFFFFFFFFFFF AND DUP2 MSTORE PUSH1 0x20 ADD TIMESTAMP DUP2 MSTORE POP SWAP1 DUP1 PUSH1 0x1 DUP2 SLOAD ADD DUP1 DUP3 SSTORE DUP1 SWAP2 POP POP PUSH1 0x1 SWAP1 SUB SWAP1 PUSH1 0x0 MSTORE PUSH1 0x20 PUSH1 0x0 KECCAK256 SWAP1 PUSH1 0x2 MUL ADD PUSH1 0x0 SWAP1 SWAP2 SWAP1 SWAP2 SWAP1 SWAP2 POP PUSH1 0x0 DUP3 ADD MLOAD DUP2 PUSH1 0x0 ADD PUSH1 0x0 PUSH2 0x100 EXP DUP2 SLOAD DUP2 PUSH20 0xFFFFFFFFFFFFFFFFFFFFFFFFFFFFFFFFFFFFFFFF MUL NOT AND SWAP1 DUP4 PUSH20 0xFFFFFFFFFFFFFFFFFFFFFFFFFFFFFFFFFFFFFFFF AND MUL OR SWAP1 SSTORE POP PUSH1 0x20 DUP3 ADD MLOAD DUP2 PUSH1 0x1 ADD SSTORE POP POP PUSH32 0x1C6DD0DF93E82ABA12C0D62842D917C64DBEFD30F23B8628E4908641D03775DD DUP7 DUP7 DUP7 DUP7 DUP7 PUSH1 0x40 MLOAD PUSH2 0x1313 SWAP6 SWAP5 SWAP4 SWAP3 SWAP2 SWAP1 PUSH2 0x23B0 JUMP JUMPDEST PUSH1 0x40 MLOAD DUP1 SWAP2 SUB SWAP1 LOG1 POP POP POP POP POP POP JUMP JUMPDEST PUSH1 0x0 DUP1 SLOAD SWAP1 PUSH2 0x100 EXP SWAP1 DIV PUSH20 0xFFFFFFFFFFFFFFFFFFFFFFFFFFFFFFFFFFFFFFFF AND DUP2 JUMP JUMPDEST PUSH1 0x0 PUSH1 0x2 PUSH1 0x0 DUP4 PUSH20 0xFFFFFFFFFFFFFFFFFFFFFFFFFFFFFFFFFFFFFFFF AND PUSH20 0xFFFFFFFFFFFFFFFFFFFFFFFFFFFFFFFFFFFFFFFF AND DUP2 MSTORE PUSH1 0x20 ADD SWAP1 DUP2 MSTORE PUSH1 0x20 ADD PUSH1 0x0 KECCAK256 DUP1 SLOAD SWAP1 POP SWAP1 POP SWAP2 SWAP1 POP JUMP JUMPDEST PUSH1 0x40 MLOAD DUP1 PUSH1 0x80 ADD PUSH1 0x40 MSTORE DUP1 PUSH1 0x60 DUP2 MSTORE PUSH1 0x20 ADD PUSH1 0x60 DUP2 MSTORE PUSH1 0x20 ADD PUSH1 0x60 DUP2 MSTORE PUSH1 0x20 ADD PUSH1 0x60 DUP2 MSTORE POP SWAP1 JUMP JUMPDEST POP DUP1 SLOAD PUSH2 0x13C7 SWAP1 PUSH2 0x1C85 JUMP JUMPDEST PUSH1 0x0 DUP3 SSTORE DUP1 PUSH1 0x1F LT PUSH2 0x13D9 JUMPI POP PUSH2 0x13F8 JUMP JUMPDEST PUSH1 0x1F ADD PUSH1 0x20 SWAP1 DIV SWAP1 PUSH1 0x0 MSTORE PUSH1 0x20 PUSH1 0x0 KECCAK256 SWAP1 DUP2 ADD SWAP1 PUSH2 0x13F7 SWAP2 SWAP1 PUSH2 0x13FB JUMP JUMPDEST JUMPDEST POP JUMP JUMPDEST JUMPDEST DUP1 DUP3 GT ISZERO PUSH2 0x1414 JUMPI PUSH1 0x0 DUP2 PUSH1 0x0 SWAP1 SSTORE POP PUSH1 0x1 ADD PUSH2 0x13FC JUMP JUMPDEST POP SWAP1 JUMP JUMPDEST PUSH1 0x0 PUSH1 0x40 MLOAD SWAP1 POP SWAP1 JUMP JUMPDEST PUSH1 0x0 DUP1 REVERT JUMPDEST PUSH1 0x0 DUP1 REVERT JUMPDEST PUSH1 0x0 DUP1 REVERT JUMPDEST PUSH1 0x0 DUP1 REVERT JUMPDEST PUSH1 0x0 PUSH1 0x1F NOT PUSH1 0x1F DUP4 ADD AND SWAP1 POP SWAP2 SWAP1 POP JUMP JUMPDEST PUSH32 0x4E487B7100000000000000000000000000000000000000000000000000000000 PUSH1 0x0 MSTORE PUSH1 0x41 PUSH1 0x4 MSTORE PUSH1 0x24 PUSH1 0x0 REVERT JUMPDEST PUSH2 0x147F DUP3 PUSH2 0x1436 JUMP JUMPDEST DUP2 ADD DUP2 DUP2 LT PUSH8 0xFFFFFFFFFFFFFFFF DUP3 GT OR ISZERO PUSH2 0x149E JUMPI PUSH2 0x149D PUSH2 0x1447 JUMP JUMPDEST JUMPDEST DUP1 PUSH1 0x40 MSTORE POP POP POP JUMP JUMPDEST PUSH1 0x0 PUSH2 0x14B1 PUSH2 0x1418 JUMP JUMPDEST SWAP1 POP PUSH2 0x14BD DUP3 DUP3 PUSH2 0x1476 JUMP JUMPDEST SWAP2 SWAP1 POP JUMP JUMPDEST PUSH1 0x0 PUSH8 0xFFFFFFFFFFFFFFFF DUP3 GT ISZERO PUSH2 0x14DD JUMPI PUSH2 0x14DC PUSH2 0x1447 JUMP JUMPDEST JUMPDEST PUSH2 0x14E6 DUP3 PUSH2 0x1436 JUMP JUMPDEST SWAP1 POP PUSH1 0x20 DUP2 ADD SWAP1 POP SWAP2 SWAP1 POP JUMP JUMPDEST DUP3 DUP2 DUP4 CALLDATACOPY PUSH1 0x0 DUP4 DUP4 ADD MSTORE POP POP POP JUMP JUMPDEST PUSH1 0x0 PUSH2 0x1515 PUSH2 0x1510 DUP5 PUSH2 0x14C2 JUMP JUMPDEST PUSH2 0x14A7 JUMP JUMPDEST SWAP1 POP DUP3 DUP2 MSTORE PUSH1 0x20 DUP2 ADD DUP5 DUP5 DUP5 ADD GT ISZERO PUSH2 0x1531 JUMPI PUSH2 0x1530 PUSH2 0x1431 JUMP JUMPDEST JUMPDEST PUSH2 0x153C DUP5 DUP3 DUP6 PUSH2 0x14F3 JUMP JUMPDEST POP SWAP4 SWAP3 POP POP POP JUMP JUMPDEST PUSH1 0x0 DUP3 PUSH1 0x1F DUP4 ADD SLT PUSH2 0x1559 JUMPI PUSH2 0x1558 PUSH2 0x142C JUMP JUMPDEST JUMPDEST DUP2 CALLDATALOAD PUSH2 0x1569 DUP5 DUP3 PUSH1 0x20 DUP7 ADD PUSH2 0x1502 JUMP JUMPDEST SWAP2 POP POP SWAP3 SWAP2 POP POP JUMP JUMPDEST PUSH1 0x0 DUP2 SWAP1 POP SWAP2 SWAP1 POP JUMP JUMPDEST PUSH2 0x1585 DUP2 PUSH2 0x1572 JUMP JUMPDEST DUP2 EQ PUSH2 0x1590 JUMPI PUSH1 0x0 DUP1 REVERT JUMPDEST POP JUMP JUMPDEST PUSH1 0x0 DUP2 CALLDATALOAD SWAP1 POP PUSH2 0x15A2 DUP2 PUSH2 0x157C JUMP JUMPDEST SWAP3 SWAP2 POP POP JUMP JUMPDEST PUSH1 0x0 DUP1 PUSH1 0x40 DUP4 DUP6 SUB SLT ISZERO PUSH2 0x15BF JUMPI PUSH2 0x15BE PUSH2 0x1422 JUMP JUMPDEST JUMPDEST PUSH1 0x0 DUP4 ADD CALLDATALOAD PUSH8 0xFFFFFFFFFFFFFFFF DUP2 GT ISZERO PUSH2 0x15DD JUMPI PUSH2 0x15DC PUSH2 0x1427 JUMP JUMPDEST JUMPDEST PUSH2 0x15E9 DUP6 DUP3 DUP7 ADD PUSH2 0x1544 JUMP JUMPDEST SWAP3 POP POP PUSH1 0x20 PUSH2 0x15FA DUP6 DUP3 DUP7 ADD PUSH2 0x1593 JUMP JUMPDEST SWAP2 POP POP SWAP3 POP SWAP3 SWAP1 POP JUMP JUMPDEST PUSH1 0x0 PUSH20 0xFFFFFFFFFFFFFFFFFFFFFFFFFFFFFFFFFFFFFFFF DUP3 AND SWAP1 POP SWAP2 SWAP1 POP JUMP JUMPDEST PUSH1 0x0 PUSH2 0x162F DUP3 PUSH2 0x1604 JUMP JUMPDEST SWAP1 POP SWAP2 SWAP1 POP JUMP JUMPDEST PUSH2 0x163F DUP2 PUSH2 0x1624 JUMP JUMPDEST DUP3 MSTORE POP POP JUMP JUMPDEST PUSH2 0x164E DUP2 PUSH2 0x1572 JUMP JUMPDEST DUP3 MSTORE POP POP JUMP JUMPDEST PUSH1 0x0 PUSH1 0x40 DUP3 ADD SWAP1 POP PUSH2 0x1669 PUSH1 0x0 DUP4 ADD DUP6 PUSH2 0x1636 JUMP JUMPDEST PUSH2 0x1676 PUSH1 0x20 DUP4 ADD DUP5 PUSH2 0x1645 JUMP JUMPDEST SWAP4 SWAP3 POP POP POP JUMP JUMPDEST PUSH1 0x0 PUSH1 0x20 DUP3 DUP5 SUB SLT ISZERO PUSH2 0x1693 JUMPI PUSH2 0x1692 PUSH2 0x1422 JUMP JUMPDEST JUMPDEST PUSH1 0x0 DUP3 ADD CALLDATALOAD PUSH8 0xFFFFFFFFFFFFFFFF DUP2 GT ISZERO PUSH2 0x16B1 JUMPI PUSH2 0x16B0 PUSH2 0x1427 JUMP JUMPDEST JUMPDEST PUSH2 0x16BD DUP5 DUP3 DUP6 ADD PUSH2 0x1544 JUMP JUMPDEST SWAP2 POP POP SWAP3 SWAP2 POP POP JUMP JUMPDEST PUSH1 0x0 PUSH1 0x20 DUP3 ADD SWAP1 POP PUSH2 0x16DB PUSH1 0x0 DUP4 ADD DUP5 PUSH2 0x1645 JUMP JUMPDEST SWAP3 SWAP2 POP POP JUMP JUMPDEST PUSH1 0x0 DUP2 MLOAD SWAP1 POP SWAP2 SWAP1 POP JUMP JUMPDEST PUSH1 0x0 DUP3 DUP3 MSTORE PUSH1 0x20 DUP3 ADD SWAP1 POP SWAP3 SWAP2 POP POP JUMP JUMPDEST PUSH1 0x0 JUMPDEST DUP4 DUP2 LT ISZERO PUSH2 0x171B JUMPI DUP1 DUP3 ADD MLOAD DUP2 DUP5 ADD MSTORE PUSH1 0x20 DUP2 ADD SWAP1 POP PUSH2 0x1700 JUMP JUMPDEST PUSH1 0x0 DUP5 DUP5 ADD MSTORE POP POP POP POP JUMP JUMPDEST PUSH1 0x0 PUSH2 0x1732 DUP3 PUSH2 0x16E1 JUMP JUMPDEST PUSH2 0x173C DUP2 DUP6 PUSH2 0x16EC JUMP JUMPDEST SWAP4 POP PUSH2 0x174C DUP2 DUP6 PUSH1 0x20 DUP7 ADD PUSH2 0x16FD JUMP JUMPDEST PUSH2 0x1755 DUP2 PUSH2 0x1436 JUMP JUMPDEST DUP5 ADD SWAP2 POP POP SWAP3 SWAP2 POP POP JUMP JUMPDEST PUSH1 0x0 PUSH1 0x80 DUP4 ADD PUSH1 0x0 DUP4 ADD MLOAD DUP5 DUP3 SUB PUSH1 0x0 DUP7 ADD MSTORE PUSH2 0x177D DUP3 DUP3 PUSH2 0x1727 JUMP JUMPDEST SWAP2 POP POP PUSH1 0x20 DUP4 ADD MLOAD DUP5 DUP3 SUB PUSH1 0x20 DUP7 ADD MSTORE PUSH2 0x1797 DUP3 DUP3 PUSH2 0x1727 JUMP JUMPDEST SWAP2 POP POP PUSH1 0x40 DUP4 ADD MLOAD DUP5 DUP3 SUB PUSH1 0x40 DUP7 ADD MSTORE PUSH2 0x17B1 DUP3 DUP3 PUSH2 0x1727 JUMP JUMPDEST SWAP2 POP POP PUSH1 0x60 DUP4 ADD MLOAD DUP5 DUP3 SUB PUSH1 0x60 DUP7 ADD MSTORE PUSH2 0x17CB DUP3 DUP3 PUSH2 0x1727 JUMP JUMPDEST SWAP2 POP POP DUP1 SWAP2 POP POP SWAP3 SWAP2 POP POP JUMP JUMPDEST PUSH1 0x0 PUSH1 0x20 DUP3 ADD SWAP1 POP DUP2 DUP2 SUB PUSH1 0x0 DUP4 ADD MSTORE PUSH2 0x17F2 DUP2 DUP5 PUSH2 0x1760 JUMP JUMPDEST SWAP1 POP SWAP3 SWAP2 POP POP JUMP JUMPDEST PUSH2 0x1803 DUP2 PUSH2 0x1624 JUMP JUMPDEST DUP2 EQ PUSH2 0x180E JUMPI PUSH1 0x0 DUP1 REVERT JUMPDEST POP JUMP JUMPDEST PUSH1 0x0 DUP2 CALLDATALOAD SWAP1 POP PUSH2 0x1820 DUP2 PUSH2 0x17FA JUMP JUMPDEST SWAP3 SWAP2 POP POP JUMP JUMPDEST PUSH1 0x0 DUP1 PUSH1 0x40 DUP4 DUP6 SUB SLT ISZERO PUSH2 0x183D JUMPI PUSH2 0x183C PUSH2 0x1422 JUMP JUMPDEST JUMPDEST PUSH1 0x0 PUSH2 0x184B DUP6 DUP3 DUP7 ADD PUSH2 0x1811 JUMP JUMPDEST SWAP3 POP POP PUSH1 0x20 PUSH2 0x185C DUP6 DUP3 DUP7 ADD PUSH2 0x1593 JUMP JUMPDEST SWAP2 POP POP SWAP3 POP SWAP3 SWAP1 POP JUMP JUMPDEST PUSH1 0x0 DUP3 DUP3 MSTORE PUSH1 0x20 DUP3 ADD SWAP1 POP SWAP3 SWAP2 POP POP JUMP JUMPDEST PUSH1 0x0 PUSH2 0x1882 DUP3 PUSH2 0x16E1 JUMP JUMPDEST PUSH2 0x188C DUP2 DUP6 PUSH2 0x1866 JUMP JUMPDEST SWAP4 POP PUSH2 0x189C DUP2 DUP6 PUSH1 0x20 DUP7 ADD PUSH2 0x16FD JUMP JUMPDEST PUSH2 0x18A5 DUP2 PUSH2 0x1436 JUMP JUMPDEST DUP5 ADD SWAP2 POP POP SWAP3 SWAP2 POP POP JUMP JUMPDEST PUSH1 0x0 PUSH1 0x20 DUP3 ADD SWAP1 POP DUP2 DUP2 SUB PUSH1 0x0 DUP4 ADD MSTORE PUSH2 0x18CA DUP2 DUP5 PUSH2 0x1877 JUMP JUMPDEST SWAP1 POP SWAP3 SWAP2 POP POP JUMP JUMPDEST PUSH1 0x0 PUSH1 0x80 DUP3 ADD SWAP1 POP DUP2 DUP2 SUB PUSH1 0x0 DUP4 ADD MSTORE PUSH2 0x18EC DUP2 DUP8 PUSH2 0x1877 JUMP JUMPDEST SWAP1 POP DUP2 DUP2 SUB PUSH1 0x20 DUP4 ADD MSTORE PUSH2 0x1900 DUP2 DUP7 PUSH2 0x1877 JUMP JUMPDEST SWAP1 POP DUP2 DUP2 SUB PUSH1 0x40 DUP4 ADD MSTORE PUSH2 0x1914 DUP2 DUP6 PUSH2 0x1877 JUMP JUMPDEST SWAP1 POP DUP2 DUP2 SUB PUSH1 0x60 DUP4 ADD MSTORE PUSH2 0x1928 DUP2 DUP5 PUSH2 0x1877 JUMP JUMPDEST SWAP1 POP SWAP6 SWAP5 POP POP POP POP POP JUMP JUMPDEST PUSH1 0x0 PUSH1 0x20 DUP3 DUP5 SUB SLT ISZERO PUSH2 0x1949 JUMPI PUSH2 0x1948 PUSH2 0x1422 JUMP JUMPDEST JUMPDEST PUSH1 0x0 PUSH2 0x1957 DUP5 DUP3 DUP6 ADD PUSH2 0x1593 JUMP JUMPDEST SWAP2 POP POP SWAP3 SWAP2 POP POP JUMP JUMPDEST PUSH1 0x0 DUP2 ISZERO ISZERO SWAP1 POP SWAP2 SWAP1 POP JUMP JUMPDEST PUSH2 0x1975 DUP2 PUSH2 0x1960 JUMP JUMPDEST DUP3 MSTORE POP POP JUMP JUMPDEST PUSH1 0x0 PUSH1 0x20 DUP3 ADD SWAP1 POP PUSH2 0x1990 PUSH1 0x0 DUP4 ADD DUP5 PUSH2 0x196C JUMP JUMPDEST SWAP3 SWAP2 POP POP JUMP JUMPDEST PUSH1 0x0 PUSH1 0x20 DUP3 DUP5 SUB SLT ISZERO PUSH2 0x19AC JUMPI PUSH2 0x19AB PUSH2 0x1422 JUMP JUMPDEST JUMPDEST PUSH1 0x0 PUSH2 0x19BA DUP5 DUP3 DUP6 ADD PUSH2 0x1811 JUMP JUMPDEST SWAP2 POP POP SWAP3 SWAP2 POP POP JUMP JUMPDEST PUSH1 0x0 DUP1 PUSH1 0x0 PUSH1 0x60 DUP5 DUP7 SUB SLT ISZERO PUSH2 0x19DC JUMPI PUSH2 0x19DB PUSH2 0x1422 JUMP JUMPDEST JUMPDEST PUSH1 0x0 PUSH2 0x19EA DUP7 DUP3 DUP8 ADD PUSH2 0x1811 JUMP JUMPDEST SWAP4 POP POP PUSH1 0x20 PUSH2 0x19FB DUP7 DUP3 DUP8 ADD PUSH2 0x1811 JUMP JUMPDEST SWAP3 POP POP PUSH1 0x40 DUP5 ADD CALLDATALOAD PUSH8 0xFFFFFFFFFFFFFFFF DUP2 GT ISZERO PUSH2 0x1A1C JUMPI PUSH2 0x1A1B PUSH2 0x1427 JUMP JUMPDEST JUMPDEST PUSH2 0x1A28 DUP7 DUP3 DUP8 ADD PUSH2 0x1544 JUMP JUMPDEST SWAP2 POP POP SWAP3 POP SWAP3 POP SWAP3 JUMP JUMPDEST PUSH1 0x0 DUP1 PUSH1 0x0 DUP1 PUSH1 0x0 PUSH1 0xA0 DUP7 DUP9 SUB SLT ISZERO PUSH2 0x1A4E JUMPI PUSH2 0x1A4D PUSH2 0x1422 JUMP JUMPDEST JUMPDEST PUSH1 0x0 PUSH2 0x1A5C DUP9 DUP3 DUP10 ADD PUSH2 0x1811 JUMP JUMPDEST SWAP6 POP POP PUSH1 0x20 DUP7 ADD CALLDATALOAD PUSH8 0xFFFFFFFFFFFFFFFF DUP2 GT ISZERO PUSH2 0x1A7D JUMPI PUSH2 0x1A7C PUSH2 0x1427 JUMP JUMPDEST JUMPDEST PUSH2 0x1A89 DUP9 DUP3 DUP10 ADD PUSH2 0x1544 JUMP JUMPDEST SWAP5 POP POP PUSH1 0x40 DUP7 ADD CALLDATALOAD PUSH8 0xFFFFFFFFFFFFFFFF DUP2 GT ISZERO PUSH2 0x1AAA JUMPI PUSH2 0x1AA9 PUSH2 0x1427 JUMP JUMPDEST JUMPDEST PUSH2 0x1AB6 DUP9 DUP3 DUP10 ADD PUSH2 0x1544 JUMP JUMPDEST SWAP4 POP POP PUSH1 0x60 DUP7 ADD CALLDATALOAD PUSH8 0xFFFFFFFFFFFFFFFF DUP2 GT ISZERO PUSH2 0x1AD7 JUMPI PUSH2 0x1AD6 PUSH2 0x1427 JUMP JUMPDEST JUMPDEST PUSH2 0x1AE3 DUP9 DUP3 DUP10 ADD PUSH2 0x1544 JUMP JUMPDEST SWAP3 POP POP PUSH1 0x80 DUP7 ADD CALLDATALOAD PUSH8 0xFFFFFFFFFFFFFFFF DUP2 GT ISZERO PUSH2 0x1B04 JUMPI PUSH2 0x1B03 PUSH2 0x1427 JUMP JUMPDEST JUMPDEST PUSH2 0x1B10 DUP9 DUP3 DUP10 ADD PUSH2 0x1544 JUMP JUMPDEST SWAP2 POP POP SWAP3 SWAP6 POP SWAP3 SWAP6 SWAP1 SWAP4 POP JUMP JUMPDEST PUSH1 0x0 DUP2 SWAP1 POP SWAP2 SWAP1 POP JUMP JUMPDEST PUSH1 0x0 PUSH2 0x1B42 PUSH2 0x1B3D PUSH2 0x1B38 DUP5 PUSH2 0x1604 JUMP JUMPDEST PUSH2 0x1B1D JUMP JUMPDEST PUSH2 0x1604 JUMP JUMPDEST SWAP1 POP SWAP2 SWAP1 POP JUMP JUMPDEST PUSH1 0x0 PUSH2 0x1B54 DUP3 PUSH2 0x1B27 JUMP JUMPDEST SWAP1 POP SWAP2 SWAP1 POP JUMP JUMPDEST PUSH1 0x0 PUSH2 0x1B66 DUP3 PUSH2 0x1B49 JUMP JUMPDEST SWAP1 POP SWAP2 SWAP1 POP JUMP JUMPDEST PUSH2 0x1B76 DUP2 PUSH2 0x1B5B JUMP JUMPDEST DUP3 MSTORE POP POP JUMP JUMPDEST PUSH1 0x0 PUSH1 0x20 DUP3 ADD SWAP1 POP PUSH2 0x1B91 PUSH1 0x0 DUP4 ADD DUP5 PUSH2 0x1B6D JUMP JUMPDEST SWAP3 SWAP2 POP POP JUMP JUMPDEST PUSH1 0x0 DUP2 SWAP1 POP SWAP3 SWAP2 POP POP JUMP JUMPDEST PUSH1 0x0 PUSH2 0x1BAD DUP3 PUSH2 0x16E1 JUMP JUMPDEST PUSH2 0x1BB7 DUP2 DUP6 PUSH2 0x1B97 JUMP JUMPDEST SWAP4 POP PUSH2 0x1BC7 DUP2 DUP6 PUSH1 0x20 DUP7 ADD PUSH2 0x16FD JUMP JUMPDEST DUP1 DUP5 ADD SWAP2 POP POP SWAP3 SWAP2 POP POP JUMP JUMPDEST PUSH1 0x0 PUSH2 0x1BDF DUP3 DUP5 PUSH2 0x1BA2 JUMP JUMPDEST SWAP2 POP DUP2 SWAP1 POP SWAP3 SWAP2 POP POP JUMP JUMPDEST PUSH32 0x50726F64756374206E6F7420666F756E64000000000000000000000000000000 PUSH1 0x0 DUP3 ADD MSTORE POP JUMP JUMPDEST PUSH1 0x0 PUSH2 0x1C20 PUSH1 0x11 DUP4 PUSH2 0x1866 JUMP JUMPDEST SWAP2 POP PUSH2 0x1C2B DUP3 PUSH2 0x1BEA JUMP JUMPDEST PUSH1 0x20 DUP3 ADD SWAP1 POP SWAP2 SWAP1 POP JUMP JUMPDEST PUSH1 0x0 PUSH1 0x20 DUP3 ADD SWAP1 POP DUP2 DUP2 SUB PUSH1 0x0 DUP4 ADD MSTORE PUSH2 0x1C4F DUP2 PUSH2 0x1C13 JUMP JUMPDEST SWAP1 POP SWAP2 SWAP1 POP JUMP JUMPDEST PUSH32 0x4E487B7100000000000000000000000000000000000000000000000000000000 PUSH1 0x0 MSTORE PUSH1 0x22 PUSH1 0x4 MSTORE PUSH1 0x24 PUSH1 0x0 REVERT JUMPDEST PUSH1 0x0 PUSH1 0x2 DUP3 DIV SWAP1 POP PUSH1 0x1 DUP3 AND DUP1 PUSH2 0x1C9D JUMPI PUSH1 0x7F DUP3 AND SWAP2 POP JUMPDEST PUSH1 0x20 DUP3 LT DUP2 SUB PUSH2 0x1CB0 JUMPI PUSH2 0x1CAF PUSH2 0x1C56 JUMP JUMPDEST JUMPDEST POP SWAP2 SWAP1 POP JUMP JUMPDEST PUSH32 0x4E487B7100000000000000000000000000000000000000000000000000000000 PUSH1 0x0 MSTORE PUSH1 0x32 PUSH1 0x4 MSTORE PUSH1 0x24 PUSH1 0x0 REVERT JUMPDEST PUSH1 0x0 DUP2 SWAP1 POP SWAP3 SWAP2 POP POP JUMP JUMPDEST PUSH1 0x0 DUP2 SWAP1 POP DUP2 PUSH1 0x0 MSTORE PUSH1 0x20 PUSH1 0x0 KECCAK256 SWAP1 POP SWAP2 SWAP1 POP JUMP JUMPDEST PUSH1 0x0 DUP2 SLOAD PUSH2 0x1D12 DUP2 PUSH2 0x1C85 JUMP JUMPDEST PUSH2 0x1D1C DUP2 DUP7 PUSH2 0x1CE5 JUMP JUMPDEST SWAP5 POP PUSH1 0x1 DUP3 AND PUSH1 0x0 DUP2 EQ PUSH2 0x1D37 JUMPI PUSH1 0x1 DUP2 EQ PUSH2 0x1D4C JUMPI PUSH2 0x1D7F JUMP JUMPDEST PUSH1 0xFF NOT DUP4 AND DUP7 MSTORE DUP2 ISZERO ISZERO DUP3 MUL DUP7 ADD SWAP4 POP PUSH2 0x1D7F JUMP JUMPDEST PUSH2 0x1D55 DUP6 PUSH2 0x1CF0 JUMP JUMPDEST PUSH1 0x0 JUMPDEST DUP4 DUP2 LT ISZERO PUSH2 0x1D77 JUMPI DUP2 SLOAD DUP2 DUP10 ADD MSTORE PUSH1 0x1 DUP3 ADD SWAP2 POP PUSH1 0x20 DUP2 ADD SWAP1 POP PUSH2 0x1D58 JUMP JUMPDEST DUP4 DUP9 ADD SWAP6 POP POP POP JUMPDEST POP POP POP SWAP3 SWAP2 POP POP JUMP JUMPDEST PUSH1 0x0 PUSH2 0x1D94 DUP3 DUP5 PUSH2 0x1D05 JUMP JUMPDEST SWAP2 POP DUP2 SWAP1 POP SWAP3 SWAP2 POP POP JUMP JUMPDEST PUSH32 0x50726F64756374206E6F7420696E2073656C6C657220696E76656E746F727900 PUSH1 0x0 DUP3 ADD MSTORE POP JUMP JUMPDEST PUSH1 0x0 PUSH2 0x1DD5 PUSH1 0x1F DUP4 PUSH2 0x1866 JUMP JUMPDEST SWAP2 POP PUSH2 0x1DE0 DUP3 PUSH2 0x1D9F JUMP JUMPDEST PUSH1 0x20 DUP3 ADD SWAP1 POP SWAP2 SWAP1 POP JUMP JUMPDEST PUSH1 0x0 PUSH1 0x20 DUP3 ADD SWAP1 POP DUP2 DUP2 SUB PUSH1 0x0 DUP4 ADD MSTORE PUSH2 0x1E04 DUP2 PUSH2 0x1DC8 JUMP JUMPDEST SWAP1 POP SWAP2 SWAP1 POP JUMP JUMPDEST PUSH32 0x4E487B7100000000000000000000000000000000000000000000000000000000 PUSH1 0x0 MSTORE PUSH1 0x11 PUSH1 0x4 MSTORE PUSH1 0x24 PUSH1 0x0 REVERT JUMPDEST PUSH1 0x0 PUSH2 0x1E45 DUP3 PUSH2 0x1572 JUMP JUMPDEST SWAP2 POP PUSH2 0x1E50 DUP4 PUSH2 0x1572 JUMP JUMPDEST SWAP3 POP DUP3 DUP3 SUB SWAP1 POP DUP2 DUP2 GT ISZERO PUSH2 0x1E68 JUMPI PUSH2 0x1E67 PUSH2 0x1E0B JUMP JUMPDEST JUMPDEST SWAP3 SWAP2 POP POP JUMP JUMPDEST PUSH1 0x0 DUP2 SLOAD SWAP1 POP PUSH2 0x1E7D DUP2 PUSH2 0x1C85 JUMP JUMPDEST SWAP1 POP SWAP2 SWAP1 POP JUMP JUMPDEST PUSH1 0x0 DUP2 SWAP1 POP DUP2 PUSH1 0x0 MSTORE PUSH1 0x20 PUSH1 0x0 KECCAK256 SWAP1 POP SWAP2 SWAP1 POP JUMP JUMPDEST PUSH1 0x0 DUP2 SWAP1 POP DUP2 PUSH1 0x0 MSTORE PUSH1 0x20 PUSH1 0x0 KECCAK256 SWAP1 POP SWAP2 SWAP1 POP JUMP JUMPDEST PUSH1 0x0 PUSH1 0x20 PUSH1 0x1F DUP4 ADD DIV SWAP1 POP SWAP2 SWAP1 POP JUMP JUMPDEST PUSH1 0x0 DUP3 DUP3 SHL SWAP1 POP SWAP3 SWAP2 POP POP JUMP JUMPDEST PUSH1 0x0 PUSH1 0x8 DUP4 MUL PUSH2 0x1EFB PUSH32 0xFFFFFFFFFFFFFFFFFFFFFFFFFFFFFFFFFFFFFFFFFFFFFFFFFFFFFFFFFFFFFFFF DUP3 PUSH2 0x1EBE JUMP JUMPDEST PUSH2 0x1F05 DUP7 DUP4 PUSH2 0x1EBE JUMP JUMPDEST SWAP6 POP DUP1 NOT DUP5 AND SWAP4 POP DUP1 DUP7 AND DUP5 OR SWAP3 POP POP POP SWAP4 SWAP3 POP POP POP JUMP JUMPDEST PUSH1 0x0 PUSH2 0x1F38 PUSH2 0x1F33 PUSH2 0x1F2E DUP5 PUSH2 0x1572 JUMP JUMPDEST PUSH2 0x1B1D JUMP JUMPDEST PUSH2 0x1572 JUMP JUMPDEST SWAP1 POP SWAP2 SWAP1 POP JUMP JUMPDEST PUSH1 0x0 DUP2 SWAP1 POP SWAP2 SWAP1 POP JUMP JUMPDEST PUSH2 0x1F52 DUP4 PUSH2 0x1F1D JUMP JUMPDEST PUSH2 0x1F66 PUSH2 0x1F5E DUP3 PUSH2 0x1F3F JUMP JUMPDEST DUP5 DUP5 SLOAD PUSH2 0x1ECB JUMP JUMPDEST DUP3 SSTORE POP POP POP POP JUMP JUMPDEST PUSH1 0x0 SWAP1 JUMP JUMPDEST PUSH2 0x1F7B PUSH2 0x1F6E JUMP JUMPDEST PUSH2 0x1F86 DUP2 DUP5 DUP5 PUSH2 0x1F49 JUMP JUMPDEST POP POP POP JUMP JUMPDEST JUMPDEST DUP2 DUP2 LT ISZERO PUSH2 0x1FAA JUMPI PUSH2 0x1F9F PUSH1 0x0 DUP3 PUSH2 0x1F73 JUMP JUMPDEST PUSH1 0x1 DUP2 ADD SWAP1 POP PUSH2 0x1F8C JUMP JUMPDEST POP POP JUMP JUMPDEST PUSH1 0x1F DUP3 GT ISZERO PUSH2 0x1FEF JUMPI PUSH2 0x1FC0 DUP2 PUSH2 0x1E84 JUMP JUMPDEST PUSH2 0x1FC9 DUP5 PUSH2 0x1EAE JUMP JUMPDEST DUP2 ADD PUSH1 0x20 DUP6 LT ISZERO PUSH2 0x1FD8 JUMPI DUP2 SWAP1 POP JUMPDEST PUSH2 0x1FEC PUSH2 0x1FE4 DUP6 PUSH2 0x1EAE JUMP JUMPDEST DUP4 ADD DUP3 PUSH2 0x1F8B JUMP JUMPDEST POP POP JUMPDEST POP POP POP JUMP JUMPDEST PUSH1 0x0 DUP3 DUP3 SHR SWAP1 POP SWAP3 SWAP2 POP POP JUMP JUMPDEST PUSH1 0x0 PUSH2 0x2012 PUSH1 0x0 NOT DUP5 PUSH1 0x8 MUL PUSH2 0x1FF4 JUMP JUMPDEST NOT DUP1 DUP4 AND SWAP2 POP POP SWAP3 SWAP2 POP POP JUMP JUMPDEST PUSH1 0x0 PUSH2 0x202B DUP4 DUP4 PUSH2 0x2001 JUMP JUMPDEST SWAP2 POP DUP3 PUSH1 0x2 MUL DUP3 OR SWAP1 POP SWAP3 SWAP2 POP POP JUMP JUMPDEST DUP2 DUP2 SUB PUSH2 0x2049 JUMPI POP POP PUSH2 0x2121 JUMP JUMPDEST PUSH2 0x2052 DUP3 PUSH2 0x1E6E JUMP JUMPDEST PUSH8 0xFFFFFFFFFFFFFFFF DUP2 GT ISZERO PUSH2 0x206B JUMPI PUSH2 0x206A PUSH2 0x1447 JUMP JUMPDEST JUMPDEST PUSH2 0x2075 DUP3 SLOAD PUSH2 0x1C85 JUMP JUMPDEST PUSH2 0x2080 DUP3 DUP3 DUP6 PUSH2 0x1FAE JUMP JUMPDEST PUSH1 0x0 PUSH1 0x1F DUP4 GT PUSH1 0x1 DUP2 EQ PUSH2 0x20AF JUMPI PUSH1 0x0 DUP5 ISZERO PUSH2 0x209D JUMPI DUP3 DUP8 ADD SLOAD SWAP1 POP JUMPDEST PUSH2 0x20A7 DUP6 DUP3 PUSH2 0x201F JUMP JUMPDEST DUP7 SSTORE POP PUSH2 0x211A JUMP JUMPDEST PUSH1 0x1F NOT DUP5 AND PUSH2 0x20BD DUP8 PUSH2 0x1E99 JUMP JUMPDEST SWAP7 POP PUSH2 0x20C8 DUP7 PUSH2 0x1E84 JUMP JUMPDEST PUSH1 0x0 JUMPDEST DUP3 DUP2 LT ISZERO PUSH2 0x20F0 JUMPI DUP5 DUP10 ADD SLOAD DUP3 SSTORE PUSH1 0x1 DUP3 ADD SWAP2 POP PUSH1 0x1 DUP6 ADD SWAP5 POP PUSH1 0x20 DUP2 ADD SWAP1 POP PUSH2 0x20CB JUMP JUMPDEST DUP7 DUP4 LT ISZERO PUSH2 0x210D JUMPI DUP5 DUP10 ADD SLOAD PUSH2 0x2109 PUSH1 0x1F DUP10 AND DUP3 PUSH2 0x2001 JUMP JUMPDEST DUP4 SSTORE POP JUMPDEST PUSH1 0x1 PUSH1 0x2 DUP9 MUL ADD DUP9 SSTORE POP POP POP JUMPDEST POP POP POP POP POP POP JUMPDEST JUMP JUMPDEST PUSH32 0x4E487B7100000000000000000000000000000000000000000000000000000000 PUSH1 0x0 MSTORE PUSH1 0x31 PUSH1 0x4 MSTORE PUSH1 0x24 PUSH1 0x0 REVERT JUMPDEST PUSH2 0x215B DUP3 PUSH2 0x16E1 JUMP JUMPDEST PUSH8 0xFFFFFFFFFFFFFFFF DUP2 GT ISZERO PUSH2 0x2174 JUMPI PUSH2 0x2173 PUSH2 0x1447 JUMP JUMPDEST JUMPDEST PUSH2 0x217E DUP3 SLOAD PUSH2 0x1C85 JUMP JUMPDEST PUSH2 0x2189 DUP3 DUP3 DUP6 PUSH2 0x1FAE JUMP JUMPDEST PUSH1 0x0 PUSH1 0x20 SWAP1 POP PUSH1 0x1F DUP4 GT PUSH1 0x1 DUP2 EQ PUSH2 0x21BC JUMPI PUSH1 0x0 DUP5 ISZERO PUSH2 0x21AA JUMPI DUP3 DUP8 ADD MLOAD SWAP1 POP JUMPDEST PUSH2 0x21B4 DUP6 DUP3 PUSH2 0x201F JUMP JUMPDEST DUP7 SSTORE POP PUSH2 0x221C JUMP JUMPDEST PUSH1 0x1F NOT DUP5 AND PUSH2 0x21CA DUP7 PUSH2 0x1E84 JUMP JUMPDEST PUSH1 0x0 JUMPDEST DUP3 DUP2 LT ISZERO PUSH2 0x21F2 JUMPI DUP5 DUP10 ADD MLOAD DUP3 SSTORE PUSH1 0x1 DUP3 ADD SWAP2 POP PUSH1 0x20 DUP6 ADD SWAP5 POP PUSH1 0x20 DUP2 ADD SWAP1 POP PUSH2 0x21CD JUMP JUMPDEST DUP7 DUP4 LT ISZERO PUSH2 0x220F JUMPI DUP5 DUP10 ADD MLOAD PUSH2 0x220B PUSH1 0x1F DUP10 AND DUP3 PUSH2 0x2001 JUMP JUMPDEST DUP4 SSTORE POP JUMPDEST PUSH1 0x1 PUSH1 0x2 DUP9 MUL ADD DUP9 SSTORE POP POP POP JUMPDEST POP POP POP POP POP POP JUMP JUMPDEST PUSH1 0x0 DUP2 SLOAD PUSH2 0x2231 DUP2 PUSH2 0x1C85 JUMP JUMPDEST PUSH2 0x223B DUP2 DUP7 PUSH2 0x1866 JUMP JUMPDEST SWAP5 POP PUSH1 0x1 DUP3 AND PUSH1 0x0 DUP2 EQ PUSH2 0x2256 JUMPI PUSH1 0x1 DUP2 EQ PUSH2 0x226C JUMPI PUSH2 0x229F JUMP JUMPDEST PUSH1 0xFF NOT DUP4 AND DUP7 MSTORE DUP2 ISZERO ISZERO PUSH1 0x20 MUL DUP7 ADD SWAP4 POP PUSH2 0x229F JUMP JUMPDEST PUSH2 0x2275 DUP6 PUSH2 0x1E84 JUMP JUMPDEST PUSH1 0x0 JUMPDEST DUP4 DUP2 LT ISZERO PUSH2 0x2297 JUMPI DUP2 SLOAD DUP2 DUP10 ADD MSTORE PUSH1 0x1 DUP3 ADD SWAP2 POP PUSH1 0x20 DUP2 ADD SWAP1 POP PUSH2 0x2278 JUMP JUMPDEST DUP1 DUP9 ADD SWAP6 POP POP POP JUMPDEST POP POP POP SWAP3 SWAP2 POP POP JUMP JUMPDEST PUSH1 0x0 PUSH1 0xC0 DUP3 ADD SWAP1 POP DUP2 DUP2 SUB PUSH1 0x0 DUP4 ADD MSTORE PUSH2 0x22C2 DUP2 DUP10 PUSH2 0x2224 JUMP JUMPDEST SWAP1 POP DUP2 DUP2 SUB PUSH1 0x20 DUP4 ADD MSTORE PUSH2 0x22D6 DUP2 DUP9 PUSH2 0x2224 JUMP JUMPDEST SWAP1 POP DUP2 DUP2 SUB PUSH1 0x40 DUP4 ADD MSTORE PUSH2 0x22EA DUP2 DUP8 PUSH2 0x1877 JUMP JUMPDEST SWAP1 POP PUSH2 0x22F9 PUSH1 0x60 DUP4 ADD DUP7 PUSH2 0x1636 JUMP JUMPDEST PUSH2 0x2306 PUSH1 0x80 DUP4 ADD DUP6 PUSH2 0x1636 JUMP JUMPDEST PUSH2 0x2313 PUSH1 0xA0 DUP4 ADD DUP5 PUSH2 0x1645 JUMP JUMPDEST SWAP8 SWAP7 POP POP POP POP POP POP POP JUMP JUMPDEST PUSH32 0x50726F647563742077697468207468697320626172636F646520616C72656164 PUSH1 0x0 DUP3 ADD MSTORE PUSH32 0x7920657869737473000000000000000000000000000000000000000000000000 PUSH1 0x20 DUP3 ADD MSTORE POP JUMP JUMPDEST PUSH1 0x0 PUSH2 0x237A PUSH1 0x28 DUP4 PUSH2 0x1866 JUMP JUMPDEST SWAP2 POP PUSH2 0x2385 DUP3 PUSH2 0x231E JUMP JUMPDEST PUSH1 0x40 DUP3 ADD SWAP1 POP SWAP2 SWAP1 POP JUMP JUMPDEST PUSH1 0x0 PUSH1 0x20 DUP3 ADD SWAP1 POP DUP2 DUP2 SUB PUSH1 0x0 DUP4 ADD MSTORE PUSH2 0x23A9 DUP2 PUSH2 0x236D JUMP JUMPDEST SWAP1 POP SWAP2 SWAP1 POP JUMP JUMPDEST PUSH1 0x0 PUSH1 0xA0 DUP3 ADD SWAP1 POP PUSH2 0x23C5 PUSH1 0x0 DUP4 ADD DUP9 PUSH2 0x1636 JUMP JUMPDEST DUP2 DUP2 SUB PUSH1 0x20 DUP4 ADD MSTORE PUSH2 0x23D7 DUP2 DUP8 PUSH2 0x1877 JUMP JUMPDEST SWAP1 POP DUP2 DUP2 SUB PUSH1 0x40 DUP4 ADD MSTORE PUSH2 0x23EB DUP2 DUP7 PUSH2 0x1877 JUMP JUMPDEST SWAP1 POP DUP2 DUP2 SUB PUSH1 0x60 DUP4 ADD MSTORE PUSH2 0x23FF DUP2 DUP6 PUSH2 0x1877 JUMP JUMPDEST SWAP1 POP DUP2 DUP2 SUB PUSH1 0x80 DUP4 ADD MSTORE PUSH2 0x2413 DUP2 DUP5 PUSH2 0x1877 JUMP JUMPDEST SWAP1 POP SWAP7 SWAP6 POP POP POP POP POP POP JUMP INVALID LOG2 PUSH5 0x6970667358 0x22 SLT KECCAK256 DUP3 ISZERO PUSH1 0xAB SIGNEXTEND EXTCODESIZE 0xA7 0x2A PUSH6 0xB3513204AC32 DUP10 PUSH6 0x3EE16ABE05AB 0x1E DUP12 SWAP6 DUP3 REVERT PUSH16 0xFB815164736F6C634300081E00330000 "},"methodIdentifiers":{"addProduct(address,string,string,string,string)":"e5e20ac9","barcodeToProduct(string)":"6e2b4896","getProductByBarcode(string)":"34dd1292","getProductHistoryLength(string)":"06433b29","getUserProductCount(address)":"f9b8cc1b","productExists(string)":"8addc051","productHistory(string,uint256)":"01970b11","products(uint256)":"7acc0b20","sell(address,address,string)":"e0c57ec8","setUsersContract(address)":"c60bdc7f","userProducts(address,uint256)":"3d527883","users()":"f2020275"}}}}}