{"contracts/SupplyChain.sol":{"SupplyChain":{"abi":[{"inputs":[{"internalType":"address","name":"_users","type":"address"},{"internalType":"address","name":"_products","type":"address"}],"stateMutability":"nonpayable","type":"constructor"},{"inputs":[],"name":"products","outputs":[{"internalType":"contract Products","name":"","type":"address"}],"stateMutability":"view","type":"function"},{"inputs":[{"internalType":"string","name":"_name","type":"string"},{"internalType":"string","name":"_manufacturerName","type":"string"},{"internalType":"string","name":"_barcode","type":"string"},{"internalType":"string","name":"_manufacturedTime","type":"string"}],"name":"registerProduct","outputs":[],"stateMutability":"nonpayable","type":"function"},{"inputs":[{"internalType":"string","name":"_name","type":"string"},{"internalType":"enum Types.UserRole","name":"_role","type":"uint8"}],"name":"registerUser","outputs":[],"stateMutability":"nonpayable","type":"function"},{"inputs":[{"internalType":"address","name":"_addr","type":"address"}],"name":"returnUser","outputs":[{"components":[{"internalType":"address","name":"userAddress","type":"address"},{"internalType":"string","name":"name","type":"string"},{"internalType":"enum Types.UserRole","name":"role","type":"uint8"}],"internalType":"struct Types.User","name":"","type":"tuple"}],"stateMutability":"view","type":"function"},{"inputs":[{"internalType":"address","name":"_addr","type":"address"}],"name":"returnUserInfo","outputs":[{"internalType":"string","name":"name","type":"string"},{"internalType":"enum Types.UserRole","name":"role","type":"uint8"}],"stateMutability":"view","type":"function"},{"inputs":[{"internalType":"address","name":"buyer","type":"address"},{"internalType":"string","name":"_barcode","type":"string"}],"name":"sellProduct","outputs":[],"stateMutability":"nonpayable","type":"function"},{"inputs":[],"name":"users","outputs":[{"internalType":"contract Users","name":"","type":"address"}],"stateMutability":"view","type":"function"}],"evm":{"bytecode":{"linkReferences":{},"object":"608060405234801561001057600080fd5b506040516110aa3803806110aa833981810160405281019061003291906101aa565b816000806101000a81548173ffffffffffffffffffffffffffffffffffffffff021916908373ffffffffffffffffffffffffffffffffffffffff16021790555080600160006101000a81548173ffffffffffffffffffffffffffffffffffffffff021916908373ffffffffffffffffffffffffffffffffffffffff160217905550600160009054906101000a900473ffffffffffffffffffffffffffffffffffffffff1673ffffffffffffffffffffffffffffffffffffffff1663c60bdc7f836040518263ffffffff1660e01b815260040161010e91906101f9565b600060405180830381600087803b15801561012857600080fd5b505af115801561013c573d6000803e3d6000fd5b505050505050610214565b600080fd5b600073ffffffffffffffffffffffffffffffffffffffff82169050919050565b60006101778261014c565b9050919050565b6101878161016c565b811461019257600080fd5b50565b6000815190506101a48161017e565b92915050565b600080604083850312156101c1576101c0610147565b5b60006101cf85828601610195565b92505060206101e085828601610195565b9150509250929050565b6101f38161016c565b82525050565b600060208201905061020e60008301846101ea565b92915050565b610e87806102236000396000f3fe608060405234801561001057600080fd5b506004361061007d5760003560e01c8063bb8d6b1d1161005b578063bb8d6b1d146100eb578063c71e261f1461011b578063e30d40f614610139578063f2020275146101555761007d565b8063338e12eb146100825780637ce7b7e01461009e5780638799d6fc146100cf575b600080fd5b61009c600480360381019061009791906106a3565b610173565b005b6100b860048036038101906100b3919061075d565b610206565b6040516100c6929190610880565b60405180910390f35b6100e960048036038101906100e491906108b0565b6102b3565b005b6101056004803603810190610100919061075d565b61034e565b6040516101129190610a3f565b60405180910390f35b6101236103fc565b6040516101309190610ac0565b60405180910390f35b610153600480360381019061014e9190610adb565b610422565b005b61015d6104b7565b60405161016a9190610b58565b60405180910390f35b60008054906101000a900473ffffffffffffffffffffffffffffffffffffffff1673ffffffffffffffffffffffffffffffffffffffff166340d268543384846040518463ffffffff1660e01b81526004016101d093929190610b82565b600060405180830381600087803b1580156101ea57600080fd5b505af11580156101fe573d6000803e3d6000fd5b505050505050565b606060008060009054906101000a900473ffffffffffffffffffffffffffffffffffffffff1673ffffffffffffffffffffffffffffffffffffffff16636386c1c7846040518263ffffffff1660e01b81526004016102649190610bc0565b600060405180830381865afa158015610281573d6000803e3d6000fd5b505050506040513d6000823e3d601f19601f820116820180604052508101906102aa9190610c60565b91509150915091565b600160009054906101000a900473ffffffffffffffffffffffffffffffffffffffff1673ffffffffffffffffffffffffffffffffffffffff1663e5e20ac933868686866040518663ffffffff1660e01b8152600401610316959493929190610cbc565b600060405180830381600087803b15801561033057600080fd5b505af1158015610344573d6000803e3d6000fd5b5050505050505050565b6103566104db565b60008054906101000a900473ffffffffffffffffffffffffffffffffffffffff1673ffffffffffffffffffffffffffffffffffffffff16636f77926b836040518263ffffffff1660e01b81526004016103af9190610bc0565b600060405180830381865afa1580156103cc573d6000803e3d6000fd5b505050506040513d6000823e3d601f19601f820116820180604052508101906103f59190610dca565b9050919050565b600160009054906101000a900473ffffffffffffffffffffffffffffffffffffffff1681565b600160009054906101000a900473ffffffffffffffffffffffffffffffffffffffff1673ffffffffffffffffffffffffffffffffffffffff1663e0c57ec83384846040518463ffffffff1660e01b815260040161048193929190610e13565b600060405180830381600087803b15801561049b57600080fd5b505af11580156104af573d6000803e3d6000fd5b505050505050565b60008054906101000a900473ffffffffffffffffffffffffffffffffffffffff1681565b6040518060600160405280600073ffffffffffffffffffffffffffffffffffffffff168152602001606081526020016000600381111561051e5761051d610809565b5b81525090565b6000604051905090565b600080fd5b600080fd5b600080fd5b600080fd5b6000601f19601f8301169050919050565b7f4e487b7100000000000000000000000000000000000000000000000000000000600052604160045260246000fd5b61058b82610542565b810181811067ffffffffffffffff821117156105aa576105a9610553565b5b80604052505050565b60006105bd610524565b90506105c98282610582565b919050565b600067ffffffffffffffff8211156105e9576105e8610553565b5b6105f282610542565b9050602081019050919050565b82818337600083830152505050565b600061062161061c846105ce565b6105b3565b90508281526020810184848401111561063d5761063c61053d565b5b6106488482856105ff565b509392505050565b600082601f83011261066557610664610538565b5b813561067584826020860161060e565b91505092915050565b6004811061068b57600080fd5b50565b60008135905061069d8161067e565b92915050565b600080604083850312156106ba576106b961052e565b5b600083013567ffffffffffffffff8111156106d8576106d7610533565b5b6106e485828601610650565b92505060206106f58582860161068e565b9150509250929050565b600073ffffffffffffffffffffffffffffffffffffffff82169050919050565b600061072a826106ff565b9050919050565b61073a8161071f565b811461074557600080fd5b50565b60008135905061075781610731565b92915050565b6000602082840312156107735761077261052e565b5b600061078184828501610748565b91505092915050565b600081519050919050565b600082825260208201905092915050565b60005b838110156107c45780820151818401526020810190506107a9565b60008484015250505050565b60006107db8261078a565b6107e58185610795565b93506107f58185602086016107a6565b6107fe81610542565b840191505092915050565b7f4e487b7100000000000000000000000000000000000000000000000000000000600052602160045260246000fd5b6004811061084957610848610809565b5b50565b600081905061085a82610838565b919050565b600061086a8261084c565b9050919050565b61087a8161085f565b82525050565b6000604082019050818103600083015261089a81856107d0565b90506108a96020830184610871565b9392505050565b600080600080608085870312156108ca576108c961052e565b5b600085013567ffffffffffffffff8111156108e8576108e7610533565b5b6108f487828801610650565b945050602085013567ffffffffffffffff81111561091557610914610533565b5b61092187828801610650565b935050604085013567ffffffffffffffff81111561094257610941610533565b5b61094e87828801610650565b925050606085013567ffffffffffffffff81111561096f5761096e610533565b5b61097b87828801610650565b91505092959194509250565b6109908161071f565b82525050565b600082825260208201905092915050565b60006109b28261078a565b6109bc8185610996565b93506109cc8185602086016107a6565b6109d581610542565b840191505092915050565b6109e98161085f565b82525050565b6000606083016000830151610a076000860182610987565b5060208301518482036020860152610a1f82826109a7565b9150506040830151610a3460408601826109e0565b508091505092915050565b60006020820190508181036000830152610a5981846109ef565b905092915050565b6000819050919050565b6000610a86610a81610a7c846106ff565b610a61565b6106ff565b9050919050565b6000610a9882610a6b565b9050919050565b6000610aaa82610a8d565b9050919050565b610aba81610a9f565b82525050565b6000602082019050610ad56000830184610ab1565b92915050565b60008060408385031215610af257610af161052e565b5b6000610b0085828601610748565b925050602083013567ffffffffffffffff811115610b2157610b20610533565b5b610b2d85828601610650565b9150509250929050565b6000610b4282610a8d565b9050919050565b610b5281610b37565b82525050565b6000602082019050610b6d6000830184610b49565b92915050565b610b7c8161071f565b82525050565b6000606082019050610b976000830186610b73565b8181036020830152610ba981856107d0565b9050610bb86040830184610871565b949350505050565b6000602082019050610bd56000830184610b73565b92915050565b6000610bee610be9846105ce565b6105b3565b905082815260208101848484011115610c0a57610c0961053d565b5b610c158482856107a6565b509392505050565b600082601f830112610c3257610c31610538565b5b8151610c42848260208601610bdb565b91505092915050565b600081519050610c5a8161067e565b92915050565b60008060408385031215610c7757610c7661052e565b5b600083015167ffffffffffffffff811115610c9557610c94610533565b5b610ca185828601610c1d565b9250506020610cb285828601610c4b565b9150509250929050565b600060a082019050610cd16000830188610b73565b8181036020830152610ce381876107d0565b90508181036040830152610cf781866107d0565b90508181036060830152610d0b81856107d0565b90508181036080830152610d1f81846107d0565b90509695505050505050565b600080fd5b600080fd5b600081519050610d4481610731565b92915050565b600060608284031215610d6057610d5f610d2b565b5b610d6a60606105b3565b90506000610d7a84828501610d35565b600083015250602082015167ffffffffffffffff811115610d9e57610d9d610d30565b5b610daa84828501610c1d565b6020830152506040610dbe84828501610c4b565b60408301525092915050565b600060208284031215610de057610ddf61052e565b5b600082015167ffffffffffffffff811115610dfe57610dfd610533565b5b610e0a84828501610d4a565b91505092915050565b6000606082019050610e286000830186610b73565b610e356020830185610b73565b8181036040830152610e4781846107d0565b905094935050505056fea2646970667358221220f934ee7f0e49944b482d71f49717326f4ffc022837a0477c43974ae722b051a264736f6c634300081e0033","opcodes":"PUSH1 0x80 PUSH1 0x40 MSTORE CALLVALUE DUP1 ISZERO PUSH2 0x10 JUMPI PUSH1 0x0 DUP1 REVERT JUMPDEST POP PUSH1 0x40 MLOAD PUSH2 0x10AA CODESIZE SUB DUP1 PUSH2 0x10AA DUP4 CODECOPY DUP2 DUP2 ADD PUSH1 0x40 MSTORE DUP2 ADD SWAP1 PUSH2 0x32 SWAP2 SWAP1 PUSH2 0x1AA JUMP JUMPDEST DUP2 PUSH1 0x0 DUP1 PUSH2 0x100 EXP DUP2 SLOAD DUP2 PUSH20 0xFFFFFFFFFFFFFFFFFFFFFFFFFFFFFFFFFFFFFFFF MUL NOT AND SWAP1 DUP4 PUSH20 0xFFFFFFFFFFFFFFFFFFFFFFFFFFFFFFFFFFFFFFFF AND MUL OR SWAP1 SSTORE POP DUP1 PUSH1 0x1 PUSH1 0x0 PUSH2 0x100 EXP DUP2 SLOAD DUP2 PUSH20 0xFFFFFFFFFFFFFFFFFFFFFFFFFFFFFFFFFFFFFFFF MUL NOT AND SWAP1 DUP4 PUSH20 0xFFFFFFFFFFFFFFFFFFFFFFFFFFFFFFFFFFFFFFFF AND MUL OR SWAP1 SSTORE POP PUSH1 0x1 PUSH1 0x0 SWAP1 SLOAD SWAP1 PUSH2 0x100 EXP SWAP1 DIV PUSH20 0xFFFFFFFFFFFFFFFFFFFFFFFFFFFFFFFFFFFFFFFF AND PUSH20 0xFFFFFFFFFFFFFFFFFFFFFFFFFFFFFFFFFFFFFFFF AND PUSH4 0xC60BDC7F DUP4 PUSH1 0x40 MLOAD DUP3 PUSH4 0xFFFFFFFF AND PUSH1 0xE0 SHL DUP2 MSTORE PUSH1 0x4 ADD PUSH2 0x10E SWAP2 SWAP1 PUSH2 0x1F9 JUMP JUMPDEST PUSH1 0x0 PUSH1 0x40 MLOAD DUP1 DUP4 SUB DUP2 PUSH1 0x0 DUP8 DUP1 EXTCODESIZE ISZERO DUP1 ISZERO PUSH2 0x128 JUMPI PUSH1 0x0 DUP1 REVERT JUMPDEST POP GAS CALL ISZERO DUP1 ISZERO PUSH2 0x13C JUMPI RETURNDATASIZE PUSH1 0x0 DUP1 RETURNDATACOPY RETURNDATASIZE PUSH1 0x0 REVERT JUMPDEST POP POP POP POP POP POP PUSH2 0x214 JUMP JUMPDEST PUSH1 0x0 DUP1 REVERT JUMPDEST PUSH1 0x0 PUSH20 0xFFFFFFFFFFFFFFFFFFFFFFFFFFFFFFFFFFFFFFFF DUP3 AND SWAP1 POP SWAP2 SWAP1 POP JUMP JUMPDEST PUSH1 0x0 PUSH2 0x177 DUP3 PUSH2 0x14C JUMP JUMPDEST SWAP1 POP SWAP2 SWAP1 POP JUMP JUMPDEST PUSH2 0x187 DUP2 PUSH2 0x16C JUMP JUMPDEST DUP2 EQ PUSH2 0x192 JUMPI PUSH1 0x0 DUP1 REVERT JUMPDEST POP JUMP JUMPDEST PUSH1 0x0 DUP2 MLOAD SWAP1 POP PUSH2 0x1A4 DUP2 PUSH2 0x17E JUMP JUMPDEST SWAP3 SWAP2 POP POP JUMP JUMPDEST PUSH1 0x0 DUP1 PUSH1 0x40 DUP4 DUP6 SUB SLT ISZERO PUSH2 0x1C1 JUMPI PUSH2 0x1C0 PUSH2 0x147 JUMP JUMPDEST JUMPDEST PUSH1 0x0 PUSH2 0x1CF DUP6 DUP3 DUP7 ADD PUSH2 0x195 JUMP JUMPDEST SWAP3 POP POP PUSH1 0x20 PUSH2 0x1E0 DUP6 DUP3 DUP7 ADD PUSH2 0x195 JUMP JUMPDEST SWAP2 POP POP SWAP3 POP SWAP3 SWAP1 POP JUMP JUMPDEST PUSH2 0x1F3 DUP2 PUSH2 0x16C JUMP JUMPDEST DUP3 MSTORE POP POP JUMP JUMPDEST PUSH1 0x0 PUSH1 0x20 DUP3 ADD SWAP1 POP PUSH2 0x20E PUSH1 0x0 DUP4 ADD DUP5 PUSH2 0x1EA JUMP JUMPDEST SWAP3 SWAP2 POP POP JUMP JUMPDEST PUSH2 0xE87 DUP1 PUSH2 0x223 PUSH1 0x0 CODECOPY PUSH1 0x0 RETURN INVALID PUSH1 0x80 PUSH1 0x40 MSTORE CALLVALUE DUP1 ISZERO PUSH2 0x10 JUMPI PUSH1 0x0 DUP1 REVERT JUMPDEST POP PUSH1 0x4 CALLDATASIZE LT PUSH2 0x7D JUMPI PUSH1 0x0 CALLDATALOAD PUSH1 0xE0 SHR DUP1 PUSH4 0xBB8D6B1D GT PUSH2 0x5B JUMPI DUP1 PUSH4 0xBB8D6B1D EQ PUSH2 0xEB JUMPI DUP1 PUSH4 0xC71E261F EQ PUSH2 0x11B JUMPI DUP1 PUSH4 0xE30D40F6 EQ PUSH2 0x139 JUMPI DUP1 PUSH4 0xF2020275 EQ PUSH2 0x155 JUMPI PUSH2 0x7D JUMP JUMPDEST DUP1 PUSH4 0x338E12EB EQ PUSH2 0x82 JUMPI DUP1 PUSH4 0x7CE7B7E0 EQ PUSH2 0x9E JUMPI DUP1 PUSH4 0x8799D6FC EQ PUSH2 0xCF JUMPI JUMPDEST PUSH1 0x0 DUP1 REVERT JUMPDEST PUSH2 0x9C PUSH1 0x4 DUP1 CALLDATASIZE SUB DUP2 ADD SWAP1 PUSH2 0x97 SWAP2 SWAP1 PUSH2 0x6A3 JUMP JUMPDEST PUSH2 0x173 JUMP JUMPDEST STOP JUMPDEST PUSH2 0xB8 PUSH1 0x4 DUP1 CALLDATASIZE SUB DUP2 ADD SWAP1 PUSH2 0xB3 SWAP2 SWAP1 PUSH2 0x75D JUMP JUMPDEST PUSH2 0x206 JUMP JUMPDEST PUSH1 0x40 MLOAD PUSH2 0xC6 SWAP3 SWAP2 SWAP1 PUSH2 0x880 JUMP JUMPDEST PUSH1 0x40 MLOAD DUP1 SWAP2 SUB SWAP1 RETURN JUMPDEST PUSH2 0xE9 PUSH1 0x4 DUP1 CALLDATASIZE SUB DUP2 ADD SWAP1 PUSH2 0xE4 SWAP2 SWAP1 PUSH2 0x8B0 JUMP JUMPDEST PUSH2 0x2B3 JUMP JUMPDEST STOP JUMPDEST PUSH2 0x105 PUSH1 0x4 DUP1 CALLDATASIZE SUB DUP2 ADD SWAP1 PUSH2 0x100 SWAP2 SWAP1 PUSH2 0x75D JUMP JUMPDEST PUSH2 0x34E JUMP JUMPDEST PUSH1 0x40 MLOAD PUSH2 0x112 SWAP2 SWAP1 PUSH2 0xA3F JUMP JUMPDEST PUSH1 0x40 MLOAD DUP1 SWAP2 SUB SWAP1 RETURN JUMPDEST PUSH2 0x123 PUSH2 0x3FC JUMP JUMPDEST PUSH1 0x40 MLOAD PUSH2 0x130 SWAP2 SWAP1 PUSH2 0xAC0 JUMP JUMPDEST PUSH1 0x40 MLOAD DUP1 SWAP2 SUB SWAP1 RETURN JUMPDEST PUSH2 0x153 PUSH1 0x4 DUP1 CALLDATASIZE SUB DUP2 ADD SWAP1 PUSH2 0x14E SWAP2 SWAP1 PUSH2 0xADB JUMP JUMPDEST PUSH2 0x422 JUMP JUMPDEST STOP JUMPDEST PUSH2 0x15D PUSH2 0x4B7 JUMP JUMPDEST PUSH1 0x40 MLOAD PUSH2 0x16A SWAP2 SWAP1 PUSH2 0xB58 JUMP JUMPDEST PUSH1 0x40 MLOAD DUP1 SWAP2 SUB SWAP1 RETURN JUMPDEST PUSH1 0x0 DUP1 SLOAD SWAP1 PUSH2 0x100 EXP SWAP1 DIV PUSH20 0xFFFFFFFFFFFFFFFFFFFFFFFFFFFFFFFFFFFFFFFF AND PUSH20 0xFFFFFFFFFFFFFFFFFFFFFFFFFFFFFFFFFFFFFFFF AND PUSH4 0x40D26854 CALLER DUP5 DUP5 PUSH1 0x40 MLOAD DUP5 PUSH4 0xFFFFFFFF AND PUSH1 0xE0 SHL DUP2 MSTORE PUSH1 0x4 ADD PUSH2 0x1D0 SWAP4 SWAP3 SWAP2 SWAP1 PUSH2 0xB82 JUMP JUMPDEST PUSH1 0x0 PUSH1 0x40 MLOAD DUP1 DUP4 SUB DUP2 PUSH1 0x0 DUP8 DUP1 EXTCODESIZE ISZERO DUP1 ISZERO PUSH2 0x1EA JUMPI PUSH1 0x0 DUP1 REVERT JUMPDEST POP GAS CALL ISZERO DUP1 ISZERO PUSH2 0x1FE JUMPI RETURNDATASIZE PUSH1 0x0 DUP1 RETURNDATACOPY RETURNDATASIZE PUSH1 0x0 REVERT JUMPDEST POP POP POP POP POP POP JUMP JUMPDEST PUSH1 0x60 PUSH1 0x0 DUP1 PUSH1 0x0 SWAP1 SLOAD SWAP1 PUSH2 0x100 EXP SWAP1 DIV PUSH20 0xFFFFFFFFFFFFFFFFFFFFFFFFFFFFFFFFFFFFFFFF AND PUSH20 0xFFFFFFFFFFFFFFFFFFFFFFFFFFFFFFFFFFFFFFFF AND PUSH4 0x6386C1C7 DUP5 PUSH1 0x40 MLOAD DUP3 PUSH4 0xFFFFFFFF AND PUSH1 0xE0 SHL DUP2 MSTORE PUSH1 0x4 ADD PUSH2 0x264 SWAP2 SWAP1 PUSH2 0xBC0 JUMP JUMPDEST PUSH1 0x0 PUSH1 0x40 MLOAD DUP1 DUP4 SUB DUP2 DUP7 GAS STATICCALL ISZERO DUP1 ISZERO PUSH2 0x281 JUMPI RETURNDATASIZE PUSH1 0x0 DUP1 RETURNDATACOPY RETURNDATASIZE PUSH1 0x0 REVERT JUMPDEST POP POP POP POP PUSH1 0x40 MLOAD RETURNDATASIZE PUSH1 0x0 DUP3 RETURNDATACOPY RETURNDATASIZE PUSH1 0x1F NOT PUSH1 0x1F DUP3 ADD AND DUP3 ADD DUP1 PUSH1 0x40 MSTORE POP DUP2 ADD SWAP1 PUSH2 0x2AA SWAP2 SWAP1 PUSH2 0xC60 JUMP JUMPDEST SWAP2 POP SWAP2 POP SWAP2 POP SWAP2 JUMP JUMPDEST PUSH1 0x1 PUSH1 0x0 SWAP1 SLOAD SWAP1 PUSH2 0x100 EXP SWAP1 DIV PUSH20 0xFFFFFFFFFFFFFFFFFFFFFFFFFFFFFFFFFFFFFFFF AND PUSH20 0xFFFFFFFFFFFFFFFFFFFFFFFFFFFFFFFFFFFFFFFF AND PUSH4 0xE5E20AC9 CALLER DUP7 DUP7 DUP7 DUP7 PUSH1 0x40 MLOAD DUP7 PUSH4 0xFFFFFFFF AND PUSH1 0xE0 SHL DUP2 MSTORE PUSH1 0x4 ADD PUSH2 0x316 SWAP6 SWAP5 SWAP4 SWAP3 SWAP2 SWAP1 PUSH2 0xCBC JUMP JUMPDEST PUSH1 0x0 PUSH1 0x40 MLOAD DUP1 DUP4 SUB DUP2 PUSH1 0x0 DUP8 DUP1 EXTCODESIZE ISZERO DUP1 ISZERO PUSH2 0x330 JUMPI PUSH1 0x0 DUP1 REVERT JUMPDEST POP GAS CALL ISZERO DUP1 ISZERO PUSH2 0x344 JUMPI RETURNDATASIZE PUSH1 0x0 DUP1 RETURNDATACOPY RETURNDATASIZE PUSH1 0x0 REVERT JUMPDEST POP POP POP POP POP POP POP POP JUMP JUMPDEST PUSH2 0x356 PUSH2 0x4DB JUMP JUMPDEST PUSH1 0x0 DUP1 SLOAD SWAP1 PUSH2 0x100 EXP SWAP1 DIV PUSH20 0xFFFFFFFFFFFFFFFFFFFFFFFFFFFFFFFFFFFFFFFF AND PUSH20 0xFFFFFFFFFFFFFFFFFFFFFFFFFFFFFFFFFFFFFFFF AND PUSH4 0x6F77926B DUP4 PUSH1 0x40 MLOAD DUP3 PUSH4 0xFFFFFFFF AND PUSH1 0xE0 SHL DUP2 MSTORE PUSH1 0x4 ADD PUSH2 0x3AF SWAP2 SWAP1 PUSH2 0xBC0 JUMP JUMPDEST PUSH1 0x0 PUSH1 0x40 MLOAD DUP1 DUP4 SUB DUP2 DUP7 GAS STATICCALL ISZERO DUP1 ISZERO PUSH2 0x3CC JUMPI RETURNDATASIZE PUSH1 0x0 DUP1 RETURNDATACOPY RETURNDATASIZE PUSH1 0x0 REVERT JUMPDEST POP POP POP POP PUSH1 0x40 MLOAD RETURNDATASIZE PUSH1 0x0 DUP3 RETURNDATACOPY RETURNDATASIZE PUSH1 0x1F NOT PUSH1 0x1F DUP3 ADD AND DUP3 ADD DUP1 PUSH1 0x40 MSTORE POP DUP2 ADD SWAP1 PUSH2 0x3F5 SWAP2 SWAP1 PUSH2 0xDCA JUMP JUMPDEST SWAP1 POP SWAP2 SWAP1 POP JUMP JUMPDEST PUSH1 0x1 PUSH1 0x0 SWAP1 SLOAD SWAP1 PUSH2 0x100 EXP SWAP1 DIV PUSH20 0xFFFFFFFFFFFFFFFFFFFFFFFFFFFFFFFFFFFFFFFF AND DUP2 JUMP JUMPDEST PUSH1 0x1 PUSH1 0x0 SWAP1 SLOAD SWAP1 PUSH2 0x100 EXP SWAP1 DIV PUSH20 0xFFFFFFFFFFFFFFFFFFFFFFFFFFFFFFFFFFFFFFFF AND PUSH20 0xFFFFFFFFFFFFFFFFFFFFFFFFFFFFFFFFFFFFFFFF AND PUSH4 0xE0C57EC8 CALLER DUP5 DUP5 PUSH1 0x40 MLOAD DUP5 PUSH4 0xFFFFFFFF AND PUSH1 0xE0 SHL DUP2 MSTORE PUSH1 0x4 ADD PUSH2 0x481 SWAP4 SWAP3 SWAP2 SWAP1 PUSH2 0xE13 JUMP JUMPDEST PUSH1 0x0 PUSH1 0x40 MLOAD DUP1 DUP4 SUB DUP2 PUSH1 0x0 DUP8 DUP1 EXTCODESIZE ISZERO DUP1 ISZERO PUSH2 0x49B JUMPI PUSH1 0x0 DUP1 REVERT JUMPDEST POP GAS CALL ISZERO DUP1 ISZERO PUSH2 0x4AF JUMPI RETURNDATASIZE PUSH1 0x0 DUP1 RETURNDATACOPY RETURNDATASIZE PUSH1 0x0 REVERT JUMPDEST POP POP POP POP POP POP JUMP JUMPDEST PUSH1 0x0 DUP1 SLOAD SWAP1 PUSH2 0x100 EXP SWAP1 DIV PUSH20 0xFFFFFFFFFFFFFFFFFFFFFFFFFFFFFFFFFFFFFFFF AND DUP2 JUMP JUMPDEST PUSH1 0x40 MLOAD DUP1 PUSH1 0x60 ADD PUSH1 0x40 MSTORE DUP1 PUSH1 0x0 PUSH20 0xFFFFFFFFFFFFFFFFFFFFFFFFFFFFFFFFFFFFFFFF AND DUP2 MSTORE PUSH1 0x20 ADD PUSH1 0x60 DUP2 MSTORE PUSH1 0x20 ADD PUSH1 0x0 PUSH1 0x3 DUP2 GT ISZERO PUSH2 0x51E JUMPI PUSH2 0x51D PUSH2 0x809 JUMP JUMPDEST JUMPDEST DUP2 MSTORE POP SWAP1 JUMP JUMPDEST PUSH1 0x0 PUSH1 0x40 MLOAD SWAP1 POP SWAP1 JUMP JUMPDEST PUSH1 0x0 DUP1 REVERT JUMPDEST PUSH1 0x0 DUP1 REVERT JUMPDEST PUSH1 0x0 DUP1 REVERT JUMPDEST PUSH1 0x0 DUP1 REVERT JUMPDEST PUSH1 0x0 PUSH1 0x1F NOT PUSH1 0x1F DUP4 ADD AND SWAP1 POP SWAP2 SWAP1 POP JUMP JUMPDEST PUSH32 0x4E487B7100000000000000000000000000000000000000000000000000000000 PUSH1 0x0 MSTORE PUSH1 0x41 PUSH1 0x4 MSTORE PUSH1 0x24 PUSH1 0x0 REVERT JUMPDEST PUSH2 0x58B DUP3 PUSH2 0x542 JUMP JUMPDEST DUP2 ADD DUP2 DUP2 LT PUSH8 0xFFFFFFFFFFFFFFFF DUP3 GT OR ISZERO PUSH2 0x5AA JUMPI PUSH2 0x5A9 PUSH2 0x553 JUMP JUMPDEST JUMPDEST DUP1 PUSH1 0x40 MSTORE POP POP POP JUMP JUMPDEST PUSH1 0x0 PUSH2 0x5BD PUSH2 0x524 JUMP JUMPDEST SWAP1 POP PUSH2 0x5C9 DUP3 DUP3 PUSH2 0x582 JUMP JUMPDEST SWAP2 SWAP1 POP JUMP JUMPDEST PUSH1 0x0 PUSH8 0xFFFFFFFFFFFFFFFF DUP3 GT ISZERO PUSH2 0x5E9 JUMPI PUSH2 0x5E8 PUSH2 0x553 JUMP JUMPDEST JUMPDEST PUSH2 0x5F2 DUP3 PUSH2 0x542 JUMP JUMPDEST SWAP1 POP PUSH1 0x20 DUP2 ADD SWAP1 POP SWAP2 SWAP1 POP JUMP JUMPDEST DUP3 DUP2 DUP4 CALLDATACOPY PUSH1 0x0 DUP4 DUP4 ADD MSTORE POP POP POP JUMP JUMPDEST PUSH1 0x0 PUSH2 0x621 PUSH2 0x61C DUP5 PUSH2 0x5CE JUMP JUMPDEST PUSH2 0x5B3 JUMP JUMPDEST SWAP1 POP DUP3 DUP2 MSTORE PUSH1 0x20 DUP2 ADD DUP5 DUP5 DUP5 ADD GT ISZERO PUSH2 0x63D JUMPI PUSH2 0x63C PUSH2 0x53D JUMP JUMPDEST JUMPDEST PUSH2 0x648 DUP5 DUP3 DUP6 PUSH2 0x5FF JUMP JUMPDEST POP SWAP4 SWAP3 POP POP POP JUMP JUMPDEST PUSH1 0x0 DUP3 PUSH1 0x1F DUP4 ADD SLT PUSH2 0x665 JUMPI PUSH2 0x664 PUSH2 0x538 JUMP JUMPDEST JUMPDEST DUP2 CALLDATALOAD PUSH2 0x675 DUP5 DUP3 PUSH1 0x20 DUP7 ADD PUSH2 0x60E JUMP JUMPDEST SWAP2 POP POP SWAP3 SWAP2 POP POP JUMP JUMPDEST PUSH1 0x4 DUP2 LT PUSH2 0x68B JUMPI PUSH1 0x0 DUP1 REVERT JUMPDEST POP JUMP JUMPDEST PUSH1 0x0 DUP2 CALLDATALOAD SWAP1 POP PUSH2 0x69D DUP2 PUSH2 0x67E JUMP JUMPDEST SWAP3 SWAP2 POP POP JUMP JUMPDEST PUSH1 0x0 DUP1 PUSH1 0x40 DUP4 DUP6 SUB SLT ISZERO PUSH2 0x6BA JUMPI PUSH2 0x6B9 PUSH2 0x52E JUMP JUMPDEST JUMPDEST PUSH1 0x0 DUP4 ADD CALLDATALOAD PUSH8 0xFFFFFFFFFFFFFFFF DUP2 GT ISZERO PUSH2 0x6D8 JUMPI PUSH2 0x6D7 PUSH2 0x533 JUMP JUMPDEST JUMPDEST PUSH2 0x6E4 DUP6 DUP3 DUP7 ADD PUSH2 0x650 JUMP JUMPDEST SWAP3 POP POP PUSH1 0x20 PUSH2 0x6F5 DUP6 DUP3 DUP7 ADD PUSH2 0x68E JUMP JUMPDEST SWAP2 POP POP SWAP3 POP SWAP3 SWAP1 POP JUMP JUMPDEST PUSH1 0x0 PUSH20 0xFFFFFFFFFFFFFFFFFFFFFFFFFFFFFFFFFFFFFFFF DUP3 AND SWAP1 POP SWAP2 SWAP1 POP JUMP JUMPDEST PUSH1 0x0 PUSH2 0x72A DUP3 PUSH2 0x6FF JUMP JUMPDEST SWAP1 POP SWAP2 SWAP1 POP JUMP JUMPDEST PUSH2 0x73A DUP2 PUSH2 0x71F JUMP JUMPDEST DUP2 EQ PUSH2 0x745 JUMPI PUSH1 0x0 DUP1 REVERT JUMPDEST POP JUMP JUMPDEST PUSH1 0x0 DUP2 CALLDATALOAD SWAP1 POP PUSH2 0x757 DUP2 PUSH2 0x731 JUMP JUMPDEST SWAP3 SWAP2 POP POP JUMP JUMPDEST PUSH1 0x0 PUSH1 0x20 DUP3 DUP5 SUB SLT ISZERO PUSH2 0x773 JUMPI PUSH2 0x772 PUSH2 0x52E JUMP JUMPDEST JUMPDEST PUSH1 0x0 PUSH2 0x781 DUP5 DUP3 DUP6 ADD PUSH2 0x748 JUMP JUMPDEST SWAP2 POP POP SWAP3 SWAP2 POP POP JUMP JUMPDEST PUSH1 0x0 DUP2 MLOAD SWAP1 POP SWAP2 SWAP1 POP JUMP JUMPDEST PUSH1 0x0 DUP3 DUP3 MSTORE PUSH1 0x20 DUP3 ADD SWAP1 POP SWAP3 SWAP2 POP POP JUMP JUMPDEST PUSH1 0x0 JUMPDEST DUP4 DUP2 LT ISZERO PUSH2 0x7C4 JUMPI DUP1 DUP3 ADD MLOAD DUP2 DUP5 ADD MSTORE PUSH1 0x20 DUP2 ADD SWAP1 POP PUSH2 0x7A9 JUMP JUMPDEST PUSH1 0x0 DUP5 DUP5 ADD MSTORE POP POP POP POP JUMP JUMPDEST PUSH1 0x0 PUSH2 0x7DB DUP3 PUSH2 0x78A JUMP JUMPDEST PUSH2 0x7E5 DUP2 DUP6 PUSH2 0x795 JUMP JUMPDEST SWAP4 POP PUSH2 0x7F5 DUP2 DUP6 PUSH1 0x20 DUP7 ADD PUSH2 0x7A6 JUMP JUMPDEST PUSH2 0x7FE DUP2 PUSH2 0x542 JUMP JUMPDEST DUP5 ADD SWAP2 POP POP SWAP3 SWAP2 POP POP JUMP JUMPDEST PUSH32 0x4E487B7100000000000000000000000000000000000000000000000000000000 PUSH1 0x0 MSTORE PUSH1 0x21 PUSH1 0x4 MSTORE PUSH1 0x24 PUSH1 0x0 REVERT JUMPDEST PUSH1 0x4 DUP2 LT PUSH2 0x849 JUMPI PUSH2 0x848 PUSH2 0x809 JUMP JUMPDEST JUMPDEST POP JUMP JUMPDEST PUSH1 0x0 DUP2 SWAP1 POP PUSH2 0x85A DUP3 PUSH2 0x838 JUMP JUMPDEST SWAP2 SWAP1 POP JUMP JUMPDEST PUSH1 0x0 PUSH2 0x86A DUP3 PUSH2 0x84C JUMP JUMPDEST SWAP1 POP SWAP2 SWAP1 POP JUMP JUMPDEST PUSH2 0x87A DUP2 PUSH2 0x85F JUMP JUMPDEST DUP3 MSTORE POP POP JUMP JUMPDEST PUSH1 0x0 PUSH1 0x40 DUP3 ADD SWAP1 POP DUP2 DUP2 SUB PUSH1 0x0 DUP4 ADD MSTORE PUSH2 0x89A DUP2 DUP6 PUSH2 0x7D0 JUMP JUMPDEST SWAP1 POP PUSH2 0x8A9 PUSH1 0x20 DUP4 ADD DUP5 PUSH2 0x871 JUMP JUMPDEST SWAP4 SWAP3 POP POP POP JUMP JUMPDEST PUSH1 0x0 DUP1 PUSH1 0x0 DUP1 PUSH1 0x80 DUP6 DUP8 SUB SLT ISZERO PUSH2 0x8CA JUMPI PUSH2 0x8C9 PUSH2 0x52E JUMP JUMPDEST JUMPDEST PUSH1 0x0 DUP6 ADD CALLDATALOAD PUSH8 0xFFFFFFFFFFFFFFFF DUP2 GT ISZERO PUSH2 0x8E8 JUMPI PUSH2 0x8E7 PUSH2 0x533 JUMP JUMPDEST JUMPDEST PUSH2 0x8F4 DUP8 DUP3 DUP9 ADD PUSH2 0x650 JUMP JUMPDEST SWAP5 POP POP PUSH1 0x20 DUP6 ADD CALLDATALOAD PUSH8 0xFFFFFFFFFFFFFFFF DUP2 GT ISZERO PUSH2 0x915 JUMPI PUSH2 0x914 PUSH2 0x533 JUMP JUMPDEST JUMPDEST PUSH2 0x921 DUP8 DUP3 DUP9 ADD PUSH2 0x650 JUMP JUMPDEST SWAP4 POP POP PUSH1 0x40 DUP6 ADD CALLDATALOAD PUSH8 0xFFFFFFFFFFFFFFFF DUP2 GT ISZERO PUSH2 0x942 JUMPI PUSH2 0x941 PUSH2 0x533 JUMP JUMPDEST JUMPDEST PUSH2 0x94E DUP8 DUP3 DUP9 ADD PUSH2 0x650 JUMP JUMPDEST SWAP3 POP POP PUSH1 0x60 DUP6 ADD CALLDATALOAD PUSH8 0xFFFFFFFFFFFFFFFF DUP2 GT ISZERO PUSH2 0x96F JUMPI PUSH2 0x96E PUSH2 0x533 JUMP JUMPDEST JUMPDEST PUSH2 0x97B DUP8 DUP3 DUP9 ADD PUSH2 0x650 JUMP JUMPDEST SWAP2 POP POP SWAP3 SWAP6 SWAP2 SWAP5 POP SWAP3 POP JUMP JUMPDEST PUSH2 0x990 DUP2 PUSH2 0x71F JUMP JUMPDEST DUP3 MSTORE POP POP JUMP JUMPDEST PUSH1 0x0 DUP3 DUP3 MSTORE PUSH1 0x20 DUP3 ADD SWAP1 POP SWAP3 SWAP2 POP POP JUMP JUMPDEST PUSH1 0x0 PUSH2 0x9B2 DUP3 PUSH2 0x78A JUMP JUMPDEST PUSH2 0x9BC DUP2 DUP6 PUSH2 0x996 JUMP JUMPDEST SWAP4 POP PUSH2 0x9CC DUP2 DUP6 PUSH1 0x20 DUP7 ADD PUSH2 0x7A6 JUMP JUMPDEST PUSH2 0x9D5 DUP2 PUSH2 0x542 JUMP JUMPDEST DUP5 ADD SWAP2 POP POP SWAP3 SWAP2 POP POP JUMP JUMPDEST PUSH2 0x9E9 DUP2 PUSH2 0x85F JUMP JUMPDEST DUP3 MSTORE POP POP JUMP JUMPDEST PUSH1 0x0 PUSH1 0x60 DUP4 ADD PUSH1 0x0 DUP4 ADD MLOAD PUSH2 0xA07 PUSH1 0x0 DUP7 ADD DUP3 PUSH2 0x987 JUMP JUMPDEST POP PUSH1 0x20 DUP4 ADD MLOAD DUP5 DUP3 SUB PUSH1 0x20 DUP7 ADD MSTORE PUSH2 0xA1F DUP3 DUP3 PUSH2 0x9A7 JUMP JUMPDEST SWAP2 POP POP PUSH1 0x40 DUP4 ADD MLOAD PUSH2 0xA34 PUSH1 0x40 DUP7 ADD DUP3 PUSH2 0x9E0 JUMP JUMPDEST POP DUP1 SWAP2 POP POP SWAP3 SWAP2 POP POP JUMP JUMPDEST PUSH1 0x0 PUSH1 0x20 DUP3 ADD SWAP1 POP DUP2 DUP2 SUB PUSH1 0x0 DUP4 ADD MSTORE PUSH2 0xA59 DUP2 DUP5 PUSH2 0x9EF JUMP JUMPDEST SWAP1 POP SWAP3 SWAP2 POP POP JUMP JUMPDEST PUSH1 0x0 DUP2 SWAP1 POP SWAP2 SWAP1 POP JUMP JUMPDEST PUSH1 0x0 PUSH2 0xA86 PUSH2 0xA81 PUSH2 0xA7C DUP5 PUSH2 0x6FF JUMP JUMPDEST PUSH2 0xA61 JUMP JUMPDEST PUSH2 0x6FF JUMP JUMPDEST SWAP1 POP SWAP2 SWAP1 POP JUMP JUMPDEST PUSH1 0x0 PUSH2 0xA98 DUP3 PUSH2 0xA6B JUMP JUMPDEST SWAP1 POP SWAP2 SWAP1 POP JUMP JUMPDEST PUSH1 0x0 PUSH2 0xAAA DUP3 PUSH2 0xA8D JUMP JUMPDEST SWAP1 POP SWAP2 SWAP1 POP JUMP JUMPDEST PUSH2 0xABA DUP2 PUSH2 0xA9F JUMP JUMPDEST DUP3 MSTORE POP POP JUMP JUMPDEST PUSH1 0x0 PUSH1 0x20 DUP3 ADD SWAP1 POP PUSH2 0xAD5 PUSH1 0x0 DUP4 ADD DUP5 PUSH2 0xAB1 JUMP JUMPDEST SWAP3 SWAP2 POP POP JUMP JUMPDEST PUSH1 0x0 DUP1 PUSH1 0x40 DUP4 DUP6 SUB SLT ISZERO PUSH2 0xAF2 JUMPI PUSH2 0xAF1 PUSH2 0x52E JUMP JUMPDEST JUMPDEST PUSH1 0x0 PUSH2 0xB00 DUP6 DUP3 DUP7 ADD PUSH2 0x748 JUMP JUMPDEST SWAP3 POP POP PUSH1 0x20 DUP4 ADD CALLDATALOAD PUSH8 0xFFFFFFFFFFFFFFFF DUP2 GT ISZERO PUSH2 0xB21 JUMPI PUSH2 0xB20 PUSH2 0x533 JUMP JUMPDEST JUMPDEST PUSH2 0xB2D DUP6 DUP3 DUP7 ADD PUSH2 0x650 JUMP JUMPDEST SWAP2 POP POP SWAP3 POP SWAP3 SWAP1 POP JUMP JUMPDEST PUSH1 0x0 PUSH2 0xB42 DUP3 PUSH2 0xA8D JUMP JUMPDEST SWAP1 POP SWAP2 SWAP1 POP JUMP JUMPDEST PUSH2 0xB52 DUP2 PUSH2 0xB37 JUMP JUMPDEST DUP3 MSTORE POP POP JUMP JUMPDEST PUSH1 0x0 PUSH1 0x20 DUP3 ADD SWAP1 POP PUSH2 0xB6D PUSH1 0x0 DUP4 ADD DUP5 PUSH2 0xB49 JUMP JUMPDEST SWAP3 SWAP2 POP POP JUMP JUMPDEST PUSH2 0xB7C DUP2 PUSH2 0x71F JUMP JUMPDEST DUP3 MSTORE POP POP JUMP JUMPDEST PUSH1 0x0 PUSH1 0x60 DUP3 ADD SWAP1 POP PUSH2 0xB97 PUSH1 0x0 DUP4 ADD DUP7 PUSH2 0xB73 JUMP JUMPDEST DUP2 DUP2 SUB PUSH1 0x20 DUP4 ADD MSTORE PUSH2 0xBA9 DUP2 DUP6 PUSH2 0x7D0 JUMP JUMPDEST SWAP1 POP PUSH2 0xBB8 PUSH1 0x40 DUP4 ADD DUP5 PUSH2 0x871 JUMP JUMPDEST SWAP5 SWAP4 POP POP POP POP JUMP JUMPDEST PUSH1 0x0 PUSH1 0x20 DUP3 ADD SWAP1 POP PUSH2 0xBD5 PUSH1 0x0 DUP4 ADD DUP5 PUSH2 0xB73 JUMP JUMPDEST SWAP3 SWAP2 POP POP JUMP JUMPDEST PUSH1 0x0 PUSH2 0xBEE PUSH2 0xBE9 DUP5 PUSH2 0x5CE JUMP JUMPDEST PUSH2 0x5B3 JUMP JUMPDEST SWAP1 POP DUP3 DUP2 MSTORE PUSH1 0x20 DUP2 ADD DUP5 DUP5 DUP5 ADD GT ISZERO PUSH2 0xC0A JUMPI PUSH2 0xC09 PUSH2 0x53D JUMP JUMPDEST JUMPDEST PUSH2 0xC15 DUP5 DUP3 DUP6 PUSH2 0x7A6 JUMP JUMPDEST POP SWAP4 SWAP3 POP POP POP JUMP JUMPDEST PUSH1 0x0 DUP3 PUSH1 0x1F DUP4 ADD SLT PUSH2 0xC32 JUMPI PUSH2 0xC31 PUSH2 0x538 JUMP JUMPDEST JUMPDEST DUP2 MLOAD PUSH2 0xC42 DUP5 DUP3 PUSH1 0x20 DUP7 ADD PUSH2 0xBDB JUMP JUMPDEST SWAP2 POP POP SWAP3 SWAP2 POP POP JUMP JUMPDEST PUSH1 0x0 DUP2 MLOAD SWAP1 POP PUSH2 0xC5A DUP2 PUSH2 0x67E JUMP JUMPDEST SWAP3 SWAP2 POP POP JUMP JUMPDEST PUSH1 0x0 DUP1 PUSH1 0x40 DUP4 DUP6 SUB SLT ISZERO PUSH2 0xC77 JUMPI PUSH2 0xC76 PUSH2 0x52E JUMP JUMPDEST JUMPDEST PUSH1 0x0 DUP4 ADD MLOAD PUSH8 0xFFFFFFFFFFFFFFFF DUP2 GT ISZERO PUSH2 0xC95 JUMPI PUSH2 0xC94 PUSH2 0x533 JUMP JUMPDEST JUMPDEST PUSH2 0xCA1 DUP6 DUP3 DUP7 ADD PUSH2 0xC1D JUMP JUMPDEST SWAP3 POP POP PUSH1 0x20 PUSH2 0xCB2 DUP6 DUP3 DUP7 ADD PUSH2 0xC4B JUMP JUMPDEST SWAP2 POP POP SWAP3 POP SWAP3 SWAP1 POP JUMP JUMPDEST PUSH1 0x0 PUSH1 0xA0 DUP3 ADD SWAP1 POP PUSH2 0xCD1 PUSH1 0x0 DUP4 ADD DUP9 PUSH2 0xB73 JUMP JUMPDEST DUP2 DUP2 SUB PUSH1 0x20 DUP4 ADD MSTORE PUSH2 0xCE3 DUP2 DUP8 PUSH2 0x7D0 JUMP JUMPDEST SWAP1 POP DUP2 DUP2 SUB PUSH1 0x40 DUP4 ADD MSTORE PUSH2 0xCF7 DUP2 DUP7 PUSH2 0x7D0 JUMP JUMPDEST SWAP1 POP DUP2 DUP2 SUB PUSH1 0x60 DUP4 ADD MSTORE PUSH2 0xD0B DUP2 DUP6 PUSH2 0x7D0 JUMP JUMPDEST SWAP1 POP DUP2 DUP2 SUB PUSH1 0x80 DUP4 ADD MSTORE PUSH2 0xD1F DUP2 DUP5 PUSH2 0x7D0 JUMP JUMPDEST SWAP1 POP SWAP7 SWAP6 POP POP POP POP POP POP JUMP JUMPDEST PUSH1 0x0 DUP1 REVERT JUMPDEST PUSH1 0x0 DUP1 REVERT JUMPDEST PUSH1 0x0 DUP2 MLOAD SWAP1 POP PUSH2 0xD44 DUP2 PUSH2 0x731 JUMP JUMPDEST SWAP3 SWAP2 POP POP JUMP JUMPDEST PUSH1 0x0 PUSH1 0x60 DUP3 DUP5 SUB SLT ISZERO PUSH2 0xD60 JUMPI PUSH2 0xD5F PUSH2 0xD2B JUMP JUMPDEST JUMPDEST PUSH2 0xD6A PUSH1 0x60 PUSH2 0x5B3 JUMP JUMPDEST SWAP1 POP PUSH1 0x0 PUSH2 0xD7A DUP5 DUP3 DUP6 ADD PUSH2 0xD35 JUMP JUMPDEST PUSH1 0x0 DUP4 ADD MSTORE POP PUSH1 0x20 DUP3 ADD MLOAD PUSH8 0xFFFFFFFFFFFFFFFF DUP2 GT ISZERO PUSH2 0xD9E JUMPI PUSH2 0xD9D PUSH2 0xD30 JUMP JUMPDEST JUMPDEST PUSH2 0xDAA DUP5 DUP3 DUP6 ADD PUSH2 0xC1D JUMP JUMPDEST PUSH1 0x20 DUP4 ADD MSTORE POP PUSH1 0x40 PUSH2 0xDBE DUP5 DUP3 DUP6 ADD PUSH2 0xC4B JUMP JUMPDEST PUSH1 0x40 DUP4 ADD MSTORE POP SWAP3 SWAP2 POP POP JUMP JUMPDEST PUSH1 0x0 PUSH1 0x20 DUP3 DUP5 SUB SLT ISZERO PUSH2 0xDE0 JUMPI PUSH2 0xDDF PUSH2 0x52E JUMP JUMPDEST JUMPDEST PUSH1 0x0 DUP3 ADD MLOAD PUSH8 0xFFFFFFFFFFFFFFFF DUP2 GT ISZERO PUSH2 0xDFE JUMPI PUSH2 0xDFD PUSH2 0x533 JUMP JUMPDEST JUMPDEST PUSH2 0xE0A DUP5 DUP3 DUP6 ADD PUSH2 0xD4A JUMP JUMPDEST SWAP2 POP POP SWAP3 SWAP2 POP POP JUMP JUMPDEST PUSH1 0x0 PUSH1 0x60 DUP3 ADD SWAP1 POP PUSH2 0xE28 PUSH1 0x0 DUP4 ADD DUP7 PUSH2 0xB73 JUMP JUMPDEST PUSH2 0xE35 PUSH1 0x20 DUP4 ADD DUP6 PUSH2 0xB73 JUMP JUMPDEST DUP2 DUP2 SUB PUSH1 0x40 DUP4 ADD MSTORE PUSH2 0xE47 DUP2 DUP5 PUSH2 0x7D0 JUMP JUMPDEST SWAP1 POP SWAP5 SWAP4 POP POP POP POP JUMP INVALID LOG2 PUSH5 0x6970667358 0x22 SLT KECCAK256 EXTDELEGATECALL CALLVALUE RETURNCONTRACT 0x7F 0xE BLOBHASH SWAP5 0x4B BASEFEE 0x2D PUSH18 0xF49717326F4FFC022837A0477C43974AE722 0xB0 MLOAD LOG2 PUSH5 0x736F6C6343 STOP ADDMOD 0x1E STOP CALLER "},"methodIdentifiers":{"products()":"c71e261f","registerProduct(string,string,string,string)":"8799d6fc","registerUser(string,uint8)":"338e12eb","returnUser(address)":"bb8d6b1d","returnUserInfo(address)":"7ce7b7e0","sellProduct(address,string)":"e30d40f6","users()":"f2020275"}}}}}