{"project/contracts/Products.sol":{"Products":{"abi":[{"anonymous":false,"inputs":[{"indexed":false,"internalType":"string","name":"name","type":"string"},{"indexed":false,"internalType":"string","name":"manufacturerName","type":"string"},{"indexed":false,"internalType":"string","name":"barcode","type":"string"},{"indexed":false,"internalType":"string","name":"manufacturedTime","type":"string"}],"name":"NewProduct","type":"event"},{"anonymous":false,"inputs":[{"indexed":false,"internalType":"string","name":"name","type":"string"},{"indexed":false,"internalType":"string","name":"manufacturerName","type":"string"},{"indexed":false,"internalType":"string","name":"barcode","type":"string"},{"indexed":false,"internalType":"string","name":"buyerName","type":"string"},{"indexed":false,"internalType":"string","name":"sellerName","type":"string"},{"indexed":false,"internalType":"uint256","name":"transferTime","type":"uint256"}],"name":"ProductOwnershipTransfer","type":"event"},{"inputs":[{"internalType":"string","name":"_name","type":"string"},{"internalType":"string","name":"_manufacturerName","type":"string"},{"internalType":"string","name":"_barcode","type":"string"},{"internalType":"string","name":"_manufacturedTime","type":"string"}],"name":"addProduct","outputs":[],"stateMutability":"nonpayable","type":"function"},{"inputs":[{"internalType":"string","name":"","type":"string"},{"internalType":"uint256","name":"","type":"uint256"}],"name":"productHistory","outputs":[{"internalType":"address","name":"owner","type":"address"},{"internalType":"uint256","name":"timestamp","type":"uint256"}],"stateMutability":"view","type":"function"},{"inputs":[{"internalType":"uint256","name":"","type":"uint256"}],"name":"products","outputs":[{"internalType":"string","name":"name","type":"string"},{"internalType":"string","name":"manufacturerName","type":"string"},{"internalType":"string","name":"barcode","type":"string"},{"internalType":"string","name":"manufacturedTime","type":"string"}],"stateMutability":"view","type":"function"},{"inputs":[{"internalType":"address","name":"buyer","type":"address"},{"internalType":"string","name":"_barcode","type":"string"}],"name":"sell","outputs":[],"stateMutability":"nonpayable","type":"function"},{"inputs":[{"internalType":"address","name":"_users","type":"address"}],"name":"setUsersContract","outputs":[],"stateMutability":"nonpayable","type":"function"},{"inputs":[{"internalType":"address","name":"","type":"address"},{"internalType":"uint256","name":"","type":"uint256"}],"name":"userProducts","outputs":[{"internalType":"string","name":"","type":"string"}],"stateMutability":"view","type":"function"},{"inputs":[],"name":"users","outputs":[{"internalType":"contract Users","name":"","type":"address"}],"stateMutability":"view","type":"function"}],"evm":{"bytecode":{"linkReferences":{},"object":"6080604052348015600e575f5ffd5b506121e58061001c5f395ff3fe608060405234801561000f575f5ffd5b506004361061007b575f3560e01c80637acc0b20116100595780637acc0b20146100fc578063c60bdc7f1461012f578063f20202751461014b578063fde74e81146101695761007b565b806301970b111461007f5780633d527883146100b0578063655f272e146100e0575b5f5ffd5b6100996004803603810190610094919061147f565b610185565b6040516100a7929190611527565b60405180910390f35b6100ca60048036038101906100c59190611578565b6101f6565b6040516100d79190611616565b60405180910390f35b6100fa60048036038101906100f59190611636565b6102a7565b005b61011660048036038101906101119190611690565b610a1d565b60405161012694939291906116bb565b60405180910390f35b6101496004803603810190610144919061171a565b610c70565b005b610153610cb2565b60405161016091906117a0565b60405180910390f35b610183600480360381019061017e91906117b9565b610cd6565b005b60038280516020810182018051848252602083016020850120818352809550505050505081815481106101b6575f80fd5b905f5260205f2090600202015f9150915050805f015f9054906101000a900473ffffffffffffffffffffffffffffffffffffffff16908060010154905082565b6002602052815f5260405f20818154811061020f575f80fd5b905f5260205f20015f91509150508054610228906118ba565b80601f0160208091040260200160405190810160405280929190818152602001828054610254906118ba565b801561029f5780601f106102765761010080835404028352916020019161029f565b820191905f5260205f20905b81548152906001019060200180831161028257829003601f168201915b505050505081565b6102af61127f565b5f5f90505f5f90505b60018054905081101561058c578380519060200120600182815481106102e1576102e06118ea565b5b905f5260205f2090600402016002016040516102fd91906119b3565b60405180910390200361057f576001818154811061031e5761031d6118ea565b5b905f5260205f2090600402016040518060800160405290815f82018054610344906118ba565b80601f0160208091040260200160405190810160405280929190818152602001828054610370906118ba565b80156103bb5780601f10610392576101008083540402835291602001916103bb565b820191905f5260205f20905b81548152906001019060200180831161039e57829003601f168201915b505050505081526020016001820180546103d4906118ba565b80601f0160208091040260200160405190810160405280929190818152602001828054610400906118ba565b801561044b5780601f106104225761010080835404028352916020019161044b565b820191905f5260205f20905b81548152906001019060200180831161042e57829003601f168201915b50505050508152602001600282018054610464906118ba565b80601f0160208091040260200160405190810160405280929190818152602001828054610490906118ba565b80156104db5780601f106104b2576101008083540402835291602001916104db565b820191905f5260205f20905b8154815290600101906020018083116104be57829003601f168201915b505050505081526020016003820180546104f4906118ba565b80601f0160208091040260200160405190810160405280929190818152602001828054610520906118ba565b801561056b5780601f106105425761010080835404028352916020019161056b565b820191905f5260205f20905b81548152906001019060200180831161054e57829003601f168201915b50505050508152505092506001915061058c565b80806001019150506102b8565b50806105cd576040517f08c379a00000000000000000000000000000000000000000000000000000000081526004016105c490611a13565b60405180910390fd5b5f60025f3373ffffffffffffffffffffffffffffffffffffffff1673ffffffffffffffffffffffffffffffffffffffff1681526020019081526020015f2090505f818054905090505f5f90505b8280549050811015610678578580519060200120838281548110610641576106406118ea565b5b905f5260205f200160405161065691906119b3565b60405180910390200361066b57809150610678565b808060010191505061061a565b50818054905081106106bf576040517f08c379a00000000000000000000000000000000000000000000000000000000081526004016106b690611a7b565b60405180910390fd5b600182805490506106d09190611ac6565b81101561072b5781600183805490506106e99190611ac6565b815481106106fa576106f96118ea565b5b905f5260205f2001828281548110610715576107146118ea565b5b905f5260205f200190816107299190611cb7565b505b8180548061073c5761073b611d9c565b5b600190038181905f5260205f20015f61075591906112a7565b905560025f8773ffffffffffffffffffffffffffffffffffffffff1673ffffffffffffffffffffffffffffffffffffffff1681526020019081526020015f2085908060018154018082558091505060019003905f5260205f20015f9091909190915090816107c39190611dc9565b506003856040516107d49190611ed2565b908152602001604051809103902060405180604001604052808873ffffffffffffffffffffffffffffffffffffffff16815260200142815250908060018154018082558091505060019003905f5260205f2090600202015f909190919091505f820151815f015f6101000a81548173ffffffffffffffffffffffffffffffffffffffff021916908373ffffffffffffffffffffffffffffffffffffffff1602179055506020820151816001015550505f5f5f9054906101000a900473ffffffffffffffffffffffffffffffffffffffff1673ffffffffffffffffffffffffffffffffffffffff16636f77926b886040518263ffffffff1660e01b81526004016108dd9190611ee8565b5f60405180830381865afa1580156108f7573d5f5f3e3d5ffd5b505050506040513d5f823e3d601f19601f8201168201806040525081019061091f919061202b565b6020015190505f5f5f9054906101000a900473ffffffffffffffffffffffffffffffffffffffff1673ffffffffffffffffffffffffffffffffffffffff16636f77926b336040518263ffffffff1660e01b815260040161097f9190611ee8565b5f60405180830381865afa158015610999573d5f5f3e3d5ffd5b505050506040513d5f823e3d601f19601f820116820180604052508101906109c1919061202b565b6020015190507fb09bd448f452afeabbdf6078f66a59e7b184526893c0d0246f81bcce51990801865f015187602001518860400151858542604051610a0b96959493929190612072565b60405180910390a15050505050505050565b60018181548110610a2c575f80fd5b905f5260205f2090600402015f91509050805f018054610a4b906118ba565b80601f0160208091040260200160405190810160405280929190818152602001828054610a77906118ba565b8015610ac25780601f10610a9957610100808354040283529160200191610ac2565b820191905f5260205f20905b815481529060010190602001808311610aa557829003601f168201915b505050505090806001018054610ad7906118ba565b80601f0160208091040260200160405190810160405280929190818152602001828054610b03906118ba565b8015610b4e5780601f10610b2557610100808354040283529160200191610b4e565b820191905f5260205f20905b815481529060010190602001808311610b3157829003601f168201915b505050505090806002018054610b63906118ba565b80601f0160208091040260200160405190810160405280929190818152602001828054610b8f906118ba565b8015610bda5780601f10610bb157610100808354040283529160200191610bda565b820191905f5260205f20905b815481529060010190602001808311610bbd57829003601f168201915b505050505090806003018054610bef906118ba565b80601f0160208091040260200160405190810160405280929190818152602001828054610c1b906118ba565b8015610c665780601f10610c3d57610100808354040283529160200191610c66565b820191905f5260205f20905b815481529060010190602001808311610c4957829003601f168201915b5050505050905084565b805f5f6101000a81548173ffffffffffffffffffffffffffffffffffffffff021916908373ffffffffffffffffffffffffffffffffffffffff16021790555050565b5f5f9054906101000a900473ffffffffffffffffffffffffffffffffffffffff1681565b5f5f5f9054906101000a900473ffffffffffffffffffffffffffffffffffffffff1673ffffffffffffffffffffffffffffffffffffffff16636f77926b336040518263ffffffff1660e01b8152600401610d309190611ee8565b5f60405180830381865afa158015610d4a573d5f5f3e3d5ffd5b505050506040513d5f823e3d601f19601f82011682018060405250810190610d72919061202b565b90505f6003811115610d8757610d866120f4565b5b81604001516003811115610d9e57610d9d6120f4565b5b14610dde576040517f08c379a0000000000000000000000000000000000000000000000000000000008152600401610dd590612191565b60405180910390fd5b6001604051806080016040528087815260200186815260200185815260200184815250908060018154018082558091505060019003905f5260205f2090600402015f909190919091505f820151815f019081610e3a9190611dc9565b506020820151816001019081610e509190611dc9565b506040820151816002019081610e669190611dc9565b506060820151816003019081610e7c9190611dc9565b5050505f6001808080549050610e929190611ac6565b81548110610ea357610ea26118ea565b5b905f5260205f2090600402016040518060800160405290815f82018054610ec9906118ba565b80601f0160208091040260200160405190810160405280929190818152602001828054610ef5906118ba565b8015610f405780601f10610f1757610100808354040283529160200191610f40565b820191905f5260205f20905b815481529060010190602001808311610f2357829003601f168201915b50505050508152602001600182018054610f59906118ba565b80601f0160208091040260200160405190810160405280929190818152602001828054610f85906118ba565b8015610fd05780601f10610fa757610100808354040283529160200191610fd0565b820191905f5260205f20905b815481529060010190602001808311610fb357829003601f168201915b50505050508152602001600282018054610fe9906118ba565b80601f0160208091040260200160405190810160405280929190818152602001828054611015906118ba565b80156110605780601f1061103757610100808354040283529160200191611060565b820191905f5260205f20905b81548152906001019060200180831161104357829003601f168201915b50505050508152602001600382018054611079906118ba565b80601f01602080910402602001604051908101604052809291908181526020018280546110a5906118ba565b80156110f05780601f106110c7576101008083540402835291602001916110f0565b820191905f5260205f20905b8154815290600101906020018083116110d357829003601f168201915b505050505081525050905060025f3373ffffffffffffffffffffffffffffffffffffffff1673ffffffffffffffffffffffffffffffffffffffff1681526020019081526020015f2084908060018154018082558091505060019003905f5260205f20015f9091909190915090816111679190611dc9565b506003816040015160405161117c9190611ed2565b908152602001604051809103902060405180604001604052803373ffffffffffffffffffffffffffffffffffffffff16815260200142815250908060018154018082558091505060019003905f5260205f2090600202015f909190919091505f820151815f015f6101000a81548173ffffffffffffffffffffffffffffffffffffffff021916908373ffffffffffffffffffffffffffffffffffffffff1602179055506020820151816001015550507f11563e9d0c09817a487768ace63943d092729823f906f1244b854ab350a51f1e815f015182602001518360400151846060015160405161126f94939291906116bb565b60405180910390a1505050505050565b6040518060800160405280606081526020016060815260200160608152602001606081525090565b5080546112b3906118ba565b5f825580601f106112c457506112e1565b601f0160209004905f5260205f20908101906112e091906112e4565b5b50565b5b808211156112fb575f815f9055506001016112e5565b5090565b5f604051905090565b5f5ffd5b5f5ffd5b5f5ffd5b5f5ffd5b5f601f19601f8301169050919050565b7f4e487b71000000000000000000000000000000000000000000000000000000005f52604160045260245ffd5b61135e82611318565b810181811067ffffffffffffffff8211171561137d5761137c611328565b5b80604052505050565b5f61138f6112ff565b905061139b8282611355565b919050565b5f67ffffffffffffffff8211156113ba576113b9611328565b5b6113c382611318565b9050602081019050919050565b828183375f83830152505050565b5f6113f06113eb846113a0565b611386565b90508281526020810184848401111561140c5761140b611314565b5b6114178482856113d0565b509392505050565b5f82601f83011261143357611432611310565b5b81356114438482602086016113de565b91505092915050565b5f819050919050565b61145e8161144c565b8114611468575f5ffd5b50565b5f8135905061147981611455565b92915050565b5f5f6040838503121561149557611494611308565b5b5f83013567ffffffffffffffff8111156114b2576114b161130c565b5b6114be8582860161141f565b92505060206114cf8582860161146b565b9150509250929050565b5f73ffffffffffffffffffffffffffffffffffffffff82169050919050565b5f611502826114d9565b9050919050565b611512816114f8565b82525050565b6115218161144c565b82525050565b5f60408201905061153a5f830185611509565b6115476020830184611518565b9392505050565b611557816114f8565b8114611561575f5ffd5b50565b5f813590506115728161154e565b92915050565b5f5f6040838503121561158e5761158d611308565b5b5f61159b85828601611564565b92505060206115ac8582860161146b565b9150509250929050565b5f81519050919050565b5f82825260208201905092915050565b8281835e5f83830152505050565b5f6115e8826115b6565b6115f281856115c0565b93506116028185602086016115d0565b61160b81611318565b840191505092915050565b5f6020820190508181035f83015261162e81846115de565b905092915050565b5f5f6040838503121561164c5761164b611308565b5b5f61165985828601611564565b925050602083013567ffffffffffffffff81111561167a5761167961130c565b5b6116868582860161141f565b9150509250929050565b5f602082840312156116a5576116a4611308565b5b5f6116b28482850161146b565b91505092915050565b5f6080820190508181035f8301526116d381876115de565b905081810360208301526116e781866115de565b905081810360408301526116fb81856115de565b9050818103606083015261170f81846115de565b905095945050505050565b5f6020828403121561172f5761172e611308565b5b5f61173c84828501611564565b91505092915050565b5f819050919050565b5f61176861176361175e846114d9565b611745565b6114d9565b9050919050565b5f6117798261174e565b9050919050565b5f61178a8261176f565b9050919050565b61179a81611780565b82525050565b5f6020820190506117b35f830184611791565b92915050565b5f5f5f5f608085870312156117d1576117d0611308565b5b5f85013567ffffffffffffffff8111156117ee576117ed61130c565b5b6117fa8782880161141f565b945050602085013567ffffffffffffffff81111561181b5761181a61130c565b5b6118278782880161141f565b935050604085013567ffffffffffffffff8111156118485761184761130c565b5b6118548782880161141f565b925050606085013567ffffffffffffffff8111156118755761187461130c565b5b6118818782880161141f565b91505092959194509250565b7f4e487b71000000000000000000000000000000000000000000000000000000005f52602260045260245ffd5b5f60028204905060018216806118d157607f821691505b6020821081036118e4576118e361188d565b5b50919050565b7f4e487b71000000000000000000000000000000000000000000000000000000005f52603260045260245ffd5b5f81905092915050565b5f819050815f5260205f209050919050565b5f815461193f816118ba565b6119498186611917565b9450600182165f81146119635760018114611978576119aa565b60ff19831686528115158202860193506119aa565b61198185611921565b5f5b838110156119a257815481890152600182019150602081019050611983565b838801955050505b50505092915050565b5f6119be8284611933565b915081905092915050565b7f50726f64756374206e6f7420666f756e640000000000000000000000000000005f82015250565b5f6119fd6011836115c0565b9150611a08826119c9565b602082019050919050565b5f6020820190508181035f830152611a2a816119f1565b9050919050565b7f50726f64756374206e6f7420696e2073656c6c657220696e76656e746f7279005f82015250565b5f611a65601f836115c0565b9150611a7082611a31565b602082019050919050565b5f6020820190508181035f830152611a9281611a59565b9050919050565b7f4e487b71000000000000000000000000000000000000000000000000000000005f52601160045260245ffd5b5f611ad08261144c565b9150611adb8361144c565b9250828203905081811115611af357611af2611a99565b5b92915050565b5f81549050611b07816118ba565b9050919050565b5f819050815f5260205f209050919050565b5f819050815f5260205f209050919050565b5f6020601f8301049050919050565b5f82821b905092915050565b5f60088302611b7c7fffffffffffffffffffffffffffffffffffffffffffffffffffffffffffffffff82611b41565b611b868683611b41565b95508019841693508086168417925050509392505050565b5f611bb8611bb3611bae8461144c565b611745565b61144c565b9050919050565b5f819050919050565b611bd183611b9e565b611be5611bdd82611bbf565b848454611b4d565b825550505050565b5f5f905090565b611bfc611bed565b611c07818484611bc8565b505050565b5b81811015611c2a57611c1f5f82611bf4565b600181019050611c0d565b5050565b601f821115611c6f57611c4081611b0e565b611c4984611b32565b81016020851015611c58578190505b611c6c611c6485611b32565b830182611c0c565b50505b505050565b5f82821c905092915050565b5f611c8f5f1984600802611c74565b1980831691505092915050565b5f611ca78383611c80565b9150826002028217905092915050565b818103611cc5575050611d9a565b611cce82611af9565b67ffffffffffffffff811115611ce757611ce6611328565b5b611cf182546118ba565b611cfc828285611c2e565b5f601f831160018114611d29575f8415611d17578287015490505b611d218582611c9c565b865550611d93565b601f198416611d3787611b20565b9650611d4286611b0e565b5f5b82811015611d6957848901548255600182019150600185019450602081019050611d44565b86831015611d865784890154611d82601f891682611c80565b8355505b6001600288020188555050505b5050505050505b565b7f4e487b71000000000000000000000000000000000000000000000000000000005f52603160045260245ffd5b611dd2826115b6565b67ffffffffffffffff811115611deb57611dea611328565b5b611df582546118ba565b611e00828285611c2e565b5f60209050601f831160018114611e31575f8415611e1f578287015190505b611e298582611c9c565b865550611e90565b601f198416611e3f86611b0e565b5f5b82811015611e6657848901518255600182019150602085019450602081019050611e41565b86831015611e835784890151611e7f601f891682611c80565b8355505b6001600288020188555050505b505050505050565b5f81905092915050565b5f611eac826115b6565b611eb68185611e98565b9350611ec68185602086016115d0565b80840191505092915050565b5f611edd8284611ea2565b915081905092915050565b5f602082019050611efb5f830184611509565b92915050565b5f5ffd5b5f5ffd5b5f81519050611f178161154e565b92915050565b5f611f2f611f2a846113a0565b611386565b905082815260208101848484011115611f4b57611f4a611314565b5b611f568482856115d0565b509392505050565b5f82601f830112611f7257611f71611310565b5b8151611f82848260208601611f1d565b91505092915050565b60048110611f97575f5ffd5b50565b5f81519050611fa881611f8b565b92915050565b5f60608284031215611fc357611fc2611f01565b5b611fcd6060611386565b90505f611fdc84828501611f09565b5f83015250602082015167ffffffffffffffff811115611fff57611ffe611f05565b5b61200b84828501611f5e565b602083015250604061201f84828501611f9a565b60408301525092915050565b5f602082840312156120405761203f611308565b5b5f82015167ffffffffffffffff81111561205d5761205c61130c565b5b61206984828501611fae565b91505092915050565b5f60c0820190508181035f83015261208a81896115de565b9050818103602083015261209e81886115de565b905081810360408301526120b281876115de565b905081810360608301526120c681866115de565b905081810360808301526120da81856115de565b90506120e960a0830184611518565b979650505050505050565b7f4e487b71000000000000000000000000000000000000000000000000000000005f52602160045260245ffd5b7f4f6e6c79206d616e7566616374757265722063616e206164642070726f6475635f8201527f74732e0000000000000000000000000000000000000000000000000000000000602082015250565b5f61217b6023836115c0565b915061218682612121565b604082019050919050565b5f6020820190508181035f8301526121a88161216f565b905091905056fea264697066735822122056117f20566805ff537985584b0ba0938eb9d8f89a12f6d830e662d549d7e3e464736f6c634300081e0033","opcodes":"PUSH1 0x80 PUSH1 0x40 MSTORE CALLVALUE DUP1 ISZERO PUSH1 0xE JUMPI PUSH0 PUSH0 REVERT JUMPDEST POP PUSH2 0x21E5 DUP1 PUSH2 0x1C PUSH0 CODECOPY PUSH0 RETURN INVALID PUSH1 0x80 PUSH1 0x40 MSTORE CALLVALUE DUP1 ISZERO PUSH2 0xF JUMPI PUSH0 PUSH0 REVERT JUMPDEST POP PUSH1 0x4 CALLDATASIZE LT PUSH2 0x7B JUMPI PUSH0 CALLDATALOAD PUSH1 0xE0 SHR DUP1 PUSH4 0x7ACC0B20 GT PUSH2 0x59 JUMPI DUP1 PUSH4 0x7ACC0B20 EQ PUSH2 0xFC JUMPI DUP1 PUSH4 0xC60BDC7F EQ PUSH2 0x12F JUMPI DUP1 PUSH4 0xF2020275 EQ PUSH2 0x14B JUMPI DUP1 PUSH4 0xFDE74E81 EQ PUSH2 0x169 JUMPI PUSH2 0x7B JUMP JUMPDEST DUP1 PUSH4 0x1970B11 EQ PUSH2 0x7F JUMPI DUP1 PUSH4 0x3D527883 EQ PUSH2 0xB0 JUMPI DUP1 PUSH4 0x655F272E EQ PUSH2 0xE0 JUMPI JUMPDEST PUSH0 PUSH0 REVERT JUMPDEST PUSH2 0x99 PUSH1 0x4 DUP1 CALLDATASIZE SUB DUP2 ADD SWAP1 PUSH2 0x94 SWAP2 SWAP1 PUSH2 0x147F JUMP JUMPDEST PUSH2 0x185 JUMP JUMPDEST PUSH1 0x40 MLOAD PUSH2 0xA7 SWAP3 SWAP2 SWAP1 PUSH2 0x1527 JUMP JUMPDEST PUSH1 0x40 MLOAD DUP1 SWAP2 SUB SWAP1 RETURN JUMPDEST PUSH2 0xCA PUSH1 0x4 DUP1 CALLDATASIZE SUB DUP2 ADD SWAP1 PUSH2 0xC5 SWAP2 SWAP1 PUSH2 0x1578 JUMP JUMPDEST PUSH2 0x1F6 JUMP JUMPDEST PUSH1 0x40 MLOAD PUSH2 0xD7 SWAP2 SWAP1 PUSH2 0x1616 JUMP JUMPDEST PUSH1 0x40 MLOAD DUP1 SWAP2 SUB SWAP1 RETURN JUMPDEST PUSH2 0xFA PUSH1 0x4 DUP1 CALLDATASIZE SUB DUP2 ADD SWAP1 PUSH2 0xF5 SWAP2 SWAP1 PUSH2 0x1636 JUMP JUMPDEST PUSH2 0x2A7 JUMP JUMPDEST STOP JUMPDEST PUSH2 0x116 PUSH1 0x4 DUP1 CALLDATASIZE SUB DUP2 ADD SWAP1 PUSH2 0x111 SWAP2 SWAP1 PUSH2 0x1690 JUMP JUMPDEST PUSH2 0xA1D JUMP JUMPDEST PUSH1 0x40 MLOAD PUSH2 0x126 SWAP5 SWAP4 SWAP3 SWAP2 SWAP1 PUSH2 0x16BB JUMP JUMPDEST PUSH1 0x40 MLOAD DUP1 SWAP2 SUB SWAP1 RETURN JUMPDEST PUSH2 0x149 PUSH1 0x4 DUP1 CALLDATASIZE SUB DUP2 ADD SWAP1 PUSH2 0x144 SWAP2 SWAP1 PUSH2 0x171A JUMP JUMPDEST PUSH2 0xC70 JUMP JUMPDEST STOP JUMPDEST PUSH2 0x153 PUSH2 0xCB2 JUMP JUMPDEST PUSH1 0x40 MLOAD PUSH2 0x160 SWAP2 SWAP1 PUSH2 0x17A0 JUMP JUMPDEST PUSH1 0x40 MLOAD DUP1 SWAP2 SUB SWAP1 RETURN JUMPDEST PUSH2 0x183 PUSH1 0x4 DUP1 CALLDATASIZE SUB DUP2 ADD SWAP1 PUSH2 0x17E SWAP2 SWAP1 PUSH2 0x17B9 JUMP JUMPDEST PUSH2 0xCD6 JUMP JUMPDEST STOP JUMPDEST PUSH1 0x3 DUP3 DUP1 MLOAD PUSH1 0x20 DUP2 ADD DUP3 ADD DUP1 MLOAD DUP5 DUP3 MSTORE PUSH1 0x20 DUP4 ADD PUSH1 0x20 DUP6 ADD KECCAK256 DUP2 DUP4 MSTORE DUP1 SWAP6 POP POP POP POP POP POP DUP2 DUP2 SLOAD DUP2 LT PUSH2 0x1B6 JUMPI PUSH0 DUP1 REVERT JUMPDEST SWAP1 PUSH0 MSTORE PUSH1 0x20 PUSH0 KECCAK256 SWAP1 PUSH1 0x2 MUL ADD PUSH0 SWAP2 POP SWAP2 POP POP DUP1 PUSH0 ADD PUSH0 SWAP1 SLOAD SWAP1 PUSH2 0x100 EXP SWAP1 DIV PUSH20 0xFFFFFFFFFFFFFFFFFFFFFFFFFFFFFFFFFFFFFFFF AND SWAP1 DUP1 PUSH1 0x1 ADD SLOAD SWAP1 POP DUP3 JUMP JUMPDEST PUSH1 0x2 PUSH1 0x20 MSTORE DUP2 PUSH0 MSTORE PUSH1 0x40 PUSH0 KECCAK256 DUP2 DUP2 SLOAD DUP2 LT PUSH2 0x20F JUMPI PUSH0 DUP1 REVERT JUMPDEST SWAP1 PUSH0 MSTORE PUSH1 0x20 PUSH0 KECCAK256 ADD PUSH0 SWAP2 POP SWAP2 POP POP DUP1 SLOAD PUSH2 0x228 SWAP1 PUSH2 0x18BA JUMP JUMPDEST DUP1 PUSH1 0x1F ADD PUSH1 0x20 DUP1 SWAP2 DIV MUL PUSH1 0x20 ADD PUSH1 0x40 MLOAD SWAP1 DUP2 ADD PUSH1 0x40 MSTORE DUP1 SWAP3 SWAP2 SWAP1 DUP2 DUP2 MSTORE PUSH1 0x20 ADD DUP3 DUP1 SLOAD PUSH2 0x254 SWAP1 PUSH2 0x18BA JUMP JUMPDEST DUP1 ISZERO PUSH2 0x29F JUMPI DUP1 PUSH1 0x1F LT PUSH2 0x276 JUMPI PUSH2 0x100 DUP1 DUP4 SLOAD DIV MUL DUP4 MSTORE SWAP2 PUSH1 0x20 ADD SWAP2 PUSH2 0x29F JUMP JUMPDEST DUP3 ADD SWAP2 SWAP1 PUSH0 MSTORE PUSH1 0x20 PUSH0 KECCAK256 SWAP1 JUMPDEST DUP2 SLOAD DUP2 MSTORE SWAP1 PUSH1 0x1 ADD SWAP1 PUSH1 0x20 ADD DUP1 DUP4 GT PUSH2 0x282 JUMPI DUP3 SWAP1 SUB PUSH1 0x1F AND DUP3 ADD SWAP2 JUMPDEST POP POP POP POP POP DUP2 JUMP JUMPDEST PUSH2 0x2AF PUSH2 0x127F JUMP JUMPDEST PUSH0 PUSH0 SWAP1 POP PUSH0 PUSH0 SWAP1 POP JUMPDEST PUSH1 0x1 DUP1 SLOAD SWAP1 POP DUP2 LT ISZERO PUSH2 0x58C JUMPI DUP4 DUP1 MLOAD SWAP1 PUSH1 0x20 ADD KECCAK256 PUSH1 0x1 DUP3 DUP2 SLOAD DUP2 LT PUSH2 0x2E1 JUMPI PUSH2 0x2E0 PUSH2 0x18EA JUMP JUMPDEST JUMPDEST SWAP1 PUSH0 MSTORE PUSH1 0x20 PUSH0 KECCAK256 SWAP1 PUSH1 0x4 MUL ADD PUSH1 0x2 ADD PUSH1 0x40 MLOAD PUSH2 0x2FD SWAP2 SWAP1 PUSH2 0x19B3 JUMP JUMPDEST PUSH1 0x40 MLOAD DUP1 SWAP2 SUB SWAP1 KECCAK256 SUB PUSH2 0x57F JUMPI PUSH1 0x1 DUP2 DUP2 SLOAD DUP2 LT PUSH2 0x31E JUMPI PUSH2 0x31D PUSH2 0x18EA JUMP JUMPDEST JUMPDEST SWAP1 PUSH0 MSTORE PUSH1 0x20 PUSH0 KECCAK256 SWAP1 PUSH1 0x4 MUL ADD PUSH1 0x40 MLOAD DUP1 PUSH1 0x80 ADD PUSH1 0x40 MSTORE SWAP1 DUP2 PUSH0 DUP3 ADD DUP1 SLOAD PUSH2 0x344 SWAP1 PUSH2 0x18BA JUMP JUMPDEST DUP1 PUSH1 0x1F ADD PUSH1 0x20 DUP1 SWAP2 DIV MUL PUSH1 0x20 ADD PUSH1 0x40 MLOAD SWAP1 DUP2 ADD PUSH1 0x40 MSTORE DUP1 SWAP3 SWAP2 SWAP1 DUP2 DUP2 MSTORE PUSH1 0x20 ADD DUP3 DUP1 SLOAD PUSH2 0x370 SWAP1 PUSH2 0x18BA JUMP JUMPDEST DUP1 ISZERO PUSH2 0x3BB JUMPI DUP1 PUSH1 0x1F LT PUSH2 0x392 JUMPI PUSH2 0x100 DUP1 DUP4 SLOAD DIV MUL DUP4 MSTORE SWAP2 PUSH1 0x20 ADD SWAP2 PUSH2 0x3BB JUMP JUMPDEST DUP3 ADD SWAP2 SWAP1 PUSH0 MSTORE PUSH1 0x20 PUSH0 KECCAK256 SWAP1 JUMPDEST DUP2 SLOAD DUP2 MSTORE SWAP1 PUSH1 0x1 ADD SWAP1 PUSH1 0x20 ADD DUP1 DUP4 GT PUSH2 0x39E JUMPI DUP3 SWAP1 SUB PUSH1 0x1F AND DUP3 ADD SWAP2 JUMPDEST POP POP POP POP POP DUP2 MSTORE PUSH1 0x20 ADD PUSH1 0x1 DUP3 ADD DUP1 SLOAD PUSH2 0x3D4 SWAP1 PUSH2 0x18BA JUMP JUMPDEST DUP1 PUSH1 0x1F ADD PUSH1 0x20 DUP1 SWAP2 DIV MUL PUSH1 0x20 ADD PUSH1 0x40 MLOAD SWAP1 DUP2 ADD PUSH1 0x40 MSTORE DUP1 SWAP3 SWAP2 SWAP1 DUP2 DUP2 MSTORE PUSH1 0x20 ADD DUP3 DUP1 SLOAD PUSH2 0x400 SWAP1 PUSH2 0x18BA JUMP JUMPDEST DUP1 ISZERO PUSH2 0x44B JUMPI DUP1 PUSH1 0x1F LT PUSH2 0x422 JUMPI PUSH2 0x100 DUP1 DUP4 SLOAD DIV MUL DUP4 MSTORE SWAP2 PUSH1 0x20 ADD SWAP2 PUSH2 0x44B JUMP JUMPDEST DUP3 ADD SWAP2 SWAP1 PUSH0 MSTORE PUSH1 0x20 PUSH0 KECCAK256 SWAP1 JUMPDEST DUP2 SLOAD DUP2 MSTORE SWAP1 PUSH1 0x1 ADD SWAP1 PUSH1 0x20 ADD DUP1 DUP4 GT PUSH2 0x42E JUMPI DUP3 SWAP1 SUB PUSH1 0x1F AND DUP3 ADD SWAP2 JUMPDEST POP POP POP POP POP DUP2 MSTORE PUSH1 0x20 ADD PUSH1 0x2 DUP3 ADD DUP1 SLOAD PUSH2 0x464 SWAP1 PUSH2 0x18BA JUMP JUMPDEST DUP1 PUSH1 0x1F ADD PUSH1 0x20 DUP1 SWAP2 DIV MUL PUSH1 0x20 ADD PUSH1 0x40 MLOAD SWAP1 DUP2 ADD PUSH1 0x40 MSTORE DUP1 SWAP3 SWAP2 SWAP1 DUP2 DUP2 MSTORE PUSH1 0x20 ADD DUP3 DUP1 SLOAD PUSH2 0x490 SWAP1 PUSH2 0x18BA JUMP JUMPDEST DUP1 ISZERO PUSH2 0x4DB JUMPI DUP1 PUSH1 0x1F LT PUSH2 0x4B2 JUMPI PUSH2 0x100 DUP1 DUP4 SLOAD DIV MUL DUP4 MSTORE SWAP2 PUSH1 0x20 ADD SWAP2 PUSH2 0x4DB JUMP JUMPDEST DUP3 ADD SWAP2 SWAP1 PUSH0 MSTORE PUSH1 0x20 PUSH0 KECCAK256 SWAP1 JUMPDEST DUP2 SLOAD DUP2 MSTORE SWAP1 PUSH1 0x1 ADD SWAP1 PUSH1 0x20 ADD DUP1 DUP4 GT PUSH2 0x4BE JUMPI DUP3 SWAP1 SUB PUSH1 0x1F AND DUP3 ADD SWAP2 JUMPDEST POP POP POP POP POP DUP2 MSTORE PUSH1 0x20 ADD PUSH1 0x3 DUP3 ADD DUP1 SLOAD PUSH2 0x4F4 SWAP1 PUSH2 0x18BA JUMP JUMPDEST DUP1 PUSH1 0x1F ADD PUSH1 0x20 DUP1 SWAP2 DIV MUL PUSH1 0x20 ADD PUSH1 0x40 MLOAD SWAP1 DUP2 ADD PUSH1 0x40 MSTORE DUP1 SWAP3 SWAP2 SWAP1 DUP2 DUP2 MSTORE PUSH1 0x20 ADD DUP3 DUP1 SLOAD PUSH2 0x520 SWAP1 PUSH2 0x18BA JUMP JUMPDEST DUP1 ISZERO PUSH2 0x56B JUMPI DUP1 PUSH1 0x1F LT PUSH2 0x542 JUMPI PUSH2 0x100 DUP1 DUP4 SLOAD DIV MUL DUP4 MSTORE SWAP2 PUSH1 0x20 ADD SWAP2 PUSH2 0x56B JUMP JUMPDEST DUP3 ADD SWAP2 SWAP1 PUSH0 MSTORE PUSH1 0x20 PUSH0 KECCAK256 SWAP1 JUMPDEST DUP2 SLOAD DUP2 MSTORE SWAP1 PUSH1 0x1 ADD SWAP1 PUSH1 0x20 ADD DUP1 DUP4 GT PUSH2 0x54E JUMPI DUP3 SWAP1 SUB PUSH1 0x1F AND DUP3 ADD SWAP2 JUMPDEST POP POP POP POP POP DUP2 MSTORE POP POP SWAP3 POP PUSH1 0x1 SWAP2 POP PUSH2 0x58C JUMP JUMPDEST DUP1 DUP1 PUSH1 0x1 ADD SWAP2 POP POP PUSH2 0x2B8 JUMP JUMPDEST POP DUP1 PUSH2 0x5CD JUMPI PUSH1 0x40 MLOAD PUSH32 0x8C379A000000000000000000000000000000000000000000000000000000000 DUP2 MSTORE PUSH1 0x4 ADD PUSH2 0x5C4 SWAP1 PUSH2 0x1A13 JUMP JUMPDEST PUSH1 0x40 MLOAD DUP1 SWAP2 SUB SWAP1 REVERT JUMPDEST PUSH0 PUSH1 0x2 PUSH0 CALLER PUSH20 0xFFFFFFFFFFFFFFFFFFFFFFFFFFFFFFFFFFFFFFFF AND PUSH20 0xFFFFFFFFFFFFFFFFFFFFFFFFFFFFFFFFFFFFFFFF AND DUP2 MSTORE PUSH1 0x20 ADD SWAP1 DUP2 MSTORE PUSH1 0x20 ADD PUSH0 KECCAK256 SWAP1 POP PUSH0 DUP2 DUP1 SLOAD SWAP1 POP SWAP1 POP PUSH0 PUSH0 SWAP1 POP JUMPDEST DUP3 DUP1 SLOAD SWAP1 POP DUP2 LT ISZERO PUSH2 0x678 JUMPI DUP6 DUP1 MLOAD SWAP1 PUSH1 0x20 ADD KECCAK256 DUP4 DUP3 DUP2 SLOAD DUP2 LT PUSH2 0x641 JUMPI PUSH2 0x640 PUSH2 0x18EA JUMP JUMPDEST JUMPDEST SWAP1 PUSH0 MSTORE PUSH1 0x20 PUSH0 KECCAK256 ADD PUSH1 0x40 MLOAD PUSH2 0x656 SWAP2 SWAP1 PUSH2 0x19B3 JUMP JUMPDEST PUSH1 0x40 MLOAD DUP1 SWAP2 SUB SWAP1 KECCAK256 SUB PUSH2 0x66B JUMPI DUP1 SWAP2 POP PUSH2 0x678 JUMP JUMPDEST DUP1 DUP1 PUSH1 0x1 ADD SWAP2 POP POP PUSH2 0x61A JUMP JUMPDEST POP DUP2 DUP1 SLOAD SWAP1 POP DUP2 LT PUSH2 0x6BF JUMPI PUSH1 0x40 MLOAD PUSH32 0x8C379A000000000000000000000000000000000000000000000000000000000 DUP2 MSTORE PUSH1 0x4 ADD PUSH2 0x6B6 SWAP1 PUSH2 0x1A7B JUMP JUMPDEST PUSH1 0x40 MLOAD DUP1 SWAP2 SUB SWAP1 REVERT JUMPDEST PUSH1 0x1 DUP3 DUP1 SLOAD SWAP1 POP PUSH2 0x6D0 SWAP2 SWAP1 PUSH2 0x1AC6 JUMP JUMPDEST DUP2 LT ISZERO PUSH2 0x72B JUMPI DUP2 PUSH1 0x1 DUP4 DUP1 SLOAD SWAP1 POP PUSH2 0x6E9 SWAP2 SWAP1 PUSH2 0x1AC6 JUMP JUMPDEST DUP2 SLOAD DUP2 LT PUSH2 0x6FA JUMPI PUSH2 0x6F9 PUSH2 0x18EA JUMP JUMPDEST JUMPDEST SWAP1 PUSH0 MSTORE PUSH1 0x20 PUSH0 KECCAK256 ADD DUP3 DUP3 DUP2 SLOAD DUP2 LT PUSH2 0x715 JUMPI PUSH2 0x714 PUSH2 0x18EA JUMP JUMPDEST JUMPDEST SWAP1 PUSH0 MSTORE PUSH1 0x20 PUSH0 KECCAK256 ADD SWAP1 DUP2 PUSH2 0x729 SWAP2 SWAP1 PUSH2 0x1CB7 JUMP JUMPDEST POP JUMPDEST DUP2 DUP1 SLOAD DUP1 PUSH2 0x73C JUMPI PUSH2 0x73B PUSH2 0x1D9C JUMP JUMPDEST JUMPDEST PUSH1 0x1 SWAP1 SUB DUP2 DUP2 SWAP1 PUSH0 MSTORE PUSH1 0x20 PUSH0 KECCAK256 ADD PUSH0 PUSH2 0x755 SWAP2 SWAP1 PUSH2 0x12A7 JUMP JUMPDEST SWAP1 SSTORE PUSH1 0x2 PUSH0 DUP8 PUSH20 0xFFFFFFFFFFFFFFFFFFFFFFFFFFFFFFFFFFFFFFFF AND PUSH20 0xFFFFFFFFFFFFFFFFFFFFFFFFFFFFFFFFFFFFFFFF AND DUP2 MSTORE PUSH1 0x20 ADD SWAP1 DUP2 MSTORE PUSH1 0x20 ADD PUSH0 KECCAK256 DUP6 SWAP1 DUP1 PUSH1 0x1 DUP2 SLOAD ADD DUP1 DUP3 SSTORE DUP1 SWAP2 POP POP PUSH1 0x1 SWAP1 SUB SWAP1 PUSH0 MSTORE PUSH1 0x20 PUSH0 KECCAK256 ADD PUSH0 SWAP1 SWAP2 SWAP1 SWAP2 SWAP1 SWAP2 POP SWAP1 DUP2 PUSH2 0x7C3 SWAP2 SWAP1 PUSH2 0x1DC9 JUMP JUMPDEST POP PUSH1 0x3 DUP6 PUSH1 0x40 MLOAD PUSH2 0x7D4 SWAP2 SWAP1 PUSH2 0x1ED2 JUMP JUMPDEST SWAP1 DUP2 MSTORE PUSH1 0x20 ADD PUSH1 0x40 MLOAD DUP1 SWAP2 SUB SWAP1 KECCAK256 PUSH1 0x40 MLOAD DUP1 PUSH1 0x40 ADD PUSH1 0x40 MSTORE DUP1 DUP9 PUSH20 0xFFFFFFFFFFFFFFFFFFFFFFFFFFFFFFFFFFFFFFFF AND DUP2 MSTORE PUSH1 0x20 ADD TIMESTAMP DUP2 MSTORE POP SWAP1 DUP1 PUSH1 0x1 DUP2 SLOAD ADD DUP1 DUP3 SSTORE DUP1 SWAP2 POP POP PUSH1 0x1 SWAP1 SUB SWAP1 PUSH0 MSTORE PUSH1 0x20 PUSH0 KECCAK256 SWAP1 PUSH1 0x2 MUL ADD PUSH0 SWAP1 SWAP2 SWAP1 SWAP2 SWAP1 SWAP2 POP PUSH0 DUP3 ADD MLOAD DUP2 PUSH0 ADD PUSH0 PUSH2 0x100 EXP DUP2 SLOAD DUP2 PUSH20 0xFFFFFFFFFFFFFFFFFFFFFFFFFFFFFFFFFFFFFFFF MUL NOT AND SWAP1 DUP4 PUSH20 0xFFFFFFFFFFFFFFFFFFFFFFFFFFFFFFFFFFFFFFFF AND MUL OR SWAP1 SSTORE POP PUSH1 0x20 DUP3 ADD MLOAD DUP2 PUSH1 0x1 ADD SSTORE POP POP PUSH0 PUSH0 PUSH0 SWAP1 SLOAD SWAP1 PUSH2 0x100 EXP SWAP1 DIV PUSH20 0xFFFFFFFFFFFFFFFFFFFFFFFFFFFFFFFFFFFFFFFF AND PUSH20 0xFFFFFFFFFFFFFFFFFFFFFFFFFFFFFFFFFFFFFFFF AND PUSH4 0x6F77926B DUP9 PUSH1 0x40 MLOAD DUP3 PUSH4 0xFFFFFFFF AND PUSH1 0xE0 SHL DUP2 MSTORE PUSH1 0x4 ADD PUSH2 0x8DD SWAP2 SWAP1 PUSH2 0x1EE8 JUMP JUMPDEST PUSH0 PUSH1 0x40 MLOAD DUP1 DUP4 SUB DUP2 DUP7 GAS STATICCALL ISZERO DUP1 ISZERO PUSH2 0x8F7 JUMPI RETURNDATASIZE PUSH0 PUSH0 RETURNDATACOPY RETURNDATASIZE PUSH0 REVERT JUMPDEST POP POP POP POP PUSH1 0x40 MLOAD RETURNDATASIZE PUSH0 DUP3 RETURNDATACOPY RETURNDATASIZE PUSH1 0x1F NOT PUSH1 0x1F DUP3 ADD AND DUP3 ADD DUP1 PUSH1 0x40 MSTORE POP DUP2 ADD SWAP1 PUSH2 0x91F SWAP2 SWAP1 PUSH2 0x202B JUMP JUMPDEST PUSH1 0x20 ADD MLOAD SWAP1 POP PUSH0 PUSH0 PUSH0 SWAP1 SLOAD SWAP1 PUSH2 0x100 EXP SWAP1 DIV PUSH20 0xFFFFFFFFFFFFFFFFFFFFFFFFFFFFFFFFFFFFFFFF AND PUSH20 0xFFFFFFFFFFFFFFFFFFFFFFFFFFFFFFFFFFFFFFFF AND PUSH4 0x6F77926B CALLER PUSH1 0x40 MLOAD DUP3 PUSH4 0xFFFFFFFF AND PUSH1 0xE0 SHL DUP2 MSTORE PUSH1 0x4 ADD PUSH2 0x97F SWAP2 SWAP1 PUSH2 0x1EE8 JUMP JUMPDEST PUSH0 PUSH1 0x40 MLOAD DUP1 DUP4 SUB DUP2 DUP7 GAS STATICCALL ISZERO DUP1 ISZERO PUSH2 0x999 JUMPI RETURNDATASIZE PUSH0 PUSH0 RETURNDATACOPY RETURNDATASIZE PUSH0 REVERT JUMPDEST POP POP POP POP PUSH1 0x40 MLOAD RETURNDATASIZE PUSH0 DUP3 RETURNDATACOPY RETURNDATASIZE PUSH1 0x1F NOT PUSH1 0x1F DUP3 ADD AND DUP3 ADD DUP1 PUSH1 0x40 MSTORE POP DUP2 ADD SWAP1 PUSH2 0x9C1 SWAP2 SWAP1 PUSH2 0x202B JUMP JUMPDEST PUSH1 0x20 ADD MLOAD SWAP1 POP PUSH32 0xB09BD448F452AFEABBDF6078F66A59E7B184526893C0D0246F81BCCE51990801 DUP7 PUSH0 ADD MLOAD DUP8 PUSH1 0x20 ADD MLOAD DUP9 PUSH1 0x40 ADD MLOAD DUP6 DUP6 TIMESTAMP PUSH1 0x40 MLOAD PUSH2 0xA0B SWAP7 SWAP6 SWAP5 SWAP4 SWAP3 SWAP2 SWAP1 PUSH2 0x2072 JUMP JUMPDEST PUSH1 0x40 MLOAD DUP1 SWAP2 SUB SWAP1 LOG1 POP POP POP POP POP POP POP POP JUMP JUMPDEST PUSH1 0x1 DUP2 DUP2 SLOAD DUP2 LT PUSH2 0xA2C JUMPI PUSH0 DUP1 REVERT JUMPDEST SWAP1 PUSH0 MSTORE PUSH1 0x20 PUSH0 KECCAK256 SWAP1 PUSH1 0x4 MUL ADD PUSH0 SWAP2 POP SWAP1 POP DUP1 PUSH0 ADD DUP1 SLOAD PUSH2 0xA4B SWAP1 PUSH2 0x18BA JUMP JUMPDEST DUP1 PUSH1 0x1F ADD PUSH1 0x20 DUP1 SWAP2 DIV MUL PUSH1 0x20 ADD PUSH1 0x40 MLOAD SWAP1 DUP2 ADD PUSH1 0x40 MSTORE DUP1 SWAP3 SWAP2 SWAP1 DUP2 DUP2 MSTORE PUSH1 0x20 ADD DUP3 DUP1 SLOAD PUSH2 0xA77 SWAP1 PUSH2 0x18BA JUMP JUMPDEST DUP1 ISZERO PUSH2 0xAC2 JUMPI DUP1 PUSH1 0x1F LT PUSH2 0xA99 JUMPI PUSH2 0x100 DUP1 DUP4 SLOAD DIV MUL DUP4 MSTORE SWAP2 PUSH1 0x20 ADD SWAP2 PUSH2 0xAC2 JUMP JUMPDEST DUP3 ADD SWAP2 SWAP1 PUSH0 MSTORE PUSH1 0x20 PUSH0 KECCAK256 SWAP1 JUMPDEST DUP2 SLOAD DUP2 MSTORE SWAP1 PUSH1 0x1 ADD SWAP1 PUSH1 0x20 ADD DUP1 DUP4 GT PUSH2 0xAA5 JUMPI DUP3 SWAP1 SUB PUSH1 0x1F AND DUP3 ADD SWAP2 JUMPDEST POP POP POP POP POP SWAP1 DUP1 PUSH1 0x1 ADD DUP1 SLOAD PUSH2 0xAD7 SWAP1 PUSH2 0x18BA JUMP JUMPDEST DUP1 PUSH1 0x1F ADD PUSH1 0x20 DUP1 SWAP2 DIV MUL PUSH1 0x20 ADD PUSH1 0x40 MLOAD SWAP1 DUP2 ADD PUSH1 0x40 MSTORE DUP1 SWAP3 SWAP2 SWAP1 DUP2 DUP2 MSTORE PUSH1 0x20 ADD DUP3 DUP1 SLOAD PUSH2 0xB03 SWAP1 PUSH2 0x18BA JUMP JUMPDEST DUP1 ISZERO PUSH2 0xB4E JUMPI DUP1 PUSH1 0x1F LT PUSH2 0xB25 JUMPI PUSH2 0x100 DUP1 DUP4 SLOAD DIV MUL DUP4 MSTORE SWAP2 PUSH1 0x20 ADD SWAP2 PUSH2 0xB4E JUMP JUMPDEST DUP3 ADD SWAP2 SWAP1 PUSH0 MSTORE PUSH1 0x20 PUSH0 KECCAK256 SWAP1 JUMPDEST DUP2 SLOAD DUP2 MSTORE SWAP1 PUSH1 0x1 ADD SWAP1 PUSH1 0x20 ADD DUP1 DUP4 GT PUSH2 0xB31 JUMPI DUP3 SWAP1 SUB PUSH1 0x1F AND DUP3 ADD SWAP2 JUMPDEST POP POP POP POP POP SWAP1 DUP1 PUSH1 0x2 ADD DUP1 SLOAD PUSH2 0xB63 SWAP1 PUSH2 0x18BA JUMP JUMPDEST DUP1 PUSH1 0x1F ADD PUSH1 0x20 DUP1 SWAP2 DIV MUL PUSH1 0x20 ADD PUSH1 0x40 MLOAD SWAP1 DUP2 ADD PUSH1 0x40 MSTORE DUP1 SWAP3 SWAP2 SWAP1 DUP2 DUP2 MSTORE PUSH1 0x20 ADD DUP3 DUP1 SLOAD PUSH2 0xB8F SWAP1 PUSH2 0x18BA JUMP JUMPDEST DUP1 ISZERO PUSH2 0xBDA JUMPI DUP1 PUSH1 0x1F LT PUSH2 0xBB1 JUMPI PUSH2 0x100 DUP1 DUP4 SLOAD DIV MUL DUP4 MSTORE SWAP2 PUSH1 0x20 ADD SWAP2 PUSH2 0xBDA JUMP JUMPDEST DUP3 ADD SWAP2 SWAP1 PUSH0 MSTORE PUSH1 0x20 PUSH0 KECCAK256 SWAP1 JUMPDEST DUP2 SLOAD DUP2 MSTORE SWAP1 PUSH1 0x1 ADD SWAP1 PUSH1 0x20 ADD DUP1 DUP4 GT PUSH2 0xBBD JUMPI DUP3 SWAP1 SUB PUSH1 0x1F AND DUP3 ADD SWAP2 JUMPDEST POP POP POP POP POP SWAP1 DUP1 PUSH1 0x3 ADD DUP1 SLOAD PUSH2 0xBEF SWAP1 PUSH2 0x18BA JUMP JUMPDEST DUP1 PUSH1 0x1F ADD PUSH1 0x20 DUP1 SWAP2 DIV MUL PUSH1 0x20 ADD PUSH1 0x40 MLOAD SWAP1 DUP2 ADD PUSH1 0x40 MSTORE DUP1 SWAP3 SWAP2 SWAP1 DUP2 DUP2 MSTORE PUSH1 0x20 ADD DUP3 DUP1 SLOAD PUSH2 0xC1B SWAP1 PUSH2 0x18BA JUMP JUMPDEST DUP1 ISZERO PUSH2 0xC66 JUMPI DUP1 PUSH1 0x1F LT PUSH2 0xC3D JUMPI PUSH2 0x100 DUP1 DUP4 SLOAD DIV MUL DUP4 MSTORE SWAP2 PUSH1 0x20 ADD SWAP2 PUSH2 0xC66 JUMP JUMPDEST DUP3 ADD SWAP2 SWAP1 PUSH0 MSTORE PUSH1 0x20 PUSH0 KECCAK256 SWAP1 JUMPDEST DUP2 SLOAD DUP2 MSTORE SWAP1 PUSH1 0x1 ADD SWAP1 PUSH1 0x20 ADD DUP1 DUP4 GT PUSH2 0xC49 JUMPI DUP3 SWAP1 SUB PUSH1 0x1F AND DUP3 ADD SWAP2 JUMPDEST POP POP POP POP POP SWAP1 POP DUP5 JUMP JUMPDEST DUP1 PUSH0 PUSH0 PUSH2 0x100 EXP DUP2 SLOAD DUP2 PUSH20 0xFFFFFFFFFFFFFFFFFFFFFFFFFFFFFFFFFFFFFFFF MUL NOT AND SWAP1 DUP4 PUSH20 0xFFFFFFFFFFFFFFFFFFFFFFFFFFFFFFFFFFFFFFFF AND MUL OR SWAP1 SSTORE POP POP JUMP JUMPDEST PUSH0 PUSH0 SWAP1 SLOAD SWAP1 PUSH2 0x100 EXP SWAP1 DIV PUSH20 0xFFFFFFFFFFFFFFFFFFFFFFFFFFFFFFFFFFFFFFFF AND DUP2 JUMP JUMPDEST PUSH0 PUSH0 PUSH0 SWAP1 SLOAD SWAP1 PUSH2 0x100 EXP SWAP1 DIV PUSH20 0xFFFFFFFFFFFFFFFFFFFFFFFFFFFFFFFFFFFFFFFF AND PUSH20 0xFFFFFFFFFFFFFFFFFFFFFFFFFFFFFFFFFFFFFFFF AND PUSH4 0x6F77926B CALLER PUSH1 0x40 MLOAD DUP3 PUSH4 0xFFFFFFFF AND PUSH1 0xE0 SHL DUP2 MSTORE PUSH1 0x4 ADD PUSH2 0xD30 SWAP2 SWAP1 PUSH2 0x1EE8 JUMP JUMPDEST PUSH0 PUSH1 0x40 MLOAD DUP1 DUP4 SUB DUP2 DUP7 GAS STATICCALL ISZERO DUP1 ISZERO PUSH2 0xD4A JUMPI RETURNDATASIZE PUSH0 PUSH0 RETURNDATACOPY RETURNDATASIZE PUSH0 REVERT JUMPDEST POP POP POP POP PUSH1 0x40 MLOAD RETURNDATASIZE PUSH0 DUP3 RETURNDATACOPY RETURNDATASIZE PUSH1 0x1F NOT PUSH1 0x1F DUP3 ADD AND DUP3 ADD DUP1 PUSH1 0x40 MSTORE POP DUP2 ADD SWAP1 PUSH2 0xD72 SWAP2 SWAP1 PUSH2 0x202B JUMP JUMPDEST SWAP1 POP PUSH0 PUSH1 0x3 DUP2 GT ISZERO PUSH2 0xD87 JUMPI PUSH2 0xD86 PUSH2 0x20F4 JUMP JUMPDEST JUMPDEST DUP2 PUSH1 0x40 ADD MLOAD PUSH1 0x3 DUP2 GT ISZERO PUSH2 0xD9E JUMPI PUSH2 0xD9D PUSH2 0x20F4 JUMP JUMPDEST JUMPDEST EQ PUSH2 0xDDE JUMPI PUSH1 0x40 MLOAD PUSH32 0x8C379A000000000000000000000000000000000000000000000000000000000 DUP2 MSTORE PUSH1 0x4 ADD PUSH2 0xDD5 SWAP1 PUSH2 0x2191 JUMP JUMPDEST PUSH1 0x40 MLOAD DUP1 SWAP2 SUB SWAP1 REVERT JUMPDEST PUSH1 0x1 PUSH1 0x40 MLOAD DUP1 PUSH1 0x80 ADD PUSH1 0x40 MSTORE DUP1 DUP8 DUP2 MSTORE PUSH1 0x20 ADD DUP7 DUP2 MSTORE PUSH1 0x20 ADD DUP6 DUP2 MSTORE PUSH1 0x20 ADD DUP5 DUP2 MSTORE POP SWAP1 DUP1 PUSH1 0x1 DUP2 SLOAD ADD DUP1 DUP3 SSTORE DUP1 SWAP2 POP POP PUSH1 0x1 SWAP1 SUB SWAP1 PUSH0 MSTORE PUSH1 0x20 PUSH0 KECCAK256 SWAP1 PUSH1 0x4 MUL ADD PUSH0 SWAP1 SWAP2 SWAP1 SWAP2 SWAP1 SWAP2 POP PUSH0 DUP3 ADD MLOAD DUP2 PUSH0 ADD SWAP1 DUP2 PUSH2 0xE3A SWAP2 SWAP1 PUSH2 0x1DC9 JUMP JUMPDEST POP PUSH1 0x20 DUP3 ADD MLOAD DUP2 PUSH1 0x1 ADD SWAP1 DUP2 PUSH2 0xE50 SWAP2 SWAP1 PUSH2 0x1DC9 JUMP JUMPDEST POP PUSH1 0x40 DUP3 ADD MLOAD DUP2 PUSH1 0x2 ADD SWAP1 DUP2 PUSH2 0xE66 SWAP2 SWAP1 PUSH2 0x1DC9 JUMP JUMPDEST POP PUSH1 0x60 DUP3 ADD MLOAD DUP2 PUSH1 0x3 ADD SWAP1 DUP2 PUSH2 0xE7C SWAP2 SWAP1 PUSH2 0x1DC9 JUMP JUMPDEST POP POP POP PUSH0 PUSH1 0x1 DUP1 DUP1 DUP1 SLOAD SWAP1 POP PUSH2 0xE92 SWAP2 SWAP1 PUSH2 0x1AC6 JUMP JUMPDEST DUP2 SLOAD DUP2 LT PUSH2 0xEA3 JUMPI PUSH2 0xEA2 PUSH2 0x18EA JUMP JUMPDEST JUMPDEST SWAP1 PUSH0 MSTORE PUSH1 0x20 PUSH0 KECCAK256 SWAP1 PUSH1 0x4 MUL ADD PUSH1 0x40 MLOAD DUP1 PUSH1 0x80 ADD PUSH1 0x40 MSTORE SWAP1 DUP2 PUSH0 DUP3 ADD DUP1 SLOAD PUSH2 0xEC9 SWAP1 PUSH2 0x18BA JUMP JUMPDEST DUP1 PUSH1 0x1F ADD PUSH1 0x20 DUP1 SWAP2 DIV MUL PUSH1 0x20 ADD PUSH1 0x40 MLOAD SWAP1 DUP2 ADD PUSH1 0x40 MSTORE DUP1 SWAP3 SWAP2 SWAP1 DUP2 DUP2 MSTORE PUSH1 0x20 ADD DUP3 DUP1 SLOAD PUSH2 0xEF5 SWAP1 PUSH2 0x18BA JUMP JUMPDEST DUP1 ISZERO PUSH2 0xF40 JUMPI DUP1 PUSH1 0x1F LT PUSH2 0xF17 JUMPI PUSH2 0x100 DUP1 DUP4 SLOAD DIV MUL DUP4 MSTORE SWAP2 PUSH1 0x20 ADD SWAP2 PUSH2 0xF40 JUMP JUMPDEST DUP3 ADD SWAP2 SWAP1 PUSH0 MSTORE PUSH1 0x20 PUSH0 KECCAK256 SWAP1 JUMPDEST DUP2 SLOAD DUP2 MSTORE SWAP1 PUSH1 0x1 ADD SWAP1 PUSH1 0x20 ADD DUP1 DUP4 GT PUSH2 0xF23 JUMPI DUP3 SWAP1 SUB PUSH1 0x1F AND DUP3 ADD SWAP2 JUMPDEST POP POP POP POP POP DUP2 MSTORE PUSH1 0x20 ADD PUSH1 0x1 DUP3 ADD DUP1 SLOAD PUSH2 0xF59 SWAP1 PUSH2 0x18BA JUMP JUMPDEST DUP1 PUSH1 0x1F ADD PUSH1 0x20 DUP1 SWAP2 DIV MUL PUSH1 0x20 ADD PUSH1 0x40 MLOAD SWAP1 DUP2 ADD PUSH1 0x40 MSTORE DUP1 SWAP3 SWAP2 SWAP1 DUP2 DUP2 MSTORE PUSH1 0x20 ADD DUP3 DUP1 SLOAD PUSH2 0xF85 SWAP1 PUSH2 0x18BA JUMP JUMPDEST DUP1 ISZERO PUSH2 0xFD0 JUMPI DUP1 PUSH1 0x1F LT PUSH2 0xFA7 JUMPI PUSH2 0x100 DUP1 DUP4 SLOAD DIV MUL DUP4 MSTORE SWAP2 PUSH1 0x20 ADD SWAP2 PUSH2 0xFD0 JUMP JUMPDEST DUP3 ADD SWAP2 SWAP1 PUSH0 MSTORE PUSH1 0x20 PUSH0 KECCAK256 SWAP1 JUMPDEST DUP2 SLOAD DUP2 MSTORE SWAP1 PUSH1 0x1 ADD SWAP1 PUSH1 0x20 ADD DUP1 DUP4 GT PUSH2 0xFB3 JUMPI DUP3 SWAP1 SUB PUSH1 0x1F AND DUP3 ADD SWAP2 JUMPDEST POP POP POP POP POP DUP2 MSTORE PUSH1 0x20 ADD PUSH1 0x2 DUP3 ADD DUP1 SLOAD PUSH2 0xFE9 SWAP1 PUSH2 0x18BA JUMP JUMPDEST DUP1 PUSH1 0x1F ADD PUSH1 0x20 DUP1 SWAP2 DIV MUL PUSH1 0x20 ADD PUSH1 0x40 MLOAD SWAP1 DUP2 ADD PUSH1 0x40 MSTORE DUP1 SWAP3 SWAP2 SWAP1 DUP2 DUP2 MSTORE PUSH1 0x20 ADD DUP3 DUP1 SLOAD PUSH2 0x1015 SWAP1 PUSH2 0x18BA JUMP JUMPDEST DUP1 ISZERO PUSH2 0x1060 JUMPI DUP1 PUSH1 0x1F LT PUSH2 0x1037 JUMPI PUSH2 0x100 DUP1 DUP4 SLOAD DIV MUL DUP4 MSTORE SWAP2 PUSH1 0x20 ADD SWAP2 PUSH2 0x1060 JUMP JUMPDEST DUP3 ADD SWAP2 SWAP1 PUSH0 MSTORE PUSH1 0x20 PUSH0 KECCAK256 SWAP1 JUMPDEST DUP2 SLOAD DUP2 MSTORE SWAP1 PUSH1 0x1 ADD SWAP1 PUSH1 0x20 ADD DUP1 DUP4 GT PUSH2 0x1043 JUMPI DUP3 SWAP1 SUB PUSH1 0x1F AND DUP3 ADD SWAP2 JUMPDEST POP POP POP POP POP DUP2 MSTORE PUSH1 0x20 ADD PUSH1 0x3 DUP3 ADD DUP1 SLOAD PUSH2 0x1079 SWAP1 PUSH2 0x18BA JUMP JUMPDEST DUP1 PUSH1 0x1F ADD PUSH1 0x20 DUP1 SWAP2 DIV MUL PUSH1 0x20 ADD PUSH1 0x40 MLOAD SWAP1 DUP2 ADD PUSH1 0x40 MSTORE DUP1 SWAP3 SWAP2 SWAP1 DUP2 DUP2 MSTORE PUSH1 0x20 ADD DUP3 DUP1 SLOAD PUSH2 0x10A5 SWAP1 PUSH2 0x18BA JUMP JUMPDEST DUP1 ISZERO PUSH2 0x10F0 JUMPI DUP1 PUSH1 0x1F LT PUSH2 0x10C7 JUMPI PUSH2 0x100 DUP1 DUP4 SLOAD DIV MUL DUP4 MSTORE SWAP2 PUSH1 0x20 ADD SWAP2 PUSH2 0x10F0 JUMP JUMPDEST DUP3 ADD SWAP2 SWAP1 PUSH0 MSTORE PUSH1 0x20 PUSH0 KECCAK256 SWAP1 JUMPDEST DUP2 SLOAD DUP2 MSTORE SWAP1 PUSH1 0x1 ADD SWAP1 PUSH1 0x20 ADD DUP1 DUP4 GT PUSH2 0x10D3 JUMPI DUP3 SWAP1 SUB PUSH1 0x1F AND DUP3 ADD SWAP2 JUMPDEST POP POP POP POP POP DUP2 MSTORE POP POP SWAP1 POP PUSH1 0x2 PUSH0 CALLER PUSH20 0xFFFFFFFFFFFFFFFFFFFFFFFFFFFFFFFFFFFFFFFF AND PUSH20 0xFFFFFFFFFFFFFFFFFFFFFFFFFFFFFFFFFFFFFFFF AND DUP2 MSTORE PUSH1 0x20 ADD SWAP1 DUP2 MSTORE PUSH1 0x20 ADD PUSH0 KECCAK256 DUP5 SWAP1 DUP1 PUSH1 0x1 DUP2 SLOAD ADD DUP1 DUP3 SSTORE DUP1 SWAP2 POP POP PUSH1 0x1 SWAP1 SUB SWAP1 PUSH0 MSTORE PUSH1 0x20 PUSH0 KECCAK256 ADD PUSH0 SWAP1 SWAP2 SWAP1 SWAP2 SWAP1 SWAP2 POP SWAP1 DUP2 PUSH2 0x1167 SWAP2 SWAP1 PUSH2 0x1DC9 JUMP JUMPDEST POP PUSH1 0x3 DUP2 PUSH1 0x40 ADD MLOAD PUSH1 0x40 MLOAD PUSH2 0x117C SWAP2 SWAP1 PUSH2 0x1ED2 JUMP JUMPDEST SWAP1 DUP2 MSTORE PUSH1 0x20 ADD PUSH1 0x40 MLOAD DUP1 SWAP2 SUB SWAP1 KECCAK256 PUSH1 0x40 MLOAD DUP1 PUSH1 0x40 ADD PUSH1 0x40 MSTORE DUP1 CALLER PUSH20 0xFFFFFFFFFFFFFFFFFFFFFFFFFFFFFFFFFFFFFFFF AND DUP2 MSTORE PUSH1 0x20 ADD TIMESTAMP DUP2 MSTORE POP SWAP1 DUP1 PUSH1 0x1 DUP2 SLOAD ADD DUP1 DUP3 SSTORE DUP1 SWAP2 POP POP PUSH1 0x1 SWAP1 SUB SWAP1 PUSH0 MSTORE PUSH1 0x20 PUSH0 KECCAK256 SWAP1 PUSH1 0x2 MUL ADD PUSH0 SWAP1 SWAP2 SWAP1 SWAP2 SWAP1 SWAP2 POP PUSH0 DUP3 ADD MLOAD DUP2 PUSH0 ADD PUSH0 PUSH2 0x100 EXP DUP2 SLOAD DUP2 PUSH20 0xFFFFFFFFFFFFFFFFFFFFFFFFFFFFFFFFFFFFFFFF MUL NOT AND SWAP1 DUP4 PUSH20 0xFFFFFFFFFFFFFFFFFFFFFFFFFFFFFFFFFFFFFFFF AND MUL OR SWAP1 SSTORE POP PUSH1 0x20 DUP3 ADD MLOAD DUP2 PUSH1 0x1 ADD SSTORE POP POP PUSH32 0x11563E9D0C09817A487768ACE63943D092729823F906F1244B854AB350A51F1E DUP2 PUSH0 ADD MLOAD DUP3 PUSH1 0x20 ADD MLOAD DUP4 PUSH1 0x40 ADD MLOAD DUP5 PUSH1 0x60 ADD MLOAD PUSH1 0x40 MLOAD PUSH2 0x126F SWAP5 SWAP4 SWAP3 SWAP2 SWAP1 PUSH2 0x16BB JUMP JUMPDEST PUSH1 0x40 MLOAD DUP1 SWAP2 SUB SWAP1 LOG1 POP POP POP POP POP POP JUMP JUMPDEST PUSH1 0x40 MLOAD DUP1 PUSH1 0x80 ADD PUSH1 0x40 MSTORE DUP1 PUSH1 0x60 DUP2 MSTORE PUSH1 0x20 ADD PUSH1 0x60 DUP2 MSTORE PUSH1 0x20 ADD PUSH1 0x60 DUP2 MSTORE PUSH1 0x20 ADD PUSH1 0x60 DUP2 MSTORE POP SWAP1 JUMP JUMPDEST POP DUP1 SLOAD PUSH2 0x12B3 SWAP1 PUSH2 0x18BA JUMP JUMPDEST PUSH0 DUP3 SSTORE DUP1 PUSH1 0x1F LT PUSH2 0x12C4 JUMPI POP PUSH2 0x12E1 JUMP JUMPDEST PUSH1 0x1F ADD PUSH1 0x20 SWAP1 DIV SWAP1 PUSH0 MSTORE PUSH1 0x20 PUSH0 KECCAK256 SWAP1 DUP2 ADD SWAP1 PUSH2 0x12E0 SWAP2 SWAP1 PUSH2 0x12E4 JUMP JUMPDEST JUMPDEST POP JUMP JUMPDEST JUMPDEST DUP1 DUP3 GT ISZERO PUSH2 0x12FB JUMPI PUSH0 DUP2 PUSH0 SWAP1 SSTORE POP PUSH1 0x1 ADD PUSH2 0x12E5 JUMP JUMPDEST POP SWAP1 JUMP JUMPDEST PUSH0 PUSH1 0x40 MLOAD SWAP1 POP SWAP1 JUMP JUMPDEST PUSH0 PUSH0 REVERT JUMPDEST PUSH0 PUSH0 REVERT JUMPDEST PUSH0 PUSH0 REVERT JUMPDEST PUSH0 PUSH0 REVERT JUMPDEST PUSH0 PUSH1 0x1F NOT PUSH1 0x1F DUP4 ADD AND SWAP1 POP SWAP2 SWAP1 POP JUMP JUMPDEST PUSH32 0x4E487B7100000000000000000000000000000000000000000000000000000000 PUSH0 MSTORE PUSH1 0x41 PUSH1 0x4 MSTORE PUSH1 0x24 PUSH0 REVERT JUMPDEST PUSH2 0x135E DUP3 PUSH2 0x1318 JUMP JUMPDEST DUP2 ADD DUP2 DUP2 LT PUSH8 0xFFFFFFFFFFFFFFFF DUP3 GT OR ISZERO PUSH2 0x137D JUMPI PUSH2 0x137C PUSH2 0x1328 JUMP JUMPDEST JUMPDEST DUP1 PUSH1 0x40 MSTORE POP POP POP JUMP JUMPDEST PUSH0 PUSH2 0x138F PUSH2 0x12FF JUMP JUMPDEST SWAP1 POP PUSH2 0x139B DUP3 DUP3 PUSH2 0x1355 JUMP JUMPDEST SWAP2 SWAP1 POP JUMP JUMPDEST PUSH0 PUSH8 0xFFFFFFFFFFFFFFFF DUP3 GT ISZERO PUSH2 0x13BA JUMPI PUSH2 0x13B9 PUSH2 0x1328 JUMP JUMPDEST JUMPDEST PUSH2 0x13C3 DUP3 PUSH2 0x1318 JUMP JUMPDEST SWAP1 POP PUSH1 0x20 DUP2 ADD SWAP1 POP SWAP2 SWAP1 POP JUMP JUMPDEST DUP3 DUP2 DUP4 CALLDATACOPY PUSH0 DUP4 DUP4 ADD MSTORE POP POP POP JUMP JUMPDEST PUSH0 PUSH2 0x13F0 PUSH2 0x13EB DUP5 PUSH2 0x13A0 JUMP JUMPDEST PUSH2 0x1386 JUMP JUMPDEST SWAP1 POP DUP3 DUP2 MSTORE PUSH1 0x20 DUP2 ADD DUP5 DUP5 DUP5 ADD GT ISZERO PUSH2 0x140C JUMPI PUSH2 0x140B PUSH2 0x1314 JUMP JUMPDEST JUMPDEST PUSH2 0x1417 DUP5 DUP3 DUP6 PUSH2 0x13D0 JUMP JUMPDEST POP SWAP4 SWAP3 POP POP POP JUMP JUMPDEST PUSH0 DUP3 PUSH1 0x1F DUP4 ADD SLT PUSH2 0x1433 JUMPI PUSH2 0x1432 PUSH2 0x1310 JUMP JUMPDEST JUMPDEST DUP2 CALLDATALOAD PUSH2 0x1443 DUP5 DUP3 PUSH1 0x20 DUP7 ADD PUSH2 0x13DE JUMP JUMPDEST SWAP2 POP POP SWAP3 SWAP2 POP POP JUMP JUMPDEST PUSH0 DUP2 SWAP1 POP SWAP2 SWAP1 POP JUMP JUMPDEST PUSH2 0x145E DUP2 PUSH2 0x144C JUMP JUMPDEST DUP2 EQ PUSH2 0x1468 JUMPI PUSH0 PUSH0 REVERT JUMPDEST POP JUMP JUMPDEST PUSH0 DUP2 CALLDATALOAD SWAP1 POP PUSH2 0x1479 DUP2 PUSH2 0x1455 JUMP JUMPDEST SWAP3 SWAP2 POP POP JUMP JUMPDEST PUSH0 PUSH0 PUSH1 0x40 DUP4 DUP6 SUB SLT ISZERO PUSH2 0x1495 JUMPI PUSH2 0x1494 PUSH2 0x1308 JUMP JUMPDEST JUMPDEST PUSH0 DUP4 ADD CALLDATALOAD PUSH8 0xFFFFFFFFFFFFFFFF DUP2 GT ISZERO PUSH2 0x14B2 JUMPI PUSH2 0x14B1 PUSH2 0x130C JUMP JUMPDEST JUMPDEST PUSH2 0x14BE DUP6 DUP3 DUP7 ADD PUSH2 0x141F JUMP JUMPDEST SWAP3 POP POP PUSH1 0x20 PUSH2 0x14CF DUP6 DUP3 DUP7 ADD PUSH2 0x146B JUMP JUMPDEST SWAP2 POP POP SWAP3 POP SWAP3 SWAP1 POP JUMP JUMPDEST PUSH0 PUSH20 0xFFFFFFFFFFFFFFFFFFFFFFFFFFFFFFFFFFFFFFFF DUP3 AND SWAP1 POP SWAP2 SWAP1 POP JUMP JUMPDEST PUSH0 PUSH2 0x1502 DUP3 PUSH2 0x14D9 JUMP JUMPDEST SWAP1 POP SWAP2 SWAP1 POP JUMP JUMPDEST PUSH2 0x1512 DUP2 PUSH2 0x14F8 JUMP JUMPDEST DUP3 MSTORE POP POP JUMP JUMPDEST PUSH2 0x1521 DUP2 PUSH2 0x144C JUMP JUMPDEST DUP3 MSTORE POP POP JUMP JUMPDEST PUSH0 PUSH1 0x40 DUP3 ADD SWAP1 POP PUSH2 0x153A PUSH0 DUP4 ADD DUP6 PUSH2 0x1509 JUMP JUMPDEST PUSH2 0x1547 PUSH1 0x20 DUP4 ADD DUP5 PUSH2 0x1518 JUMP JUMPDEST SWAP4 SWAP3 POP POP POP JUMP JUMPDEST PUSH2 0x1557 DUP2 PUSH2 0x14F8 JUMP JUMPDEST DUP2 EQ PUSH2 0x1561 JUMPI PUSH0 PUSH0 REVERT JUMPDEST POP JUMP JUMPDEST PUSH0 DUP2 CALLDATALOAD SWAP1 POP PUSH2 0x1572 DUP2 PUSH2 0x154E JUMP JUMPDEST SWAP3 SWAP2 POP POP JUMP JUMPDEST PUSH0 PUSH0 PUSH1 0x40 DUP4 DUP6 SUB SLT ISZERO PUSH2 0x158E JUMPI PUSH2 0x158D PUSH2 0x1308 JUMP JUMPDEST JUMPDEST PUSH0 PUSH2 0x159B DUP6 DUP3 DUP7 ADD PUSH2 0x1564 JUMP JUMPDEST SWAP3 POP POP PUSH1 0x20 PUSH2 0x15AC DUP6 DUP3 DUP7 ADD PUSH2 0x146B JUMP JUMPDEST SWAP2 POP POP SWAP3 POP SWAP3 SWAP1 POP JUMP JUMPDEST PUSH0 DUP2 MLOAD SWAP1 POP SWAP2 SWAP1 POP JUMP JUMPDEST PUSH0 DUP3 DUP3 MSTORE PUSH1 0x20 DUP3 ADD SWAP1 POP SWAP3 SWAP2 POP POP JUMP JUMPDEST DUP3 DUP2 DUP4 MCOPY PUSH0 DUP4 DUP4 ADD MSTORE POP POP POP JUMP JUMPDEST PUSH0 PUSH2 0x15E8 DUP3 PUSH2 0x15B6 JUMP JUMPDEST PUSH2 0x15F2 DUP2 DUP6 PUSH2 0x15C0 JUMP JUMPDEST SWAP4 POP PUSH2 0x1602 DUP2 DUP6 PUSH1 0x20 DUP7 ADD PUSH2 0x15D0 JUMP JUMPDEST PUSH2 0x160B DUP2 PUSH2 0x1318 JUMP JUMPDEST DUP5 ADD SWAP2 POP POP SWAP3 SWAP2 POP POP JUMP JUMPDEST PUSH0 PUSH1 0x20 DUP3 ADD SWAP1 POP DUP2 DUP2 SUB PUSH0 DUP4 ADD MSTORE PUSH2 0x162E DUP2 DUP5 PUSH2 0x15DE JUMP JUMPDEST SWAP1 POP SWAP3 SWAP2 POP POP JUMP JUMPDEST PUSH0 PUSH0 PUSH1 0x40 DUP4 DUP6 SUB SLT ISZERO PUSH2 0x164C JUMPI PUSH2 0x164B PUSH2 0x1308 JUMP JUMPDEST JUMPDEST PUSH0 PUSH2 0x1659 DUP6 DUP3 DUP7 ADD PUSH2 0x1564 JUMP JUMPDEST SWAP3 POP POP PUSH1 0x20 DUP4 ADD CALLDATALOAD PUSH8 0xFFFFFFFFFFFFFFFF DUP2 GT ISZERO PUSH2 0x167A JUMPI PUSH2 0x1679 PUSH2 0x130C JUMP JUMPDEST JUMPDEST PUSH2 0x1686 DUP6 DUP3 DUP7 ADD PUSH2 0x141F JUMP JUMPDEST SWAP2 POP POP SWAP3 POP SWAP3 SWAP1 POP JUMP JUMPDEST PUSH0 PUSH1 0x20 DUP3 DUP5 SUB SLT ISZERO PUSH2 0x16A5 JUMPI PUSH2 0x16A4 PUSH2 0x1308 JUMP JUMPDEST JUMPDEST PUSH0 PUSH2 0x16B2 DUP5 DUP3 DUP6 ADD PUSH2 0x146B JUMP JUMPDEST SWAP2 POP POP SWAP3 SWAP2 POP POP JUMP JUMPDEST PUSH0 PUSH1 0x80 DUP3 ADD SWAP1 POP DUP2 DUP2 SUB PUSH0 DUP4 ADD MSTORE PUSH2 0x16D3 DUP2 DUP8 PUSH2 0x15DE JUMP JUMPDEST SWAP1 POP DUP2 DUP2 SUB PUSH1 0x20 DUP4 ADD MSTORE PUSH2 0x16E7 DUP2 DUP7 PUSH2 0x15DE JUMP JUMPDEST SWAP1 POP DUP2 DUP2 SUB PUSH1 0x40 DUP4 ADD MSTORE PUSH2 0x16FB DUP2 DUP6 PUSH2 0x15DE JUMP JUMPDEST SWAP1 POP DUP2 DUP2 SUB PUSH1 0x60 DUP4 ADD MSTORE PUSH2 0x170F DUP2 DUP5 PUSH2 0x15DE JUMP JUMPDEST SWAP1 POP SWAP6 SWAP5 POP POP POP POP POP JUMP JUMPDEST PUSH0 PUSH1 0x20 DUP3 DUP5 SUB SLT ISZERO PUSH2 0x172F JUMPI PUSH2 0x172E PUSH2 0x1308 JUMP JUMPDEST JUMPDEST PUSH0 PUSH2 0x173C DUP5 DUP3 DUP6 ADD PUSH2 0x1564 JUMP JUMPDEST SWAP2 POP POP SWAP3 SWAP2 POP POP JUMP JUMPDEST PUSH0 DUP2 SWAP1 POP SWAP2 SWAP1 POP JUMP JUMPDEST PUSH0 PUSH2 0x1768 PUSH2 0x1763 PUSH2 0x175E DUP5 PUSH2 0x14D9 JUMP JUMPDEST PUSH2 0x1745 JUMP JUMPDEST PUSH2 0x14D9 JUMP JUMPDEST SWAP1 POP SWAP2 SWAP1 POP JUMP JUMPDEST PUSH0 PUSH2 0x1779 DUP3 PUSH2 0x174E JUMP JUMPDEST SWAP1 POP SWAP2 SWAP1 POP JUMP JUMPDEST PUSH0 PUSH2 0x178A DUP3 PUSH2 0x176F JUMP JUMPDEST SWAP1 POP SWAP2 SWAP1 POP JUMP JUMPDEST PUSH2 0x179A DUP2 PUSH2 0x1780 JUMP JUMPDEST DUP3 MSTORE POP POP JUMP JUMPDEST PUSH0 PUSH1 0x20 DUP3 ADD SWAP1 POP PUSH2 0x17B3 PUSH0 DUP4 ADD DUP5 PUSH2 0x1791 JUMP JUMPDEST SWAP3 SWAP2 POP POP JUMP JUMPDEST PUSH0 PUSH0 PUSH0 PUSH0 PUSH1 0x80 DUP6 DUP8 SUB SLT ISZERO PUSH2 0x17D1 JUMPI PUSH2 0x17D0 PUSH2 0x1308 JUMP JUMPDEST JUMPDEST PUSH0 DUP6 ADD CALLDATALOAD PUSH8 0xFFFFFFFFFFFFFFFF DUP2 GT ISZERO PUSH2 0x17EE JUMPI PUSH2 0x17ED PUSH2 0x130C JUMP JUMPDEST JUMPDEST PUSH2 0x17FA DUP8 DUP3 DUP9 ADD PUSH2 0x141F JUMP JUMPDEST SWAP5 POP POP PUSH1 0x20 DUP6 ADD CALLDATALOAD PUSH8 0xFFFFFFFFFFFFFFFF DUP2 GT ISZERO PUSH2 0x181B JUMPI PUSH2 0x181A PUSH2 0x130C JUMP JUMPDEST JUMPDEST PUSH2 0x1827 DUP8 DUP3 DUP9 ADD PUSH2 0x141F JUMP JUMPDEST SWAP4 POP POP PUSH1 0x40 DUP6 ADD CALLDATALOAD PUSH8 0xFFFFFFFFFFFFFFFF DUP2 GT ISZERO PUSH2 0x1848 JUMPI PUSH2 0x1847 PUSH2 0x130C JUMP JUMPDEST JUMPDEST PUSH2 0x1854 DUP8 DUP3 DUP9 ADD PUSH2 0x141F JUMP JUMPDEST SWAP3 POP POP PUSH1 0x60 DUP6 ADD CALLDATALOAD PUSH8 0xFFFFFFFFFFFFFFFF DUP2 GT ISZERO PUSH2 0x1875 JUMPI PUSH2 0x1874 PUSH2 0x130C JUMP JUMPDEST JUMPDEST PUSH2 0x1881 DUP8 DUP3 DUP9 ADD PUSH2 0x141F JUMP JUMPDEST SWAP2 POP POP SWAP3 SWAP6 SWAP2 SWAP5 POP SWAP3 POP JUMP JUMPDEST PUSH32 0x4E487B7100000000000000000000000000000000000000000000000000000000 PUSH0 MSTORE PUSH1 0x22 PUSH1 0x4 MSTORE PUSH1 0x24 PUSH0 REVERT JUMPDEST PUSH0 PUSH1 0x2 DUP3 DIV SWAP1 POP PUSH1 0x1 DUP3 AND DUP1 PUSH2 0x18D1 JUMPI PUSH1 0x7F DUP3 AND SWAP2 POP JUMPDEST PUSH1 0x20 DUP3 LT DUP2 SUB PUSH2 0x18E4 JUMPI PUSH2 0x18E3 PUSH2 0x188D JUMP JUMPDEST JUMPDEST POP SWAP2 SWAP1 POP JUMP JUMPDEST PUSH32 0x4E487B7100000000000000000000000000000000000000000000000000000000 PUSH0 MSTORE PUSH1 0x32 PUSH1 0x4 MSTORE PUSH1 0x24 PUSH0 REVERT JUMPDEST PUSH0 DUP2 SWAP1 POP SWAP3 SWAP2 POP POP JUMP JUMPDEST PUSH0 DUP2 SWAP1 POP DUP2 PUSH0 MSTORE PUSH1 0x20 PUSH0 KECCAK256 SWAP1 POP SWAP2 SWAP1 POP JUMP JUMPDEST PUSH0 DUP2 SLOAD PUSH2 0x193F DUP2 PUSH2 0x18BA JUMP JUMPDEST PUSH2 0x1949 DUP2 DUP7 PUSH2 0x1917 JUMP JUMPDEST SWAP5 POP PUSH1 0x1 DUP3 AND PUSH0 DUP2 EQ PUSH2 0x1963 JUMPI PUSH1 0x1 DUP2 EQ PUSH2 0x1978 JUMPI PUSH2 0x19AA JUMP JUMPDEST PUSH1 0xFF NOT DUP4 AND DUP7 MSTORE DUP2 ISZERO ISZERO DUP3 MUL DUP7 ADD SWAP4 POP PUSH2 0x19AA JUMP JUMPDEST PUSH2 0x1981 DUP6 PUSH2 0x1921 JUMP JUMPDEST PUSH0 JUMPDEST DUP4 DUP2 LT ISZERO PUSH2 0x19A2 JUMPI DUP2 SLOAD DUP2 DUP10 ADD MSTORE PUSH1 0x1 DUP3 ADD SWAP2 POP PUSH1 0x20 DUP2 ADD SWAP1 POP PUSH2 0x1983 JUMP JUMPDEST DUP4 DUP9 ADD SWAP6 POP POP POP JUMPDEST POP POP POP SWAP3 SWAP2 POP POP JUMP JUMPDEST PUSH0 PUSH2 0x19BE DUP3 DUP5 PUSH2 0x1933 JUMP JUMPDEST SWAP2 POP DUP2 SWAP1 POP SWAP3 SWAP2 POP POP JUMP JUMPDEST PUSH32 0x50726F64756374206E6F7420666F756E64000000000000000000000000000000 PUSH0 DUP3 ADD MSTORE POP JUMP JUMPDEST PUSH0 PUSH2 0x19FD PUSH1 0x11 DUP4 PUSH2 0x15C0 JUMP JUMPDEST SWAP2 POP PUSH2 0x1A08 DUP3 PUSH2 0x19C9 JUMP JUMPDEST PUSH1 0x20 DUP3 ADD SWAP1 POP SWAP2 SWAP1 POP JUMP JUMPDEST PUSH0 PUSH1 0x20 DUP3 ADD SWAP1 POP DUP2 DUP2 SUB PUSH0 DUP4 ADD MSTORE PUSH2 0x1A2A DUP2 PUSH2 0x19F1 JUMP JUMPDEST SWAP1 POP SWAP2 SWAP1 POP JUMP JUMPDEST PUSH32 0x50726F64756374206E6F7420696E2073656C6C657220696E76656E746F727900 PUSH0 DUP3 ADD MSTORE POP JUMP JUMPDEST PUSH0 PUSH2 0x1A65 PUSH1 0x1F DUP4 PUSH2 0x15C0 JUMP JUMPDEST SWAP2 POP PUSH2 0x1A70 DUP3 PUSH2 0x1A31 JUMP JUMPDEST PUSH1 0x20 DUP3 ADD SWAP1 POP SWAP2 SWAP1 POP JUMP JUMPDEST PUSH0 PUSH1 0x20 DUP3 ADD SWAP1 POP DUP2 DUP2 SUB PUSH0 DUP4 ADD MSTORE PUSH2 0x1A92 DUP2 PUSH2 0x1A59 JUMP JUMPDEST SWAP1 POP SWAP2 SWAP1 POP JUMP JUMPDEST PUSH32 0x4E487B7100000000000000000000000000000000000000000000000000000000 PUSH0 MSTORE PUSH1 0x11 PUSH1 0x4 MSTORE PUSH1 0x24 PUSH0 REVERT JUMPDEST PUSH0 PUSH2 0x1AD0 DUP3 PUSH2 0x144C JUMP JUMPDEST SWAP2 POP PUSH2 0x1ADB DUP4 PUSH2 0x144C JUMP JUMPDEST SWAP3 POP DUP3 DUP3 SUB SWAP1 POP DUP2 DUP2 GT ISZERO PUSH2 0x1AF3 JUMPI PUSH2 0x1AF2 PUSH2 0x1A99 JUMP JUMPDEST JUMPDEST SWAP3 SWAP2 POP POP JUMP JUMPDEST PUSH0 DUP2 SLOAD SWAP1 POP PUSH2 0x1B07 DUP2 PUSH2 0x18BA JUMP JUMPDEST SWAP1 POP SWAP2 SWAP1 POP JUMP JUMPDEST PUSH0 DUP2 SWAP1 POP DUP2 PUSH0 MSTORE PUSH1 0x20 PUSH0 KECCAK256 SWAP1 POP SWAP2 SWAP1 POP JUMP JUMPDEST PUSH0 DUP2 SWAP1 POP DUP2 PUSH0 MSTORE PUSH1 0x20 PUSH0 KECCAK256 SWAP1 POP SWAP2 SWAP1 POP JUMP JUMPDEST PUSH0 PUSH1 0x20 PUSH1 0x1F DUP4 ADD DIV SWAP1 POP SWAP2 SWAP1 POP JUMP JUMPDEST PUSH0 DUP3 DUP3 SHL SWAP1 POP SWAP3 SWAP2 POP POP JUMP JUMPDEST PUSH0 PUSH1 0x8 DUP4 MUL PUSH2 0x1B7C PUSH32 0xFFFFFFFFFFFFFFFFFFFFFFFFFFFFFFFFFFFFFFFFFFFFFFFFFFFFFFFFFFFFFFFF DUP3 PUSH2 0x1B41 JUMP JUMPDEST PUSH2 0x1B86 DUP7 DUP4 PUSH2 0x1B41 JUMP JUMPDEST SWAP6 POP DUP1 NOT DUP5 AND SWAP4 POP DUP1 DUP7 AND DUP5 OR SWAP3 POP POP POP SWAP4 SWAP3 POP POP POP JUMP JUMPDEST PUSH0 PUSH2 0x1BB8 PUSH2 0x1BB3 PUSH2 0x1BAE DUP5 PUSH2 0x144C JUMP JUMPDEST PUSH2 0x1745 JUMP JUMPDEST PUSH2 0x144C JUMP JUMPDEST SWAP1 POP SWAP2 SWAP1 POP JUMP JUMPDEST PUSH0 DUP2 SWAP1 POP SWAP2 SWAP1 POP JUMP JUMPDEST PUSH2 0x1BD1 DUP4 PUSH2 0x1B9E JUMP JUMPDEST PUSH2 0x1BE5 PUSH2 0x1BDD DUP3 PUSH2 0x1BBF JUMP JUMPDEST DUP5 DUP5 SLOAD PUSH2 0x1B4D JUMP JUMPDEST DUP3 SSTORE POP POP POP POP JUMP JUMPDEST PUSH0 PUSH0 SWAP1 POP SWAP1 JUMP JUMPDEST PUSH2 0x1BFC PUSH2 0x1BED JUMP JUMPDEST PUSH2 0x1C07 DUP2 DUP5 DUP5 PUSH2 0x1BC8 JUMP JUMPDEST POP POP POP JUMP JUMPDEST JUMPDEST DUP2 DUP2 LT ISZERO PUSH2 0x1C2A JUMPI PUSH2 0x1C1F PUSH0 DUP3 PUSH2 0x1BF4 JUMP JUMPDEST PUSH1 0x1 DUP2 ADD SWAP1 POP PUSH2 0x1C0D JUMP JUMPDEST POP POP JUMP JUMPDEST PUSH1 0x1F DUP3 GT ISZERO PUSH2 0x1C6F JUMPI PUSH2 0x1C40 DUP2 PUSH2 0x1B0E JUMP JUMPDEST PUSH2 0x1C49 DUP5 PUSH2 0x1B32 JUMP JUMPDEST DUP2 ADD PUSH1 0x20 DUP6 LT ISZERO PUSH2 0x1C58 JUMPI DUP2 SWAP1 POP JUMPDEST PUSH2 0x1C6C PUSH2 0x1C64 DUP6 PUSH2 0x1B32 JUMP JUMPDEST DUP4 ADD DUP3 PUSH2 0x1C0C JUMP JUMPDEST POP POP JUMPDEST POP POP POP JUMP JUMPDEST PUSH0 DUP3 DUP3 SHR SWAP1 POP SWAP3 SWAP2 POP POP JUMP JUMPDEST PUSH0 PUSH2 0x1C8F PUSH0 NOT DUP5 PUSH1 0x8 MUL PUSH2 0x1C74 JUMP JUMPDEST NOT DUP1 DUP4 AND SWAP2 POP POP SWAP3 SWAP2 POP POP JUMP JUMPDEST PUSH0 PUSH2 0x1CA7 DUP4 DUP4 PUSH2 0x1C80 JUMP JUMPDEST SWAP2 POP DUP3 PUSH1 0x2 MUL DUP3 OR SWAP1 POP SWAP3 SWAP2 POP POP JUMP JUMPDEST DUP2 DUP2 SUB PUSH2 0x1CC5 JUMPI POP POP PUSH2 0x1D9A JUMP JUMPDEST PUSH2 0x1CCE DUP3 PUSH2 0x1AF9 JUMP JUMPDEST PUSH8 0xFFFFFFFFFFFFFFFF DUP2 GT ISZERO PUSH2 0x1CE7 JUMPI PUSH2 0x1CE6 PUSH2 0x1328 JUMP JUMPDEST JUMPDEST PUSH2 0x1CF1 DUP3 SLOAD PUSH2 0x18BA JUMP JUMPDEST PUSH2 0x1CFC DUP3 DUP3 DUP6 PUSH2 0x1C2E JUMP JUMPDEST PUSH0 PUSH1 0x1F DUP4 GT PUSH1 0x1 DUP2 EQ PUSH2 0x1D29 JUMPI PUSH0 DUP5 ISZERO PUSH2 0x1D17 JUMPI DUP3 DUP8 ADD SLOAD SWAP1 POP JUMPDEST PUSH2 0x1D21 DUP6 DUP3 PUSH2 0x1C9C JUMP JUMPDEST DUP7 SSTORE POP PUSH2 0x1D93 JUMP JUMPDEST PUSH1 0x1F NOT DUP5 AND PUSH2 0x1D37 DUP8 PUSH2 0x1B20 JUMP JUMPDEST SWAP7 POP PUSH2 0x1D42 DUP7 PUSH2 0x1B0E JUMP JUMPDEST PUSH0 JUMPDEST DUP3 DUP2 LT ISZERO PUSH2 0x1D69 JUMPI DUP5 DUP10 ADD SLOAD DUP3 SSTORE PUSH1 0x1 DUP3 ADD SWAP2 POP PUSH1 0x1 DUP6 ADD SWAP5 POP PUSH1 0x20 DUP2 ADD SWAP1 POP PUSH2 0x1D44 JUMP JUMPDEST DUP7 DUP4 LT ISZERO PUSH2 0x1D86 JUMPI DUP5 DUP10 ADD SLOAD PUSH2 0x1D82 PUSH1 0x1F DUP10 AND DUP3 PUSH2 0x1C80 JUMP JUMPDEST DUP4 SSTORE POP JUMPDEST PUSH1 0x1 PUSH1 0x2 DUP9 MUL ADD DUP9 SSTORE POP POP POP JUMPDEST POP POP POP POP POP POP JUMPDEST JUMP JUMPDEST PUSH32 0x4E487B7100000000000000000000000000000000000000000000000000000000 PUSH0 MSTORE PUSH1 0x31 PUSH1 0x4 MSTORE PUSH1 0x24 PUSH0 REVERT JUMPDEST PUSH2 0x1DD2 DUP3 PUSH2 0x15B6 JUMP JUMPDEST PUSH8 0xFFFFFFFFFFFFFFFF DUP2 GT ISZERO PUSH2 0x1DEB JUMPI PUSH2 0x1DEA PUSH2 0x1328 JUMP JUMPDEST JUMPDEST PUSH2 0x1DF5 DUP3 SLOAD PUSH2 0x18BA JUMP JUMPDEST PUSH2 0x1E00 DUP3 DUP3 DUP6 PUSH2 0x1C2E JUMP JUMPDEST PUSH0 PUSH1 0x20 SWAP1 POP PUSH1 0x1F DUP4 GT PUSH1 0x1 DUP2 EQ PUSH2 0x1E31 JUMPI PUSH0 DUP5 ISZERO PUSH2 0x1E1F JUMPI DUP3 DUP8 ADD MLOAD SWAP1 POP JUMPDEST PUSH2 0x1E29 DUP6 DUP3 PUSH2 0x1C9C JUMP JUMPDEST DUP7 SSTORE POP PUSH2 0x1E90 JUMP JUMPDEST PUSH1 0x1F NOT DUP5 AND PUSH2 0x1E3F DUP7 PUSH2 0x1B0E JUMP JUMPDEST PUSH0 JUMPDEST DUP3 DUP2 LT ISZERO PUSH2 0x1E66 JUMPI DUP5 DUP10 ADD MLOAD DUP3 SSTORE PUSH1 0x1 DUP3 ADD SWAP2 POP PUSH1 0x20 DUP6 ADD SWAP5 POP PUSH1 0x20 DUP2 ADD SWAP1 POP PUSH2 0x1E41 JUMP JUMPDEST DUP7 DUP4 LT ISZERO PUSH2 0x1E83 JUMPI DUP5 DUP10 ADD MLOAD PUSH2 0x1E7F PUSH1 0x1F DUP10 AND DUP3 PUSH2 0x1C80 JUMP JUMPDEST DUP4 SSTORE POP JUMPDEST PUSH1 0x1 PUSH1 0x2 DUP9 MUL ADD DUP9 SSTORE POP POP POP JUMPDEST POP POP POP POP POP POP JUMP JUMPDEST PUSH0 DUP2 SWAP1 POP SWAP3 SWAP2 POP POP JUMP JUMPDEST PUSH0 PUSH2 0x1EAC DUP3 PUSH2 0x15B6 JUMP JUMPDEST PUSH2 0x1EB6 DUP2 DUP6 PUSH2 0x1E98 JUMP JUMPDEST SWAP4 POP PUSH2 0x1EC6 DUP2 DUP6 PUSH1 0x20 DUP7 ADD PUSH2 0x15D0 JUMP JUMPDEST DUP1 DUP5 ADD SWAP2 POP POP SWAP3 SWAP2 POP POP JUMP JUMPDEST PUSH0 PUSH2 0x1EDD DUP3 DUP5 PUSH2 0x1EA2 JUMP JUMPDEST SWAP2 POP DUP2 SWAP1 POP SWAP3 SWAP2 POP POP JUMP JUMPDEST PUSH0 PUSH1 0x20 DUP3 ADD SWAP1 POP PUSH2 0x1EFB PUSH0 DUP4 ADD DUP5 PUSH2 0x1509 JUMP JUMPDEST SWAP3 SWAP2 POP POP JUMP JUMPDEST PUSH0 PUSH0 REVERT JUMPDEST PUSH0 PUSH0 REVERT JUMPDEST PUSH0 DUP2 MLOAD SWAP1 POP PUSH2 0x1F17 DUP2 PUSH2 0x154E JUMP JUMPDEST SWAP3 SWAP2 POP POP JUMP JUMPDEST PUSH0 PUSH2 0x1F2F PUSH2 0x1F2A DUP5 PUSH2 0x13A0 JUMP JUMPDEST PUSH2 0x1386 JUMP JUMPDEST SWAP1 POP DUP3 DUP2 MSTORE PUSH1 0x20 DUP2 ADD DUP5 DUP5 DUP5 ADD GT ISZERO PUSH2 0x1F4B JUMPI PUSH2 0x1F4A PUSH2 0x1314 JUMP JUMPDEST JUMPDEST PUSH2 0x1F56 DUP5 DUP3 DUP6 PUSH2 0x15D0 JUMP JUMPDEST POP SWAP4 SWAP3 POP POP POP JUMP JUMPDEST PUSH0 DUP3 PUSH1 0x1F DUP4 ADD SLT PUSH2 0x1F72 JUMPI PUSH2 0x1F71 PUSH2 0x1310 JUMP JUMPDEST JUMPDEST DUP2 MLOAD PUSH2 0x1F82 DUP5 DUP3 PUSH1 0x20 DUP7 ADD PUSH2 0x1F1D JUMP JUMPDEST SWAP2 POP POP SWAP3 SWAP2 POP POP JUMP JUMPDEST PUSH1 0x4 DUP2 LT PUSH2 0x1F97 JUMPI PUSH0 PUSH0 REVERT JUMPDEST POP JUMP JUMPDEST PUSH0 DUP2 MLOAD SWAP1 POP PUSH2 0x1FA8 DUP2 PUSH2 0x1F8B JUMP JUMPDEST SWAP3 SWAP2 POP POP JUMP JUMPDEST PUSH0 PUSH1 0x60 DUP3 DUP5 SUB SLT ISZERO PUSH2 0x1FC3 JUMPI PUSH2 0x1FC2 PUSH2 0x1F01 JUMP JUMPDEST JUMPDEST PUSH2 0x1FCD PUSH1 0x60 PUSH2 0x1386 JUMP JUMPDEST SWAP1 POP PUSH0 PUSH2 0x1FDC DUP5 DUP3 DUP6 ADD PUSH2 0x1F09 JUMP JUMPDEST PUSH0 DUP4 ADD MSTORE POP PUSH1 0x20 DUP3 ADD MLOAD PUSH8 0xFFFFFFFFFFFFFFFF DUP2 GT ISZERO PUSH2 0x1FFF JUMPI PUSH2 0x1FFE PUSH2 0x1F05 JUMP JUMPDEST JUMPDEST PUSH2 0x200B DUP5 DUP3 DUP6 ADD PUSH2 0x1F5E JUMP JUMPDEST PUSH1 0x20 DUP4 ADD MSTORE POP PUSH1 0x40 PUSH2 0x201F DUP5 DUP3 DUP6 ADD PUSH2 0x1F9A JUMP JUMPDEST PUSH1 0x40 DUP4 ADD MSTORE POP SWAP3 SWAP2 POP POP JUMP JUMPDEST PUSH0 PUSH1 0x20 DUP3 DUP5 SUB SLT ISZERO PUSH2 0x2040 JUMPI PUSH2 0x203F PUSH2 0x1308 JUMP JUMPDEST JUMPDEST PUSH0 DUP3 ADD MLOAD PUSH8 0xFFFFFFFFFFFFFFFF DUP2 GT ISZERO PUSH2 0x205D JUMPI PUSH2 0x205C PUSH2 0x130C JUMP JUMPDEST JUMPDEST PUSH2 0x2069 DUP5 DUP3 DUP6 ADD PUSH2 0x1FAE JUMP JUMPDEST SWAP2 POP POP SWAP3 SWAP2 POP POP JUMP JUMPDEST PUSH0 PUSH1 0xC0 DUP3 ADD SWAP1 POP DUP2 DUP2 SUB PUSH0 DUP4 ADD MSTORE PUSH2 0x208A DUP2 DUP10 PUSH2 0x15DE JUMP JUMPDEST SWAP1 POP DUP2 DUP2 SUB PUSH1 0x20 DUP4 ADD MSTORE PUSH2 0x209E DUP2 DUP9 PUSH2 0x15DE JUMP JUMPDEST SWAP1 POP DUP2 DUP2 SUB PUSH1 0x40 DUP4 ADD MSTORE PUSH2 0x20B2 DUP2 DUP8 PUSH2 0x15DE JUMP JUMPDEST SWAP1 POP DUP2 DUP2 SUB PUSH1 0x60 DUP4 ADD MSTORE PUSH2 0x20C6 DUP2 DUP7 PUSH2 0x15DE JUMP JUMPDEST SWAP1 POP DUP2 DUP2 SUB PUSH1 0x80 DUP4 ADD MSTORE PUSH2 0x20DA DUP2 DUP6 PUSH2 0x15DE JUMP JUMPDEST SWAP1 POP PUSH2 0x20E9 PUSH1 0xA0 DUP4 ADD DUP5 PUSH2 0x1518 JUMP JUMPDEST SWAP8 SWAP7 POP POP POP POP POP POP POP JUMP JUMPDEST PUSH32 0x4E487B7100000000000000000000000000000000000000000000000000000000 PUSH0 MSTORE PUSH1 0x21 PUSH1 0x4 MSTORE PUSH1 0x24 PUSH0 REVERT JUMPDEST PUSH32 0x4F6E6C79206D616E7566616374757265722063616E206164642070726F647563 PUSH0 DUP3 ADD MSTORE PUSH32 0x74732E0000000000000000000000000000000000000000000000000000000000 PUSH1 0x20 DUP3 ADD MSTORE POP JUMP JUMPDEST PUSH0 PUSH2 0x217B PUSH1 0x23 DUP4 PUSH2 0x15C0 JUMP JUMPDEST SWAP2 POP PUSH2 0x2186 DUP3 PUSH2 0x2121 JUMP JUMPDEST PUSH1 0x40 DUP3 ADD SWAP1 POP SWAP2 SWAP1 POP JUMP JUMPDEST PUSH0 PUSH1 0x20 DUP3 ADD SWAP1 POP DUP2 DUP2 SUB PUSH0 DUP4 ADD MSTORE PUSH2 0x21A8 DUP2 PUSH2 0x216F JUMP JUMPDEST SWAP1 POP SWAP2 SWAP1 POP JUMP INVALID LOG2 PUSH5 0x6970667358 0x22 SLT KECCAK256 JUMP GT PUSH32 0x20566805FF537985584B0BA0938EB9D8F89A12F6D830E662D549D7E3E464736F PUSH13 0x634300081E0033000000000000 "},"methodIdentifiers":{"addProduct(string,string,string,string)":"fde74e81","productHistory(string,uint256)":"01970b11","products(uint256)":"7acc0b20","sell(address,string)":"655f272e","setUsersContract(address)":"c60bdc7f","userProducts(address,uint256)":"3d527883","users()":"f2020275"}}}}}