{"project/contracts/SupplyChain.sol":{"SupplyChain":{"abi":[{"inputs":[],"stateMutability":"nonpayable","type":"constructor"},{"inputs":[],"name":"products","outputs":[{"internalType":"contract Products","name":"","type":"address"}],"stateMutability":"view","type":"function"},{"inputs":[{"internalType":"string","name":"_name","type":"string"},{"internalType":"string","name":"_manufacturerName","type":"string"},{"internalType":"string","name":"_barcode","type":"string"},{"internalType":"string","name":"_manufacturedTime","type":"string"}],"name":"registerProduct","outputs":[],"stateMutability":"nonpayable","type":"function"},{"inputs":[{"internalType":"string","name":"_name","type":"string"},{"internalType":"enum Types.UserRole","name":"_role","type":"uint8"}],"name":"registerUser","outputs":[],"stateMutability":"nonpayable","type":"function"},{"inputs":[{"internalType":"address","name":"_addr","type":"address"}],"name":"returnUser","outputs":[{"components":[{"internalType":"address","name":"userAddress","type":"address"},{"internalType":"string","name":"name","type":"string"},{"internalType":"enum Types.UserRole","name":"role","type":"uint8"}],"internalType":"struct Types.User","name":"","type":"tuple"}],"stateMutability":"view","type":"function"},{"inputs":[{"internalType":"address","name":"_addr","type":"address"}],"name":"returnUserInfo","outputs":[{"internalType":"string","name":"name","type":"string"},{"internalType":"enum Types.UserRole","name":"role","type":"uint8"}],"stateMutability":"view","type":"function"},{"inputs":[{"internalType":"address","name":"buyer","type":"address"},{"internalType":"string","name":"_barcode","type":"string"}],"name":"sellProduct","outputs":[],"stateMutability":"nonpayable","type":"function"},{"inputs":[],"name":"users","outputs":[{"internalType":"contract Users","name":"","type":"address"}],"stateMutability":"view","type":"function"}],"evm":{"bytecode":{"linkReferences":{},"object":"608060405234801561000f575f5ffd5b5060405161001c90610185565b604051809103905ff080158015610035573d5f5f3e3d5ffd5b505f5f6101000a81548173ffffffffffffffffffffffffffffffffffffffff021916908373ffffffffffffffffffffffffffffffffffffffff16021790555060405161008090610192565b604051809103905ff080158015610099573d5f5f3e3d5ffd5b5060015f6101000a81548173ffffffffffffffffffffffffffffffffffffffff021916908373ffffffffffffffffffffffffffffffffffffffff16021790555060015f9054906101000a900473ffffffffffffffffffffffffffffffffffffffff1673ffffffffffffffffffffffffffffffffffffffff1663c60bdc7f5f5f9054906101000a900473ffffffffffffffffffffffffffffffffffffffff166040518263ffffffff1660e01b815260040161015391906101de565b5f604051808303815f87803b15801561016a575f5ffd5b505af115801561017c573d5f5f3e3d5ffd5b505050506101f7565b610ec680610fa483390190565b61220180611e6a83390190565b5f73ffffffffffffffffffffffffffffffffffffffff82169050919050565b5f6101c88261019f565b9050919050565b6101d8816101be565b82525050565b5f6020820190506101f15f8301846101cf565b92915050565b610da0806102045f395ff3fe608060405234801561000f575f5ffd5b506004361061007b575f3560e01c8063bb8d6b1d11610059578063bb8d6b1d146100e8578063c71e261f14610118578063e30d40f614610136578063f2020275146101525761007b565b8063338e12eb1461007f5780637ce7b7e01461009b5780638799d6fc146100cc575b5f5ffd5b6100996004803603810190610094919061066b565b610170565b005b6100b560048036038101906100b0919061071f565b6101fc565b6040516100c392919061081d565b60405180910390f35b6100e660048036038101906100e1919061084b565b6102a1565b005b61010260048036038101906100fd919061071f565b610334565b60405161010f91906109d2565b60405180910390f35b6101206103de565b60405161012d9190610a4d565b60405180910390f35b610150600480360381019061014b9190610a66565b610403565b005b61015a610490565b6040516101679190610ae0565b60405180910390f35b5f5f9054906101000a900473ffffffffffffffffffffffffffffffffffffffff1673ffffffffffffffffffffffffffffffffffffffff166318edda4f83836040518363ffffffff1660e01b81526004016101cb92919061081d565b5f604051808303815f87803b1580156101e2575f5ffd5b505af11580156101f4573d5f5f3e3d5ffd5b505050505050565b60605f5f5f9054906101000a900473ffffffffffffffffffffffffffffffffffffffff1673ffffffffffffffffffffffffffffffffffffffff16636386c1c7846040518263ffffffff1660e01b81526004016102589190610b08565b5f60405180830381865afa158015610272573d5f5f3e3d5ffd5b505050506040513d5f823e3d601f19601f8201168201806040525081019061029a9190610ba3565b5050915091565b60015f9054906101000a900473ffffffffffffffffffffffffffffffffffffffff1673ffffffffffffffffffffffffffffffffffffffff1663fde74e81858585856040518563ffffffff1660e01b81526004016103019493929190610bfd565b5f604051808303815f87803b158015610318575f5ffd5b505af115801561032a573d5f5f3e3d5ffd5b5050505050505050565b61033c6104b4565b5f5f9054906101000a900473ffffffffffffffffffffffffffffffffffffffff1673ffffffffffffffffffffffffffffffffffffffff16636f77926b836040518263ffffffff1660e01b81526004016103959190610b08565b5f60405180830381865afa1580156103af573d5f5f3e3d5ffd5b505050506040513d5f823e3d601f19601f820116820180604052508101906103d79190610cf5565b9050919050565b60015f9054906101000a900473ffffffffffffffffffffffffffffffffffffffff1681565b60015f9054906101000a900473ffffffffffffffffffffffffffffffffffffffff1673ffffffffffffffffffffffffffffffffffffffff1663655f272e83836040518363ffffffff1660e01b815260040161045f929190610d3c565b5f604051808303815f87803b158015610476575f5ffd5b505af1158015610488573d5f5f3e3d5ffd5b505050505050565b5f5f9054906101000a900473ffffffffffffffffffffffffffffffffffffffff1681565b60405180606001604052805f73ffffffffffffffffffffffffffffffffffffffff168152602001606081526020015f60038111156104f5576104f46107aa565b5b81525090565b5f604051905090565b5f5ffd5b5f5ffd5b5f5ffd5b5f5ffd5b5f601f19601f8301169050919050565b7f4e487b71000000000000000000000000000000000000000000000000000000005f52604160045260245ffd5b61055a82610514565b810181811067ffffffffffffffff8211171561057957610578610524565b5b80604052505050565b5f61058b6104fb565b90506105978282610551565b919050565b5f67ffffffffffffffff8211156105b6576105b5610524565b5b6105bf82610514565b9050602081019050919050565b828183375f83830152505050565b5f6105ec6105e78461059c565b610582565b90508281526020810184848401111561060857610607610510565b5b6106138482856105cc565b509392505050565b5f82601f83011261062f5761062e61050c565b5b813561063f8482602086016105da565b91505092915050565b60048110610654575f5ffd5b50565b5f8135905061066581610648565b92915050565b5f5f6040838503121561068157610680610504565b5b5f83013567ffffffffffffffff81111561069e5761069d610508565b5b6106aa8582860161061b565b92505060206106bb85828601610657565b9150509250929050565b5f73ffffffffffffffffffffffffffffffffffffffff82169050919050565b5f6106ee826106c5565b9050919050565b6106fe816106e4565b8114610708575f5ffd5b50565b5f81359050610719816106f5565b92915050565b5f6020828403121561073457610733610504565b5b5f6107418482850161070b565b91505092915050565b5f81519050919050565b5f82825260208201905092915050565b8281835e5f83830152505050565b5f61077c8261074a565b6107868185610754565b9350610796818560208601610764565b61079f81610514565b840191505092915050565b7f4e487b71000000000000000000000000000000000000000000000000000000005f52602160045260245ffd5b600481106107e8576107e76107aa565b5b50565b5f8190506107f8826107d7565b919050565b5f610807826107eb565b9050919050565b610817816107fd565b82525050565b5f6040820190508181035f8301526108358185610772565b9050610844602083018461080e565b9392505050565b5f5f5f5f6080858703121561086357610862610504565b5b5f85013567ffffffffffffffff8111156108805761087f610508565b5b61088c8782880161061b565b945050602085013567ffffffffffffffff8111156108ad576108ac610508565b5b6108b98782880161061b565b935050604085013567ffffffffffffffff8111156108da576108d9610508565b5b6108e68782880161061b565b925050606085013567ffffffffffffffff81111561090757610906610508565b5b6109138782880161061b565b91505092959194509250565b610928816106e4565b82525050565b5f82825260208201905092915050565b5f6109488261074a565b610952818561092e565b9350610962818560208601610764565b61096b81610514565b840191505092915050565b61097f816107fd565b82525050565b5f606083015f83015161099a5f86018261091f565b50602083015184820360208601526109b2828261093e565b91505060408301516109c76040860182610976565b508091505092915050565b5f6020820190508181035f8301526109ea8184610985565b905092915050565b5f819050919050565b5f610a15610a10610a0b846106c5565b6109f2565b6106c5565b9050919050565b5f610a26826109fb565b9050919050565b5f610a3782610a1c565b9050919050565b610a4781610a2d565b82525050565b5f602082019050610a605f830184610a3e565b92915050565b5f5f60408385031215610a7c57610a7b610504565b5b5f610a898582860161070b565b925050602083013567ffffffffffffffff811115610aaa57610aa9610508565b5b610ab68582860161061b565b9150509250929050565b5f610aca82610a1c565b9050919050565b610ada81610ac0565b82525050565b5f602082019050610af35f830184610ad1565b92915050565b610b02816106e4565b82525050565b5f602082019050610b1b5f830184610af9565b92915050565b5f610b33610b2e8461059c565b610582565b905082815260208101848484011115610b4f57610b4e610510565b5b610b5a848285610764565b509392505050565b5f82601f830112610b7657610b7561050c565b5b8151610b86848260208601610b21565b91505092915050565b5f81519050610b9d81610648565b92915050565b5f5f60408385031215610bb957610bb8610504565b5b5f83015167ffffffffffffffff811115610bd657610bd5610508565b5b610be285828601610b62565b9250506020610bf385828601610b8f565b9150509250929050565b5f6080820190508181035f830152610c158187610772565b90508181036020830152610c298186610772565b90508181036040830152610c3d8185610772565b90508181036060830152610c518184610772565b905095945050505050565b5f5ffd5b5f5ffd5b5f81519050610c72816106f5565b92915050565b5f60608284031215610c8d57610c8c610c5c565b5b610c976060610582565b90505f610ca684828501610c64565b5f83015250602082015167ffffffffffffffff811115610cc957610cc8610c60565b5b610cd584828501610b62565b6020830152506040610ce984828501610b8f565b60408301525092915050565b5f60208284031215610d0a57610d09610504565b5b5f82015167ffffffffffffffff811115610d2757610d26610508565b5b610d3384828501610c78565b91505092915050565b5f604082019050610d4f5f830185610af9565b8181036020830152610d618184610772565b9050939250505056fea264697066735822122007034c564fee7004a55d2e04657ef753cf6029df93719a9ad09e4201d0a2ff2864736f6c634300081e003360806040525f5f553480156011575f5ffd5b50610ea78061001f5f395ff3fe608060405234801561000f575f5ffd5b5060043610610055575f3560e01c806307973ccf1461005957806318edda4f146100775780636386c1c7146100935780636f77926b146100c4578063a87430ba146100f4575b5f5ffd5b610061610126565b60405161006e91906106be565b60405180910390f35b610091600480360381019061008c9190610847565b61012b565b005b6100ad60048036038101906100a891906108fb565b61028e565b6040516100bb9291906109f9565b60405180910390f35b6100de60048036038101906100d991906108fb565b61040e565b6040516100eb9190610ada565b60405180910390f35b61010e600480360381019061010991906108fb565b610588565b60405161011d93929190610b09565b60405180910390f35b5f5481565b60015f5f82825461013c9190610b72565b9250508190555060405180606001604052803373ffffffffffffffffffffffffffffffffffffffff16815260200183815260200182600381111561018357610182610986565b5b81525060015f3373ffffffffffffffffffffffffffffffffffffffff1673ffffffffffffffffffffffffffffffffffffffff1681526020019081526020015f205f820151815f015f6101000a81548173ffffffffffffffffffffffffffffffffffffffff021916908373ffffffffffffffffffffffffffffffffffffffff160217905550602082015181600101908161021c9190610da2565b506040820151816002015f6101000a81548160ff0219169083600381111561024757610246610986565b5b02179055509050507f04fa57b893b1c3dc318e342db752c035852d43e24481a0e21cce7bd5877f961733838360405161028293929190610b09565b60405180910390a15050565b60605f5f60015f8573ffffffffffffffffffffffffffffffffffffffff1673ffffffffffffffffffffffffffffffffffffffff1681526020019081526020015f206040518060600160405290815f82015f9054906101000a900473ffffffffffffffffffffffffffffffffffffffff1673ffffffffffffffffffffffffffffffffffffffff1673ffffffffffffffffffffffffffffffffffffffff16815260200160018201805461033e90610bd2565b80601f016020809104026020016040519081016040528092919081815260200182805461036a90610bd2565b80156103b55780601f1061038c576101008083540402835291602001916103b5565b820191905f5260205f20905b81548152906001019060200180831161039857829003601f168201915b50505050508152602001600282015f9054906101000a900460ff1660038111156103e2576103e1610986565b5b60038111156103f4576103f3610986565b5b815250509050806020015181604001519250925050915091565b61041661065f565b5f60015f8473ffffffffffffffffffffffffffffffffffffffff1673ffffffffffffffffffffffffffffffffffffffff1681526020019081526020015f206040518060600160405290815f82015f9054906101000a900473ffffffffffffffffffffffffffffffffffffffff1673ffffffffffffffffffffffffffffffffffffffff1673ffffffffffffffffffffffffffffffffffffffff1681526020016001820180546104c390610bd2565b80601f01602080910402602001604051908101604052809291908181526020018280546104ef90610bd2565b801561053a5780601f106105115761010080835404028352916020019161053a565b820191905f5260205f20905b81548152906001019060200180831161051d57829003601f168201915b50505050508152602001600282015f9054906101000a900460ff16600381111561056757610566610986565b5b600381111561057957610578610986565b5b81525050905080915050919050565b6001602052805f5260405f205f91509050805f015f9054906101000a900473ffffffffffffffffffffffffffffffffffffffff16908060010180546105cc90610bd2565b80601f01602080910402602001604051908101604052809291908181526020018280546105f890610bd2565b80156106435780601f1061061a57610100808354040283529160200191610643565b820191905f5260205f20905b81548152906001019060200180831161062657829003601f168201915b505050505090806002015f9054906101000a900460ff16905083565b60405180606001604052805f73ffffffffffffffffffffffffffffffffffffffff168152602001606081526020015f60038111156106a05761069f610986565b5b81525090565b5f819050919050565b6106b8816106a6565b82525050565b5f6020820190506106d15f8301846106af565b92915050565b5f604051905090565b5f5ffd5b5f5ffd5b5f5ffd5b5f5ffd5b5f601f19601f8301169050919050565b7f4e487b71000000000000000000000000000000000000000000000000000000005f52604160045260245ffd5b610736826106f0565b810181811067ffffffffffffffff8211171561075557610754610700565b5b80604052505050565b5f6107676106d7565b9050610773828261072d565b919050565b5f67ffffffffffffffff82111561079257610791610700565b5b61079b826106f0565b9050602081019050919050565b828183375f83830152505050565b5f6107c86107c384610778565b61075e565b9050828152602081018484840111156107e4576107e36106ec565b5b6107ef8482856107a8565b509392505050565b5f82601f83011261080b5761080a6106e8565b5b813561081b8482602086016107b6565b91505092915050565b60048110610830575f5ffd5b50565b5f8135905061084181610824565b92915050565b5f5f6040838503121561085d5761085c6106e0565b5b5f83013567ffffffffffffffff81111561087a576108796106e4565b5b610886858286016107f7565b925050602061089785828601610833565b9150509250929050565b5f73ffffffffffffffffffffffffffffffffffffffff82169050919050565b5f6108ca826108a1565b9050919050565b6108da816108c0565b81146108e4575f5ffd5b50565b5f813590506108f5816108d1565b92915050565b5f602082840312156109105761090f6106e0565b5b5f61091d848285016108e7565b91505092915050565b5f81519050919050565b5f82825260208201905092915050565b8281835e5f83830152505050565b5f61095882610926565b6109628185610930565b9350610972818560208601610940565b61097b816106f0565b840191505092915050565b7f4e487b71000000000000000000000000000000000000000000000000000000005f52602160045260245ffd5b600481106109c4576109c3610986565b5b50565b5f8190506109d4826109b3565b919050565b5f6109e3826109c7565b9050919050565b6109f3816109d9565b82525050565b5f6040820190508181035f830152610a11818561094e565b9050610a2060208301846109ea565b9392505050565b610a30816108c0565b82525050565b5f82825260208201905092915050565b5f610a5082610926565b610a5a8185610a36565b9350610a6a818560208601610940565b610a73816106f0565b840191505092915050565b610a87816109d9565b82525050565b5f606083015f830151610aa25f860182610a27565b5060208301518482036020860152610aba8282610a46565b9150506040830151610acf6040860182610a7e565b508091505092915050565b5f6020820190508181035f830152610af28184610a8d565b905092915050565b610b03816108c0565b82525050565b5f606082019050610b1c5f830186610afa565b8181036020830152610b2e818561094e565b9050610b3d60408301846109ea565b949350505050565b7f4e487b71000000000000000000000000000000000000000000000000000000005f52601160045260245ffd5b5f610b7c826106a6565b9150610b87836106a6565b9250828201905080821115610b9f57610b9e610b45565b5b92915050565b7f4e487b71000000000000000000000000000000000000000000000000000000005f52602260045260245ffd5b5f6002820490506001821680610be957607f821691505b602082108103610bfc57610bfb610ba5565b5b50919050565b5f819050815f5260205f209050919050565b5f6020601f8301049050919050565b5f82821b905092915050565b5f60088302610c5e7fffffffffffffffffffffffffffffffffffffffffffffffffffffffffffffffff82610c23565b610c688683610c23565b95508019841693508086168417925050509392505050565b5f819050919050565b5f610ca3610c9e610c99846106a6565b610c80565b6106a6565b9050919050565b5f819050919050565b610cbc83610c89565b610cd0610cc882610caa565b848454610c2f565b825550505050565b5f5f905090565b610ce7610cd8565b610cf2818484610cb3565b505050565b5b81811015610d1557610d0a5f82610cdf565b600181019050610cf8565b5050565b601f821115610d5a57610d2b81610c02565b610d3484610c14565b81016020851015610d43578190505b610d57610d4f85610c14565b830182610cf7565b50505b505050565b5f82821c905092915050565b5f610d7a5f1984600802610d5f565b1980831691505092915050565b5f610d928383610d6b565b9150826002028217905092915050565b610dab82610926565b67ffffffffffffffff811115610dc457610dc3610700565b5b610dce8254610bd2565b610dd9828285610d19565b5f60209050601f831160018114610e0a575f8415610df8578287015190505b610e028582610d87565b865550610e69565b601f198416610e1886610c02565b5f5b82811015610e3f57848901518255600182019150602085019450602081019050610e1a565b86831015610e5c5784890151610e58601f891682610d6b565b8355505b6001600288020188555050505b50505050505056fea264697066735822122027685f154ed33d83552c10a910da775b3e635659c56fa1b02f7e5abf7732dcb864736f6c634300081e00336080604052348015600e575f5ffd5b506121e58061001c5f395ff3fe608060405234801561000f575f5ffd5b506004361061007b575f3560e01c80637acc0b20116100595780637acc0b20146100fc578063c60bdc7f1461012f578063f20202751461014b578063fde74e81146101695761007b565b806301970b111461007f5780633d527883146100b0578063655f272e146100e0575b5f5ffd5b6100996004803603810190610094919061147f565b610185565b6040516100a7929190611527565b60405180910390f35b6100ca60048036038101906100c59190611578565b6101f6565b6040516100d79190611616565b60405180910390f35b6100fa60048036038101906100f59190611636565b6102a7565b005b61011660048036038101906101119190611690565b610a1d565b60405161012694939291906116bb565b60405180910390f35b6101496004803603810190610144919061171a565b610c70565b005b610153610cb2565b60405161016091906117a0565b60405180910390f35b610183600480360381019061017e91906117b9565b610cd6565b005b60038280516020810182018051848252602083016020850120818352809550505050505081815481106101b6575f80fd5b905f5260205f2090600202015f9150915050805f015f9054906101000a900473ffffffffffffffffffffffffffffffffffffffff16908060010154905082565b6002602052815f5260405f20818154811061020f575f80fd5b905f5260205f20015f91509150508054610228906118ba565b80601f0160208091040260200160405190810160405280929190818152602001828054610254906118ba565b801561029f5780601f106102765761010080835404028352916020019161029f565b820191905f5260205f20905b81548152906001019060200180831161028257829003601f168201915b505050505081565b6102af61127f565b5f5f90505f5f90505b60018054905081101561058c578380519060200120600182815481106102e1576102e06118ea565b5b905f5260205f2090600402016002016040516102fd91906119b3565b60405180910390200361057f576001818154811061031e5761031d6118ea565b5b905f5260205f2090600402016040518060800160405290815f82018054610344906118ba565b80601f0160208091040260200160405190810160405280929190818152602001828054610370906118ba565b80156103bb5780601f10610392576101008083540402835291602001916103bb565b820191905f5260205f20905b81548152906001019060200180831161039e57829003601f168201915b505050505081526020016001820180546103d4906118ba565b80601f0160208091040260200160405190810160405280929190818152602001828054610400906118ba565b801561044b5780601f106104225761010080835404028352916020019161044b565b820191905f5260205f20905b81548152906001019060200180831161042e57829003601f168201915b50505050508152602001600282018054610464906118ba565b80601f0160208091040260200160405190810160405280929190818152602001828054610490906118ba565b80156104db5780601f106104b2576101008083540402835291602001916104db565b820191905f5260205f20905b8154815290600101906020018083116104be57829003601f168201915b505050505081526020016003820180546104f4906118ba565b80601f0160208091040260200160405190810160405280929190818152602001828054610520906118ba565b801561056b5780601f106105425761010080835404028352916020019161056b565b820191905f5260205f20905b81548152906001019060200180831161054e57829003601f168201915b50505050508152505092506001915061058c565b80806001019150506102b8565b50806105cd576040517f08c379a00000000000000000000000000000000000000000000000000000000081526004016105c490611a13565b60405180910390fd5b5f60025f3373ffffffffffffffffffffffffffffffffffffffff1673ffffffffffffffffffffffffffffffffffffffff1681526020019081526020015f2090505f818054905090505f5f90505b8280549050811015610678578580519060200120838281548110610641576106406118ea565b5b905f5260205f200160405161065691906119b3565b60405180910390200361066b57809150610678565b808060010191505061061a565b50818054905081106106bf576040517f08c379a00000000000000000000000000000000000000000000000000000000081526004016106b690611a7b565b60405180910390fd5b600182805490506106d09190611ac6565b81101561072b5781600183805490506106e99190611ac6565b815481106106fa576106f96118ea565b5b905f5260205f2001828281548110610715576107146118ea565b5b905f5260205f200190816107299190611cb7565b505b8180548061073c5761073b611d9c565b5b600190038181905f5260205f20015f61075591906112a7565b905560025f8773ffffffffffffffffffffffffffffffffffffffff1673ffffffffffffffffffffffffffffffffffffffff1681526020019081526020015f2085908060018154018082558091505060019003905f5260205f20015f9091909190915090816107c39190611dc9565b506003856040516107d49190611ed2565b908152602001604051809103902060405180604001604052808873ffffffffffffffffffffffffffffffffffffffff16815260200142815250908060018154018082558091505060019003905f5260205f2090600202015f909190919091505f820151815f015f6101000a81548173ffffffffffffffffffffffffffffffffffffffff021916908373ffffffffffffffffffffffffffffffffffffffff1602179055506020820151816001015550505f5f5f9054906101000a900473ffffffffffffffffffffffffffffffffffffffff1673ffffffffffffffffffffffffffffffffffffffff16636f77926b886040518263ffffffff1660e01b81526004016108dd9190611ee8565b5f60405180830381865afa1580156108f7573d5f5f3e3d5ffd5b505050506040513d5f823e3d601f19601f8201168201806040525081019061091f919061202b565b6020015190505f5f5f9054906101000a900473ffffffffffffffffffffffffffffffffffffffff1673ffffffffffffffffffffffffffffffffffffffff16636f77926b336040518263ffffffff1660e01b815260040161097f9190611ee8565b5f60405180830381865afa158015610999573d5f5f3e3d5ffd5b505050506040513d5f823e3d601f19601f820116820180604052508101906109c1919061202b565b6020015190507fb09bd448f452afeabbdf6078f66a59e7b184526893c0d0246f81bcce51990801865f015187602001518860400151858542604051610a0b96959493929190612072565b60405180910390a15050505050505050565b60018181548110610a2c575f80fd5b905f5260205f2090600402015f91509050805f018054610a4b906118ba565b80601f0160208091040260200160405190810160405280929190818152602001828054610a77906118ba565b8015610ac25780601f10610a9957610100808354040283529160200191610ac2565b820191905f5260205f20905b815481529060010190602001808311610aa557829003601f168201915b505050505090806001018054610ad7906118ba565b80601f0160208091040260200160405190810160405280929190818152602001828054610b03906118ba565b8015610b4e5780601f10610b2557610100808354040283529160200191610b4e565b820191905f5260205f20905b815481529060010190602001808311610b3157829003601f168201915b505050505090806002018054610b63906118ba565b80601f0160208091040260200160405190810160405280929190818152602001828054610b8f906118ba565b8015610bda5780601f10610bb157610100808354040283529160200191610bda565b820191905f5260205f20905b815481529060010190602001808311610bbd57829003601f168201915b505050505090806003018054610bef906118ba565b80601f0160208091040260200160405190810160405280929190818152602001828054610c1b906118ba565b8015610c665780601f10610c3d57610100808354040283529160200191610c66565b820191905f5260205f20905b815481529060010190602001808311610c4957829003601f168201915b5050505050905084565b805f5f6101000a81548173ffffffffffffffffffffffffffffffffffffffff021916908373ffffffffffffffffffffffffffffffffffffffff16021790555050565b5f5f9054906101000a900473ffffffffffffffffffffffffffffffffffffffff1681565b5f5f5f9054906101000a900473ffffffffffffffffffffffffffffffffffffffff1673ffffffffffffffffffffffffffffffffffffffff16636f77926b336040518263ffffffff1660e01b8152600401610d309190611ee8565b5f60405180830381865afa158015610d4a573d5f5f3e3d5ffd5b505050506040513d5f823e3d601f19601f82011682018060405250810190610d72919061202b565b90505f6003811115610d8757610d866120f4565b5b81604001516003811115610d9e57610d9d6120f4565b5b14610dde576040517f08c379a0000000000000000000000000000000000000000000000000000000008152600401610dd590612191565b60405180910390fd5b6001604051806080016040528087815260200186815260200185815260200184815250908060018154018082558091505060019003905f5260205f2090600402015f909190919091505f820151815f019081610e3a9190611dc9565b506020820151816001019081610e509190611dc9565b506040820151816002019081610e669190611dc9565b506060820151816003019081610e7c9190611dc9565b5050505f6001808080549050610e929190611ac6565b81548110610ea357610ea26118ea565b5b905f5260205f2090600402016040518060800160405290815f82018054610ec9906118ba565b80601f0160208091040260200160405190810160405280929190818152602001828054610ef5906118ba565b8015610f405780601f10610f1757610100808354040283529160200191610f40565b820191905f5260205f20905b815481529060010190602001808311610f2357829003601f168201915b50505050508152602001600182018054610f59906118ba565b80601f0160208091040260200160405190810160405280929190818152602001828054610f85906118ba565b8015610fd05780601f10610fa757610100808354040283529160200191610fd0565b820191905f5260205f20905b815481529060010190602001808311610fb357829003601f168201915b50505050508152602001600282018054610fe9906118ba565b80601f0160208091040260200160405190810160405280929190818152602001828054611015906118ba565b80156110605780601f1061103757610100808354040283529160200191611060565b820191905f5260205f20905b81548152906001019060200180831161104357829003601f168201915b50505050508152602001600382018054611079906118ba565b80601f01602080910402602001604051908101604052809291908181526020018280546110a5906118ba565b80156110f05780601f106110c7576101008083540402835291602001916110f0565b820191905f5260205f20905b8154815290600101906020018083116110d357829003601f168201915b505050505081525050905060025f3373ffffffffffffffffffffffffffffffffffffffff1673ffffffffffffffffffffffffffffffffffffffff1681526020019081526020015f2084908060018154018082558091505060019003905f5260205f20015f9091909190915090816111679190611dc9565b506003816040015160405161117c9190611ed2565b908152602001604051809103902060405180604001604052803373ffffffffffffffffffffffffffffffffffffffff16815260200142815250908060018154018082558091505060019003905f5260205f2090600202015f909190919091505f820151815f015f6101000a81548173ffffffffffffffffffffffffffffffffffffffff021916908373ffffffffffffffffffffffffffffffffffffffff1602179055506020820151816001015550507f11563e9d0c09817a487768ace63943d092729823f906f1244b854ab350a51f1e815f015182602001518360400151846060015160405161126f94939291906116bb565b60405180910390a1505050505050565b6040518060800160405280606081526020016060815260200160608152602001606081525090565b5080546112b3906118ba565b5f825580601f106112c457506112e1565b601f0160209004905f5260205f20908101906112e091906112e4565b5b50565b5b808211156112fb575f815f9055506001016112e5565b5090565b5f604051905090565b5f5ffd5b5f5ffd5b5f5ffd5b5f5ffd5b5f601f19601f8301169050919050565b7f4e487b71000000000000000000000000000000000000000000000000000000005f52604160045260245ffd5b61135e82611318565b810181811067ffffffffffffffff8211171561137d5761137c611328565b5b80604052505050565b5f61138f6112ff565b905061139b8282611355565b919050565b5f67ffffffffffffffff8211156113ba576113b9611328565b5b6113c382611318565b9050602081019050919050565b828183375f83830152505050565b5f6113f06113eb846113a0565b611386565b90508281526020810184848401111561140c5761140b611314565b5b6114178482856113d0565b509392505050565b5f82601f83011261143357611432611310565b5b81356114438482602086016113de565b91505092915050565b5f819050919050565b61145e8161144c565b8114611468575f5ffd5b50565b5f8135905061147981611455565b92915050565b5f5f6040838503121561149557611494611308565b5b5f83013567ffffffffffffffff8111156114b2576114b161130c565b5b6114be8582860161141f565b92505060206114cf8582860161146b565b9150509250929050565b5f73ffffffffffffffffffffffffffffffffffffffff82169050919050565b5f611502826114d9565b9050919050565b611512816114f8565b82525050565b6115218161144c565b82525050565b5f60408201905061153a5f830185611509565b6115476020830184611518565b9392505050565b611557816114f8565b8114611561575f5ffd5b50565b5f813590506115728161154e565b92915050565b5f5f6040838503121561158e5761158d611308565b5b5f61159b85828601611564565b92505060206115ac8582860161146b565b9150509250929050565b5f81519050919050565b5f82825260208201905092915050565b8281835e5f83830152505050565b5f6115e8826115b6565b6115f281856115c0565b93506116028185602086016115d0565b61160b81611318565b840191505092915050565b5f6020820190508181035f83015261162e81846115de565b905092915050565b5f5f6040838503121561164c5761164b611308565b5b5f61165985828601611564565b925050602083013567ffffffffffffffff81111561167a5761167961130c565b5b6116868582860161141f565b9150509250929050565b5f602082840312156116a5576116a4611308565b5b5f6116b28482850161146b565b91505092915050565b5f6080820190508181035f8301526116d381876115de565b905081810360208301526116e781866115de565b905081810360408301526116fb81856115de565b9050818103606083015261170f81846115de565b905095945050505050565b5f6020828403121561172f5761172e611308565b5b5f61173c84828501611564565b91505092915050565b5f819050919050565b5f61176861176361175e846114d9565b611745565b6114d9565b9050919050565b5f6117798261174e565b9050919050565b5f61178a8261176f565b9050919050565b61179a81611780565b82525050565b5f6020820190506117b35f830184611791565b92915050565b5f5f5f5f608085870312156117d1576117d0611308565b5b5f85013567ffffffffffffffff8111156117ee576117ed61130c565b5b6117fa8782880161141f565b945050602085013567ffffffffffffffff81111561181b5761181a61130c565b5b6118278782880161141f565b935050604085013567ffffffffffffffff8111156118485761184761130c565b5b6118548782880161141f565b925050606085013567ffffffffffffffff8111156118755761187461130c565b5b6118818782880161141f565b91505092959194509250565b7f4e487b71000000000000000000000000000000000000000000000000000000005f52602260045260245ffd5b5f60028204905060018216806118d157607f821691505b6020821081036118e4576118e361188d565b5b50919050565b7f4e487b71000000000000000000000000000000000000000000000000000000005f52603260045260245ffd5b5f81905092915050565b5f819050815f5260205f209050919050565b5f815461193f816118ba565b6119498186611917565b9450600182165f81146119635760018114611978576119aa565b60ff19831686528115158202860193506119aa565b61198185611921565b5f5b838110156119a257815481890152600182019150602081019050611983565b838801955050505b50505092915050565b5f6119be8284611933565b915081905092915050565b7f50726f64756374206e6f7420666f756e640000000000000000000000000000005f82015250565b5f6119fd6011836115c0565b9150611a08826119c9565b602082019050919050565b5f6020820190508181035f830152611a2a816119f1565b9050919050565b7f50726f64756374206e6f7420696e2073656c6c657220696e76656e746f7279005f82015250565b5f611a65601f836115c0565b9150611a7082611a31565b602082019050919050565b5f6020820190508181035f830152611a9281611a59565b9050919050565b7f4e487b71000000000000000000000000000000000000000000000000000000005f52601160045260245ffd5b5f611ad08261144c565b9150611adb8361144c565b9250828203905081811115611af357611af2611a99565b5b92915050565b5f81549050611b07816118ba565b9050919050565b5f819050815f5260205f209050919050565b5f819050815f5260205f209050919050565b5f6020601f8301049050919050565b5f82821b905092915050565b5f60088302611b7c7fffffffffffffffffffffffffffffffffffffffffffffffffffffffffffffffff82611b41565b611b868683611b41565b95508019841693508086168417925050509392505050565b5f611bb8611bb3611bae8461144c565b611745565b61144c565b9050919050565b5f819050919050565b611bd183611b9e565b611be5611bdd82611bbf565b848454611b4d565b825550505050565b5f5f905090565b611bfc611bed565b611c07818484611bc8565b505050565b5b81811015611c2a57611c1f5f82611bf4565b600181019050611c0d565b5050565b601f821115611c6f57611c4081611b0e565b611c4984611b32565b81016020851015611c58578190505b611c6c611c6485611b32565b830182611c0c565b50505b505050565b5f82821c905092915050565b5f611c8f5f1984600802611c74565b1980831691505092915050565b5f611ca78383611c80565b9150826002028217905092915050565b818103611cc5575050611d9a565b611cce82611af9565b67ffffffffffffffff811115611ce757611ce6611328565b5b611cf182546118ba565b611cfc828285611c2e565b5f601f831160018114611d29575f8415611d17578287015490505b611d218582611c9c565b865550611d93565b601f198416611d3787611b20565b9650611d4286611b0e565b5f5b82811015611d6957848901548255600182019150600185019450602081019050611d44565b86831015611d865784890154611d82601f891682611c80565b8355505b6001600288020188555050505b5050505050505b565b7f4e487b71000000000000000000000000000000000000000000000000000000005f52603160045260245ffd5b611dd2826115b6565b67ffffffffffffffff811115611deb57611dea611328565b5b611df582546118ba565b611e00828285611c2e565b5f60209050601f831160018114611e31575f8415611e1f578287015190505b611e298582611c9c565b865550611e90565b601f198416611e3f86611b0e565b5f5b82811015611e6657848901518255600182019150602085019450602081019050611e41565b86831015611e835784890151611e7f601f891682611c80565b8355505b6001600288020188555050505b505050505050565b5f81905092915050565b5f611eac826115b6565b611eb68185611e98565b9350611ec68185602086016115d0565b80840191505092915050565b5f611edd8284611ea2565b915081905092915050565b5f602082019050611efb5f830184611509565b92915050565b5f5ffd5b5f5ffd5b5f81519050611f178161154e565b92915050565b5f611f2f611f2a846113a0565b611386565b905082815260208101848484011115611f4b57611f4a611314565b5b611f568482856115d0565b509392505050565b5f82601f830112611f7257611f71611310565b5b8151611f82848260208601611f1d565b91505092915050565b60048110611f97575f5ffd5b50565b5f81519050611fa881611f8b565b92915050565b5f60608284031215611fc357611fc2611f01565b5b611fcd6060611386565b90505f611fdc84828501611f09565b5f83015250602082015167ffffffffffffffff811115611fff57611ffe611f05565b5b61200b84828501611f5e565b602083015250604061201f84828501611f9a565b60408301525092915050565b5f602082840312156120405761203f611308565b5b5f82015167ffffffffffffffff81111561205d5761205c61130c565b5b61206984828501611fae565b91505092915050565b5f60c0820190508181035f83015261208a81896115de565b9050818103602083015261209e81886115de565b905081810360408301526120b281876115de565b905081810360608301526120c681866115de565b905081810360808301526120da81856115de565b90506120e960a0830184611518565b979650505050505050565b7f4e487b71000000000000000000000000000000000000000000000000000000005f52602160045260245ffd5b7f4f6e6c79206d616e7566616374757265722063616e206164642070726f6475635f8201527f74732e0000000000000000000000000000000000000000000000000000000000602082015250565b5f61217b6023836115c0565b915061218682612121565b604082019050919050565b5f6020820190508181035f8301526121a88161216f565b905091905056fea264697066735822122056117f20566805ff537985584b0ba0938eb9d8f89a12f6d830e662d549d7e3e464736f6c634300081e0033","opcodes":"PUSH1 0x80 PUSH1 0x40 MSTORE CALLVALUE DUP1 ISZERO PUSH2 0xF JUMPI PUSH0 PUSH0 REVERT JUMPDEST POP PUSH1 0x40 MLOAD PUSH2 0x1C SWAP1 PUSH2 0x185 JUMP JUMPDEST PUSH1 0x40 MLOAD DUP1 SWAP2 SUB SWAP1 PUSH0 CREATE DUP1 ISZERO DUP1 ISZERO PUSH2 0x35 JUMPI RETURNDATASIZE PUSH0 PUSH0 RETURNDATACOPY RETURNDATASIZE PUSH0 REVERT JUMPDEST POP PUSH0 PUSH0 PUSH2 0x100 EXP DUP2 SLOAD DUP2 PUSH20 0xFFFFFFFFFFFFFFFFFFFFFFFFFFFFFFFFFFFFFFFF MUL NOT AND SWAP1 DUP4 PUSH20 0xFFFFFFFFFFFFFFFFFFFFFFFFFFFFFFFFFFFFFFFF AND MUL OR SWAP1 SSTORE POP PUSH1 0x40 MLOAD PUSH2 0x80 SWAP1 PUSH2 0x192 JUMP JUMPDEST PUSH1 0x40 MLOAD DUP1 SWAP2 SUB SWAP1 PUSH0 CREATE DUP1 ISZERO DUP1 ISZERO PUSH2 0x99 JUMPI RETURNDATASIZE PUSH0 PUSH0 RETURNDATACOPY RETURNDATASIZE PUSH0 REVERT JUMPDEST POP PUSH1 0x1 PUSH0 PUSH2 0x100 EXP DUP2 SLOAD DUP2 PUSH20 0xFFFFFFFFFFFFFFFFFFFFFFFFFFFFFFFFFFFFFFFF MUL NOT AND SWAP1 DUP4 PUSH20 0xFFFFFFFFFFFFFFFFFFFFFFFFFFFFFFFFFFFFFFFF AND MUL OR SWAP1 SSTORE POP PUSH1 0x1 PUSH0 SWAP1 SLOAD SWAP1 PUSH2 0x100 EXP SWAP1 DIV PUSH20 0xFFFFFFFFFFFFFFFFFFFFFFFFFFFFFFFFFFFFFFFF AND PUSH20 0xFFFFFFFFFFFFFFFFFFFFFFFFFFFFFFFFFFFFFFFF AND PUSH4 0xC60BDC7F PUSH0 PUSH0 SWAP1 SLOAD SWAP1 PUSH2 0x100 EXP SWAP1 DIV PUSH20 0xFFFFFFFFFFFFFFFFFFFFFFFFFFFFFFFFFFFFFFFF AND PUSH1 0x40 MLOAD DUP3 PUSH4 0xFFFFFFFF AND PUSH1 0xE0 SHL DUP2 MSTORE PUSH1 0x4 ADD PUSH2 0x153 SWAP2 SWAP1 PUSH2 0x1DE JUMP JUMPDEST PUSH0 PUSH1 0x40 MLOAD DUP1 DUP4 SUB DUP2 PUSH0 DUP8 DUP1 EXTCODESIZE ISZERO DUP1 ISZERO PUSH2 0x16A JUMPI PUSH0 PUSH0 REVERT JUMPDEST POP GAS CALL ISZERO DUP1 ISZERO PUSH2 0x17C JUMPI RETURNDATASIZE PUSH0 PUSH0 RETURNDATACOPY RETURNDATASIZE PUSH0 REVERT JUMPDEST POP POP POP POP PUSH2 0x1F7 JUMP JUMPDEST PUSH2 0xEC6 DUP1 PUSH2 0xFA4 DUP4 CODECOPY ADD SWAP1 JUMP JUMPDEST PUSH2 0x2201 DUP1 PUSH2 0x1E6A DUP4 CODECOPY ADD SWAP1 JUMP JUMPDEST PUSH0 PUSH20 0xFFFFFFFFFFFFFFFFFFFFFFFFFFFFFFFFFFFFFFFF DUP3 AND SWAP1 POP SWAP2 SWAP1 POP JUMP JUMPDEST PUSH0 PUSH2 0x1C8 DUP3 PUSH2 0x19F JUMP JUMPDEST SWAP1 POP SWAP2 SWAP1 POP JUMP JUMPDEST PUSH2 0x1D8 DUP2 PUSH2 0x1BE JUMP JUMPDEST DUP3 MSTORE POP POP JUMP JUMPDEST PUSH0 PUSH1 0x20 DUP3 ADD SWAP1 POP PUSH2 0x1F1 PUSH0 DUP4 ADD DUP5 PUSH2 0x1CF JUMP JUMPDEST SWAP3 SWAP2 POP POP JUMP JUMPDEST PUSH2 0xDA0 DUP1 PUSH2 0x204 PUSH0 CODECOPY PUSH0 RETURN INVALID PUSH1 0x80 PUSH1 0x40 MSTORE CALLVALUE DUP1 ISZERO PUSH2 0xF JUMPI PUSH0 PUSH0 REVERT JUMPDEST POP PUSH1 0x4 CALLDATASIZE LT PUSH2 0x7B JUMPI PUSH0 CALLDATALOAD PUSH1 0xE0 SHR DUP1 PUSH4 0xBB8D6B1D GT PUSH2 0x59 JUMPI DUP1 PUSH4 0xBB8D6B1D EQ PUSH2 0xE8 JUMPI DUP1 PUSH4 0xC71E261F EQ PUSH2 0x118 JUMPI DUP1 PUSH4 0xE30D40F6 EQ PUSH2 0x136 JUMPI DUP1 PUSH4 0xF2020275 EQ PUSH2 0x152 JUMPI PUSH2 0x7B JUMP JUMPDEST DUP1 PUSH4 0x338E12EB EQ PUSH2 0x7F JUMPI DUP1 PUSH4 0x7CE7B7E0 EQ PUSH2 0x9B JUMPI DUP1 PUSH4 0x8799D6FC EQ PUSH2 0xCC JUMPI JUMPDEST PUSH0 PUSH0 REVERT JUMPDEST PUSH2 0x99 PUSH1 0x4 DUP1 CALLDATASIZE SUB DUP2 ADD SWAP1 PUSH2 0x94 SWAP2 SWAP1 PUSH2 0x66B JUMP JUMPDEST PUSH2 0x170 JUMP JUMPDEST STOP JUMPDEST PUSH2 0xB5 PUSH1 0x4 DUP1 CALLDATASIZE SUB DUP2 ADD SWAP1 PUSH2 0xB0 SWAP2 SWAP1 PUSH2 0x71F JUMP JUMPDEST PUSH2 0x1FC JUMP JUMPDEST PUSH1 0x40 MLOAD PUSH2 0xC3 SWAP3 SWAP2 SWAP1 PUSH2 0x81D JUMP JUMPDEST PUSH1 0x40 MLOAD DUP1 SWAP2 SUB SWAP1 RETURN JUMPDEST PUSH2 0xE6 PUSH1 0x4 DUP1 CALLDATASIZE SUB DUP2 ADD SWAP1 PUSH2 0xE1 SWAP2 SWAP1 PUSH2 0x84B JUMP JUMPDEST PUSH2 0x2A1 JUMP JUMPDEST STOP JUMPDEST PUSH2 0x102 PUSH1 0x4 DUP1 CALLDATASIZE SUB DUP2 ADD SWAP1 PUSH2 0xFD SWAP2 SWAP1 PUSH2 0x71F JUMP JUMPDEST PUSH2 0x334 JUMP JUMPDEST PUSH1 0x40 MLOAD PUSH2 0x10F SWAP2 SWAP1 PUSH2 0x9D2 JUMP JUMPDEST PUSH1 0x40 MLOAD DUP1 SWAP2 SUB SWAP1 RETURN JUMPDEST PUSH2 0x120 PUSH2 0x3DE JUMP JUMPDEST PUSH1 0x40 MLOAD PUSH2 0x12D SWAP2 SWAP1 PUSH2 0xA4D JUMP JUMPDEST PUSH1 0x40 MLOAD DUP1 SWAP2 SUB SWAP1 RETURN JUMPDEST PUSH2 0x150 PUSH1 0x4 DUP1 CALLDATASIZE SUB DUP2 ADD SWAP1 PUSH2 0x14B SWAP2 SWAP1 PUSH2 0xA66 JUMP JUMPDEST PUSH2 0x403 JUMP JUMPDEST STOP JUMPDEST PUSH2 0x15A PUSH2 0x490 JUMP JUMPDEST PUSH1 0x40 MLOAD PUSH2 0x167 SWAP2 SWAP1 PUSH2 0xAE0 JUMP JUMPDEST PUSH1 0x40 MLOAD DUP1 SWAP2 SUB SWAP1 RETURN JUMPDEST PUSH0 PUSH0 SWAP1 SLOAD SWAP1 PUSH2 0x100 EXP SWAP1 DIV PUSH20 0xFFFFFFFFFFFFFFFFFFFFFFFFFFFFFFFFFFFFFFFF AND PUSH20 0xFFFFFFFFFFFFFFFFFFFFFFFFFFFFFFFFFFFFFFFF AND PUSH4 0x18EDDA4F DUP4 DUP4 PUSH1 0x40 MLOAD DUP4 PUSH4 0xFFFFFFFF AND PUSH1 0xE0 SHL DUP2 MSTORE PUSH1 0x4 ADD PUSH2 0x1CB SWAP3 SWAP2 SWAP1 PUSH2 0x81D JUMP JUMPDEST PUSH0 PUSH1 0x40 MLOAD DUP1 DUP4 SUB DUP2 PUSH0 DUP8 DUP1 EXTCODESIZE ISZERO DUP1 ISZERO PUSH2 0x1E2 JUMPI PUSH0 PUSH0 REVERT JUMPDEST POP GAS CALL ISZERO DUP1 ISZERO PUSH2 0x1F4 JUMPI RETURNDATASIZE PUSH0 PUSH0 RETURNDATACOPY RETURNDATASIZE PUSH0 REVERT JUMPDEST POP POP POP POP POP POP JUMP JUMPDEST PUSH1 0x60 PUSH0 PUSH0 PUSH0 SWAP1 SLOAD SWAP1 PUSH2 0x100 EXP SWAP1 DIV PUSH20 0xFFFFFFFFFFFFFFFFFFFFFFFFFFFFFFFFFFFFFFFF AND PUSH20 0xFFFFFFFFFFFFFFFFFFFFFFFFFFFFFFFFFFFFFFFF AND PUSH4 0x6386C1C7 DUP5 PUSH1 0x40 MLOAD DUP3 PUSH4 0xFFFFFFFF AND PUSH1 0xE0 SHL DUP2 MSTORE PUSH1 0x4 ADD PUSH2 0x258 SWAP2 SWAP1 PUSH2 0xB08 JUMP JUMPDEST PUSH0 PUSH1 0x40 MLOAD DUP1 DUP4 SUB DUP2 DUP7 GAS STATICCALL ISZERO DUP1 ISZERO PUSH2 0x272 JUMPI RETURNDATASIZE PUSH0 PUSH0 RETURNDATACOPY RETURNDATASIZE PUSH0 REVERT JUMPDEST POP POP POP POP PUSH1 0x40 MLOAD RETURNDATASIZE PUSH0 DUP3 RETURNDATACOPY RETURNDATASIZE PUSH1 0x1F NOT PUSH1 0x1F DUP3 ADD AND DUP3 ADD DUP1 PUSH1 0x40 MSTORE POP DUP2 ADD SWAP1 PUSH2 0x29A SWAP2 SWAP1 PUSH2 0xBA3 JUMP JUMPDEST POP POP SWAP2 POP SWAP2 JUMP JUMPDEST PUSH1 0x1 PUSH0 SWAP1 SLOAD SWAP1 PUSH2 0x100 EXP SWAP1 DIV PUSH20 0xFFFFFFFFFFFFFFFFFFFFFFFFFFFFFFFFFFFFFFFF AND PUSH20 0xFFFFFFFFFFFFFFFFFFFFFFFFFFFFFFFFFFFFFFFF AND PUSH4 0xFDE74E81 DUP6 DUP6 DUP6 DUP6 PUSH1 0x40 MLOAD DUP6 PUSH4 0xFFFFFFFF AND PUSH1 0xE0 SHL DUP2 MSTORE PUSH1 0x4 ADD PUSH2 0x301 SWAP5 SWAP4 SWAP3 SWAP2 SWAP1 PUSH2 0xBFD JUMP JUMPDEST PUSH0 PUSH1 0x40 MLOAD DUP1 DUP4 SUB DUP2 PUSH0 DUP8 DUP1 EXTCODESIZE ISZERO DUP1 ISZERO PUSH2 0x318 JUMPI PUSH0 PUSH0 REVERT JUMPDEST POP GAS CALL ISZERO DUP1 ISZERO PUSH2 0x32A JUMPI RETURNDATASIZE PUSH0 PUSH0 RETURNDATACOPY RETURNDATASIZE PUSH0 REVERT JUMPDEST POP POP POP POP POP POP POP POP JUMP JUMPDEST PUSH2 0x33C PUSH2 0x4B4 JUMP JUMPDEST PUSH0 PUSH0 SWAP1 SLOAD SWAP1 PUSH2 0x100 EXP SWAP1 DIV PUSH20 0xFFFFFFFFFFFFFFFFFFFFFFFFFFFFFFFFFFFFFFFF AND PUSH20 0xFFFFFFFFFFFFFFFFFFFFFFFFFFFFFFFFFFFFFFFF AND PUSH4 0x6F77926B DUP4 PUSH1 0x40 MLOAD DUP3 PUSH4 0xFFFFFFFF AND PUSH1 0xE0 SHL DUP2 MSTORE PUSH1 0x4 ADD PUSH2 0x395 SWAP2 SWAP1 PUSH2 0xB08 JUMP JUMPDEST PUSH0 PUSH1 0x40 MLOAD DUP1 DUP4 SUB DUP2 DUP7 GAS STATICCALL ISZERO DUP1 ISZERO PUSH2 0x3AF JUMPI RETURNDATASIZE PUSH0 PUSH0 RETURNDATACOPY RETURNDATASIZE PUSH0 REVERT JUMPDEST POP POP POP POP PUSH1 0x40 MLOAD RETURNDATASIZE PUSH0 DUP3 RETURNDATACOPY RETURNDATASIZE PUSH1 0x1F NOT PUSH1 0x1F DUP3 ADD AND DUP3 ADD DUP1 PUSH1 0x40 MSTORE POP DUP2 ADD SWAP1 PUSH2 0x3D7 SWAP2 SWAP1 PUSH2 0xCF5 JUMP JUMPDEST SWAP1 POP SWAP2 SWAP1 POP JUMP JUMPDEST PUSH1 0x1 PUSH0 SWAP1 SLOAD SWAP1 PUSH2 0x100 EXP SWAP1 DIV PUSH20 0xFFFFFFFFFFFFFFFFFFFFFFFFFFFFFFFFFFFFFFFF AND DUP2 JUMP JUMPDEST PUSH1 0x1 PUSH0 SWAP1 SLOAD SWAP1 PUSH2 0x100 EXP SWAP1 DIV PUSH20 0xFFFFFFFFFFFFFFFFFFFFFFFFFFFFFFFFFFFFFFFF AND PUSH20 0xFFFFFFFFFFFFFFFFFFFFFFFFFFFFFFFFFFFFFFFF AND PUSH4 0x655F272E DUP4 DUP4 PUSH1 0x40 MLOAD DUP4 PUSH4 0xFFFFFFFF AND PUSH1 0xE0 SHL DUP2 MSTORE PUSH1 0x4 ADD PUSH2 0x45F SWAP3 SWAP2 SWAP1 PUSH2 0xD3C JUMP JUMPDEST PUSH0 PUSH1 0x40 MLOAD DUP1 DUP4 SUB DUP2 PUSH0 DUP8 DUP1 EXTCODESIZE ISZERO DUP1 ISZERO PUSH2 0x476 JUMPI PUSH0 PUSH0 REVERT JUMPDEST POP GAS CALL ISZERO DUP1 ISZERO PUSH2 0x488 JUMPI RETURNDATASIZE PUSH0 PUSH0 RETURNDATACOPY RETURNDATASIZE PUSH0 REVERT JUMPDEST POP POP POP POP POP POP JUMP JUMPDEST PUSH0 PUSH0 SWAP1 SLOAD SWAP1 PUSH2 0x100 EXP SWAP1 DIV PUSH20 0xFFFFFFFFFFFFFFFFFFFFFFFFFFFFFFFFFFFFFFFF AND DUP2 JUMP JUMPDEST PUSH1 0x40 MLOAD DUP1 PUSH1 0x60 ADD PUSH1 0x40 MSTORE DUP1 PUSH0 PUSH20 0xFFFFFFFFFFFFFFFFFFFFFFFFFFFFFFFFFFFFFFFF AND DUP2 MSTORE PUSH1 0x20 ADD PUSH1 0x60 DUP2 MSTORE PUSH1 0x20 ADD PUSH0 PUSH1 0x3 DUP2 GT ISZERO PUSH2 0x4F5 JUMPI PUSH2 0x4F4 PUSH2 0x7AA JUMP JUMPDEST JUMPDEST DUP2 MSTORE POP SWAP1 JUMP JUMPDEST PUSH0 PUSH1 0x40 MLOAD SWAP1 POP SWAP1 JUMP JUMPDEST PUSH0 PUSH0 REVERT JUMPDEST PUSH0 PUSH0 REVERT JUMPDEST PUSH0 PUSH0 REVERT JUMPDEST PUSH0 PUSH0 REVERT JUMPDEST PUSH0 PUSH1 0x1F NOT PUSH1 0x1F DUP4 ADD AND SWAP1 POP SWAP2 SWAP1 POP JUMP JUMPDEST PUSH32 0x4E487B7100000000000000000000000000000000000000000000000000000000 PUSH0 MSTORE PUSH1 0x41 PUSH1 0x4 MSTORE PUSH1 0x24 PUSH0 REVERT JUMPDEST PUSH2 0x55A DUP3 PUSH2 0x514 JUMP JUMPDEST DUP2 ADD DUP2 DUP2 LT PUSH8 0xFFFFFFFFFFFFFFFF DUP3 GT OR ISZERO PUSH2 0x579 JUMPI PUSH2 0x578 PUSH2 0x524 JUMP JUMPDEST JUMPDEST DUP1 PUSH1 0x40 MSTORE POP POP POP JUMP JUMPDEST PUSH0 PUSH2 0x58B PUSH2 0x4FB JUMP JUMPDEST SWAP1 POP PUSH2 0x597 DUP3 DUP3 PUSH2 0x551 JUMP JUMPDEST SWAP2 SWAP1 POP JUMP JUMPDEST PUSH0 PUSH8 0xFFFFFFFFFFFFFFFF DUP3 GT ISZERO PUSH2 0x5B6 JUMPI PUSH2 0x5B5 PUSH2 0x524 JUMP JUMPDEST JUMPDEST PUSH2 0x5BF DUP3 PUSH2 0x514 JUMP JUMPDEST SWAP1 POP PUSH1 0x20 DUP2 ADD SWAP1 POP SWAP2 SWAP1 POP JUMP JUMPDEST DUP3 DUP2 DUP4 CALLDATACOPY PUSH0 DUP4 DUP4 ADD MSTORE POP POP POP JUMP JUMPDEST PUSH0 PUSH2 0x5EC PUSH2 0x5E7 DUP5 PUSH2 0x59C JUMP JUMPDEST PUSH2 0x582 JUMP JUMPDEST SWAP1 POP DUP3 DUP2 MSTORE PUSH1 0x20 DUP2 ADD DUP5 DUP5 DUP5 ADD GT ISZERO PUSH2 0x608 JUMPI PUSH2 0x607 PUSH2 0x510 JUMP JUMPDEST JUMPDEST PUSH2 0x613 DUP5 DUP3 DUP6 PUSH2 0x5CC JUMP JUMPDEST POP SWAP4 SWAP3 POP POP POP JUMP JUMPDEST PUSH0 DUP3 PUSH1 0x1F DUP4 ADD SLT PUSH2 0x62F JUMPI PUSH2 0x62E PUSH2 0x50C JUMP JUMPDEST JUMPDEST DUP2 CALLDATALOAD PUSH2 0x63F DUP5 DUP3 PUSH1 0x20 DUP7 ADD PUSH2 0x5DA JUMP JUMPDEST SWAP2 POP POP SWAP3 SWAP2 POP POP JUMP JUMPDEST PUSH1 0x4 DUP2 LT PUSH2 0x654 JUMPI PUSH0 PUSH0 REVERT JUMPDEST POP JUMP JUMPDEST PUSH0 DUP2 CALLDATALOAD SWAP1 POP PUSH2 0x665 DUP2 PUSH2 0x648 JUMP JUMPDEST SWAP3 SWAP2 POP POP JUMP JUMPDEST PUSH0 PUSH0 PUSH1 0x40 DUP4 DUP6 SUB SLT ISZERO PUSH2 0x681 JUMPI PUSH2 0x680 PUSH2 0x504 JUMP JUMPDEST JUMPDEST PUSH0 DUP4 ADD CALLDATALOAD PUSH8 0xFFFFFFFFFFFFFFFF DUP2 GT ISZERO PUSH2 0x69E JUMPI PUSH2 0x69D PUSH2 0x508 JUMP JUMPDEST JUMPDEST PUSH2 0x6AA DUP6 DUP3 DUP7 ADD PUSH2 0x61B JUMP JUMPDEST SWAP3 POP POP PUSH1 0x20 PUSH2 0x6BB DUP6 DUP3 DUP7 ADD PUSH2 0x657 JUMP JUMPDEST SWAP2 POP POP SWAP3 POP SWAP3 SWAP1 POP JUMP JUMPDEST PUSH0 PUSH20 0xFFFFFFFFFFFFFFFFFFFFFFFFFFFFFFFFFFFFFFFF DUP3 AND SWAP1 POP SWAP2 SWAP1 POP JUMP JUMPDEST PUSH0 PUSH2 0x6EE DUP3 PUSH2 0x6C5 JUMP JUMPDEST SWAP1 POP SWAP2 SWAP1 POP JUMP JUMPDEST PUSH2 0x6FE DUP2 PUSH2 0x6E4 JUMP JUMPDEST DUP2 EQ PUSH2 0x708 JUMPI PUSH0 PUSH0 REVERT JUMPDEST POP JUMP JUMPDEST PUSH0 DUP2 CALLDATALOAD SWAP1 POP PUSH2 0x719 DUP2 PUSH2 0x6F5 JUMP JUMPDEST SWAP3 SWAP2 POP POP JUMP JUMPDEST PUSH0 PUSH1 0x20 DUP3 DUP5 SUB SLT ISZERO PUSH2 0x734 JUMPI PUSH2 0x733 PUSH2 0x504 JUMP JUMPDEST JUMPDEST PUSH0 PUSH2 0x741 DUP5 DUP3 DUP6 ADD PUSH2 0x70B JUMP JUMPDEST SWAP2 POP POP SWAP3 SWAP2 POP POP JUMP JUMPDEST PUSH0 DUP2 MLOAD SWAP1 POP SWAP2 SWAP1 POP JUMP JUMPDEST PUSH0 DUP3 DUP3 MSTORE PUSH1 0x20 DUP3 ADD SWAP1 POP SWAP3 SWAP2 POP POP JUMP JUMPDEST DUP3 DUP2 DUP4 MCOPY PUSH0 DUP4 DUP4 ADD MSTORE POP POP POP JUMP JUMPDEST PUSH0 PUSH2 0x77C DUP3 PUSH2 0x74A JUMP JUMPDEST PUSH2 0x786 DUP2 DUP6 PUSH2 0x754 JUMP JUMPDEST SWAP4 POP PUSH2 0x796 DUP2 DUP6 PUSH1 0x20 DUP7 ADD PUSH2 0x764 JUMP JUMPDEST PUSH2 0x79F DUP2 PUSH2 0x514 JUMP JUMPDEST DUP5 ADD SWAP2 POP POP SWAP3 SWAP2 POP POP JUMP JUMPDEST PUSH32 0x4E487B7100000000000000000000000000000000000000000000000000000000 PUSH0 MSTORE PUSH1 0x21 PUSH1 0x4 MSTORE PUSH1 0x24 PUSH0 REVERT JUMPDEST PUSH1 0x4 DUP2 LT PUSH2 0x7E8 JUMPI PUSH2 0x7E7 PUSH2 0x7AA JUMP JUMPDEST JUMPDEST POP JUMP JUMPDEST PUSH0 DUP2 SWAP1 POP PUSH2 0x7F8 DUP3 PUSH2 0x7D7 JUMP JUMPDEST SWAP2 SWAP1 POP JUMP JUMPDEST PUSH0 PUSH2 0x807 DUP3 PUSH2 0x7EB JUMP JUMPDEST SWAP1 POP SWAP2 SWAP1 POP JUMP JUMPDEST PUSH2 0x817 DUP2 PUSH2 0x7FD JUMP JUMPDEST DUP3 MSTORE POP POP JUMP JUMPDEST PUSH0 PUSH1 0x40 DUP3 ADD SWAP1 POP DUP2 DUP2 SUB PUSH0 DUP4 ADD MSTORE PUSH2 0x835 DUP2 DUP6 PUSH2 0x772 JUMP JUMPDEST SWAP1 POP PUSH2 0x844 PUSH1 0x20 DUP4 ADD DUP5 PUSH2 0x80E JUMP JUMPDEST SWAP4 SWAP3 POP POP POP JUMP JUMPDEST PUSH0 PUSH0 PUSH0 PUSH0 PUSH1 0x80 DUP6 DUP8 SUB SLT ISZERO PUSH2 0x863 JUMPI PUSH2 0x862 PUSH2 0x504 JUMP JUMPDEST JUMPDEST PUSH0 DUP6 ADD CALLDATALOAD PUSH8 0xFFFFFFFFFFFFFFFF DUP2 GT ISZERO PUSH2 0x880 JUMPI PUSH2 0x87F PUSH2 0x508 JUMP JUMPDEST JUMPDEST PUSH2 0x88C DUP8 DUP3 DUP9 ADD PUSH2 0x61B JUMP JUMPDEST SWAP5 POP POP PUSH1 0x20 DUP6 ADD CALLDATALOAD PUSH8 0xFFFFFFFFFFFFFFFF DUP2 GT ISZERO PUSH2 0x8AD JUMPI PUSH2 0x8AC PUSH2 0x508 JUMP JUMPDEST JUMPDEST PUSH2 0x8B9 DUP8 DUP3 DUP9 ADD PUSH2 0x61B JUMP JUMPDEST SWAP4 POP POP PUSH1 0x40 DUP6 ADD CALLDATALOAD PUSH8 0xFFFFFFFFFFFFFFFF DUP2 GT ISZERO PUSH2 0x8DA JUMPI PUSH2 0x8D9 PUSH2 0x508 JUMP JUMPDEST JUMPDEST PUSH2 0x8E6 DUP8 DUP3 DUP9 ADD PUSH2 0x61B JUMP JUMPDEST SWAP3 POP POP PUSH1 0x60 DUP6 ADD CALLDATALOAD PUSH8 0xFFFFFFFFFFFFFFFF DUP2 GT ISZERO PUSH2 0x907 JUMPI PUSH2 0x906 PUSH2 0x508 JUMP JUMPDEST JUMPDEST PUSH2 0x913 DUP8 DUP3 DUP9 ADD PUSH2 0x61B JUMP JUMPDEST SWAP2 POP POP SWAP3 SWAP6 SWAP2 SWAP5 POP SWAP3 POP JUMP JUMPDEST PUSH2 0x928 DUP2 PUSH2 0x6E4 JUMP JUMPDEST DUP3 MSTORE POP POP JUMP JUMPDEST PUSH0 DUP3 DUP3 MSTORE PUSH1 0x20 DUP3 ADD SWAP1 POP SWAP3 SWAP2 POP POP JUMP JUMPDEST PUSH0 PUSH2 0x948 DUP3 PUSH2 0x74A JUMP JUMPDEST PUSH2 0x952 DUP2 DUP6 PUSH2 0x92E JUMP JUMPDEST SWAP4 POP PUSH2 0x962 DUP2 DUP6 PUSH1 0x20 DUP7 ADD PUSH2 0x764 JUMP JUMPDEST PUSH2 0x96B DUP2 PUSH2 0x514 JUMP JUMPDEST DUP5 ADD SWAP2 POP POP SWAP3 SWAP2 POP POP JUMP JUMPDEST PUSH2 0x97F DUP2 PUSH2 0x7FD JUMP JUMPDEST DUP3 MSTORE POP POP JUMP JUMPDEST PUSH0 PUSH1 0x60 DUP4 ADD PUSH0 DUP4 ADD MLOAD PUSH2 0x99A PUSH0 DUP7 ADD DUP3 PUSH2 0x91F JUMP JUMPDEST POP PUSH1 0x20 DUP4 ADD MLOAD DUP5 DUP3 SUB PUSH1 0x20 DUP7 ADD MSTORE PUSH2 0x9B2 DUP3 DUP3 PUSH2 0x93E JUMP JUMPDEST SWAP2 POP POP PUSH1 0x40 DUP4 ADD MLOAD PUSH2 0x9C7 PUSH1 0x40 DUP7 ADD DUP3 PUSH2 0x976 JUMP JUMPDEST POP DUP1 SWAP2 POP POP SWAP3 SWAP2 POP POP JUMP JUMPDEST PUSH0 PUSH1 0x20 DUP3 ADD SWAP1 POP DUP2 DUP2 SUB PUSH0 DUP4 ADD MSTORE PUSH2 0x9EA DUP2 DUP5 PUSH2 0x985 JUMP JUMPDEST SWAP1 POP SWAP3 SWAP2 POP POP JUMP JUMPDEST PUSH0 DUP2 SWAP1 POP SWAP2 SWAP1 POP JUMP JUMPDEST PUSH0 PUSH2 0xA15 PUSH2 0xA10 PUSH2 0xA0B DUP5 PUSH2 0x6C5 JUMP JUMPDEST PUSH2 0x9F2 JUMP JUMPDEST PUSH2 0x6C5 JUMP JUMPDEST SWAP1 POP SWAP2 SWAP1 POP JUMP JUMPDEST PUSH0 PUSH2 0xA26 DUP3 PUSH2 0x9FB JUMP JUMPDEST SWAP1 POP SWAP2 SWAP1 POP JUMP JUMPDEST PUSH0 PUSH2 0xA37 DUP3 PUSH2 0xA1C JUMP JUMPDEST SWAP1 POP SWAP2 SWAP1 POP JUMP JUMPDEST PUSH2 0xA47 DUP2 PUSH2 0xA2D JUMP JUMPDEST DUP3 MSTORE POP POP JUMP JUMPDEST PUSH0 PUSH1 0x20 DUP3 ADD SWAP1 POP PUSH2 0xA60 PUSH0 DUP4 ADD DUP5 PUSH2 0xA3E JUMP JUMPDEST SWAP3 SWAP2 POP POP JUMP JUMPDEST PUSH0 PUSH0 PUSH1 0x40 DUP4 DUP6 SUB SLT ISZERO PUSH2 0xA7C JUMPI PUSH2 0xA7B PUSH2 0x504 JUMP JUMPDEST JUMPDEST PUSH0 PUSH2 0xA89 DUP6 DUP3 DUP7 ADD PUSH2 0x70B JUMP JUMPDEST SWAP3 POP POP PUSH1 0x20 DUP4 ADD CALLDATALOAD PUSH8 0xFFFFFFFFFFFFFFFF DUP2 GT ISZERO PUSH2 0xAAA JUMPI PUSH2 0xAA9 PUSH2 0x508 JUMP JUMPDEST JUMPDEST PUSH2 0xAB6 DUP6 DUP3 DUP7 ADD PUSH2 0x61B JUMP JUMPDEST SWAP2 POP POP SWAP3 POP SWAP3 SWAP1 POP JUMP JUMPDEST PUSH0 PUSH2 0xACA DUP3 PUSH2 0xA1C JUMP JUMPDEST SWAP1 POP SWAP2 SWAP1 POP JUMP JUMPDEST PUSH2 0xADA DUP2 PUSH2 0xAC0 JUMP JUMPDEST DUP3 MSTORE POP POP JUMP JUMPDEST PUSH0 PUSH1 0x20 DUP3 ADD SWAP1 POP PUSH2 0xAF3 PUSH0 DUP4 ADD DUP5 PUSH2 0xAD1 JUMP JUMPDEST SWAP3 SWAP2 POP POP JUMP JUMPDEST PUSH2 0xB02 DUP2 PUSH2 0x6E4 JUMP JUMPDEST DUP3 MSTORE POP POP JUMP JUMPDEST PUSH0 PUSH1 0x20 DUP3 ADD SWAP1 POP PUSH2 0xB1B PUSH0 DUP4 ADD DUP5 PUSH2 0xAF9 JUMP JUMPDEST SWAP3 SWAP2 POP POP JUMP JUMPDEST PUSH0 PUSH2 0xB33 PUSH2 0xB2E DUP5 PUSH2 0x59C JUMP JUMPDEST PUSH2 0x582 JUMP JUMPDEST SWAP1 POP DUP3 DUP2 MSTORE PUSH1 0x20 DUP2 ADD DUP5 DUP5 DUP5 ADD GT ISZERO PUSH2 0xB4F JUMPI PUSH2 0xB4E PUSH2 0x510 JUMP JUMPDEST JUMPDEST PUSH2 0xB5A DUP5 DUP3 DUP6 PUSH2 0x764 JUMP JUMPDEST POP SWAP4 SWAP3 POP POP POP JUMP JUMPDEST PUSH0 DUP3 PUSH1 0x1F DUP4 ADD SLT PUSH2 0xB76 JUMPI PUSH2 0xB75 PUSH2 0x50C JUMP JUMPDEST JUMPDEST DUP2 MLOAD PUSH2 0xB86 DUP5 DUP3 PUSH1 0x20 DUP7 ADD PUSH2 0xB21 JUMP JUMPDEST SWAP2 POP POP SWAP3 SWAP2 POP POP JUMP JUMPDEST PUSH0 DUP2 MLOAD SWAP1 POP PUSH2 0xB9D DUP2 PUSH2 0x648 JUMP JUMPDEST SWAP3 SWAP2 POP POP JUMP JUMPDEST PUSH0 PUSH0 PUSH1 0x40 DUP4 DUP6 SUB SLT ISZERO PUSH2 0xBB9 JUMPI PUSH2 0xBB8 PUSH2 0x504 JUMP JUMPDEST JUMPDEST PUSH0 DUP4 ADD MLOAD PUSH8 0xFFFFFFFFFFFFFFFF DUP2 GT ISZERO PUSH2 0xBD6 JUMPI PUSH2 0xBD5 PUSH2 0x508 JUMP JUMPDEST JUMPDEST PUSH2 0xBE2 DUP6 DUP3 DUP7 ADD PUSH2 0xB62 JUMP JUMPDEST SWAP3 POP POP PUSH1 0x20 PUSH2 0xBF3 DUP6 DUP3 DUP7 ADD PUSH2 0xB8F JUMP JUMPDEST SWAP2 POP POP SWAP3 POP SWAP3 SWAP1 POP JUMP JUMPDEST PUSH0 PUSH1 0x80 DUP3 ADD SWAP1 POP DUP2 DUP2 SUB PUSH0 DUP4 ADD MSTORE PUSH2 0xC15 DUP2 DUP8 PUSH2 0x772 JUMP JUMPDEST SWAP1 POP DUP2 DUP2 SUB PUSH1 0x20 DUP4 ADD MSTORE PUSH2 0xC29 DUP2 DUP7 PUSH2 0x772 JUMP JUMPDEST SWAP1 POP DUP2 DUP2 SUB PUSH1 0x40 DUP4 ADD MSTORE PUSH2 0xC3D DUP2 DUP6 PUSH2 0x772 JUMP JUMPDEST SWAP1 POP DUP2 DUP2 SUB PUSH1 0x60 DUP4 ADD MSTORE PUSH2 0xC51 DUP2 DUP5 PUSH2 0x772 JUMP JUMPDEST SWAP1 POP SWAP6 SWAP5 POP POP POP POP POP JUMP JUMPDEST PUSH0 PUSH0 REVERT JUMPDEST PUSH0 PUSH0 REVERT JUMPDEST PUSH0 DUP2 MLOAD SWAP1 POP PUSH2 0xC72 DUP2 PUSH2 0x6F5 JUMP JUMPDEST SWAP3 SWAP2 POP POP JUMP JUMPDEST PUSH0 PUSH1 0x60 DUP3 DUP5 SUB SLT ISZERO PUSH2 0xC8D JUMPI PUSH2 0xC8C PUSH2 0xC5C JUMP JUMPDEST JUMPDEST PUSH2 0xC97 PUSH1 0x60 PUSH2 0x582 JUMP JUMPDEST SWAP1 POP PUSH0 PUSH2 0xCA6 DUP5 DUP3 DUP6 ADD PUSH2 0xC64 JUMP JUMPDEST PUSH0 DUP4 ADD MSTORE POP PUSH1 0x20 DUP3 ADD MLOAD PUSH8 0xFFFFFFFFFFFFFFFF DUP2 GT ISZERO PUSH2 0xCC9 JUMPI PUSH2 0xCC8 PUSH2 0xC60 JUMP JUMPDEST JUMPDEST PUSH2 0xCD5 DUP5 DUP3 DUP6 ADD PUSH2 0xB62 JUMP JUMPDEST PUSH1 0x20 DUP4 ADD MSTORE POP PUSH1 0x40 PUSH2 0xCE9 DUP5 DUP3 DUP6 ADD PUSH2 0xB8F JUMP JUMPDEST PUSH1 0x40 DUP4 ADD MSTORE POP SWAP3 SWAP2 POP POP JUMP JUMPDEST PUSH0 PUSH1 0x20 DUP3 DUP5 SUB SLT ISZERO PUSH2 0xD0A JUMPI PUSH2 0xD09 PUSH2 0x504 JUMP JUMPDEST JUMPDEST PUSH0 DUP3 ADD MLOAD PUSH8 0xFFFFFFFFFFFFFFFF DUP2 GT ISZERO PUSH2 0xD27 JUMPI PUSH2 0xD26 PUSH2 0x508 JUMP JUMPDEST JUMPDEST PUSH2 0xD33 DUP5 DUP3 DUP6 ADD PUSH2 0xC78 JUMP JUMPDEST SWAP2 POP POP SWAP3 SWAP2 POP POP JUMP JUMPDEST PUSH0 PUSH1 0x40 DUP3 ADD SWAP1 POP PUSH2 0xD4F PUSH0 DUP4 ADD DUP6 PUSH2 0xAF9 JUMP JUMPDEST DUP2 DUP2 SUB PUSH1 0x20 DUP4 ADD MSTORE PUSH2 0xD61 DUP2 DUP5 PUSH2 0x772 JUMP JUMPDEST SWAP1 POP SWAP4 SWAP3 POP POP POP JUMP INVALID LOG2 PUSH5 0x6970667358 0x22 SLT KECCAK256 SMOD SUB 0x4C JUMP 0x4F RETURNCONTRACT 0x70 DIV 0xA5 TSTORE 0x2E DIV PUSH6 0x7EF753CF6029 0xDF SWAP4 PUSH18 0x9A9AD09E4201D0A2FF2864736F6C63430008 0x1E STOP CALLER PUSH1 0x80 PUSH1 0x40 MSTORE PUSH0 PUSH0 SSTORE CALLVALUE DUP1 ISZERO PUSH1 0x11 JUMPI PUSH0 PUSH0 REVERT JUMPDEST POP PUSH2 0xEA7 DUP1 PUSH2 0x1F PUSH0 CODECOPY PUSH0 RETURN INVALID PUSH1 0x80 PUSH1 0x40 MSTORE CALLVALUE DUP1 ISZERO PUSH2 0xF JUMPI PUSH0 PUSH0 REVERT JUMPDEST POP PUSH1 0x4 CALLDATASIZE LT PUSH2 0x55 JUMPI PUSH0 CALLDATALOAD PUSH1 0xE0 SHR DUP1 PUSH4 0x7973CCF EQ PUSH2 0x59 JUMPI DUP1 PUSH4 0x18EDDA4F EQ PUSH2 0x77 JUMPI DUP1 PUSH4 0x6386C1C7 EQ PUSH2 0x93 JUMPI DUP1 PUSH4 0x6F77926B EQ PUSH2 0xC4 JUMPI DUP1 PUSH4 0xA87430BA EQ PUSH2 0xF4 JUMPI JUMPDEST PUSH0 PUSH0 REVERT JUMPDEST PUSH2 0x61 PUSH2 0x126 JUMP JUMPDEST PUSH1 0x40 MLOAD PUSH2 0x6E SWAP2 SWAP1 PUSH2 0x6BE JUMP JUMPDEST PUSH1 0x40 MLOAD DUP1 SWAP2 SUB SWAP1 RETURN JUMPDEST PUSH2 0x91 PUSH1 0x4 DUP1 CALLDATASIZE SUB DUP2 ADD SWAP1 PUSH2 0x8C SWAP2 SWAP1 PUSH2 0x847 JUMP JUMPDEST PUSH2 0x12B JUMP JUMPDEST STOP JUMPDEST PUSH2 0xAD PUSH1 0x4 DUP1 CALLDATASIZE SUB DUP2 ADD SWAP1 PUSH2 0xA8 SWAP2 SWAP1 PUSH2 0x8FB JUMP JUMPDEST PUSH2 0x28E JUMP JUMPDEST PUSH1 0x40 MLOAD PUSH2 0xBB SWAP3 SWAP2 SWAP1 PUSH2 0x9F9 JUMP JUMPDEST PUSH1 0x40 MLOAD DUP1 SWAP2 SUB SWAP1 RETURN JUMPDEST PUSH2 0xDE PUSH1 0x4 DUP1 CALLDATASIZE SUB DUP2 ADD SWAP1 PUSH2 0xD9 SWAP2 SWAP1 PUSH2 0x8FB JUMP JUMPDEST PUSH2 0x40E JUMP JUMPDEST PUSH1 0x40 MLOAD PUSH2 0xEB SWAP2 SWAP1 PUSH2 0xADA JUMP JUMPDEST PUSH1 0x40 MLOAD DUP1 SWAP2 SUB SWAP1 RETURN JUMPDEST PUSH2 0x10E PUSH1 0x4 DUP1 CALLDATASIZE SUB DUP2 ADD SWAP1 PUSH2 0x109 SWAP2 SWAP1 PUSH2 0x8FB JUMP JUMPDEST PUSH2 0x588 JUMP JUMPDEST PUSH1 0x40 MLOAD PUSH2 0x11D SWAP4 SWAP3 SWAP2 SWAP1 PUSH2 0xB09 JUMP JUMPDEST PUSH1 0x40 MLOAD DUP1 SWAP2 SUB SWAP1 RETURN JUMPDEST PUSH0 SLOAD DUP2 JUMP JUMPDEST PUSH1 0x1 PUSH0 PUSH0 DUP3 DUP3 SLOAD PUSH2 0x13C SWAP2 SWAP1 PUSH2 0xB72 JUMP JUMPDEST SWAP3 POP POP DUP2 SWAP1 SSTORE POP PUSH1 0x40 MLOAD DUP1 PUSH1 0x60 ADD PUSH1 0x40 MSTORE DUP1 CALLER PUSH20 0xFFFFFFFFFFFFFFFFFFFFFFFFFFFFFFFFFFFFFFFF AND DUP2 MSTORE PUSH1 0x20 ADD DUP4 DUP2 MSTORE PUSH1 0x20 ADD DUP3 PUSH1 0x3 DUP2 GT ISZERO PUSH2 0x183 JUMPI PUSH2 0x182 PUSH2 0x986 JUMP JUMPDEST JUMPDEST DUP2 MSTORE POP PUSH1 0x1 PUSH0 CALLER PUSH20 0xFFFFFFFFFFFFFFFFFFFFFFFFFFFFFFFFFFFFFFFF AND PUSH20 0xFFFFFFFFFFFFFFFFFFFFFFFFFFFFFFFFFFFFFFFF AND DUP2 MSTORE PUSH1 0x20 ADD SWAP1 DUP2 MSTORE PUSH1 0x20 ADD PUSH0 KECCAK256 PUSH0 DUP3 ADD MLOAD DUP2 PUSH0 ADD PUSH0 PUSH2 0x100 EXP DUP2 SLOAD DUP2 PUSH20 0xFFFFFFFFFFFFFFFFFFFFFFFFFFFFFFFFFFFFFFFF MUL NOT AND SWAP1 DUP4 PUSH20 0xFFFFFFFFFFFFFFFFFFFFFFFFFFFFFFFFFFFFFFFF AND MUL OR SWAP1 SSTORE POP PUSH1 0x20 DUP3 ADD MLOAD DUP2 PUSH1 0x1 ADD SWAP1 DUP2 PUSH2 0x21C SWAP2 SWAP1 PUSH2 0xDA2 JUMP JUMPDEST POP PUSH1 0x40 DUP3 ADD MLOAD DUP2 PUSH1 0x2 ADD PUSH0 PUSH2 0x100 EXP DUP2 SLOAD DUP2 PUSH1 0xFF MUL NOT AND SWAP1 DUP4 PUSH1 0x3 DUP2 GT ISZERO PUSH2 0x247 JUMPI PUSH2 0x246 PUSH2 0x986 JUMP JUMPDEST JUMPDEST MUL OR SWAP1 SSTORE POP SWAP1 POP POP PUSH32 0x4FA57B893B1C3DC318E342DB752C035852D43E24481A0E21CCE7BD5877F9617 CALLER DUP4 DUP4 PUSH1 0x40 MLOAD PUSH2 0x282 SWAP4 SWAP3 SWAP2 SWAP1 PUSH2 0xB09 JUMP JUMPDEST PUSH1 0x40 MLOAD DUP1 SWAP2 SUB SWAP1 LOG1 POP POP JUMP JUMPDEST PUSH1 0x60 PUSH0 PUSH0 PUSH1 0x1 PUSH0 DUP6 PUSH20 0xFFFFFFFFFFFFFFFFFFFFFFFFFFFFFFFFFFFFFFFF AND PUSH20 0xFFFFFFFFFFFFFFFFFFFFFFFFFFFFFFFFFFFFFFFF AND DUP2 MSTORE PUSH1 0x20 ADD SWAP1 DUP2 MSTORE PUSH1 0x20 ADD PUSH0 KECCAK256 PUSH1 0x40 MLOAD DUP1 PUSH1 0x60 ADD PUSH1 0x40 MSTORE SWAP1 DUP2 PUSH0 DUP3 ADD PUSH0 SWAP1 SLOAD SWAP1 PUSH2 0x100 EXP SWAP1 DIV PUSH20 0xFFFFFFFFFFFFFFFFFFFFFFFFFFFFFFFFFFFFFFFF AND PUSH20 0xFFFFFFFFFFFFFFFFFFFFFFFFFFFFFFFFFFFFFFFF AND PUSH20 0xFFFFFFFFFFFFFFFFFFFFFFFFFFFFFFFFFFFFFFFF AND DUP2 MSTORE PUSH1 0x20 ADD PUSH1 0x1 DUP3 ADD DUP1 SLOAD PUSH2 0x33E SWAP1 PUSH2 0xBD2 JUMP JUMPDEST DUP1 PUSH1 0x1F ADD PUSH1 0x20 DUP1 SWAP2 DIV MUL PUSH1 0x20 ADD PUSH1 0x40 MLOAD SWAP1 DUP2 ADD PUSH1 0x40 MSTORE DUP1 SWAP3 SWAP2 SWAP1 DUP2 DUP2 MSTORE PUSH1 0x20 ADD DUP3 DUP1 SLOAD PUSH2 0x36A SWAP1 PUSH2 0xBD2 JUMP JUMPDEST DUP1 ISZERO PUSH2 0x3B5 JUMPI DUP1 PUSH1 0x1F LT PUSH2 0x38C JUMPI PUSH2 0x100 DUP1 DUP4 SLOAD DIV MUL DUP4 MSTORE SWAP2 PUSH1 0x20 ADD SWAP2 PUSH2 0x3B5 JUMP JUMPDEST DUP3 ADD SWAP2 SWAP1 PUSH0 MSTORE PUSH1 0x20 PUSH0 KECCAK256 SWAP1 JUMPDEST DUP2 SLOAD DUP2 MSTORE SWAP1 PUSH1 0x1 ADD SWAP1 PUSH1 0x20 ADD DUP1 DUP4 GT PUSH2 0x398 JUMPI DUP3 SWAP1 SUB PUSH1 0x1F AND DUP3 ADD SWAP2 JUMPDEST POP POP POP POP POP DUP2 MSTORE PUSH1 0x20 ADD PUSH1 0x2 DUP3 ADD PUSH0 SWAP1 SLOAD SWAP1 PUSH2 0x100 EXP SWAP1 DIV PUSH1 0xFF AND PUSH1 0x3 DUP2 GT ISZERO PUSH2 0x3E2 JUMPI PUSH2 0x3E1 PUSH2 0x986 JUMP JUMPDEST JUMPDEST PUSH1 0x3 DUP2 GT ISZERO PUSH2 0x3F4 JUMPI PUSH2 0x3F3 PUSH2 0x986 JUMP JUMPDEST JUMPDEST DUP2 MSTORE POP POP SWAP1 POP DUP1 PUSH1 0x20 ADD MLOAD DUP2 PUSH1 0x40 ADD MLOAD SWAP3 POP SWAP3 POP POP SWAP2 POP SWAP2 JUMP JUMPDEST PUSH2 0x416 PUSH2 0x65F JUMP JUMPDEST PUSH0 PUSH1 0x1 PUSH0 DUP5 PUSH20 0xFFFFFFFFFFFFFFFFFFFFFFFFFFFFFFFFFFFFFFFF AND PUSH20 0xFFFFFFFFFFFFFFFFFFFFFFFFFFFFFFFFFFFFFFFF AND DUP2 MSTORE PUSH1 0x20 ADD SWAP1 DUP2 MSTORE PUSH1 0x20 ADD PUSH0 KECCAK256 PUSH1 0x40 MLOAD DUP1 PUSH1 0x60 ADD PUSH1 0x40 MSTORE SWAP1 DUP2 PUSH0 DUP3 ADD PUSH0 SWAP1 SLOAD SWAP1 PUSH2 0x100 EXP SWAP1 DIV PUSH20 0xFFFFFFFFFFFFFFFFFFFFFFFFFFFFFFFFFFFFFFFF AND PUSH20 0xFFFFFFFFFFFFFFFFFFFFFFFFFFFFFFFFFFFFFFFF AND PUSH20 0xFFFFFFFFFFFFFFFFFFFFFFFFFFFFFFFFFFFFFFFF AND DUP2 MSTORE PUSH1 0x20 ADD PUSH1 0x1 DUP3 ADD DUP1 SLOAD PUSH2 0x4C3 SWAP1 PUSH2 0xBD2 JUMP JUMPDEST DUP1 PUSH1 0x1F ADD PUSH1 0x20 DUP1 SWAP2 DIV MUL PUSH1 0x20 ADD PUSH1 0x40 MLOAD SWAP1 DUP2 ADD PUSH1 0x40 MSTORE DUP1 SWAP3 SWAP2 SWAP1 DUP2 DUP2 MSTORE PUSH1 0x20 ADD DUP3 DUP1 SLOAD PUSH2 0x4EF SWAP1 PUSH2 0xBD2 JUMP JUMPDEST DUP1 ISZERO PUSH2 0x53A JUMPI DUP1 PUSH1 0x1F LT PUSH2 0x511 JUMPI PUSH2 0x100 DUP1 DUP4 SLOAD DIV MUL DUP4 MSTORE SWAP2 PUSH1 0x20 ADD SWAP2 PUSH2 0x53A JUMP JUMPDEST DUP3 ADD SWAP2 SWAP1 PUSH0 MSTORE PUSH1 0x20 PUSH0 KECCAK256 SWAP1 JUMPDEST DUP2 SLOAD DUP2 MSTORE SWAP1 PUSH1 0x1 ADD SWAP1 PUSH1 0x20 ADD DUP1 DUP4 GT PUSH2 0x51D JUMPI DUP3 SWAP1 SUB PUSH1 0x1F AND DUP3 ADD SWAP2 JUMPDEST POP POP POP POP POP DUP2 MSTORE PUSH1 0x20 ADD PUSH1 0x2 DUP3 ADD PUSH0 SWAP1 SLOAD SWAP1 PUSH2 0x100 EXP SWAP1 DIV PUSH1 0xFF AND PUSH1 0x3 DUP2 GT ISZERO PUSH2 0x567 JUMPI PUSH2 0x566 PUSH2 0x986 JUMP JUMPDEST JUMPDEST PUSH1 0x3 DUP2 GT ISZERO PUSH2 0x579 JUMPI PUSH2 0x578 PUSH2 0x986 JUMP JUMPDEST JUMPDEST DUP2 MSTORE POP POP SWAP1 POP DUP1 SWAP2 POP POP SWAP2 SWAP1 POP JUMP JUMPDEST PUSH1 0x1 PUSH1 0x20 MSTORE DUP1 PUSH0 MSTORE PUSH1 0x40 PUSH0 KECCAK256 PUSH0 SWAP2 POP SWAP1 POP DUP1 PUSH0 ADD PUSH0 SWAP1 SLOAD SWAP1 PUSH2 0x100 EXP SWAP1 DIV PUSH20 0xFFFFFFFFFFFFFFFFFFFFFFFFFFFFFFFFFFFFFFFF AND SWAP1 DUP1 PUSH1 0x1 ADD DUP1 SLOAD PUSH2 0x5CC SWAP1 PUSH2 0xBD2 JUMP JUMPDEST DUP1 PUSH1 0x1F ADD PUSH1 0x20 DUP1 SWAP2 DIV MUL PUSH1 0x20 ADD PUSH1 0x40 MLOAD SWAP1 DUP2 ADD PUSH1 0x40 MSTORE DUP1 SWAP3 SWAP2 SWAP1 DUP2 DUP2 MSTORE PUSH1 0x20 ADD DUP3 DUP1 SLOAD PUSH2 0x5F8 SWAP1 PUSH2 0xBD2 JUMP JUMPDEST DUP1 ISZERO PUSH2 0x643 JUMPI DUP1 PUSH1 0x1F LT PUSH2 0x61A JUMPI PUSH2 0x100 DUP1 DUP4 SLOAD DIV MUL DUP4 MSTORE SWAP2 PUSH1 0x20 ADD SWAP2 PUSH2 0x643 JUMP JUMPDEST DUP3 ADD SWAP2 SWAP1 PUSH0 MSTORE PUSH1 0x20 PUSH0 KECCAK256 SWAP1 JUMPDEST DUP2 SLOAD DUP2 MSTORE SWAP1 PUSH1 0x1 ADD SWAP1 PUSH1 0x20 ADD DUP1 DUP4 GT PUSH2 0x626 JUMPI DUP3 SWAP1 SUB PUSH1 0x1F AND DUP3 ADD SWAP2 JUMPDEST POP POP POP POP POP SWAP1 DUP1 PUSH1 0x2 ADD PUSH0 SWAP1 SLOAD SWAP1 PUSH2 0x100 EXP SWAP1 DIV PUSH1 0xFF AND SWAP1 POP DUP4 JUMP JUMPDEST PUSH1 0x40 MLOAD DUP1 PUSH1 0x60 ADD PUSH1 0x40 MSTORE DUP1 PUSH0 PUSH20 0xFFFFFFFFFFFFFFFFFFFFFFFFFFFFFFFFFFFFFFFF AND DUP2 MSTORE PUSH1 0x20 ADD PUSH1 0x60 DUP2 MSTORE PUSH1 0x20 ADD PUSH0 PUSH1 0x3 DUP2 GT ISZERO PUSH2 0x6A0 JUMPI PUSH2 0x69F PUSH2 0x986 JUMP JUMPDEST JUMPDEST DUP2 MSTORE POP SWAP1 JUMP JUMPDEST PUSH0 DUP2 SWAP1 POP SWAP2 SWAP1 POP JUMP JUMPDEST PUSH2 0x6B8 DUP2 PUSH2 0x6A6 JUMP JUMPDEST DUP3 MSTORE POP POP JUMP JUMPDEST PUSH0 PUSH1 0x20 DUP3 ADD SWAP1 POP PUSH2 0x6D1 PUSH0 DUP4 ADD DUP5 PUSH2 0x6AF JUMP JUMPDEST SWAP3 SWAP2 POP POP JUMP JUMPDEST PUSH0 PUSH1 0x40 MLOAD SWAP1 POP SWAP1 JUMP JUMPDEST PUSH0 PUSH0 REVERT JUMPDEST PUSH0 PUSH0 REVERT JUMPDEST PUSH0 PUSH0 REVERT JUMPDEST PUSH0 PUSH0 REVERT JUMPDEST PUSH0 PUSH1 0x1F NOT PUSH1 0x1F DUP4 ADD AND SWAP1 POP SWAP2 SWAP1 POP JUMP JUMPDEST PUSH32 0x4E487B7100000000000000000000000000000000000000000000000000000000 PUSH0 MSTORE PUSH1 0x41 PUSH1 0x4 MSTORE PUSH1 0x24 PUSH0 REVERT JUMPDEST PUSH2 0x736 DUP3 PUSH2 0x6F0 JUMP JUMPDEST DUP2 ADD DUP2 DUP2 LT PUSH8 0xFFFFFFFFFFFFFFFF DUP3 GT OR ISZERO PUSH2 0x755 JUMPI PUSH2 0x754 PUSH2 0x700 JUMP JUMPDEST JUMPDEST DUP1 PUSH1 0x40 MSTORE POP POP POP JUMP JUMPDEST PUSH0 PUSH2 0x767 PUSH2 0x6D7 JUMP JUMPDEST SWAP1 POP PUSH2 0x773 DUP3 DUP3 PUSH2 0x72D JUMP JUMPDEST SWAP2 SWAP1 POP JUMP JUMPDEST PUSH0 PUSH8 0xFFFFFFFFFFFFFFFF DUP3 GT ISZERO PUSH2 0x792 JUMPI PUSH2 0x791 PUSH2 0x700 JUMP JUMPDEST JUMPDEST PUSH2 0x79B DUP3 PUSH2 0x6F0 JUMP JUMPDEST SWAP1 POP PUSH1 0x20 DUP2 ADD SWAP1 POP SWAP2 SWAP1 POP JUMP JUMPDEST DUP3 DUP2 DUP4 CALLDATACOPY PUSH0 DUP4 DUP4 ADD MSTORE POP POP POP JUMP JUMPDEST PUSH0 PUSH2 0x7C8 PUSH2 0x7C3 DUP5 PUSH2 0x778 JUMP JUMPDEST PUSH2 0x75E JUMP JUMPDEST SWAP1 POP DUP3 DUP2 MSTORE PUSH1 0x20 DUP2 ADD DUP5 DUP5 DUP5 ADD GT ISZERO PUSH2 0x7E4 JUMPI PUSH2 0x7E3 PUSH2 0x6EC JUMP JUMPDEST JUMPDEST PUSH2 0x7EF DUP5 DUP3 DUP6 PUSH2 0x7A8 JUMP JUMPDEST POP SWAP4 SWAP3 POP POP POP JUMP JUMPDEST PUSH0 DUP3 PUSH1 0x1F DUP4 ADD SLT PUSH2 0x80B JUMPI PUSH2 0x80A PUSH2 0x6E8 JUMP JUMPDEST JUMPDEST DUP2 CALLDATALOAD PUSH2 0x81B DUP5 DUP3 PUSH1 0x20 DUP7 ADD PUSH2 0x7B6 JUMP JUMPDEST SWAP2 POP POP SWAP3 SWAP2 POP POP JUMP JUMPDEST PUSH1 0x4 DUP2 LT PUSH2 0x830 JUMPI PUSH0 PUSH0 REVERT JUMPDEST POP JUMP JUMPDEST PUSH0 DUP2 CALLDATALOAD SWAP1 POP PUSH2 0x841 DUP2 PUSH2 0x824 JUMP JUMPDEST SWAP3 SWAP2 POP POP JUMP JUMPDEST PUSH0 PUSH0 PUSH1 0x40 DUP4 DUP6 SUB SLT ISZERO PUSH2 0x85D JUMPI PUSH2 0x85C PUSH2 0x6E0 JUMP JUMPDEST JUMPDEST PUSH0 DUP4 ADD CALLDATALOAD PUSH8 0xFFFFFFFFFFFFFFFF DUP2 GT ISZERO PUSH2 0x87A JUMPI PUSH2 0x879 PUSH2 0x6E4 JUMP JUMPDEST JUMPDEST PUSH2 0x886 DUP6 DUP3 DUP7 ADD PUSH2 0x7F7 JUMP JUMPDEST SWAP3 POP POP PUSH1 0x20 PUSH2 0x897 DUP6 DUP3 DUP7 ADD PUSH2 0x833 JUMP JUMPDEST SWAP2 POP POP SWAP3 POP SWAP3 SWAP1 POP JUMP JUMPDEST PUSH0 PUSH20 0xFFFFFFFFFFFFFFFFFFFFFFFFFFFFFFFFFFFFFFFF DUP3 AND SWAP1 POP SWAP2 SWAP1 POP JUMP JUMPDEST PUSH0 PUSH2 0x8CA DUP3 PUSH2 0x8A1 JUMP JUMPDEST SWAP1 POP SWAP2 SWAP1 POP JUMP JUMPDEST PUSH2 0x8DA DUP2 PUSH2 0x8C0 JUMP JUMPDEST DUP2 EQ PUSH2 0x8E4 JUMPI PUSH0 PUSH0 REVERT JUMPDEST POP JUMP JUMPDEST PUSH0 DUP2 CALLDATALOAD SWAP1 POP PUSH2 0x8F5 DUP2 PUSH2 0x8D1 JUMP JUMPDEST SWAP3 SWAP2 POP POP JUMP JUMPDEST PUSH0 PUSH1 0x20 DUP3 DUP5 SUB SLT ISZERO PUSH2 0x910 JUMPI PUSH2 0x90F PUSH2 0x6E0 JUMP JUMPDEST JUMPDEST PUSH0 PUSH2 0x91D DUP5 DUP3 DUP6 ADD PUSH2 0x8E7 JUMP JUMPDEST SWAP2 POP POP SWAP3 SWAP2 POP POP JUMP JUMPDEST PUSH0 DUP2 MLOAD SWAP1 POP SWAP2 SWAP1 POP JUMP JUMPDEST PUSH0 DUP3 DUP3 MSTORE PUSH1 0x20 DUP3 ADD SWAP1 POP SWAP3 SWAP2 POP POP JUMP JUMPDEST DUP3 DUP2 DUP4 MCOPY PUSH0 DUP4 DUP4 ADD MSTORE POP POP POP JUMP JUMPDEST PUSH0 PUSH2 0x958 DUP3 PUSH2 0x926 JUMP JUMPDEST PUSH2 0x962 DUP2 DUP6 PUSH2 0x930 JUMP JUMPDEST SWAP4 POP PUSH2 0x972 DUP2 DUP6 PUSH1 0x20 DUP7 ADD PUSH2 0x940 JUMP JUMPDEST PUSH2 0x97B DUP2 PUSH2 0x6F0 JUMP JUMPDEST DUP5 ADD SWAP2 POP POP SWAP3 SWAP2 POP POP JUMP JUMPDEST PUSH32 0x4E487B7100000000000000000000000000000000000000000000000000000000 PUSH0 MSTORE PUSH1 0x21 PUSH1 0x4 MSTORE PUSH1 0x24 PUSH0 REVERT JUMPDEST PUSH1 0x4 DUP2 LT PUSH2 0x9C4 JUMPI PUSH2 0x9C3 PUSH2 0x986 JUMP JUMPDEST JUMPDEST POP JUMP JUMPDEST PUSH0 DUP2 SWAP1 POP PUSH2 0x9D4 DUP3 PUSH2 0x9B3 JUMP JUMPDEST SWAP2 SWAP1 POP JUMP JUMPDEST PUSH0 PUSH2 0x9E3 DUP3 PUSH2 0x9C7 JUMP JUMPDEST SWAP1 POP SWAP2 SWAP1 POP JUMP JUMPDEST PUSH2 0x9F3 DUP2 PUSH2 0x9D9 JUMP JUMPDEST DUP3 MSTORE POP POP JUMP JUMPDEST PUSH0 PUSH1 0x40 DUP3 ADD SWAP1 POP DUP2 DUP2 SUB PUSH0 DUP4 ADD MSTORE PUSH2 0xA11 DUP2 DUP6 PUSH2 0x94E JUMP JUMPDEST SWAP1 POP PUSH2 0xA20 PUSH1 0x20 DUP4 ADD DUP5 PUSH2 0x9EA JUMP JUMPDEST SWAP4 SWAP3 POP POP POP JUMP JUMPDEST PUSH2 0xA30 DUP2 PUSH2 0x8C0 JUMP JUMPDEST DUP3 MSTORE POP POP JUMP JUMPDEST PUSH0 DUP3 DUP3 MSTORE PUSH1 0x20 DUP3 ADD SWAP1 POP SWAP3 SWAP2 POP POP JUMP JUMPDEST PUSH0 PUSH2 0xA50 DUP3 PUSH2 0x926 JUMP JUMPDEST PUSH2 0xA5A DUP2 DUP6 PUSH2 0xA36 JUMP JUMPDEST SWAP4 POP PUSH2 0xA6A DUP2 DUP6 PUSH1 0x20 DUP7 ADD PUSH2 0x940 JUMP JUMPDEST PUSH2 0xA73 DUP2 PUSH2 0x6F0 JUMP JUMPDEST DUP5 ADD SWAP2 POP POP SWAP3 SWAP2 POP POP JUMP JUMPDEST PUSH2 0xA87 DUP2 PUSH2 0x9D9 JUMP JUMPDEST DUP3 MSTORE POP POP JUMP JUMPDEST PUSH0 PUSH1 0x60 DUP4 ADD PUSH0 DUP4 ADD MLOAD PUSH2 0xAA2 PUSH0 DUP7 ADD DUP3 PUSH2 0xA27 JUMP JUMPDEST POP PUSH1 0x20 DUP4 ADD MLOAD DUP5 DUP3 SUB PUSH1 0x20 DUP7 ADD MSTORE PUSH2 0xABA DUP3 DUP3 PUSH2 0xA46 JUMP JUMPDEST SWAP2 POP POP PUSH1 0x40 DUP4 ADD MLOAD PUSH2 0xACF PUSH1 0x40 DUP7 ADD DUP3 PUSH2 0xA7E JUMP JUMPDEST POP DUP1 SWAP2 POP POP SWAP3 SWAP2 POP POP JUMP JUMPDEST PUSH0 PUSH1 0x20 DUP3 ADD SWAP1 POP DUP2 DUP2 SUB PUSH0 DUP4 ADD MSTORE PUSH2 0xAF2 DUP2 DUP5 PUSH2 0xA8D JUMP JUMPDEST SWAP1 POP SWAP3 SWAP2 POP POP JUMP JUMPDEST PUSH2 0xB03 DUP2 PUSH2 0x8C0 JUMP JUMPDEST DUP3 MSTORE POP POP JUMP JUMPDEST PUSH0 PUSH1 0x60 DUP3 ADD SWAP1 POP PUSH2 0xB1C PUSH0 DUP4 ADD DUP7 PUSH2 0xAFA JUMP JUMPDEST DUP2 DUP2 SUB PUSH1 0x20 DUP4 ADD MSTORE PUSH2 0xB2E DUP2 DUP6 PUSH2 0x94E JUMP JUMPDEST SWAP1 POP PUSH2 0xB3D PUSH1 0x40 DUP4 ADD DUP5 PUSH2 0x9EA JUMP JUMPDEST SWAP5 SWAP4 POP POP POP POP JUMP JUMPDEST PUSH32 0x4E487B7100000000000000000000000000000000000000000000000000000000 PUSH0 MSTORE PUSH1 0x11 PUSH1 0x4 MSTORE PUSH1 0x24 PUSH0 REVERT JUMPDEST PUSH0 PUSH2 0xB7C DUP3 PUSH2 0x6A6 JUMP JUMPDEST SWAP2 POP PUSH2 0xB87 DUP4 PUSH2 0x6A6 JUMP JUMPDEST SWAP3 POP DUP3 DUP3 ADD SWAP1 POP DUP1 DUP3 GT ISZERO PUSH2 0xB9F JUMPI PUSH2 0xB9E PUSH2 0xB45 JUMP JUMPDEST JUMPDEST SWAP3 SWAP2 POP POP JUMP JUMPDEST PUSH32 0x4E487B7100000000000000000000000000000000000000000000000000000000 PUSH0 MSTORE PUSH1 0x22 PUSH1 0x4 MSTORE PUSH1 0x24 PUSH0 REVERT JUMPDEST PUSH0 PUSH1 0x2 DUP3 DIV SWAP1 POP PUSH1 0x1 DUP3 AND DUP1 PUSH2 0xBE9 JUMPI PUSH1 0x7F DUP3 AND SWAP2 POP JUMPDEST PUSH1 0x20 DUP3 LT DUP2 SUB PUSH2 0xBFC JUMPI PUSH2 0xBFB PUSH2 0xBA5 JUMP JUMPDEST JUMPDEST POP SWAP2 SWAP1 POP JUMP JUMPDEST PUSH0 DUP2 SWAP1 POP DUP2 PUSH0 MSTORE PUSH1 0x20 PUSH0 KECCAK256 SWAP1 POP SWAP2 SWAP1 POP JUMP JUMPDEST PUSH0 PUSH1 0x20 PUSH1 0x1F DUP4 ADD DIV SWAP1 POP SWAP2 SWAP1 POP JUMP JUMPDEST PUSH0 DUP3 DUP3 SHL SWAP1 POP SWAP3 SWAP2 POP POP JUMP JUMPDEST PUSH0 PUSH1 0x8 DUP4 MUL PUSH2 0xC5E PUSH32 0xFFFFFFFFFFFFFFFFFFFFFFFFFFFFFFFFFFFFFFFFFFFFFFFFFFFFFFFFFFFFFFFF DUP3 PUSH2 0xC23 JUMP JUMPDEST PUSH2 0xC68 DUP7 DUP4 PUSH2 0xC23 JUMP JUMPDEST SWAP6 POP DUP1 NOT DUP5 AND SWAP4 POP DUP1 DUP7 AND DUP5 OR SWAP3 POP POP POP SWAP4 SWAP3 POP POP POP JUMP JUMPDEST PUSH0 DUP2 SWAP1 POP SWAP2 SWAP1 POP JUMP JUMPDEST PUSH0 PUSH2 0xCA3 PUSH2 0xC9E PUSH2 0xC99 DUP5 PUSH2 0x6A6 JUMP JUMPDEST PUSH2 0xC80 JUMP JUMPDEST PUSH2 0x6A6 JUMP JUMPDEST SWAP1 POP SWAP2 SWAP1 POP JUMP JUMPDEST PUSH0 DUP2 SWAP1 POP SWAP2 SWAP1 POP JUMP JUMPDEST PUSH2 0xCBC DUP4 PUSH2 0xC89 JUMP JUMPDEST PUSH2 0xCD0 PUSH2 0xCC8 DUP3 PUSH2 0xCAA JUMP JUMPDEST DUP5 DUP5 SLOAD PUSH2 0xC2F JUMP JUMPDEST DUP3 SSTORE POP POP POP POP JUMP JUMPDEST PUSH0 PUSH0 SWAP1 POP SWAP1 JUMP JUMPDEST PUSH2 0xCE7 PUSH2 0xCD8 JUMP JUMPDEST PUSH2 0xCF2 DUP2 DUP5 DUP5 PUSH2 0xCB3 JUMP JUMPDEST POP POP POP JUMP JUMPDEST JUMPDEST DUP2 DUP2 LT ISZERO PUSH2 0xD15 JUMPI PUSH2 0xD0A PUSH0 DUP3 PUSH2 0xCDF JUMP JUMPDEST PUSH1 0x1 DUP2 ADD SWAP1 POP PUSH2 0xCF8 JUMP JUMPDEST POP POP JUMP JUMPDEST PUSH1 0x1F DUP3 GT ISZERO PUSH2 0xD5A JUMPI PUSH2 0xD2B DUP2 PUSH2 0xC02 JUMP JUMPDEST PUSH2 0xD34 DUP5 PUSH2 0xC14 JUMP JUMPDEST DUP2 ADD PUSH1 0x20 DUP6 LT ISZERO PUSH2 0xD43 JUMPI DUP2 SWAP1 POP JUMPDEST PUSH2 0xD57 PUSH2 0xD4F DUP6 PUSH2 0xC14 JUMP JUMPDEST DUP4 ADD DUP3 PUSH2 0xCF7 JUMP JUMPDEST POP POP JUMPDEST POP POP POP JUMP JUMPDEST PUSH0 DUP3 DUP3 SHR SWAP1 POP SWAP3 SWAP2 POP POP JUMP JUMPDEST PUSH0 PUSH2 0xD7A PUSH0 NOT DUP5 PUSH1 0x8 MUL PUSH2 0xD5F JUMP JUMPDEST NOT DUP1 DUP4 AND SWAP2 POP POP SWAP3 SWAP2 POP POP JUMP JUMPDEST PUSH0 PUSH2 0xD92 DUP4 DUP4 PUSH2 0xD6B JUMP JUMPDEST SWAP2 POP DUP3 PUSH1 0x2 MUL DUP3 OR SWAP1 POP SWAP3 SWAP2 POP POP JUMP JUMPDEST PUSH2 0xDAB DUP3 PUSH2 0x926 JUMP JUMPDEST PUSH8 0xFFFFFFFFFFFFFFFF DUP2 GT ISZERO PUSH2 0xDC4 JUMPI PUSH2 0xDC3 PUSH2 0x700 JUMP JUMPDEST JUMPDEST PUSH2 0xDCE DUP3 SLOAD PUSH2 0xBD2 JUMP JUMPDEST PUSH2 0xDD9 DUP3 DUP3 DUP6 PUSH2 0xD19 JUMP JUMPDEST PUSH0 PUSH1 0x20 SWAP1 POP PUSH1 0x1F DUP4 GT PUSH1 0x1 DUP2 EQ PUSH2 0xE0A JUMPI PUSH0 DUP5 ISZERO PUSH2 0xDF8 JUMPI DUP3 DUP8 ADD MLOAD SWAP1 POP JUMPDEST PUSH2 0xE02 DUP6 DUP3 PUSH2 0xD87 JUMP JUMPDEST DUP7 SSTORE POP PUSH2 0xE69 JUMP JUMPDEST PUSH1 0x1F NOT DUP5 AND PUSH2 0xE18 DUP7 PUSH2 0xC02 JUMP JUMPDEST PUSH0 JUMPDEST DUP3 DUP2 LT ISZERO PUSH2 0xE3F JUMPI DUP5 DUP10 ADD MLOAD DUP3 SSTORE PUSH1 0x1 DUP3 ADD SWAP2 POP PUSH1 0x20 DUP6 ADD SWAP5 POP PUSH1 0x20 DUP2 ADD SWAP1 POP PUSH2 0xE1A JUMP JUMPDEST DUP7 DUP4 LT ISZERO PUSH2 0xE5C JUMPI DUP5 DUP10 ADD MLOAD PUSH2 0xE58 PUSH1 0x1F DUP10 AND DUP3 PUSH2 0xD6B JUMP JUMPDEST DUP4 SSTORE POP JUMPDEST PUSH1 0x1 PUSH1 0x2 DUP9 MUL ADD DUP9 SSTORE POP POP POP JUMPDEST POP POP POP POP POP POP JUMP INVALID LOG2 PUSH5 0x6970667358 0x22 SLT KECCAK256 0x27 PUSH9 0x5F154ED33D83552C10 0xA9 LT 0xDA PUSH24 0x5B3E635659C56FA1B02F7E5ABF7732DCB864736F6C634300 ADDMOD 0x1E STOP CALLER PUSH1 0x80 PUSH1 0x40 MSTORE CALLVALUE DUP1 ISZERO PUSH1 0xE JUMPI PUSH0 PUSH0 REVERT JUMPDEST POP PUSH2 0x21E5 DUP1 PUSH2 0x1C PUSH0 CODECOPY PUSH0 RETURN INVALID PUSH1 0x80 PUSH1 0x40 MSTORE CALLVALUE DUP1 ISZERO PUSH2 0xF JUMPI PUSH0 PUSH0 REVERT JUMPDEST POP PUSH1 0x4 CALLDATASIZE LT PUSH2 0x7B JUMPI PUSH0 CALLDATALOAD PUSH1 0xE0 SHR DUP1 PUSH4 0x7ACC0B20 GT PUSH2 0x59 JUMPI DUP1 PUSH4 0x7ACC0B20 EQ PUSH2 0xFC JUMPI DUP1 PUSH4 0xC60BDC7F EQ PUSH2 0x12F JUMPI DUP1 PUSH4 0xF2020275 EQ PUSH2 0x14B JUMPI DUP1 PUSH4 0xFDE74E81 EQ PUSH2 0x169 JUMPI PUSH2 0x7B JUMP JUMPDEST DUP1 PUSH4 0x1970B11 EQ PUSH2 0x7F JUMPI DUP1 PUSH4 0x3D527883 EQ PUSH2 0xB0 JUMPI DUP1 PUSH4 0x655F272E EQ PUSH2 0xE0 JUMPI JUMPDEST PUSH0 PUSH0 REVERT JUMPDEST PUSH2 0x99 PUSH1 0x4 DUP1 CALLDATASIZE SUB DUP2 ADD SWAP1 PUSH2 0x94 SWAP2 SWAP1 PUSH2 0x147F JUMP JUMPDEST PUSH2 0x185 JUMP JUMPDEST PUSH1 0x40 MLOAD PUSH2 0xA7 SWAP3 SWAP2 SWAP1 PUSH2 0x1527 JUMP JUMPDEST PUSH1 0x40 MLOAD DUP1 SWAP2 SUB SWAP1 RETURN JUMPDEST PUSH2 0xCA PUSH1 0x4 DUP1 CALLDATASIZE SUB DUP2 ADD SWAP1 PUSH2 0xC5 SWAP2 SWAP1 PUSH2 0x1578 JUMP JUMPDEST PUSH2 0x1F6 JUMP JUMPDEST PUSH1 0x40 MLOAD PUSH2 0xD7 SWAP2 SWAP1 PUSH2 0x1616 JUMP JUMPDEST PUSH1 0x40 MLOAD DUP1 SWAP2 SUB SWAP1 RETURN JUMPDEST PUSH2 0xFA PUSH1 0x4 DUP1 CALLDATASIZE SUB DUP2 ADD SWAP1 PUSH2 0xF5 SWAP2 SWAP1 PUSH2 0x1636 JUMP JUMPDEST PUSH2 0x2A7 JUMP JUMPDEST STOP JUMPDEST PUSH2 0x116 PUSH1 0x4 DUP1 CALLDATASIZE SUB DUP2 ADD SWAP1 PUSH2 0x111 SWAP2 SWAP1 PUSH2 0x1690 JUMP JUMPDEST PUSH2 0xA1D JUMP JUMPDEST PUSH1 0x40 MLOAD PUSH2 0x126 SWAP5 SWAP4 SWAP3 SWAP2 SWAP1 PUSH2 0x16BB JUMP JUMPDEST PUSH1 0x40 MLOAD DUP1 SWAP2 SUB SWAP1 RETURN JUMPDEST PUSH2 0x149 PUSH1 0x4 DUP1 CALLDATASIZE SUB DUP2 ADD SWAP1 PUSH2 0x144 SWAP2 SWAP1 PUSH2 0x171A JUMP JUMPDEST PUSH2 0xC70 JUMP JUMPDEST STOP JUMPDEST PUSH2 0x153 PUSH2 0xCB2 JUMP JUMPDEST PUSH1 0x40 MLOAD PUSH2 0x160 SWAP2 SWAP1 PUSH2 0x17A0 JUMP JUMPDEST PUSH1 0x40 MLOAD DUP1 SWAP2 SUB SWAP1 RETURN JUMPDEST PUSH2 0x183 PUSH1 0x4 DUP1 CALLDATASIZE SUB DUP2 ADD SWAP1 PUSH2 0x17E SWAP2 SWAP1 PUSH2 0x17B9 JUMP JUMPDEST PUSH2 0xCD6 JUMP JUMPDEST STOP JUMPDEST PUSH1 0x3 DUP3 DUP1 MLOAD PUSH1 0x20 DUP2 ADD DUP3 ADD DUP1 MLOAD DUP5 DUP3 MSTORE PUSH1 0x20 DUP4 ADD PUSH1 0x20 DUP6 ADD KECCAK256 DUP2 DUP4 MSTORE DUP1 SWAP6 POP POP POP POP POP POP DUP2 DUP2 SLOAD DUP2 LT PUSH2 0x1B6 JUMPI PUSH0 DUP1 REVERT JUMPDEST SWAP1 PUSH0 MSTORE PUSH1 0x20 PUSH0 KECCAK256 SWAP1 PUSH1 0x2 MUL ADD PUSH0 SWAP2 POP SWAP2 POP POP DUP1 PUSH0 ADD PUSH0 SWAP1 SLOAD SWAP1 PUSH2 0x100 EXP SWAP1 DIV PUSH20 0xFFFFFFFFFFFFFFFFFFFFFFFFFFFFFFFFFFFFFFFF AND SWAP1 DUP1 PUSH1 0x1 ADD SLOAD SWAP1 POP DUP3 JUMP JUMPDEST PUSH1 0x2 PUSH1 0x20 MSTORE DUP2 PUSH0 MSTORE PUSH1 0x40 PUSH0 KECCAK256 DUP2 DUP2 SLOAD DUP2 LT PUSH2 0x20F JUMPI PUSH0 DUP1 REVERT JUMPDEST SWAP1 PUSH0 MSTORE PUSH1 0x20 PUSH0 KECCAK256 ADD PUSH0 SWAP2 POP SWAP2 POP POP DUP1 SLOAD PUSH2 0x228 SWAP1 PUSH2 0x18BA JUMP JUMPDEST DUP1 PUSH1 0x1F ADD PUSH1 0x20 DUP1 SWAP2 DIV MUL PUSH1 0x20 ADD PUSH1 0x40 MLOAD SWAP1 DUP2 ADD PUSH1 0x40 MSTORE DUP1 SWAP3 SWAP2 SWAP1 DUP2 DUP2 MSTORE PUSH1 0x20 ADD DUP3 DUP1 SLOAD PUSH2 0x254 SWAP1 PUSH2 0x18BA JUMP JUMPDEST DUP1 ISZERO PUSH2 0x29F JUMPI DUP1 PUSH1 0x1F LT PUSH2 0x276 JUMPI PUSH2 0x100 DUP1 DUP4 SLOAD DIV MUL DUP4 MSTORE SWAP2 PUSH1 0x20 ADD SWAP2 PUSH2 0x29F JUMP JUMPDEST DUP3 ADD SWAP2 SWAP1 PUSH0 MSTORE PUSH1 0x20 PUSH0 KECCAK256 SWAP1 JUMPDEST DUP2 SLOAD DUP2 MSTORE SWAP1 PUSH1 0x1 ADD SWAP1 PUSH1 0x20 ADD DUP1 DUP4 GT PUSH2 0x282 JUMPI DUP3 SWAP1 SUB PUSH1 0x1F AND DUP3 ADD SWAP2 JUMPDEST POP POP POP POP POP DUP2 JUMP JUMPDEST PUSH2 0x2AF PUSH2 0x127F JUMP JUMPDEST PUSH0 PUSH0 SWAP1 POP PUSH0 PUSH0 SWAP1 POP JUMPDEST PUSH1 0x1 DUP1 SLOAD SWAP1 POP DUP2 LT ISZERO PUSH2 0x58C JUMPI DUP4 DUP1 MLOAD SWAP1 PUSH1 0x20 ADD KECCAK256 PUSH1 0x1 DUP3 DUP2 SLOAD DUP2 LT PUSH2 0x2E1 JUMPI PUSH2 0x2E0 PUSH2 0x18EA JUMP JUMPDEST JUMPDEST SWAP1 PUSH0 MSTORE PUSH1 0x20 PUSH0 KECCAK256 SWAP1 PUSH1 0x4 MUL ADD PUSH1 0x2 ADD PUSH1 0x40 MLOAD PUSH2 0x2FD SWAP2 SWAP1 PUSH2 0x19B3 JUMP JUMPDEST PUSH1 0x40 MLOAD DUP1 SWAP2 SUB SWAP1 KECCAK256 SUB PUSH2 0x57F JUMPI PUSH1 0x1 DUP2 DUP2 SLOAD DUP2 LT PUSH2 0x31E JUMPI PUSH2 0x31D PUSH2 0x18EA JUMP JUMPDEST JUMPDEST SWAP1 PUSH0 MSTORE PUSH1 0x20 PUSH0 KECCAK256 SWAP1 PUSH1 0x4 MUL ADD PUSH1 0x40 MLOAD DUP1 PUSH1 0x80 ADD PUSH1 0x40 MSTORE SWAP1 DUP2 PUSH0 DUP3 ADD DUP1 SLOAD PUSH2 0x344 SWAP1 PUSH2 0x18BA JUMP JUMPDEST DUP1 PUSH1 0x1F ADD PUSH1 0x20 DUP1 SWAP2 DIV MUL PUSH1 0x20 ADD PUSH1 0x40 MLOAD SWAP1 DUP2 ADD PUSH1 0x40 MSTORE DUP1 SWAP3 SWAP2 SWAP1 DUP2 DUP2 MSTORE PUSH1 0x20 ADD DUP3 DUP1 SLOAD PUSH2 0x370 SWAP1 PUSH2 0x18BA JUMP JUMPDEST DUP1 ISZERO PUSH2 0x3BB JUMPI DUP1 PUSH1 0x1F LT PUSH2 0x392 JUMPI PUSH2 0x100 DUP1 DUP4 SLOAD DIV MUL DUP4 MSTORE SWAP2 PUSH1 0x20 ADD SWAP2 PUSH2 0x3BB JUMP JUMPDEST DUP3 ADD SWAP2 SWAP1 PUSH0 MSTORE PUSH1 0x20 PUSH0 KECCAK256 SWAP1 JUMPDEST DUP2 SLOAD DUP2 MSTORE SWAP1 PUSH1 0x1 ADD SWAP1 PUSH1 0x20 ADD DUP1 DUP4 GT PUSH2 0x39E JUMPI DUP3 SWAP1 SUB PUSH1 0x1F AND DUP3 ADD SWAP2 JUMPDEST POP POP POP POP POP DUP2 MSTORE PUSH1 0x20 ADD PUSH1 0x1 DUP3 ADD DUP1 SLOAD PUSH2 0x3D4 SWAP1 PUSH2 0x18BA JUMP JUMPDEST DUP1 PUSH1 0x1F ADD PUSH1 0x20 DUP1 SWAP2 DIV MUL PUSH1 0x20 ADD PUSH1 0x40 MLOAD SWAP1 DUP2 ADD PUSH1 0x40 MSTORE DUP1 SWAP3 SWAP2 SWAP1 DUP2 DUP2 MSTORE PUSH1 0x20 ADD DUP3 DUP1 SLOAD PUSH2 0x400 SWAP1 PUSH2 0x18BA JUMP JUMPDEST DUP1 ISZERO PUSH2 0x44B JUMPI DUP1 PUSH1 0x1F LT PUSH2 0x422 JUMPI PUSH2 0x100 DUP1 DUP4 SLOAD DIV MUL DUP4 MSTORE SWAP2 PUSH1 0x20 ADD SWAP2 PUSH2 0x44B JUMP JUMPDEST DUP3 ADD SWAP2 SWAP1 PUSH0 MSTORE PUSH1 0x20 PUSH0 KECCAK256 SWAP1 JUMPDEST DUP2 SLOAD DUP2 MSTORE SWAP1 PUSH1 0x1 ADD SWAP1 PUSH1 0x20 ADD DUP1 DUP4 GT PUSH2 0x42E JUMPI DUP3 SWAP1 SUB PUSH1 0x1F AND DUP3 ADD SWAP2 JUMPDEST POP POP POP POP POP DUP2 MSTORE PUSH1 0x20 ADD PUSH1 0x2 DUP3 ADD DUP1 SLOAD PUSH2 0x464 SWAP1 PUSH2 0x18BA JUMP JUMPDEST DUP1 PUSH1 0x1F ADD PUSH1 0x20 DUP1 SWAP2 DIV MUL PUSH1 0x20 ADD PUSH1 0x40 MLOAD SWAP1 DUP2 ADD PUSH1 0x40 MSTORE DUP1 SWAP3 SWAP2 SWAP1 DUP2 DUP2 MSTORE PUSH1 0x20 ADD DUP3 DUP1 SLOAD PUSH2 0x490 SWAP1 PUSH2 0x18BA JUMP JUMPDEST DUP1 ISZERO PUSH2 0x4DB JUMPI DUP1 PUSH1 0x1F LT PUSH2 0x4B2 JUMPI PUSH2 0x100 DUP1 DUP4 SLOAD DIV MUL DUP4 MSTORE SWAP2 PUSH1 0x20 ADD SWAP2 PUSH2 0x4DB JUMP JUMPDEST DUP3 ADD SWAP2 SWAP1 PUSH0 MSTORE PUSH1 0x20 PUSH0 KECCAK256 SWAP1 JUMPDEST DUP2 SLOAD DUP2 MSTORE SWAP1 PUSH1 0x1 ADD SWAP1 PUSH1 0x20 ADD DUP1 DUP4 GT PUSH2 0x4BE JUMPI DUP3 SWAP1 SUB PUSH1 0x1F AND DUP3 ADD SWAP2 JUMPDEST POP POP POP POP POP DUP2 MSTORE PUSH1 0x20 ADD PUSH1 0x3 DUP3 ADD DUP1 SLOAD PUSH2 0x4F4 SWAP1 PUSH2 0x18BA JUMP JUMPDEST DUP1 PUSH1 0x1F ADD PUSH1 0x20 DUP1 SWAP2 DIV MUL PUSH1 0x20 ADD PUSH1 0x40 MLOAD SWAP1 DUP2 ADD PUSH1 0x40 MSTORE DUP1 SWAP3 SWAP2 SWAP1 DUP2 DUP2 MSTORE PUSH1 0x20 ADD DUP3 DUP1 SLOAD PUSH2 0x520 SWAP1 PUSH2 0x18BA JUMP JUMPDEST DUP1 ISZERO PUSH2 0x56B JUMPI DUP1 PUSH1 0x1F LT PUSH2 0x542 JUMPI PUSH2 0x100 DUP1 DUP4 SLOAD DIV MUL DUP4 MSTORE SWAP2 PUSH1 0x20 ADD SWAP2 PUSH2 0x56B JUMP JUMPDEST DUP3 ADD SWAP2 SWAP1 PUSH0 MSTORE PUSH1 0x20 PUSH0 KECCAK256 SWAP1 JUMPDEST DUP2 SLOAD DUP2 MSTORE SWAP1 PUSH1 0x1 ADD SWAP1 PUSH1 0x20 ADD DUP1 DUP4 GT PUSH2 0x54E JUMPI DUP3 SWAP1 SUB PUSH1 0x1F AND DUP3 ADD SWAP2 JUMPDEST POP POP POP POP POP DUP2 MSTORE POP POP SWAP3 POP PUSH1 0x1 SWAP2 POP PUSH2 0x58C JUMP JUMPDEST DUP1 DUP1 PUSH1 0x1 ADD SWAP2 POP POP PUSH2 0x2B8 JUMP JUMPDEST POP DUP1 PUSH2 0x5CD JUMPI PUSH1 0x40 MLOAD PUSH32 0x8C379A000000000000000000000000000000000000000000000000000000000 DUP2 MSTORE PUSH1 0x4 ADD PUSH2 0x5C4 SWAP1 PUSH2 0x1A13 JUMP JUMPDEST PUSH1 0x40 MLOAD DUP1 SWAP2 SUB SWAP1 REVERT JUMPDEST PUSH0 PUSH1 0x2 PUSH0 CALLER PUSH20 0xFFFFFFFFFFFFFFFFFFFFFFFFFFFFFFFFFFFFFFFF AND PUSH20 0xFFFFFFFFFFFFFFFFFFFFFFFFFFFFFFFFFFFFFFFF AND DUP2 MSTORE PUSH1 0x20 ADD SWAP1 DUP2 MSTORE PUSH1 0x20 ADD PUSH0 KECCAK256 SWAP1 POP PUSH0 DUP2 DUP1 SLOAD SWAP1 POP SWAP1 POP PUSH0 PUSH0 SWAP1 POP JUMPDEST DUP3 DUP1 SLOAD SWAP1 POP DUP2 LT ISZERO PUSH2 0x678 JUMPI DUP6 DUP1 MLOAD SWAP1 PUSH1 0x20 ADD KECCAK256 DUP4 DUP3 DUP2 SLOAD DUP2 LT PUSH2 0x641 JUMPI PUSH2 0x640 PUSH2 0x18EA JUMP JUMPDEST JUMPDEST SWAP1 PUSH0 MSTORE PUSH1 0x20 PUSH0 KECCAK256 ADD PUSH1 0x40 MLOAD PUSH2 0x656 SWAP2 SWAP1 PUSH2 0x19B3 JUMP JUMPDEST PUSH1 0x40 MLOAD DUP1 SWAP2 SUB SWAP1 KECCAK256 SUB PUSH2 0x66B JUMPI DUP1 SWAP2 POP PUSH2 0x678 JUMP JUMPDEST DUP1 DUP1 PUSH1 0x1 ADD SWAP2 POP POP PUSH2 0x61A JUMP JUMPDEST POP DUP2 DUP1 SLOAD SWAP1 POP DUP2 LT PUSH2 0x6BF JUMPI PUSH1 0x40 MLOAD PUSH32 0x8C379A000000000000000000000000000000000000000000000000000000000 DUP2 MSTORE PUSH1 0x4 ADD PUSH2 0x6B6 SWAP1 PUSH2 0x1A7B JUMP JUMPDEST PUSH1 0x40 MLOAD DUP1 SWAP2 SUB SWAP1 REVERT JUMPDEST PUSH1 0x1 DUP3 DUP1 SLOAD SWAP1 POP PUSH2 0x6D0 SWAP2 SWAP1 PUSH2 0x1AC6 JUMP JUMPDEST DUP2 LT ISZERO PUSH2 0x72B JUMPI DUP2 PUSH1 0x1 DUP4 DUP1 SLOAD SWAP1 POP PUSH2 0x6E9 SWAP2 SWAP1 PUSH2 0x1AC6 JUMP JUMPDEST DUP2 SLOAD DUP2 LT PUSH2 0x6FA JUMPI PUSH2 0x6F9 PUSH2 0x18EA JUMP JUMPDEST JUMPDEST SWAP1 PUSH0 MSTORE PUSH1 0x20 PUSH0 KECCAK256 ADD DUP3 DUP3 DUP2 SLOAD DUP2 LT PUSH2 0x715 JUMPI PUSH2 0x714 PUSH2 0x18EA JUMP JUMPDEST JUMPDEST SWAP1 PUSH0 MSTORE PUSH1 0x20 PUSH0 KECCAK256 ADD SWAP1 DUP2 PUSH2 0x729 SWAP2 SWAP1 PUSH2 0x1CB7 JUMP JUMPDEST POP JUMPDEST DUP2 DUP1 SLOAD DUP1 PUSH2 0x73C JUMPI PUSH2 0x73B PUSH2 0x1D9C JUMP JUMPDEST JUMPDEST PUSH1 0x1 SWAP1 SUB DUP2 DUP2 SWAP1 PUSH0 MSTORE PUSH1 0x20 PUSH0 KECCAK256 ADD PUSH0 PUSH2 0x755 SWAP2 SWAP1 PUSH2 0x12A7 JUMP JUMPDEST SWAP1 SSTORE PUSH1 0x2 PUSH0 DUP8 PUSH20 0xFFFFFFFFFFFFFFFFFFFFFFFFFFFFFFFFFFFFFFFF AND PUSH20 0xFFFFFFFFFFFFFFFFFFFFFFFFFFFFFFFFFFFFFFFF AND DUP2 MSTORE PUSH1 0x20 ADD SWAP1 DUP2 MSTORE PUSH1 0x20 ADD PUSH0 KECCAK256 DUP6 SWAP1 DUP1 PUSH1 0x1 DUP2 SLOAD ADD DUP1 DUP3 SSTORE DUP1 SWAP2 POP POP PUSH1 0x1 SWAP1 SUB SWAP1 PUSH0 MSTORE PUSH1 0x20 PUSH0 KECCAK256 ADD PUSH0 SWAP1 SWAP2 SWAP1 SWAP2 SWAP1 SWAP2 POP SWAP1 DUP2 PUSH2 0x7C3 SWAP2 SWAP1 PUSH2 0x1DC9 JUMP JUMPDEST POP PUSH1 0x3 DUP6 PUSH1 0x40 MLOAD PUSH2 0x7D4 SWAP2 SWAP1 PUSH2 0x1ED2 JUMP JUMPDEST SWAP1 DUP2 MSTORE PUSH1 0x20 ADD PUSH1 0x40 MLOAD DUP1 SWAP2 SUB SWAP1 KECCAK256 PUSH1 0x40 MLOAD DUP1 PUSH1 0x40 ADD PUSH1 0x40 MSTORE DUP1 DUP9 PUSH20 0xFFFFFFFFFFFFFFFFFFFFFFFFFFFFFFFFFFFFFFFF AND DUP2 MSTORE PUSH1 0x20 ADD TIMESTAMP DUP2 MSTORE POP SWAP1 DUP1 PUSH1 0x1 DUP2 SLOAD ADD DUP1 DUP3 SSTORE DUP1 SWAP2 POP POP PUSH1 0x1 SWAP1 SUB SWAP1 PUSH0 MSTORE PUSH1 0x20 PUSH0 KECCAK256 SWAP1 PUSH1 0x2 MUL ADD PUSH0 SWAP1 SWAP2 SWAP1 SWAP2 SWAP1 SWAP2 POP PUSH0 DUP3 ADD MLOAD DUP2 PUSH0 ADD PUSH0 PUSH2 0x100 EXP DUP2 SLOAD DUP2 PUSH20 0xFFFFFFFFFFFFFFFFFFFFFFFFFFFFFFFFFFFFFFFF MUL NOT AND SWAP1 DUP4 PUSH20 0xFFFFFFFFFFFFFFFFFFFFFFFFFFFFFFFFFFFFFFFF AND MUL OR SWAP1 SSTORE POP PUSH1 0x20 DUP3 ADD MLOAD DUP2 PUSH1 0x1 ADD SSTORE POP POP PUSH0 PUSH0 PUSH0 SWAP1 SLOAD SWAP1 PUSH2 0x100 EXP SWAP1 DIV PUSH20 0xFFFFFFFFFFFFFFFFFFFFFFFFFFFFFFFFFFFFFFFF AND PUSH20 0xFFFFFFFFFFFFFFFFFFFFFFFFFFFFFFFFFFFFFFFF AND PUSH4 0x6F77926B DUP9 PUSH1 0x40 MLOAD DUP3 PUSH4 0xFFFFFFFF AND PUSH1 0xE0 SHL DUP2 MSTORE PUSH1 0x4 ADD PUSH2 0x8DD SWAP2 SWAP1 PUSH2 0x1EE8 JUMP JUMPDEST PUSH0 PUSH1 0x40 MLOAD DUP1 DUP4 SUB DUP2 DUP7 GAS STATICCALL ISZERO DUP1 ISZERO PUSH2 0x8F7 JUMPI RETURNDATASIZE PUSH0 PUSH0 RETURNDATACOPY RETURNDATASIZE PUSH0 REVERT JUMPDEST POP POP POP POP PUSH1 0x40 MLOAD RETURNDATASIZE PUSH0 DUP3 RETURNDATACOPY RETURNDATASIZE PUSH1 0x1F NOT PUSH1 0x1F DUP3 ADD AND DUP3 ADD DUP1 PUSH1 0x40 MSTORE POP DUP2 ADD SWAP1 PUSH2 0x91F SWAP2 SWAP1 PUSH2 0x202B JUMP JUMPDEST PUSH1 0x20 ADD MLOAD SWAP1 POP PUSH0 PUSH0 PUSH0 SWAP1 SLOAD SWAP1 PUSH2 0x100 EXP SWAP1 DIV PUSH20 0xFFFFFFFFFFFFFFFFFFFFFFFFFFFFFFFFFFFFFFFF AND PUSH20 0xFFFFFFFFFFFFFFFFFFFFFFFFFFFFFFFFFFFFFFFF AND PUSH4 0x6F77926B CALLER PUSH1 0x40 MLOAD DUP3 PUSH4 0xFFFFFFFF AND PUSH1 0xE0 SHL DUP2 MSTORE PUSH1 0x4 ADD PUSH2 0x97F SWAP2 SWAP1 PUSH2 0x1EE8 JUMP JUMPDEST PUSH0 PUSH1 0x40 MLOAD DUP1 DUP4 SUB DUP2 DUP7 GAS STATICCALL ISZERO DUP1 ISZERO PUSH2 0x999 JUMPI RETURNDATASIZE PUSH0 PUSH0 RETURNDATACOPY RETURNDATASIZE PUSH0 REVERT JUMPDEST POP POP POP POP PUSH1 0x40 MLOAD RETURNDATASIZE PUSH0 DUP3 RETURNDATACOPY RETURNDATASIZE PUSH1 0x1F NOT PUSH1 0x1F DUP3 ADD AND DUP3 ADD DUP1 PUSH1 0x40 MSTORE POP DUP2 ADD SWAP1 PUSH2 0x9C1 SWAP2 SWAP1 PUSH2 0x202B JUMP JUMPDEST PUSH1 0x20 ADD MLOAD SWAP1 POP PUSH32 0xB09BD448F452AFEABBDF6078F66A59E7B184526893C0D0246F81BCCE51990801 DUP7 PUSH0 ADD MLOAD DUP8 PUSH1 0x20 ADD MLOAD DUP9 PUSH1 0x40 ADD MLOAD DUP6 DUP6 TIMESTAMP PUSH1 0x40 MLOAD PUSH2 0xA0B SWAP7 SWAP6 SWAP5 SWAP4 SWAP3 SWAP2 SWAP1 PUSH2 0x2072 JUMP JUMPDEST PUSH1 0x40 MLOAD DUP1 SWAP2 SUB SWAP1 LOG1 POP POP POP POP POP POP POP POP JUMP JUMPDEST PUSH1 0x1 DUP2 DUP2 SLOAD DUP2 LT PUSH2 0xA2C JUMPI PUSH0 DUP1 REVERT JUMPDEST SWAP1 PUSH0 MSTORE PUSH1 0x20 PUSH0 KECCAK256 SWAP1 PUSH1 0x4 MUL ADD PUSH0 SWAP2 POP SWAP1 POP DUP1 PUSH0 ADD DUP1 SLOAD PUSH2 0xA4B SWAP1 PUSH2 0x18BA JUMP JUMPDEST DUP1 PUSH1 0x1F ADD PUSH1 0x20 DUP1 SWAP2 DIV MUL PUSH1 0x20 ADD PUSH1 0x40 MLOAD SWAP1 DUP2 ADD PUSH1 0x40 MSTORE DUP1 SWAP3 SWAP2 SWAP1 DUP2 DUP2 MSTORE PUSH1 0x20 ADD DUP3 DUP1 SLOAD PUSH2 0xA77 SWAP1 PUSH2 0x18BA JUMP JUMPDEST DUP1 ISZERO PUSH2 0xAC2 JUMPI DUP1 PUSH1 0x1F LT PUSH2 0xA99 JUMPI PUSH2 0x100 DUP1 DUP4 SLOAD DIV MUL DUP4 MSTORE SWAP2 PUSH1 0x20 ADD SWAP2 PUSH2 0xAC2 JUMP JUMPDEST DUP3 ADD SWAP2 SWAP1 PUSH0 MSTORE PUSH1 0x20 PUSH0 KECCAK256 SWAP1 JUMPDEST DUP2 SLOAD DUP2 MSTORE SWAP1 PUSH1 0x1 ADD SWAP1 PUSH1 0x20 ADD DUP1 DUP4 GT PUSH2 0xAA5 JUMPI DUP3 SWAP1 SUB PUSH1 0x1F AND DUP3 ADD SWAP2 JUMPDEST POP POP POP POP POP SWAP1 DUP1 PUSH1 0x1 ADD DUP1 SLOAD PUSH2 0xAD7 SWAP1 PUSH2 0x18BA JUMP JUMPDEST DUP1 PUSH1 0x1F ADD PUSH1 0x20 DUP1 SWAP2 DIV MUL PUSH1 0x20 ADD PUSH1 0x40 MLOAD SWAP1 DUP2 ADD PUSH1 0x40 MSTORE DUP1 SWAP3 SWAP2 SWAP1 DUP2 DUP2 MSTORE PUSH1 0x20 ADD DUP3 DUP1 SLOAD PUSH2 0xB03 SWAP1 PUSH2 0x18BA JUMP JUMPDEST DUP1 ISZERO PUSH2 0xB4E JUMPI DUP1 PUSH1 0x1F LT PUSH2 0xB25 JUMPI PUSH2 0x100 DUP1 DUP4 SLOAD DIV MUL DUP4 MSTORE SWAP2 PUSH1 0x20 ADD SWAP2 PUSH2 0xB4E JUMP JUMPDEST DUP3 ADD SWAP2 SWAP1 PUSH0 MSTORE PUSH1 0x20 PUSH0 KECCAK256 SWAP1 JUMPDEST DUP2 SLOAD DUP2 MSTORE SWAP1 PUSH1 0x1 ADD SWAP1 PUSH1 0x20 ADD DUP1 DUP4 GT PUSH2 0xB31 JUMPI DUP3 SWAP1 SUB PUSH1 0x1F AND DUP3 ADD SWAP2 JUMPDEST POP POP POP POP POP SWAP1 DUP1 PUSH1 0x2 ADD DUP1 SLOAD PUSH2 0xB63 SWAP1 PUSH2 0x18BA JUMP JUMPDEST DUP1 PUSH1 0x1F ADD PUSH1 0x20 DUP1 SWAP2 DIV MUL PUSH1 0x20 ADD PUSH1 0x40 MLOAD SWAP1 DUP2 ADD PUSH1 0x40 MSTORE DUP1 SWAP3 SWAP2 SWAP1 DUP2 DUP2 MSTORE PUSH1 0x20 ADD DUP3 DUP1 SLOAD PUSH2 0xB8F SWAP1 PUSH2 0x18BA JUMP JUMPDEST DUP1 ISZERO PUSH2 0xBDA JUMPI DUP1 PUSH1 0x1F LT PUSH2 0xBB1 JUMPI PUSH2 0x100 DUP1 DUP4 SLOAD DIV MUL DUP4 MSTORE SWAP2 PUSH1 0x20 ADD SWAP2 PUSH2 0xBDA JUMP JUMPDEST DUP3 ADD SWAP2 SWAP1 PUSH0 MSTORE PUSH1 0x20 PUSH0 KECCAK256 SWAP1 JUMPDEST DUP2 SLOAD DUP2 MSTORE SWAP1 PUSH1 0x1 ADD SWAP1 PUSH1 0x20 ADD DUP1 DUP4 GT PUSH2 0xBBD JUMPI DUP3 SWAP1 SUB PUSH1 0x1F AND DUP3 ADD SWAP2 JUMPDEST POP POP POP POP POP SWAP1 DUP1 PUSH1 0x3 ADD DUP1 SLOAD PUSH2 0xBEF SWAP1 PUSH2 0x18BA JUMP JUMPDEST DUP1 PUSH1 0x1F ADD PUSH1 0x20 DUP1 SWAP2 DIV MUL PUSH1 0x20 ADD PUSH1 0x40 MLOAD SWAP1 DUP2 ADD PUSH1 0x40 MSTORE DUP1 SWAP3 SWAP2 SWAP1 DUP2 DUP2 MSTORE PUSH1 0x20 ADD DUP3 DUP1 SLOAD PUSH2 0xC1B SWAP1 PUSH2 0x18BA JUMP JUMPDEST DUP1 ISZERO PUSH2 0xC66 JUMPI DUP1 PUSH1 0x1F LT PUSH2 0xC3D JUMPI PUSH2 0x100 DUP1 DUP4 SLOAD DIV MUL DUP4 MSTORE SWAP2 PUSH1 0x20 ADD SWAP2 PUSH2 0xC66 JUMP JUMPDEST DUP3 ADD SWAP2 SWAP1 PUSH0 MSTORE PUSH1 0x20 PUSH0 KECCAK256 SWAP1 JUMPDEST DUP2 SLOAD DUP2 MSTORE SWAP1 PUSH1 0x1 ADD SWAP1 PUSH1 0x20 ADD DUP1 DUP4 GT PUSH2 0xC49 JUMPI DUP3 SWAP1 SUB PUSH1 0x1F AND DUP3 ADD SWAP2 JUMPDEST POP POP POP POP POP SWAP1 POP DUP5 JUMP JUMPDEST DUP1 PUSH0 PUSH0 PUSH2 0x100 EXP DUP2 SLOAD DUP2 PUSH20 0xFFFFFFFFFFFFFFFFFFFFFFFFFFFFFFFFFFFFFFFF MUL NOT AND SWAP1 DUP4 PUSH20 0xFFFFFFFFFFFFFFFFFFFFFFFFFFFFFFFFFFFFFFFF AND MUL OR SWAP1 SSTORE POP POP JUMP JUMPDEST PUSH0 PUSH0 SWAP1 SLOAD SWAP1 PUSH2 0x100 EXP SWAP1 DIV PUSH20 0xFFFFFFFFFFFFFFFFFFFFFFFFFFFFFFFFFFFFFFFF AND DUP2 JUMP JUMPDEST PUSH0 PUSH0 PUSH0 SWAP1 SLOAD SWAP1 PUSH2 0x100 EXP SWAP1 DIV PUSH20 0xFFFFFFFFFFFFFFFFFFFFFFFFFFFFFFFFFFFFFFFF AND PUSH20 0xFFFFFFFFFFFFFFFFFFFFFFFFFFFFFFFFFFFFFFFF AND PUSH4 0x6F77926B CALLER PUSH1 0x40 MLOAD DUP3 PUSH4 0xFFFFFFFF AND PUSH1 0xE0 SHL DUP2 MSTORE PUSH1 0x4 ADD PUSH2 0xD30 SWAP2 SWAP1 PUSH2 0x1EE8 JUMP JUMPDEST PUSH0 PUSH1 0x40 MLOAD DUP1 DUP4 SUB DUP2 DUP7 GAS STATICCALL ISZERO DUP1 ISZERO PUSH2 0xD4A JUMPI RETURNDATASIZE PUSH0 PUSH0 RETURNDATACOPY RETURNDATASIZE PUSH0 REVERT JUMPDEST POP POP POP POP PUSH1 0x40 MLOAD RETURNDATASIZE PUSH0 DUP3 RETURNDATACOPY RETURNDATASIZE PUSH1 0x1F NOT PUSH1 0x1F DUP3 ADD AND DUP3 ADD DUP1 PUSH1 0x40 MSTORE POP DUP2 ADD SWAP1 PUSH2 0xD72 SWAP2 SWAP1 PUSH2 0x202B JUMP JUMPDEST SWAP1 POP PUSH0 PUSH1 0x3 DUP2 GT ISZERO PUSH2 0xD87 JUMPI PUSH2 0xD86 PUSH2 0x20F4 JUMP JUMPDEST JUMPDEST DUP2 PUSH1 0x40 ADD MLOAD PUSH1 0x3 DUP2 GT ISZERO PUSH2 0xD9E JUMPI PUSH2 0xD9D PUSH2 0x20F4 JUMP JUMPDEST JUMPDEST EQ PUSH2 0xDDE JUMPI PUSH1 0x40 MLOAD PUSH32 0x8C379A000000000000000000000000000000000000000000000000000000000 DUP2 MSTORE PUSH1 0x4 ADD PUSH2 0xDD5 SWAP1 PUSH2 0x2191 JUMP JUMPDEST PUSH1 0x40 MLOAD DUP1 SWAP2 SUB SWAP1 REVERT JUMPDEST PUSH1 0x1 PUSH1 0x40 MLOAD DUP1 PUSH1 0x80 ADD PUSH1 0x40 MSTORE DUP1 DUP8 DUP2 MSTORE PUSH1 0x20 ADD DUP7 DUP2 MSTORE PUSH1 0x20 ADD DUP6 DUP2 MSTORE PUSH1 0x20 ADD DUP5 DUP2 MSTORE POP SWAP1 DUP1 PUSH1 0x1 DUP2 SLOAD ADD DUP1 DUP3 SSTORE DUP1 SWAP2 POP POP PUSH1 0x1 SWAP1 SUB SWAP1 PUSH0 MSTORE PUSH1 0x20 PUSH0 KECCAK256 SWAP1 PUSH1 0x4 MUL ADD PUSH0 SWAP1 SWAP2 SWAP1 SWAP2 SWAP1 SWAP2 POP PUSH0 DUP3 ADD MLOAD DUP2 PUSH0 ADD SWAP1 DUP2 PUSH2 0xE3A SWAP2 SWAP1 PUSH2 0x1DC9 JUMP JUMPDEST POP PUSH1 0x20 DUP3 ADD MLOAD DUP2 PUSH1 0x1 ADD SWAP1 DUP2 PUSH2 0xE50 SWAP2 SWAP1 PUSH2 0x1DC9 JUMP JUMPDEST POP PUSH1 0x40 DUP3 ADD MLOAD DUP2 PUSH1 0x2 ADD SWAP1 DUP2 PUSH2 0xE66 SWAP2 SWAP1 PUSH2 0x1DC9 JUMP JUMPDEST POP PUSH1 0x60 DUP3 ADD MLOAD DUP2 PUSH1 0x3 ADD SWAP1 DUP2 PUSH2 0xE7C SWAP2 SWAP1 PUSH2 0x1DC9 JUMP JUMPDEST POP POP POP PUSH0 PUSH1 0x1 DUP1 DUP1 DUP1 SLOAD SWAP1 POP PUSH2 0xE92 SWAP2 SWAP1 PUSH2 0x1AC6 JUMP JUMPDEST DUP2 SLOAD DUP2 LT PUSH2 0xEA3 JUMPI PUSH2 0xEA2 PUSH2 0x18EA JUMP JUMPDEST JUMPDEST SWAP1 PUSH0 MSTORE PUSH1 0x20 PUSH0 KECCAK256 SWAP1 PUSH1 0x4 MUL ADD PUSH1 0x40 MLOAD DUP1 PUSH1 0x80 ADD PUSH1 0x40 MSTORE SWAP1 DUP2 PUSH0 DUP3 ADD DUP1 SLOAD PUSH2 0xEC9 SWAP1 PUSH2 0x18BA JUMP JUMPDEST DUP1 PUSH1 0x1F ADD PUSH1 0x20 DUP1 SWAP2 DIV MUL PUSH1 0x20 ADD PUSH1 0x40 MLOAD SWAP1 DUP2 ADD PUSH1 0x40 MSTORE DUP1 SWAP3 SWAP2 SWAP1 DUP2 DUP2 MSTORE PUSH1 0x20 ADD DUP3 DUP1 SLOAD PUSH2 0xEF5 SWAP1 PUSH2 0x18BA JUMP JUMPDEST DUP1 ISZERO PUSH2 0xF40 JUMPI DUP1 PUSH1 0x1F LT PUSH2 0xF17 JUMPI PUSH2 0x100 DUP1 DUP4 SLOAD DIV MUL DUP4 MSTORE SWAP2 PUSH1 0x20 ADD SWAP2 PUSH2 0xF40 JUMP JUMPDEST DUP3 ADD SWAP2 SWAP1 PUSH0 MSTORE PUSH1 0x20 PUSH0 KECCAK256 SWAP1 JUMPDEST DUP2 SLOAD DUP2 MSTORE SWAP1 PUSH1 0x1 ADD SWAP1 PUSH1 0x20 ADD DUP1 DUP4 GT PUSH2 0xF23 JUMPI DUP3 SWAP1 SUB PUSH1 0x1F AND DUP3 ADD SWAP2 JUMPDEST POP POP POP POP POP DUP2 MSTORE PUSH1 0x20 ADD PUSH1 0x1 DUP3 ADD DUP1 SLOAD PUSH2 0xF59 SWAP1 PUSH2 0x18BA JUMP JUMPDEST DUP1 PUSH1 0x1F ADD PUSH1 0x20 DUP1 SWAP2 DIV MUL PUSH1 0x20 ADD PUSH1 0x40 MLOAD SWAP1 DUP2 ADD PUSH1 0x40 MSTORE DUP1 SWAP3 SWAP2 SWAP1 DUP2 DUP2 MSTORE PUSH1 0x20 ADD DUP3 DUP1 SLOAD PUSH2 0xF85 SWAP1 PUSH2 0x18BA JUMP JUMPDEST DUP1 ISZERO PUSH2 0xFD0 JUMPI DUP1 PUSH1 0x1F LT PUSH2 0xFA7 JUMPI PUSH2 0x100 DUP1 DUP4 SLOAD DIV MUL DUP4 MSTORE SWAP2 PUSH1 0x20 ADD SWAP2 PUSH2 0xFD0 JUMP JUMPDEST DUP3 ADD SWAP2 SWAP1 PUSH0 MSTORE PUSH1 0x20 PUSH0 KECCAK256 SWAP1 JUMPDEST DUP2 SLOAD DUP2 MSTORE SWAP1 PUSH1 0x1 ADD SWAP1 PUSH1 0x20 ADD DUP1 DUP4 GT PUSH2 0xFB3 JUMPI DUP3 SWAP1 SUB PUSH1 0x1F AND DUP3 ADD SWAP2 JUMPDEST POP POP POP POP POP DUP2 MSTORE PUSH1 0x20 ADD PUSH1 0x2 DUP3 ADD DUP1 SLOAD PUSH2 0xFE9 SWAP1 PUSH2 0x18BA JUMP JUMPDEST DUP1 PUSH1 0x1F ADD PUSH1 0x20 DUP1 SWAP2 DIV MUL PUSH1 0x20 ADD PUSH1 0x40 MLOAD SWAP1 DUP2 ADD PUSH1 0x40 MSTORE DUP1 SWAP3 SWAP2 SWAP1 DUP2 DUP2 MSTORE PUSH1 0x20 ADD DUP3 DUP1 SLOAD PUSH2 0x1015 SWAP1 PUSH2 0x18BA JUMP JUMPDEST DUP1 ISZERO PUSH2 0x1060 JUMPI DUP1 PUSH1 0x1F LT PUSH2 0x1037 JUMPI PUSH2 0x100 DUP1 DUP4 SLOAD DIV MUL DUP4 MSTORE SWAP2 PUSH1 0x20 ADD SWAP2 PUSH2 0x1060 JUMP JUMPDEST DUP3 ADD SWAP2 SWAP1 PUSH0 MSTORE PUSH1 0x20 PUSH0 KECCAK256 SWAP1 JUMPDEST DUP2 SLOAD DUP2 MSTORE SWAP1 PUSH1 0x1 ADD SWAP1 PUSH1 0x20 ADD DUP1 DUP4 GT PUSH2 0x1043 JUMPI DUP3 SWAP1 SUB PUSH1 0x1F AND DUP3 ADD SWAP2 JUMPDEST POP POP POP POP POP DUP2 MSTORE PUSH1 0x20 ADD PUSH1 0x3 DUP3 ADD DUP1 SLOAD PUSH2 0x1079 SWAP1 PUSH2 0x18BA JUMP JUMPDEST DUP1 PUSH1 0x1F ADD PUSH1 0x20 DUP1 SWAP2 DIV MUL PUSH1 0x20 ADD PUSH1 0x40 MLOAD SWAP1 DUP2 ADD PUSH1 0x40 MSTORE DUP1 SWAP3 SWAP2 SWAP1 DUP2 DUP2 MSTORE PUSH1 0x20 ADD DUP3 DUP1 SLOAD PUSH2 0x10A5 SWAP1 PUSH2 0x18BA JUMP JUMPDEST DUP1 ISZERO PUSH2 0x10F0 JUMPI DUP1 PUSH1 0x1F LT PUSH2 0x10C7 JUMPI PUSH2 0x100 DUP1 DUP4 SLOAD DIV MUL DUP4 MSTORE SWAP2 PUSH1 0x20 ADD SWAP2 PUSH2 0x10F0 JUMP JUMPDEST DUP3 ADD SWAP2 SWAP1 PUSH0 MSTORE PUSH1 0x20 PUSH0 KECCAK256 SWAP1 JUMPDEST DUP2 SLOAD DUP2 MSTORE SWAP1 PUSH1 0x1 ADD SWAP1 PUSH1 0x20 ADD DUP1 DUP4 GT PUSH2 0x10D3 JUMPI DUP3 SWAP1 SUB PUSH1 0x1F AND DUP3 ADD SWAP2 JUMPDEST POP POP POP POP POP DUP2 MSTORE POP POP SWAP1 POP PUSH1 0x2 PUSH0 CALLER PUSH20 0xFFFFFFFFFFFFFFFFFFFFFFFFFFFFFFFFFFFFFFFF AND PUSH20 0xFFFFFFFFFFFFFFFFFFFFFFFFFFFFFFFFFFFFFFFF AND DUP2 MSTORE PUSH1 0x20 ADD SWAP1 DUP2 MSTORE PUSH1 0x20 ADD PUSH0 KECCAK256 DUP5 SWAP1 DUP1 PUSH1 0x1 DUP2 SLOAD ADD DUP1 DUP3 SSTORE DUP1 SWAP2 POP POP PUSH1 0x1 SWAP1 SUB SWAP1 PUSH0 MSTORE PUSH1 0x20 PUSH0 KECCAK256 ADD PUSH0 SWAP1 SWAP2 SWAP1 SWAP2 SWAP1 SWAP2 POP SWAP1 DUP2 PUSH2 0x1167 SWAP2 SWAP1 PUSH2 0x1DC9 JUMP JUMPDEST POP PUSH1 0x3 DUP2 PUSH1 0x40 ADD MLOAD PUSH1 0x40 MLOAD PUSH2 0x117C SWAP2 SWAP1 PUSH2 0x1ED2 JUMP JUMPDEST SWAP1 DUP2 MSTORE PUSH1 0x20 ADD PUSH1 0x40 MLOAD DUP1 SWAP2 SUB SWAP1 KECCAK256 PUSH1 0x40 MLOAD DUP1 PUSH1 0x40 ADD PUSH1 0x40 MSTORE DUP1 CALLER PUSH20 0xFFFFFFFFFFFFFFFFFFFFFFFFFFFFFFFFFFFFFFFF AND DUP2 MSTORE PUSH1 0x20 ADD TIMESTAMP DUP2 MSTORE POP SWAP1 DUP1 PUSH1 0x1 DUP2 SLOAD ADD DUP1 DUP3 SSTORE DUP1 SWAP2 POP POP PUSH1 0x1 SWAP1 SUB SWAP1 PUSH0 MSTORE PUSH1 0x20 PUSH0 KECCAK256 SWAP1 PUSH1 0x2 MUL ADD PUSH0 SWAP1 SWAP2 SWAP1 SWAP2 SWAP1 SWAP2 POP PUSH0 DUP3 ADD MLOAD DUP2 PUSH0 ADD PUSH0 PUSH2 0x100 EXP DUP2 SLOAD DUP2 PUSH20 0xFFFFFFFFFFFFFFFFFFFFFFFFFFFFFFFFFFFFFFFF MUL NOT AND SWAP1 DUP4 PUSH20 0xFFFFFFFFFFFFFFFFFFFFFFFFFFFFFFFFFFFFFFFF AND MUL OR SWAP1 SSTORE POP PUSH1 0x20 DUP3 ADD MLOAD DUP2 PUSH1 0x1 ADD SSTORE POP POP PUSH32 0x11563E9D0C09817A487768ACE63943D092729823F906F1244B854AB350A51F1E DUP2 PUSH0 ADD MLOAD DUP3 PUSH1 0x20 ADD MLOAD DUP4 PUSH1 0x40 ADD MLOAD DUP5 PUSH1 0x60 ADD MLOAD PUSH1 0x40 MLOAD PUSH2 0x126F SWAP5 SWAP4 SWAP3 SWAP2 SWAP1 PUSH2 0x16BB JUMP JUMPDEST PUSH1 0x40 MLOAD DUP1 SWAP2 SUB SWAP1 LOG1 POP POP POP POP POP POP JUMP JUMPDEST PUSH1 0x40 MLOAD DUP1 PUSH1 0x80 ADD PUSH1 0x40 MSTORE DUP1 PUSH1 0x60 DUP2 MSTORE PUSH1 0x20 ADD PUSH1 0x60 DUP2 MSTORE PUSH1 0x20 ADD PUSH1 0x60 DUP2 MSTORE PUSH1 0x20 ADD PUSH1 0x60 DUP2 MSTORE POP SWAP1 JUMP JUMPDEST POP DUP1 SLOAD PUSH2 0x12B3 SWAP1 PUSH2 0x18BA JUMP JUMPDEST PUSH0 DUP3 SSTORE DUP1 PUSH1 0x1F LT PUSH2 0x12C4 JUMPI POP PUSH2 0x12E1 JUMP JUMPDEST PUSH1 0x1F ADD PUSH1 0x20 SWAP1 DIV SWAP1 PUSH0 MSTORE PUSH1 0x20 PUSH0 KECCAK256 SWAP1 DUP2 ADD SWAP1 PUSH2 0x12E0 SWAP2 SWAP1 PUSH2 0x12E4 JUMP JUMPDEST JUMPDEST POP JUMP JUMPDEST JUMPDEST DUP1 DUP3 GT ISZERO PUSH2 0x12FB JUMPI PUSH0 DUP2 PUSH0 SWAP1 SSTORE POP PUSH1 0x1 ADD PUSH2 0x12E5 JUMP JUMPDEST POP SWAP1 JUMP JUMPDEST PUSH0 PUSH1 0x40 MLOAD SWAP1 POP SWAP1 JUMP JUMPDEST PUSH0 PUSH0 REVERT JUMPDEST PUSH0 PUSH0 REVERT JUMPDEST PUSH0 PUSH0 REVERT JUMPDEST PUSH0 PUSH0 REVERT JUMPDEST PUSH0 PUSH1 0x1F NOT PUSH1 0x1F DUP4 ADD AND SWAP1 POP SWAP2 SWAP1 POP JUMP JUMPDEST PUSH32 0x4E487B7100000000000000000000000000000000000000000000000000000000 PUSH0 MSTORE PUSH1 0x41 PUSH1 0x4 MSTORE PUSH1 0x24 PUSH0 REVERT JUMPDEST PUSH2 0x135E DUP3 PUSH2 0x1318 JUMP JUMPDEST DUP2 ADD DUP2 DUP2 LT PUSH8 0xFFFFFFFFFFFFFFFF DUP3 GT OR ISZERO PUSH2 0x137D JUMPI PUSH2 0x137C PUSH2 0x1328 JUMP JUMPDEST JUMPDEST DUP1 PUSH1 0x40 MSTORE POP POP POP JUMP JUMPDEST PUSH0 PUSH2 0x138F PUSH2 0x12FF JUMP JUMPDEST SWAP1 POP PUSH2 0x139B DUP3 DUP3 PUSH2 0x1355 JUMP JUMPDEST SWAP2 SWAP1 POP JUMP JUMPDEST PUSH0 PUSH8 0xFFFFFFFFFFFFFFFF DUP3 GT ISZERO PUSH2 0x13BA JUMPI PUSH2 0x13B9 PUSH2 0x1328 JUMP JUMPDEST JUMPDEST PUSH2 0x13C3 DUP3 PUSH2 0x1318 JUMP JUMPDEST SWAP1 POP PUSH1 0x20 DUP2 ADD SWAP1 POP SWAP2 SWAP1 POP JUMP JUMPDEST DUP3 DUP2 DUP4 CALLDATACOPY PUSH0 DUP4 DUP4 ADD MSTORE POP POP POP JUMP JUMPDEST PUSH0 PUSH2 0x13F0 PUSH2 0x13EB DUP5 PUSH2 0x13A0 JUMP JUMPDEST PUSH2 0x1386 JUMP JUMPDEST SWAP1 POP DUP3 DUP2 MSTORE PUSH1 0x20 DUP2 ADD DUP5 DUP5 DUP5 ADD GT ISZERO PUSH2 0x140C JUMPI PUSH2 0x140B PUSH2 0x1314 JUMP JUMPDEST JUMPDEST PUSH2 0x1417 DUP5 DUP3 DUP6 PUSH2 0x13D0 JUMP JUMPDEST POP SWAP4 SWAP3 POP POP POP JUMP JUMPDEST PUSH0 DUP3 PUSH1 0x1F DUP4 ADD SLT PUSH2 0x1433 JUMPI PUSH2 0x1432 PUSH2 0x1310 JUMP JUMPDEST JUMPDEST DUP2 CALLDATALOAD PUSH2 0x1443 DUP5 DUP3 PUSH1 0x20 DUP7 ADD PUSH2 0x13DE JUMP JUMPDEST SWAP2 POP POP SWAP3 SWAP2 POP POP JUMP JUMPDEST PUSH0 DUP2 SWAP1 POP SWAP2 SWAP1 POP JUMP JUMPDEST PUSH2 0x145E DUP2 PUSH2 0x144C JUMP JUMPDEST DUP2 EQ PUSH2 0x1468 JUMPI PUSH0 PUSH0 REVERT JUMPDEST POP JUMP JUMPDEST PUSH0 DUP2 CALLDATALOAD SWAP1 POP PUSH2 0x1479 DUP2 PUSH2 0x1455 JUMP JUMPDEST SWAP3 SWAP2 POP POP JUMP JUMPDEST PUSH0 PUSH0 PUSH1 0x40 DUP4 DUP6 SUB SLT ISZERO PUSH2 0x1495 JUMPI PUSH2 0x1494 PUSH2 0x1308 JUMP JUMPDEST JUMPDEST PUSH0 DUP4 ADD CALLDATALOAD PUSH8 0xFFFFFFFFFFFFFFFF DUP2 GT ISZERO PUSH2 0x14B2 JUMPI PUSH2 0x14B1 PUSH2 0x130C JUMP JUMPDEST JUMPDEST PUSH2 0x14BE DUP6 DUP3 DUP7 ADD PUSH2 0x141F JUMP JUMPDEST SWAP3 POP POP PUSH1 0x20 PUSH2 0x14CF DUP6 DUP3 DUP7 ADD PUSH2 0x146B JUMP JUMPDEST SWAP2 POP POP SWAP3 POP SWAP3 SWAP1 POP JUMP JUMPDEST PUSH0 PUSH20 0xFFFFFFFFFFFFFFFFFFFFFFFFFFFFFFFFFFFFFFFF DUP3 AND SWAP1 POP SWAP2 SWAP1 POP JUMP JUMPDEST PUSH0 PUSH2 0x1502 DUP3 PUSH2 0x14D9 JUMP JUMPDEST SWAP1 POP SWAP2 SWAP1 POP JUMP JUMPDEST PUSH2 0x1512 DUP2 PUSH2 0x14F8 JUMP JUMPDEST DUP3 MSTORE POP POP JUMP JUMPDEST PUSH2 0x1521 DUP2 PUSH2 0x144C JUMP JUMPDEST DUP3 MSTORE POP POP JUMP JUMPDEST PUSH0 PUSH1 0x40 DUP3 ADD SWAP1 POP PUSH2 0x153A PUSH0 DUP4 ADD DUP6 PUSH2 0x1509 JUMP JUMPDEST PUSH2 0x1547 PUSH1 0x20 DUP4 ADD DUP5 PUSH2 0x1518 JUMP JUMPDEST SWAP4 SWAP3 POP POP POP JUMP JUMPDEST PUSH2 0x1557 DUP2 PUSH2 0x14F8 JUMP JUMPDEST DUP2 EQ PUSH2 0x1561 JUMPI PUSH0 PUSH0 REVERT JUMPDEST POP JUMP JUMPDEST PUSH0 DUP2 CALLDATALOAD SWAP1 POP PUSH2 0x1572 DUP2 PUSH2 0x154E JUMP JUMPDEST SWAP3 SWAP2 POP POP JUMP JUMPDEST PUSH0 PUSH0 PUSH1 0x40 DUP4 DUP6 SUB SLT ISZERO PUSH2 0x158E JUMPI PUSH2 0x158D PUSH2 0x1308 JUMP JUMPDEST JUMPDEST PUSH0 PUSH2 0x159B DUP6 DUP3 DUP7 ADD PUSH2 0x1564 JUMP JUMPDEST SWAP3 POP POP PUSH1 0x20 PUSH2 0x15AC DUP6 DUP3 DUP7 ADD PUSH2 0x146B JUMP JUMPDEST SWAP2 POP POP SWAP3 POP SWAP3 SWAP1 POP JUMP JUMPDEST PUSH0 DUP2 MLOAD SWAP1 POP SWAP2 SWAP1 POP JUMP JUMPDEST PUSH0 DUP3 DUP3 MSTORE PUSH1 0x20 DUP3 ADD SWAP1 POP SWAP3 SWAP2 POP POP JUMP JUMPDEST DUP3 DUP2 DUP4 MCOPY PUSH0 DUP4 DUP4 ADD MSTORE POP POP POP JUMP JUMPDEST PUSH0 PUSH2 0x15E8 DUP3 PUSH2 0x15B6 JUMP JUMPDEST PUSH2 0x15F2 DUP2 DUP6 PUSH2 0x15C0 JUMP JUMPDEST SWAP4 POP PUSH2 0x1602 DUP2 DUP6 PUSH1 0x20 DUP7 ADD PUSH2 0x15D0 JUMP JUMPDEST PUSH2 0x160B DUP2 PUSH2 0x1318 JUMP JUMPDEST DUP5 ADD SWAP2 POP POP SWAP3 SWAP2 POP POP JUMP JUMPDEST PUSH0 PUSH1 0x20 DUP3 ADD SWAP1 POP DUP2 DUP2 SUB PUSH0 DUP4 ADD MSTORE PUSH2 0x162E DUP2 DUP5 PUSH2 0x15DE JUMP JUMPDEST SWAP1 POP SWAP3 SWAP2 POP POP JUMP JUMPDEST PUSH0 PUSH0 PUSH1 0x40 DUP4 DUP6 SUB SLT ISZERO PUSH2 0x164C JUMPI PUSH2 0x164B PUSH2 0x1308 JUMP JUMPDEST JUMPDEST PUSH0 PUSH2 0x1659 DUP6 DUP3 DUP7 ADD PUSH2 0x1564 JUMP JUMPDEST SWAP3 POP POP PUSH1 0x20 DUP4 ADD CALLDATALOAD PUSH8 0xFFFFFFFFFFFFFFFF DUP2 GT ISZERO PUSH2 0x167A JUMPI PUSH2 0x1679 PUSH2 0x130C JUMP JUMPDEST JUMPDEST PUSH2 0x1686 DUP6 DUP3 DUP7 ADD PUSH2 0x141F JUMP JUMPDEST SWAP2 POP POP SWAP3 POP SWAP3 SWAP1 POP JUMP JUMPDEST PUSH0 PUSH1 0x20 DUP3 DUP5 SUB SLT ISZERO PUSH2 0x16A5 JUMPI PUSH2 0x16A4 PUSH2 0x1308 JUMP JUMPDEST JUMPDEST PUSH0 PUSH2 0x16B2 DUP5 DUP3 DUP6 ADD PUSH2 0x146B JUMP JUMPDEST SWAP2 POP POP SWAP3 SWAP2 POP POP JUMP JUMPDEST PUSH0 PUSH1 0x80 DUP3 ADD SWAP1 POP DUP2 DUP2 SUB PUSH0 DUP4 ADD MSTORE PUSH2 0x16D3 DUP2 DUP8 PUSH2 0x15DE JUMP JUMPDEST SWAP1 POP DUP2 DUP2 SUB PUSH1 0x20 DUP4 ADD MSTORE PUSH2 0x16E7 DUP2 DUP7 PUSH2 0x15DE JUMP JUMPDEST SWAP1 POP DUP2 DUP2 SUB PUSH1 0x40 DUP4 ADD MSTORE PUSH2 0x16FB DUP2 DUP6 PUSH2 0x15DE JUMP JUMPDEST SWAP1 POP DUP2 DUP2 SUB PUSH1 0x60 DUP4 ADD MSTORE PUSH2 0x170F DUP2 DUP5 PUSH2 0x15DE JUMP JUMPDEST SWAP1 POP SWAP6 SWAP5 POP POP POP POP POP JUMP JUMPDEST PUSH0 PUSH1 0x20 DUP3 DUP5 SUB SLT ISZERO PUSH2 0x172F JUMPI PUSH2 0x172E PUSH2 0x1308 JUMP JUMPDEST JUMPDEST PUSH0 PUSH2 0x173C DUP5 DUP3 DUP6 ADD PUSH2 0x1564 JUMP JUMPDEST SWAP2 POP POP SWAP3 SWAP2 POP POP JUMP JUMPDEST PUSH0 DUP2 SWAP1 POP SWAP2 SWAP1 POP JUMP JUMPDEST PUSH0 PUSH2 0x1768 PUSH2 0x1763 PUSH2 0x175E DUP5 PUSH2 0x14D9 JUMP JUMPDEST PUSH2 0x1745 JUMP JUMPDEST PUSH2 0x14D9 JUMP JUMPDEST SWAP1 POP SWAP2 SWAP1 POP JUMP JUMPDEST PUSH0 PUSH2 0x1779 DUP3 PUSH2 0x174E JUMP JUMPDEST SWAP1 POP SWAP2 SWAP1 POP JUMP JUMPDEST PUSH0 PUSH2 0x178A DUP3 PUSH2 0x176F JUMP JUMPDEST SWAP1 POP SWAP2 SWAP1 POP JUMP JUMPDEST PUSH2 0x179A DUP2 PUSH2 0x1780 JUMP JUMPDEST DUP3 MSTORE POP POP JUMP JUMPDEST PUSH0 PUSH1 0x20 DUP3 ADD SWAP1 POP PUSH2 0x17B3 PUSH0 DUP4 ADD DUP5 PUSH2 0x1791 JUMP JUMPDEST SWAP3 SWAP2 POP POP JUMP JUMPDEST PUSH0 PUSH0 PUSH0 PUSH0 PUSH1 0x80 DUP6 DUP8 SUB SLT ISZERO PUSH2 0x17D1 JUMPI PUSH2 0x17D0 PUSH2 0x1308 JUMP JUMPDEST JUMPDEST PUSH0 DUP6 ADD CALLDATALOAD PUSH8 0xFFFFFFFFFFFFFFFF DUP2 GT ISZERO PUSH2 0x17EE JUMPI PUSH2 0x17ED PUSH2 0x130C JUMP JUMPDEST JUMPDEST PUSH2 0x17FA DUP8 DUP3 DUP9 ADD PUSH2 0x141F JUMP JUMPDEST SWAP5 POP POP PUSH1 0x20 DUP6 ADD CALLDATALOAD PUSH8 0xFFFFFFFFFFFFFFFF DUP2 GT ISZERO PUSH2 0x181B JUMPI PUSH2 0x181A PUSH2 0x130C JUMP JUMPDEST JUMPDEST PUSH2 0x1827 DUP8 DUP3 DUP9 ADD PUSH2 0x141F JUMP JUMPDEST SWAP4 POP POP PUSH1 0x40 DUP6 ADD CALLDATALOAD PUSH8 0xFFFFFFFFFFFFFFFF DUP2 GT ISZERO PUSH2 0x1848 JUMPI PUSH2 0x1847 PUSH2 0x130C JUMP JUMPDEST JUMPDEST PUSH2 0x1854 DUP8 DUP3 DUP9 ADD PUSH2 0x141F JUMP JUMPDEST SWAP3 POP POP PUSH1 0x60 DUP6 ADD CALLDATALOAD PUSH8 0xFFFFFFFFFFFFFFFF DUP2 GT ISZERO PUSH2 0x1875 JUMPI PUSH2 0x1874 PUSH2 0x130C JUMP JUMPDEST JUMPDEST PUSH2 0x1881 DUP8 DUP3 DUP9 ADD PUSH2 0x141F JUMP JUMPDEST SWAP2 POP POP SWAP3 SWAP6 SWAP2 SWAP5 POP SWAP3 POP JUMP JUMPDEST PUSH32 0x4E487B7100000000000000000000000000000000000000000000000000000000 PUSH0 MSTORE PUSH1 0x22 PUSH1 0x4 MSTORE PUSH1 0x24 PUSH0 REVERT JUMPDEST PUSH0 PUSH1 0x2 DUP3 DIV SWAP1 POP PUSH1 0x1 DUP3 AND DUP1 PUSH2 0x18D1 JUMPI PUSH1 0x7F DUP3 AND SWAP2 POP JUMPDEST PUSH1 0x20 DUP3 LT DUP2 SUB PUSH2 0x18E4 JUMPI PUSH2 0x18E3 PUSH2 0x188D JUMP JUMPDEST JUMPDEST POP SWAP2 SWAP1 POP JUMP JUMPDEST PUSH32 0x4E487B7100000000000000000000000000000000000000000000000000000000 PUSH0 MSTORE PUSH1 0x32 PUSH1 0x4 MSTORE PUSH1 0x24 PUSH0 REVERT JUMPDEST PUSH0 DUP2 SWAP1 POP SWAP3 SWAP2 POP POP JUMP JUMPDEST PUSH0 DUP2 SWAP1 POP DUP2 PUSH0 MSTORE PUSH1 0x20 PUSH0 KECCAK256 SWAP1 POP SWAP2 SWAP1 POP JUMP JUMPDEST PUSH0 DUP2 SLOAD PUSH2 0x193F DUP2 PUSH2 0x18BA JUMP JUMPDEST PUSH2 0x1949 DUP2 DUP7 PUSH2 0x1917 JUMP JUMPDEST SWAP5 POP PUSH1 0x1 DUP3 AND PUSH0 DUP2 EQ PUSH2 0x1963 JUMPI PUSH1 0x1 DUP2 EQ PUSH2 0x1978 JUMPI PUSH2 0x19AA JUMP JUMPDEST PUSH1 0xFF NOT DUP4 AND DUP7 MSTORE DUP2 ISZERO ISZERO DUP3 MUL DUP7 ADD SWAP4 POP PUSH2 0x19AA JUMP JUMPDEST PUSH2 0x1981 DUP6 PUSH2 0x1921 JUMP JUMPDEST PUSH0 JUMPDEST DUP4 DUP2 LT ISZERO PUSH2 0x19A2 JUMPI DUP2 SLOAD DUP2 DUP10 ADD MSTORE PUSH1 0x1 DUP3 ADD SWAP2 POP PUSH1 0x20 DUP2 ADD SWAP1 POP PUSH2 0x1983 JUMP JUMPDEST DUP4 DUP9 ADD SWAP6 POP POP POP JUMPDEST POP POP POP SWAP3 SWAP2 POP POP JUMP JUMPDEST PUSH0 PUSH2 0x19BE DUP3 DUP5 PUSH2 0x1933 JUMP JUMPDEST SWAP2 POP DUP2 SWAP1 POP SWAP3 SWAP2 POP POP JUMP JUMPDEST PUSH32 0x50726F64756374206E6F7420666F756E64000000000000000000000000000000 PUSH0 DUP3 ADD MSTORE POP JUMP JUMPDEST PUSH0 PUSH2 0x19FD PUSH1 0x11 DUP4 PUSH2 0x15C0 JUMP JUMPDEST SWAP2 POP PUSH2 0x1A08 DUP3 PUSH2 0x19C9 JUMP JUMPDEST PUSH1 0x20 DUP3 ADD SWAP1 POP SWAP2 SWAP1 POP JUMP JUMPDEST PUSH0 PUSH1 0x20 DUP3 ADD SWAP1 POP DUP2 DUP2 SUB PUSH0 DUP4 ADD MSTORE PUSH2 0x1A2A DUP2 PUSH2 0x19F1 JUMP JUMPDEST SWAP1 POP SWAP2 SWAP1 POP JUMP JUMPDEST PUSH32 0x50726F64756374206E6F7420696E2073656C6C657220696E76656E746F727900 PUSH0 DUP3 ADD MSTORE POP JUMP JUMPDEST PUSH0 PUSH2 0x1A65 PUSH1 0x1F DUP4 PUSH2 0x15C0 JUMP JUMPDEST SWAP2 POP PUSH2 0x1A70 DUP3 PUSH2 0x1A31 JUMP JUMPDEST PUSH1 0x20 DUP3 ADD SWAP1 POP SWAP2 SWAP1 POP JUMP JUMPDEST PUSH0 PUSH1 0x20 DUP3 ADD SWAP1 POP DUP2 DUP2 SUB PUSH0 DUP4 ADD MSTORE PUSH2 0x1A92 DUP2 PUSH2 0x1A59 JUMP JUMPDEST SWAP1 POP SWAP2 SWAP1 POP JUMP JUMPDEST PUSH32 0x4E487B7100000000000000000000000000000000000000000000000000000000 PUSH0 MSTORE PUSH1 0x11 PUSH1 0x4 MSTORE PUSH1 0x24 PUSH0 REVERT JUMPDEST PUSH0 PUSH2 0x1AD0 DUP3 PUSH2 0x144C JUMP JUMPDEST SWAP2 POP PUSH2 0x1ADB DUP4 PUSH2 0x144C JUMP JUMPDEST SWAP3 POP DUP3 DUP3 SUB SWAP1 POP DUP2 DUP2 GT ISZERO PUSH2 0x1AF3 JUMPI PUSH2 0x1AF2 PUSH2 0x1A99 JUMP JUMPDEST JUMPDEST SWAP3 SWAP2 POP POP JUMP JUMPDEST PUSH0 DUP2 SLOAD SWAP1 POP PUSH2 0x1B07 DUP2 PUSH2 0x18BA JUMP JUMPDEST SWAP1 POP SWAP2 SWAP1 POP JUMP JUMPDEST PUSH0 DUP2 SWAP1 POP DUP2 PUSH0 MSTORE PUSH1 0x20 PUSH0 KECCAK256 SWAP1 POP SWAP2 SWAP1 POP JUMP JUMPDEST PUSH0 DUP2 SWAP1 POP DUP2 PUSH0 MSTORE PUSH1 0x20 PUSH0 KECCAK256 SWAP1 POP SWAP2 SWAP1 POP JUMP JUMPDEST PUSH0 PUSH1 0x20 PUSH1 0x1F DUP4 ADD DIV SWAP1 POP SWAP2 SWAP1 POP JUMP JUMPDEST PUSH0 DUP3 DUP3 SHL SWAP1 POP SWAP3 SWAP2 POP POP JUMP JUMPDEST PUSH0 PUSH1 0x8 DUP4 MUL PUSH2 0x1B7C PUSH32 0xFFFFFFFFFFFFFFFFFFFFFFFFFFFFFFFFFFFFFFFFFFFFFFFFFFFFFFFFFFFFFFFF DUP3 PUSH2 0x1B41 JUMP JUMPDEST PUSH2 0x1B86 DUP7 DUP4 PUSH2 0x1B41 JUMP JUMPDEST SWAP6 POP DUP1 NOT DUP5 AND SWAP4 POP DUP1 DUP7 AND DUP5 OR SWAP3 POP POP POP SWAP4 SWAP3 POP POP POP JUMP JUMPDEST PUSH0 PUSH2 0x1BB8 PUSH2 0x1BB3 PUSH2 0x1BAE DUP5 PUSH2 0x144C JUMP JUMPDEST PUSH2 0x1745 JUMP JUMPDEST PUSH2 0x144C JUMP JUMPDEST SWAP1 POP SWAP2 SWAP1 POP JUMP JUMPDEST PUSH0 DUP2 SWAP1 POP SWAP2 SWAP1 POP JUMP JUMPDEST PUSH2 0x1BD1 DUP4 PUSH2 0x1B9E JUMP JUMPDEST PUSH2 0x1BE5 PUSH2 0x1BDD DUP3 PUSH2 0x1BBF JUMP JUMPDEST DUP5 DUP5 SLOAD PUSH2 0x1B4D JUMP JUMPDEST DUP3 SSTORE POP POP POP POP JUMP JUMPDEST PUSH0 PUSH0 SWAP1 POP SWAP1 JUMP JUMPDEST PUSH2 0x1BFC PUSH2 0x1BED JUMP JUMPDEST PUSH2 0x1C07 DUP2 DUP5 DUP5 PUSH2 0x1BC8 JUMP JUMPDEST POP POP POP JUMP JUMPDEST JUMPDEST DUP2 DUP2 LT ISZERO PUSH2 0x1C2A JUMPI PUSH2 0x1C1F PUSH0 DUP3 PUSH2 0x1BF4 JUMP JUMPDEST PUSH1 0x1 DUP2 ADD SWAP1 POP PUSH2 0x1C0D JUMP JUMPDEST POP POP JUMP JUMPDEST PUSH1 0x1F DUP3 GT ISZERO PUSH2 0x1C6F JUMPI PUSH2 0x1C40 DUP2 PUSH2 0x1B0E JUMP JUMPDEST PUSH2 0x1C49 DUP5 PUSH2 0x1B32 JUMP JUMPDEST DUP2 ADD PUSH1 0x20 DUP6 LT ISZERO PUSH2 0x1C58 JUMPI DUP2 SWAP1 POP JUMPDEST PUSH2 0x1C6C PUSH2 0x1C64 DUP6 PUSH2 0x1B32 JUMP JUMPDEST DUP4 ADD DUP3 PUSH2 0x1C0C JUMP JUMPDEST POP POP JUMPDEST POP POP POP JUMP JUMPDEST PUSH0 DUP3 DUP3 SHR SWAP1 POP SWAP3 SWAP2 POP POP JUMP JUMPDEST PUSH0 PUSH2 0x1C8F PUSH0 NOT DUP5 PUSH1 0x8 MUL PUSH2 0x1C74 JUMP JUMPDEST NOT DUP1 DUP4 AND SWAP2 POP POP SWAP3 SWAP2 POP POP JUMP JUMPDEST PUSH0 PUSH2 0x1CA7 DUP4 DUP4 PUSH2 0x1C80 JUMP JUMPDEST SWAP2 POP DUP3 PUSH1 0x2 MUL DUP3 OR SWAP1 POP SWAP3 SWAP2 POP POP JUMP JUMPDEST DUP2 DUP2 SUB PUSH2 0x1CC5 JUMPI POP POP PUSH2 0x1D9A JUMP JUMPDEST PUSH2 0x1CCE DUP3 PUSH2 0x1AF9 JUMP JUMPDEST PUSH8 0xFFFFFFFFFFFFFFFF DUP2 GT ISZERO PUSH2 0x1CE7 JUMPI PUSH2 0x1CE6 PUSH2 0x1328 JUMP JUMPDEST JUMPDEST PUSH2 0x1CF1 DUP3 SLOAD PUSH2 0x18BA JUMP JUMPDEST PUSH2 0x1CFC DUP3 DUP3 DUP6 PUSH2 0x1C2E JUMP JUMPDEST PUSH0 PUSH1 0x1F DUP4 GT PUSH1 0x1 DUP2 EQ PUSH2 0x1D29 JUMPI PUSH0 DUP5 ISZERO PUSH2 0x1D17 JUMPI DUP3 DUP8 ADD SLOAD SWAP1 POP JUMPDEST PUSH2 0x1D21 DUP6 DUP3 PUSH2 0x1C9C JUMP JUMPDEST DUP7 SSTORE POP PUSH2 0x1D93 JUMP JUMPDEST PUSH1 0x1F NOT DUP5 AND PUSH2 0x1D37 DUP8 PUSH2 0x1B20 JUMP JUMPDEST SWAP7 POP PUSH2 0x1D42 DUP7 PUSH2 0x1B0E JUMP JUMPDEST PUSH0 JUMPDEST DUP3 DUP2 LT ISZERO PUSH2 0x1D69 JUMPI DUP5 DUP10 ADD SLOAD DUP3 SSTORE PUSH1 0x1 DUP3 ADD SWAP2 POP PUSH1 0x1 DUP6 ADD SWAP5 POP PUSH1 0x20 DUP2 ADD SWAP1 POP PUSH2 0x1D44 JUMP JUMPDEST DUP7 DUP4 LT ISZERO PUSH2 0x1D86 JUMPI DUP5 DUP10 ADD SLOAD PUSH2 0x1D82 PUSH1 0x1F DUP10 AND DUP3 PUSH2 0x1C80 JUMP JUMPDEST DUP4 SSTORE POP JUMPDEST PUSH1 0x1 PUSH1 0x2 DUP9 MUL ADD DUP9 SSTORE POP POP POP JUMPDEST POP POP POP POP POP POP JUMPDEST JUMP JUMPDEST PUSH32 0x4E487B7100000000000000000000000000000000000000000000000000000000 PUSH0 MSTORE PUSH1 0x31 PUSH1 0x4 MSTORE PUSH1 0x24 PUSH0 REVERT JUMPDEST PUSH2 0x1DD2 DUP3 PUSH2 0x15B6 JUMP JUMPDEST PUSH8 0xFFFFFFFFFFFFFFFF DUP2 GT ISZERO PUSH2 0x1DEB JUMPI PUSH2 0x1DEA PUSH2 0x1328 JUMP JUMPDEST JUMPDEST PUSH2 0x1DF5 DUP3 SLOAD PUSH2 0x18BA JUMP JUMPDEST PUSH2 0x1E00 DUP3 DUP3 DUP6 PUSH2 0x1C2E JUMP JUMPDEST PUSH0 PUSH1 0x20 SWAP1 POP PUSH1 0x1F DUP4 GT PUSH1 0x1 DUP2 EQ PUSH2 0x1E31 JUMPI PUSH0 DUP5 ISZERO PUSH2 0x1E1F JUMPI DUP3 DUP8 ADD MLOAD SWAP1 POP JUMPDEST PUSH2 0x1E29 DUP6 DUP3 PUSH2 0x1C9C JUMP JUMPDEST DUP7 SSTORE POP PUSH2 0x1E90 JUMP JUMPDEST PUSH1 0x1F NOT DUP5 AND PUSH2 0x1E3F DUP7 PUSH2 0x1B0E JUMP JUMPDEST PUSH0 JUMPDEST DUP3 DUP2 LT ISZERO PUSH2 0x1E66 JUMPI DUP5 DUP10 ADD MLOAD DUP3 SSTORE PUSH1 0x1 DUP3 ADD SWAP2 POP PUSH1 0x20 DUP6 ADD SWAP5 POP PUSH1 0x20 DUP2 ADD SWAP1 POP PUSH2 0x1E41 JUMP JUMPDEST DUP7 DUP4 LT ISZERO PUSH2 0x1E83 JUMPI DUP5 DUP10 ADD MLOAD PUSH2 0x1E7F PUSH1 0x1F DUP10 AND DUP3 PUSH2 0x1C80 JUMP JUMPDEST DUP4 SSTORE POP JUMPDEST PUSH1 0x1 PUSH1 0x2 DUP9 MUL ADD DUP9 SSTORE POP POP POP JUMPDEST POP POP POP POP POP POP JUMP JUMPDEST PUSH0 DUP2 SWAP1 POP SWAP3 SWAP2 POP POP JUMP JUMPDEST PUSH0 PUSH2 0x1EAC DUP3 PUSH2 0x15B6 JUMP JUMPDEST PUSH2 0x1EB6 DUP2 DUP6 PUSH2 0x1E98 JUMP JUMPDEST SWAP4 POP PUSH2 0x1EC6 DUP2 DUP6 PUSH1 0x20 DUP7 ADD PUSH2 0x15D0 JUMP JUMPDEST DUP1 DUP5 ADD SWAP2 POP POP SWAP3 SWAP2 POP POP JUMP JUMPDEST PUSH0 PUSH2 0x1EDD DUP3 DUP5 PUSH2 0x1EA2 JUMP JUMPDEST SWAP2 POP DUP2 SWAP1 POP SWAP3 SWAP2 POP POP JUMP JUMPDEST PUSH0 PUSH1 0x20 DUP3 ADD SWAP1 POP PUSH2 0x1EFB PUSH0 DUP4 ADD DUP5 PUSH2 0x1509 JUMP JUMPDEST SWAP3 SWAP2 POP POP JUMP JUMPDEST PUSH0 PUSH0 REVERT JUMPDEST PUSH0 PUSH0 REVERT JUMPDEST PUSH0 DUP2 MLOAD SWAP1 POP PUSH2 0x1F17 DUP2 PUSH2 0x154E JUMP JUMPDEST SWAP3 SWAP2 POP POP JUMP JUMPDEST PUSH0 PUSH2 0x1F2F PUSH2 0x1F2A DUP5 PUSH2 0x13A0 JUMP JUMPDEST PUSH2 0x1386 JUMP JUMPDEST SWAP1 POP DUP3 DUP2 MSTORE PUSH1 0x20 DUP2 ADD DUP5 DUP5 DUP5 ADD GT ISZERO PUSH2 0x1F4B JUMPI PUSH2 0x1F4A PUSH2 0x1314 JUMP JUMPDEST JUMPDEST PUSH2 0x1F56 DUP5 DUP3 DUP6 PUSH2 0x15D0 JUMP JUMPDEST POP SWAP4 SWAP3 POP POP POP JUMP JUMPDEST PUSH0 DUP3 PUSH1 0x1F DUP4 ADD SLT PUSH2 0x1F72 JUMPI PUSH2 0x1F71 PUSH2 0x1310 JUMP JUMPDEST JUMPDEST DUP2 MLOAD PUSH2 0x1F82 DUP5 DUP3 PUSH1 0x20 DUP7 ADD PUSH2 0x1F1D JUMP JUMPDEST SWAP2 POP POP SWAP3 SWAP2 POP POP JUMP JUMPDEST PUSH1 0x4 DUP2 LT PUSH2 0x1F97 JUMPI PUSH0 PUSH0 REVERT JUMPDEST POP JUMP JUMPDEST PUSH0 DUP2 MLOAD SWAP1 POP PUSH2 0x1FA8 DUP2 PUSH2 0x1F8B JUMP JUMPDEST SWAP3 SWAP2 POP POP JUMP JUMPDEST PUSH0 PUSH1 0x60 DUP3 DUP5 SUB SLT ISZERO PUSH2 0x1FC3 JUMPI PUSH2 0x1FC2 PUSH2 0x1F01 JUMP JUMPDEST JUMPDEST PUSH2 0x1FCD PUSH1 0x60 PUSH2 0x1386 JUMP JUMPDEST SWAP1 POP PUSH0 PUSH2 0x1FDC DUP5 DUP3 DUP6 ADD PUSH2 0x1F09 JUMP JUMPDEST PUSH0 DUP4 ADD MSTORE POP PUSH1 0x20 DUP3 ADD MLOAD PUSH8 0xFFFFFFFFFFFFFFFF DUP2 GT ISZERO PUSH2 0x1FFF JUMPI PUSH2 0x1FFE PUSH2 0x1F05 JUMP JUMPDEST JUMPDEST PUSH2 0x200B DUP5 DUP3 DUP6 ADD PUSH2 0x1F5E JUMP JUMPDEST PUSH1 0x20 DUP4 ADD MSTORE POP PUSH1 0x40 PUSH2 0x201F DUP5 DUP3 DUP6 ADD PUSH2 0x1F9A JUMP JUMPDEST PUSH1 0x40 DUP4 ADD MSTORE POP SWAP3 SWAP2 POP POP JUMP JUMPDEST PUSH0 PUSH1 0x20 DUP3 DUP5 SUB SLT ISZERO PUSH2 0x2040 JUMPI PUSH2 0x203F PUSH2 0x1308 JUMP JUMPDEST JUMPDEST PUSH0 DUP3 ADD MLOAD PUSH8 0xFFFFFFFFFFFFFFFF DUP2 GT ISZERO PUSH2 0x205D JUMPI PUSH2 0x205C PUSH2 0x130C JUMP JUMPDEST JUMPDEST PUSH2 0x2069 DUP5 DUP3 DUP6 ADD PUSH2 0x1FAE JUMP JUMPDEST SWAP2 POP POP SWAP3 SWAP2 POP POP JUMP JUMPDEST PUSH0 PUSH1 0xC0 DUP3 ADD SWAP1 POP DUP2 DUP2 SUB PUSH0 DUP4 ADD MSTORE PUSH2 0x208A DUP2 DUP10 PUSH2 0x15DE JUMP JUMPDEST SWAP1 POP DUP2 DUP2 SUB PUSH1 0x20 DUP4 ADD MSTORE PUSH2 0x209E DUP2 DUP9 PUSH2 0x15DE JUMP JUMPDEST SWAP1 POP DUP2 DUP2 SUB PUSH1 0x40 DUP4 ADD MSTORE PUSH2 0x20B2 DUP2 DUP8 PUSH2 0x15DE JUMP JUMPDEST SWAP1 POP DUP2 DUP2 SUB PUSH1 0x60 DUP4 ADD MSTORE PUSH2 0x20C6 DUP2 DUP7 PUSH2 0x15DE JUMP JUMPDEST SWAP1 POP DUP2 DUP2 SUB PUSH1 0x80 DUP4 ADD MSTORE PUSH2 0x20DA DUP2 DUP6 PUSH2 0x15DE JUMP JUMPDEST SWAP1 POP PUSH2 0x20E9 PUSH1 0xA0 DUP4 ADD DUP5 PUSH2 0x1518 JUMP JUMPDEST SWAP8 SWAP7 POP POP POP POP POP POP POP JUMP JUMPDEST PUSH32 0x4E487B7100000000000000000000000000000000000000000000000000000000 PUSH0 MSTORE PUSH1 0x21 PUSH1 0x4 MSTORE PUSH1 0x24 PUSH0 REVERT JUMPDEST PUSH32 0x4F6E6C79206D616E7566616374757265722063616E206164642070726F647563 PUSH0 DUP3 ADD MSTORE PUSH32 0x74732E0000000000000000000000000000000000000000000000000000000000 PUSH1 0x20 DUP3 ADD MSTORE POP JUMP JUMPDEST PUSH0 PUSH2 0x217B PUSH1 0x23 DUP4 PUSH2 0x15C0 JUMP JUMPDEST SWAP2 POP PUSH2 0x2186 DUP3 PUSH2 0x2121 JUMP JUMPDEST PUSH1 0x40 DUP3 ADD SWAP1 POP SWAP2 SWAP1 POP JUMP JUMPDEST PUSH0 PUSH1 0x20 DUP3 ADD SWAP1 POP DUP2 DUP2 SUB PUSH0 DUP4 ADD MSTORE PUSH2 0x21A8 DUP2 PUSH2 0x216F JUMP JUMPDEST SWAP1 POP SWAP2 SWAP1 POP JUMP INVALID LOG2 PUSH5 0x6970667358 0x22 SLT KECCAK256 JUMP GT PUSH32 0x20566805FF537985584B0BA0938EB9D8F89A12F6D830E662D549D7E3E464736F PUSH13 0x634300081E0033000000000000 "},"methodIdentifiers":{"products()":"c71e261f","registerProduct(string,string,string,string)":"8799d6fc","registerUser(string,uint8)":"338e12eb","returnUser(address)":"bb8d6b1d","returnUserInfo(address)":"7ce7b7e0","sellProduct(address,string)":"e30d40f6","users()":"f2020275"}}}}}