{
  "_format": "hh-sol-artifact-1",
  "contractName": "Users",
  "sourceName": "contracts/Users.sol",
  "abi": [
    {
      "anonymous": false,
      "inputs": [
        {
          "indexed": false,
          "internalType": "address",
          "name": "userAddress",
          "type": "address"
        },
        {
          "indexed": false,
          "internalType": "string",
          "name": "name",
          "type": "string"
        },
        {
          "indexed": false,
          "internalType": "enum Types.UserRole",
          "name": "role",
          "type": "uint8"
        }
      ],
      "name": "NewUser",
      "type": "event"
    },
    {
      "inputs": [
        {
          "internalType": "address",
          "name": "_userAddress",
          "type": "address"
        },
        {
          "internalType": "string",
          "name": "_name",
          "type": "string"
        },
        {
          "internalType": "enum Types.UserRole",
          "name": "_role",
          "type": "uint8"
        }
      ],
      "name": "addUser",
      "outputs": [],
      "stateMutability": "nonpayable",
      "type": "function"
    },
    {
      "inputs": [
        {
          "internalType": "address",
          "name": "_addr",
          "type": "address"
        }
      ],
      "name": "getUser",
      "outputs": [
        {
          "components": [
            {
              "internalType": "address",
              "name": "userAddress",
              "type": "address"
            },
            {
              "internalType": "string",
              "name": "name",
              "type": "string"
            },
            {
              "internalType": "enum Types.UserRole",
              "name": "role",
              "type": "uint8"
            }
          ],
          "internalType": "struct Types.User",
          "name": "",
          "type": "tuple"
        }
      ],
      "stateMutability": "view",
      "type": "function"
    },
    {
      "inputs": [
        {
          "internalType": "address",
          "name": "_addr",
          "type": "address"
        }
      ],
      "name": "getUserInfo",
      "outputs": [
        {
          "internalType": "string",
          "name": "name",
          "type": "string"
        },
        {
          "internalType": "enum Types.UserRole",
          "name": "role",
          "type": "uint8"
        }
      ],
      "stateMutability": "view",
      "type": "function"
    },
    {
      "inputs": [],
      "name": "userCount",
      "outputs": [
        {
          "internalType": "uint256",
          "name": "",
          "type": "uint256"
        }
      ],
      "stateMutability": "view",
      "type": "function"
    },
    {
      "inputs": [
        {
          "internalType": "address",
          "name": "",
          "type": "address"
        }
      ],
      "name": "users",
      "outputs": [
        {
          "internalType": "address",
          "name": "userAddress",
          "type": "address"
        },
        {
          "internalType": "string",
          "name": "name",
          "type": "string"
        },
        {
          "internalType": "enum Types.UserRole",
          "name": "role",
          "type": "uint8"
        }
      ],
      "stateMutability": "view",
      "type": "function"
    }
  ],
  "bytecode": "0x608060405260008055348015601357600080fd5b50610f8e806100236000396000f3fe608060405234801561001057600080fd5b50600436106100575760003560e01c806307973ccf1461005c57806340d268541461007a5780636386c1c7146100965780636f77926b146100c7578063a87430ba146100f7575b600080fd5b610064610129565b6040516100719190610736565b60405180910390f35b610094600480360381019061008f919061092e565b61012f565b005b6100b060048036038101906100ab919061099d565b6102f1565b6040516100be929190610ac0565b60405180910390f35b6100e160048036038101906100dc919061099d565b610479565b6040516100ee9190610ba8565b60405180910390f35b610111600480360381019061010c919061099d565b6105f5565b60405161012093929190610bd9565b60405180910390f35b60005481565b6000600160008573ffffffffffffffffffffffffffffffffffffffff1673ffffffffffffffffffffffffffffffffffffffff168152602001908152602001600020600101805461017e90610c46565b90500361019f5760016000808282546101979190610ca6565b925050819055505b60405180606001604052808473ffffffffffffffffffffffffffffffffffffffff1681526020018381526020018260038111156101df576101de610a49565b5b815250600160008573ffffffffffffffffffffffffffffffffffffffff1673ffffffffffffffffffffffffffffffffffffffff16815260200190815260200160002060008201518160000160006101000a81548173ffffffffffffffffffffffffffffffffffffffff021916908373ffffffffffffffffffffffffffffffffffffffff160217905550602082015181600101908161027d9190610e86565b5060408201518160020160006101000a81548160ff021916908360038111156102a9576102a8610a49565b5b02179055509050507f04fa57b893b1c3dc318e342db752c035852d43e24481a0e21cce7bd5877f96178383836040516102e493929190610bd9565b60405180910390a1505050565b6060600080600160008573ffffffffffffffffffffffffffffffffffffffff1673ffffffffffffffffffffffffffffffffffffffff1681526020019081526020016000206040518060600160405290816000820160009054906101000a900473ffffffffffffffffffffffffffffffffffffffff1673ffffffffffffffffffffffffffffffffffffffff1673ffffffffffffffffffffffffffffffffffffffff1681526020016001820180546103a690610c46565b80601f01602080910402602001604051908101604052809291908181526020018280546103d290610c46565b801561041f5780601f106103f45761010080835404028352916020019161041f565b820191906000526020600020905b81548152906001019060200180831161040257829003601f168201915b505050505081526020016002820160009054906101000a900460ff16600381111561044d5761044c610a49565b5b600381111561045f5761045e610a49565b5b815250509050806020015181604001519250925050915091565b6104816106d4565b600160008373ffffffffffffffffffffffffffffffffffffffff1673ffffffffffffffffffffffffffffffffffffffff1681526020019081526020016000206040518060600160405290816000820160009054906101000a900473ffffffffffffffffffffffffffffffffffffffff1673ffffffffffffffffffffffffffffffffffffffff1673ffffffffffffffffffffffffffffffffffffffff16815260200160018201805461053190610c46565b80601f016020809104026020016040519081016040528092919081815260200182805461055d90610c46565b80156105aa5780601f1061057f576101008083540402835291602001916105aa565b820191906000526020600020905b81548152906001019060200180831161058d57829003601f168201915b505050505081526020016002820160009054906101000a900460ff1660038111156105d8576105d7610a49565b5b60038111156105ea576105e9610a49565b5b815250509050919050565b60016020528060005260406000206000915090508060000160009054906101000a900473ffffffffffffffffffffffffffffffffffffffff169080600101805461063e90610c46565b80601f016020809104026020016040519081016040528092919081815260200182805461066a90610c46565b80156106b75780601f1061068c576101008083540402835291602001916106b7565b820191906000526020600020905b81548152906001019060200180831161069a57829003601f168201915b5050505050908060020160009054906101000a900460ff16905083565b6040518060600160405280600073ffffffffffffffffffffffffffffffffffffffff168152602001606081526020016000600381111561071757610716610a49565b5b81525090565b6000819050919050565b6107308161071d565b82525050565b600060208201905061074b6000830184610727565b92915050565b6000604051905090565b600080fd5b600080fd5b600073ffffffffffffffffffffffffffffffffffffffff82169050919050565b600061079082610765565b9050919050565b6107a081610785565b81146107ab57600080fd5b50565b6000813590506107bd81610797565b92915050565b600080fd5b600080fd5b6000601f19601f8301169050919050565b7f4e487b7100000000000000000000000000000000000000000000000000000000600052604160045260246000fd5b610816826107cd565b810181811067ffffffffffffffff82111715610835576108346107de565b5b80604052505050565b6000610848610751565b9050610854828261080d565b919050565b600067ffffffffffffffff821115610874576108736107de565b5b61087d826107cd565b9050602081019050919050565b82818337600083830152505050565b60006108ac6108a784610859565b61083e565b9050828152602081018484840111156108c8576108c76107c8565b5b6108d384828561088a565b509392505050565b600082601f8301126108f0576108ef6107c3565b5b8135610900848260208601610899565b91505092915050565b6004811061091657600080fd5b50565b60008135905061092881610909565b92915050565b6000806000606084860312156109475761094661075b565b5b6000610955868287016107ae565b935050602084013567ffffffffffffffff81111561097657610975610760565b5b610982868287016108db565b925050604061099386828701610919565b9150509250925092565b6000602082840312156109b3576109b261075b565b5b60006109c1848285016107ae565b91505092915050565b600081519050919050565b600082825260208201905092915050565b60005b83811015610a045780820151818401526020810190506109e9565b60008484015250505050565b6000610a1b826109ca565b610a2581856109d5565b9350610a358185602086016109e6565b610a3e816107cd565b840191505092915050565b7f4e487b7100000000000000000000000000000000000000000000000000000000600052602160045260246000fd5b60048110610a8957610a88610a49565b5b50565b6000819050610a9a82610a78565b919050565b6000610aaa82610a8c565b9050919050565b610aba81610a9f565b82525050565b60006040820190508181036000830152610ada8185610a10565b9050610ae96020830184610ab1565b9392505050565b610af981610785565b82525050565b600082825260208201905092915050565b6000610b1b826109ca565b610b258185610aff565b9350610b358185602086016109e6565b610b3e816107cd565b840191505092915050565b610b5281610a9f565b82525050565b6000606083016000830151610b706000860182610af0565b5060208301518482036020860152610b888282610b10565b9150506040830151610b9d6040860182610b49565b508091505092915050565b60006020820190508181036000830152610bc28184610b58565b905092915050565b610bd381610785565b82525050565b6000606082019050610bee6000830186610bca565b8181036020830152610c008185610a10565b9050610c0f6040830184610ab1565b949350505050565b7f4e487b7100000000000000000000000000000000000000000000000000000000600052602260045260246000fd5b60006002820490506001821680610c5e57607f821691505b602082108103610c7157610c70610c17565b5b50919050565b7f4e487b7100000000000000000000000000000000000000000000000000000000600052601160045260246000fd5b6000610cb18261071d565b9150610cbc8361071d565b9250828201905080821115610cd457610cd3610c77565b5b92915050565b60008190508160005260206000209050919050565b60006020601f8301049050919050565b600082821b905092915050565b600060088302610d3c7fffffffffffffffffffffffffffffffffffffffffffffffffffffffffffffffff82610cff565b610d468683610cff565b95508019841693508086168417925050509392505050565b6000819050919050565b6000610d83610d7e610d798461071d565b610d5e565b61071d565b9050919050565b6000819050919050565b610d9d83610d68565b610db1610da982610d8a565b848454610d0c565b825550505050565b600090565b610dc6610db9565b610dd1818484610d94565b505050565b5b81811015610df557610dea600082610dbe565b600181019050610dd7565b5050565b601f821115610e3a57610e0b81610cda565b610e1484610cef565b81016020851015610e23578190505b610e37610e2f85610cef565b830182610dd6565b50505b505050565b600082821c905092915050565b6000610e5d60001984600802610e3f565b1980831691505092915050565b6000610e768383610e4c565b9150826002028217905092915050565b610e8f826109ca565b67ffffffffffffffff811115610ea857610ea76107de565b5b610eb28254610c46565b610ebd828285610df9565b600060209050601f831160018114610ef05760008415610ede578287015190505b610ee88582610e6a565b865550610f50565b601f198416610efe86610cda565b60005b82811015610f2657848901518255600182019150602085019450602081019050610f01565b86831015610f435784890151610f3f601f891682610e4c565b8355505b6001600288020188555050505b50505050505056fea264697066735822122052fc6279d24938edaf6b5c5b6f516bd0b5eec674cb661b8401c418e886fa3ede64736f6c634300081e0033",
  "linkReferences": {},
  "deployedLinkReferences": {}
}