{
  "_format": "hh3-artifact-1",
  "contractName": "Users",
  "sourceName": "contracts/Users.sol",
  "abi": [
    {
      "anonymous": false,
      "inputs": [
        {
          "indexed": false,
          "internalType": "address",
          "name": "userAddress",
          "type": "address"
        },
        {
          "indexed": false,
          "internalType": "string",
          "name": "name",
          "type": "string"
        },
        {
          "indexed": false,
          "internalType": "enum Types.UserRole",
          "name": "role",
          "type": "uint8"
        }
      ],
      "name": "NewUser",
      "type": "event"
    },
    {
      "inputs": [
        {
          "internalType": "string",
          "name": "_name",
          "type": "string"
        },
        {
          "internalType": "enum Types.UserRole",
          "name": "_role",
          "type": "uint8"
        }
      ],
      "name": "addUser",
      "outputs": [],
      "stateMutability": "nonpayable",
      "type": "function"
    },
    {
      "inputs": [
        {
          "internalType": "address",
          "name": "_addr",
          "type": "address"
        }
      ],
      "name": "getUser",
      "outputs": [
        {
          "components": [
            {
              "internalType": "address",
              "name": "userAddress",
              "type": "address"
            },
            {
              "internalType": "string",
              "name": "name",
              "type": "string"
            },
            {
              "internalType": "enum Types.UserRole",
              "name": "role",
              "type": "uint8"
            }
          ],
          "internalType": "struct Types.User",
          "name": "",
          "type": "tuple"
        }
      ],
      "stateMutability": "view",
      "type": "function"
    },
    {
      "inputs": [
        {
          "internalType": "address",
          "name": "_addr",
          "type": "address"
        }
      ],
      "name": "getUserInfo",
      "outputs": [
        {
          "internalType": "string",
          "name": "name",
          "type": "string"
        },
        {
          "internalType": "enum Types.UserRole",
          "name": "role",
          "type": "uint8"
        }
      ],
      "stateMutability": "view",
      "type": "function"
    },
    {
      "inputs": [],
      "name": "userCount",
      "outputs": [
        {
          "internalType": "uint256",
          "name": "",
          "type": "uint256"
        }
      ],
      "stateMutability": "view",
      "type": "function"
    },
    {
      "inputs": [
        {
          "internalType": "address",
          "name": "",
          "type": "address"
        }
      ],
      "name": "users",
      "outputs": [
        {
          "internalType": "address",
          "name": "userAddress",
          "type": "address"
        },
        {
          "internalType": "string",
          "name": "name",
          "type": "string"
        },
        {
          "internalType": "enum Types.UserRole",
          "name": "role",
          "type": "uint8"
        }
      ],
      "stateMutability": "view",
      "type": "function"
    }
  ],
  "bytecode": "0x60806040525f5f553480156011575f5ffd5b50610ea78061001f5f395ff3fe608060405234801561000f575f5ffd5b5060043610610055575f3560e01c806307973ccf1461005957806318edda4f146100775780636386c1c7146100935780636f77926b146100c4578063a87430ba146100f4575b5f5ffd5b610061610126565b60405161006e91906106be565b60405180910390f35b610091600480360381019061008c9190610847565b61012b565b005b6100ad60048036038101906100a891906108fb565b61028e565b6040516100bb9291906109f9565b60405180910390f35b6100de60048036038101906100d991906108fb565b61040e565b6040516100eb9190610ada565b60405180910390f35b61010e600480360381019061010991906108fb565b610588565b60405161011d93929190610b09565b60405180910390f35b5f5481565b60015f5f82825461013c9190610b72565b9250508190555060405180606001604052803373ffffffffffffffffffffffffffffffffffffffff16815260200183815260200182600381111561018357610182610986565b5b81525060015f3373ffffffffffffffffffffffffffffffffffffffff1673ffffffffffffffffffffffffffffffffffffffff1681526020019081526020015f205f820151815f015f6101000a81548173ffffffffffffffffffffffffffffffffffffffff021916908373ffffffffffffffffffffffffffffffffffffffff160217905550602082015181600101908161021c9190610da2565b506040820151816002015f6101000a81548160ff0219169083600381111561024757610246610986565b5b02179055509050507f04fa57b893b1c3dc318e342db752c035852d43e24481a0e21cce7bd5877f961733838360405161028293929190610b09565b60405180910390a15050565b60605f5f60015f8573ffffffffffffffffffffffffffffffffffffffff1673ffffffffffffffffffffffffffffffffffffffff1681526020019081526020015f206040518060600160405290815f82015f9054906101000a900473ffffffffffffffffffffffffffffffffffffffff1673ffffffffffffffffffffffffffffffffffffffff1673ffffffffffffffffffffffffffffffffffffffff16815260200160018201805461033e90610bd2565b80601f016020809104026020016040519081016040528092919081815260200182805461036a90610bd2565b80156103b55780601f1061038c576101008083540402835291602001916103b5565b820191905f5260205f20905b81548152906001019060200180831161039857829003601f168201915b50505050508152602001600282015f9054906101000a900460ff1660038111156103e2576103e1610986565b5b60038111156103f4576103f3610986565b5b815250509050806020015181604001519250925050915091565b61041661065f565b5f60015f8473ffffffffffffffffffffffffffffffffffffffff1673ffffffffffffffffffffffffffffffffffffffff1681526020019081526020015f206040518060600160405290815f82015f9054906101000a900473ffffffffffffffffffffffffffffffffffffffff1673ffffffffffffffffffffffffffffffffffffffff1673ffffffffffffffffffffffffffffffffffffffff1681526020016001820180546104c390610bd2565b80601f01602080910402602001604051908101604052809291908181526020018280546104ef90610bd2565b801561053a5780601f106105115761010080835404028352916020019161053a565b820191905f5260205f20905b81548152906001019060200180831161051d57829003601f168201915b50505050508152602001600282015f9054906101000a900460ff16600381111561056757610566610986565b5b600381111561057957610578610986565b5b81525050905080915050919050565b6001602052805f5260405f205f91509050805f015f9054906101000a900473ffffffffffffffffffffffffffffffffffffffff16908060010180546105cc90610bd2565b80601f01602080910402602001604051908101604052809291908181526020018280546105f890610bd2565b80156106435780601f1061061a57610100808354040283529160200191610643565b820191905f5260205f20905b81548152906001019060200180831161062657829003601f168201915b505050505090806002015f9054906101000a900460ff16905083565b60405180606001604052805f73ffffffffffffffffffffffffffffffffffffffff168152602001606081526020015f60038111156106a05761069f610986565b5b81525090565b5f819050919050565b6106b8816106a6565b82525050565b5f6020820190506106d15f8301846106af565b92915050565b5f604051905090565b5f5ffd5b5f5ffd5b5f5ffd5b5f5ffd5b5f601f19601f8301169050919050565b7f4e487b71000000000000000000000000000000000000000000000000000000005f52604160045260245ffd5b610736826106f0565b810181811067ffffffffffffffff8211171561075557610754610700565b5b80604052505050565b5f6107676106d7565b9050610773828261072d565b919050565b5f67ffffffffffffffff82111561079257610791610700565b5b61079b826106f0565b9050602081019050919050565b828183375f83830152505050565b5f6107c86107c384610778565b61075e565b9050828152602081018484840111156107e4576107e36106ec565b5b6107ef8482856107a8565b509392505050565b5f82601f83011261080b5761080a6106e8565b5b813561081b8482602086016107b6565b91505092915050565b60048110610830575f5ffd5b50565b5f8135905061084181610824565b92915050565b5f5f6040838503121561085d5761085c6106e0565b5b5f83013567ffffffffffffffff81111561087a576108796106e4565b5b610886858286016107f7565b925050602061089785828601610833565b9150509250929050565b5f73ffffffffffffffffffffffffffffffffffffffff82169050919050565b5f6108ca826108a1565b9050919050565b6108da816108c0565b81146108e4575f5ffd5b50565b5f813590506108f5816108d1565b92915050565b5f602082840312156109105761090f6106e0565b5b5f61091d848285016108e7565b91505092915050565b5f81519050919050565b5f82825260208201905092915050565b8281835e5f83830152505050565b5f61095882610926565b6109628185610930565b9350610972818560208601610940565b61097b816106f0565b840191505092915050565b7f4e487b71000000000000000000000000000000000000000000000000000000005f52602160045260245ffd5b600481106109c4576109c3610986565b5b50565b5f8190506109d4826109b3565b919050565b5f6109e3826109c7565b9050919050565b6109f3816109d9565b82525050565b5f6040820190508181035f830152610a11818561094e565b9050610a2060208301846109ea565b9392505050565b610a30816108c0565b82525050565b5f82825260208201905092915050565b5f610a5082610926565b610a5a8185610a36565b9350610a6a818560208601610940565b610a73816106f0565b840191505092915050565b610a87816109d9565b82525050565b5f606083015f830151610aa25f860182610a27565b5060208301518482036020860152610aba8282610a46565b9150506040830151610acf6040860182610a7e565b508091505092915050565b5f6020820190508181035f830152610af28184610a8d565b905092915050565b610b03816108c0565b82525050565b5f606082019050610b1c5f830186610afa565b8181036020830152610b2e818561094e565b9050610b3d60408301846109ea565b949350505050565b7f4e487b71000000000000000000000000000000000000000000000000000000005f52601160045260245ffd5b5f610b7c826106a6565b9150610b87836106a6565b9250828201905080821115610b9f57610b9e610b45565b5b92915050565b7f4e487b71000000000000000000000000000000000000000000000000000000005f52602260045260245ffd5b5f6002820490506001821680610be957607f821691505b602082108103610bfc57610bfb610ba5565b5b50919050565b5f819050815f5260205f209050919050565b5f6020601f8301049050919050565b5f82821b905092915050565b5f60088302610c5e7fffffffffffffffffffffffffffffffffffffffffffffffffffffffffffffffff82610c23565b610c688683610c23565b95508019841693508086168417925050509392505050565b5f819050919050565b5f610ca3610c9e610c99846106a6565b610c80565b6106a6565b9050919050565b5f819050919050565b610cbc83610c89565b610cd0610cc882610caa565b848454610c2f565b825550505050565b5f5f905090565b610ce7610cd8565b610cf2818484610cb3565b505050565b5b81811015610d1557610d0a5f82610cdf565b600181019050610cf8565b5050565b601f821115610d5a57610d2b81610c02565b610d3484610c14565b81016020851015610d43578190505b610d57610d4f85610c14565b830182610cf7565b50505b505050565b5f82821c905092915050565b5f610d7a5f1984600802610d5f565b1980831691505092915050565b5f610d928383610d6b565b9150826002028217905092915050565b610dab82610926565b67ffffffffffffffff811115610dc457610dc3610700565b5b610dce8254610bd2565b610dd9828285610d19565b5f60209050601f831160018114610e0a575f8415610df8578287015190505b610e028582610d87565b865550610e69565b601f198416610e1886610c02565b5f5b82811015610e3f57848901518255600182019150602085019450602081019050610e1a565b86831015610e5c5784890151610e58601f891682610d6b565b8355505b6001600288020188555050505b50505050505056fea264697066735822122027685f154ed33d83552c10a910da775b3e635659c56fa1b02f7e5abf7732dcb864736f6c634300081e0033",
  "linkReferences": {},
  "deployedLinkReferences": {},
  "immutableReferences": {},
  "inputSourceName": "project/contracts/Users.sol",
  "buildInfoId": "solc-0_8_30-972082e6b455d4a9bc67c3d799dc97418f8bf30d"
}