{
  "_format": "hh-sol-artifact-1",
  "contractName": "Users",
  "sourceName": "contracts/Users.sol",
  "abi": [
    {
      "anonymous": false,
      "inputs": [
        {
          "indexed": false,
          "internalType": "address",
          "name": "userAddress",
          "type": "address"
        },
        {
          "indexed": false,
          "internalType": "string",
          "name": "name",
          "type": "string"
        },
        {
          "indexed": false,
          "internalType": "enum Types.UserRole",
          "name": "role",
          "type": "uint8"
        },
        {
          "indexed": false,
          "internalType": "string",
          "name": "publicKey",
          "type": "string"
        }
      ],
      "name": "NewUser",
      "type": "event"
    },
    {
      "inputs": [
        {
          "internalType": "address",
          "name": "_userAddress",
          "type": "address"
        },
        {
          "internalType": "string",
          "name": "_name",
          "type": "string"
        },
        {
          "internalType": "enum Types.UserRole",
          "name": "_role",
          "type": "uint8"
        },
        {
          "internalType": "string",
          "name": "_publicKey",
          "type": "string"
        }
      ],
      "name": "addUser",
      "outputs": [],
      "stateMutability": "nonpayable",
      "type": "function"
    },
    {
      "inputs": [
        {
          "internalType": "address",
          "name": "_addr",
          "type": "address"
        }
      ],
      "name": "getUser",
      "outputs": [
        {
          "components": [
            {
              "internalType": "address",
              "name": "userAddress",
              "type": "address"
            },
            {
              "internalType": "string",
              "name": "name",
              "type": "string"
            },
            {
              "internalType": "enum Types.UserRole",
              "name": "role",
              "type": "uint8"
            },
            {
              "internalType": "string",
              "name": "publicKey",
              "type": "string"
            }
          ],
          "internalType": "struct Types.User",
          "name": "",
          "type": "tuple"
        }
      ],
      "stateMutability": "view",
      "type": "function"
    },
    {
      "inputs": [
        {
          "internalType": "string",
          "name": "_publicKey",
          "type": "string"
        }
      ],
      "name": "getUserByPublicKey",
      "outputs": [
        {
          "components": [
            {
              "internalType": "address",
              "name": "userAddress",
              "type": "address"
            },
            {
              "internalType": "string",
              "name": "name",
              "type": "string"
            },
            {
              "internalType": "enum Types.UserRole",
              "name": "role",
              "type": "uint8"
            },
            {
              "internalType": "string",
              "name": "publicKey",
              "type": "string"
            }
          ],
          "internalType": "struct Types.User",
          "name": "",
          "type": "tuple"
        }
      ],
      "stateMutability": "view",
      "type": "function"
    },
    {
      "inputs": [
        {
          "internalType": "address",
          "name": "_addr",
          "type": "address"
        }
      ],
      "name": "getUserInfo",
      "outputs": [
        {
          "internalType": "string",
          "name": "name",
          "type": "string"
        },
        {
          "internalType": "enum Types.UserRole",
          "name": "role",
          "type": "uint8"
        }
      ],
      "stateMutability": "view",
      "type": "function"
    },
    {
      "inputs": [
        {
          "internalType": "string",
          "name": "",
          "type": "string"
        }
      ],
      "name": "publicKeyToAddress",
      "outputs": [
        {
          "internalType": "address",
          "name": "",
          "type": "address"
        }
      ],
      "stateMutability": "view",
      "type": "function"
    },
    {
      "inputs": [],
      "name": "userCount",
      "outputs": [
        {
          "internalType": "uint256",
          "name": "",
          "type": "uint256"
        }
      ],
      "stateMutability": "view",
      "type": "function"
    },
    {
      "inputs": [
        {
          "internalType": "address",
          "name": "",
          "type": "address"
        }
      ],
      "name": "users",
      "outputs": [
        {
          "internalType": "address",
          "name": "userAddress",
          "type": "address"
        },
        {
          "internalType": "string",
          "name": "name",
          "type": "string"
        },
        {
          "internalType": "enum Types.UserRole",
          "name": "role",
          "type": "uint8"
        },
        {
          "internalType": "string",
          "name": "publicKey",
          "type": "string"
        }
      ],
      "stateMutability": "view",
      "type": "function"
    }
  ],
  "bytecode": "0x608060405260008055348015601357600080fd5b506117ef806100236000396000f3fe608060405234801561001057600080fd5b506004361061007d5760003560e01c80636f77926b1161005b5780636f77926b146100ed578063804884061461011d578063a87430ba1461014d578063db35369a146101805761007d565b806307973ccf146100825780636386c1c7146100a057806365a410a3146100d1575b600080fd5b61008a6101b0565b6040516100979190610da9565b60405180910390f35b6100ba60048036038101906100b59190610e36565b6101b6565b6040516100c8929190610f6a565b60405180910390f35b6100eb60048036038101906100e691906110f4565b6103d0565b005b61010760048036038101906101029190610e36565b6106bb565b6040516101149190611265565b60405180910390f35b61013760048036038101906101329190611287565b6108c9565b60405161014491906112df565b60405180910390f35b61016760048036038101906101629190610e36565b610912565b60405161017794939291906112fa565b60405180910390f35b61019a60048036038101906101959190611287565b610a7f565b6040516101a79190611265565b60405180910390f35b60005481565b6060600080600160008573ffffffffffffffffffffffffffffffffffffffff1673ffffffffffffffffffffffffffffffffffffffff1681526020019081526020016000206040518060800160405290816000820160009054906101000a900473ffffffffffffffffffffffffffffffffffffffff1673ffffffffffffffffffffffffffffffffffffffff1673ffffffffffffffffffffffffffffffffffffffff16815260200160018201805461026b9061137c565b80601f01602080910402602001604051908101604052809291908181526020018280546102979061137c565b80156102e45780601f106102b9576101008083540402835291602001916102e4565b820191906000526020600020905b8154815290600101906020018083116102c757829003601f168201915b505050505081526020016002820160009054906101000a900460ff16600381111561031257610311610ef3565b5b600381111561032457610323610ef3565b5b81526020016003820180546103389061137c565b80601f01602080910402602001604051908101604052809291908181526020018280546103649061137c565b80156103b15780601f10610386576101008083540402835291602001916103b1565b820191906000526020600020905b81548152906001019060200180831161039457829003601f168201915b5050505050815250509050806020015181604001519250925050915091565b6000600160008673ffffffffffffffffffffffffffffffffffffffff1673ffffffffffffffffffffffffffffffffffffffff168152602001908152602001600020600101805461041f9061137c565b90500361044057600160008082825461043891906113dc565b925050819055505b600073ffffffffffffffffffffffffffffffffffffffff16600282604051610468919061144c565b908152602001604051809103902060009054906101000a900473ffffffffffffffffffffffffffffffffffffffff1673ffffffffffffffffffffffffffffffffffffffff16146104ed576040517f08c379a00000000000000000000000000000000000000000000000000000000081526004016104e4906114af565b60405180910390fd5b60405180608001604052808573ffffffffffffffffffffffffffffffffffffffff16815260200184815260200183600381111561052d5761052c610ef3565b5b815260200182815250600160008673ffffffffffffffffffffffffffffffffffffffff1673ffffffffffffffffffffffffffffffffffffffff16815260200190815260200160002060008201518160000160006101000a81548173ffffffffffffffffffffffffffffffffffffffff021916908373ffffffffffffffffffffffffffffffffffffffff16021790555060208201518160010190816105d1919061167b565b5060408201518160020160006101000a81548160ff021916908360038111156105fd576105fc610ef3565b5b02179055506060820151816003019081610617919061167b565b509050508360028260405161062c919061144c565b908152602001604051809103902060006101000a81548173ffffffffffffffffffffffffffffffffffffffff021916908373ffffffffffffffffffffffffffffffffffffffff1602179055507fbe9ab7dde44ff4824def81f78d525b2691b77ec165e3ea54f718c5b9a0b8c4e5848484846040516106ad94939291906112fa565b60405180910390a150505050565b6106c3610d40565b600160008373ffffffffffffffffffffffffffffffffffffffff1673ffffffffffffffffffffffffffffffffffffffff1681526020019081526020016000206040518060800160405290816000820160009054906101000a900473ffffffffffffffffffffffffffffffffffffffff1673ffffffffffffffffffffffffffffffffffffffff1673ffffffffffffffffffffffffffffffffffffffff1681526020016001820180546107739061137c565b80601f016020809104026020016040519081016040528092919081815260200182805461079f9061137c565b80156107ec5780601f106107c1576101008083540402835291602001916107ec565b820191906000526020600020905b8154815290600101906020018083116107cf57829003601f168201915b505050505081526020016002820160009054906101000a900460ff16600381111561081a57610819610ef3565b5b600381111561082c5761082b610ef3565b5b81526020016003820180546108409061137c565b80601f016020809104026020016040519081016040528092919081815260200182805461086c9061137c565b80156108b95780601f1061088e576101008083540402835291602001916108b9565b820191906000526020600020905b81548152906001019060200180831161089c57829003601f168201915b5050505050815250509050919050565b6002818051602081018201805184825260208301602085012081835280955050505050506000915054906101000a900473ffffffffffffffffffffffffffffffffffffffff1681565b60016020528060005260406000206000915090508060000160009054906101000a900473ffffffffffffffffffffffffffffffffffffffff169080600101805461095b9061137c565b80601f01602080910402602001604051908101604052809291908181526020018280546109879061137c565b80156109d45780601f106109a9576101008083540402835291602001916109d4565b820191906000526020600020905b8154815290600101906020018083116109b757829003601f168201915b5050505050908060020160009054906101000a900460ff16908060030180546109fc9061137c565b80601f0160208091040260200160405190810160405280929190818152602001828054610a289061137c565b8015610a755780601f10610a4a57610100808354040283529160200191610a75565b820191906000526020600020905b815481529060010190602001808311610a5857829003601f168201915b5050505050905084565b610a87610d40565b6000600283604051610a99919061144c565b908152602001604051809103902060009054906101000a900473ffffffffffffffffffffffffffffffffffffffff169050600073ffffffffffffffffffffffffffffffffffffffff168173ffffffffffffffffffffffffffffffffffffffff1603610b39576040517f08c379a0000000000000000000000000000000000000000000000000000000008152600401610b3090611799565b60405180910390fd5b600160008273ffffffffffffffffffffffffffffffffffffffff1673ffffffffffffffffffffffffffffffffffffffff1681526020019081526020016000206040518060800160405290816000820160009054906101000a900473ffffffffffffffffffffffffffffffffffffffff1673ffffffffffffffffffffffffffffffffffffffff1673ffffffffffffffffffffffffffffffffffffffff168152602001600182018054610be99061137c565b80601f0160208091040260200160405190810160405280929190818152602001828054610c159061137c565b8015610c625780601f10610c3757610100808354040283529160200191610c62565b820191906000526020600020905b815481529060010190602001808311610c4557829003601f168201915b505050505081526020016002820160009054906101000a900460ff166003811115610c9057610c8f610ef3565b5b6003811115610ca257610ca1610ef3565b5b8152602001600382018054610cb69061137c565b80601f0160208091040260200160405190810160405280929190818152602001828054610ce29061137c565b8015610d2f5780601f10610d0457610100808354040283529160200191610d2f565b820191906000526020600020905b815481529060010190602001808311610d1257829003601f168201915b505050505081525050915050919050565b6040518060800160405280600073ffffffffffffffffffffffffffffffffffffffff1681526020016060815260200160006003811115610d8357610d82610ef3565b5b8152602001606081525090565b6000819050919050565b610da381610d90565b82525050565b6000602082019050610dbe6000830184610d9a565b92915050565b6000604051905090565b600080fd5b600080fd5b600073ffffffffffffffffffffffffffffffffffffffff82169050919050565b6000610e0382610dd8565b9050919050565b610e1381610df8565b8114610e1e57600080fd5b50565b600081359050610e3081610e0a565b92915050565b600060208284031215610e4c57610e4b610dce565b5b6000610e5a84828501610e21565b91505092915050565b600081519050919050565b600082825260208201905092915050565b60005b83811015610e9d578082015181840152602081019050610e82565b60008484015250505050565b6000601f19601f8301169050919050565b6000610ec582610e63565b610ecf8185610e6e565b9350610edf818560208601610e7f565b610ee881610ea9565b840191505092915050565b7f4e487b7100000000000000000000000000000000000000000000000000000000600052602160045260246000fd5b60048110610f3357610f32610ef3565b5b50565b6000819050610f4482610f22565b919050565b6000610f5482610f36565b9050919050565b610f6481610f49565b82525050565b60006040820190508181036000830152610f848185610eba565b9050610f936020830184610f5b565b9392505050565b600080fd5b600080fd5b7f4e487b7100000000000000000000000000000000000000000000000000000000600052604160045260246000fd5b610fdc82610ea9565b810181811067ffffffffffffffff82111715610ffb57610ffa610fa4565b5b80604052505050565b600061100e610dc4565b905061101a8282610fd3565b919050565b600067ffffffffffffffff82111561103a57611039610fa4565b5b61104382610ea9565b9050602081019050919050565b82818337600083830152505050565b600061107261106d8461101f565b611004565b90508281526020810184848401111561108e5761108d610f9f565b5b611099848285611050565b509392505050565b600082601f8301126110b6576110b5610f9a565b5b81356110c684826020860161105f565b91505092915050565b600481106110dc57600080fd5b50565b6000813590506110ee816110cf565b92915050565b6000806000806080858703121561110e5761110d610dce565b5b600061111c87828801610e21565b945050602085013567ffffffffffffffff81111561113d5761113c610dd3565b5b611149878288016110a1565b935050604061115a878288016110df565b925050606085013567ffffffffffffffff81111561117b5761117a610dd3565b5b611187878288016110a1565b91505092959194509250565b61119c81610df8565b82525050565b600082825260208201905092915050565b60006111be82610e63565b6111c881856111a2565b93506111d8818560208601610e7f565b6111e181610ea9565b840191505092915050565b6111f581610f49565b82525050565b60006080830160008301516112136000860182611193565b506020830151848203602086015261122b82826111b3565b915050604083015161124060408601826111ec565b506060830151848203606086015261125882826111b3565b9150508091505092915050565b6000602082019050818103600083015261127f81846111fb565b905092915050565b60006020828403121561129d5761129c610dce565b5b600082013567ffffffffffffffff8111156112bb576112ba610dd3565b5b6112c7848285016110a1565b91505092915050565b6112d981610df8565b82525050565b60006020820190506112f460008301846112d0565b92915050565b600060808201905061130f60008301876112d0565b81810360208301526113218186610eba565b90506113306040830185610f5b565b81810360608301526113428184610eba565b905095945050505050565b7f4e487b7100000000000000000000000000000000000000000000000000000000600052602260045260246000fd5b6000600282049050600182168061139457607f821691505b6020821081036113a7576113a661134d565b5b50919050565b7f4e487b7100000000000000000000000000000000000000000000000000000000600052601160045260246000fd5b60006113e782610d90565b91506113f283610d90565b925082820190508082111561140a576114096113ad565b5b92915050565b600081905092915050565b600061142682610e63565b6114308185611410565b9350611440818560208601610e7f565b80840191505092915050565b6000611458828461141b565b915081905092915050565b7f5075626c6963206b657920616c72656164792072656769737465726564000000600082015250565b6000611499601d83610e6e565b91506114a482611463565b602082019050919050565b600060208201905081810360008301526114c88161148c565b9050919050565b60008190508160005260206000209050919050565b60006020601f8301049050919050565b600082821b905092915050565b6000600883026115317fffffffffffffffffffffffffffffffffffffffffffffffffffffffffffffffff826114f4565b61153b86836114f4565b95508019841693508086168417925050509392505050565b6000819050919050565b600061157861157361156e84610d90565b611553565b610d90565b9050919050565b6000819050919050565b6115928361155d565b6115a661159e8261157f565b848454611501565b825550505050565b600090565b6115bb6115ae565b6115c6818484611589565b505050565b5b818110156115ea576115df6000826115b3565b6001810190506115cc565b5050565b601f82111561162f57611600816114cf565b611609846114e4565b81016020851015611618578190505b61162c611624856114e4565b8301826115cb565b50505b505050565b600082821c905092915050565b600061165260001984600802611634565b1980831691505092915050565b600061166b8383611641565b9150826002028217905092915050565b61168482610e63565b67ffffffffffffffff81111561169d5761169c610fa4565b5b6116a7825461137c565b6116b28282856115ee565b600060209050601f8311600181146116e557600084156116d3578287015190505b6116dd858261165f565b865550611745565b601f1984166116f3866114cf565b60005b8281101561171b578489015182556001820191506020850194506020810190506116f6565b868310156117385784890151611734601f891682611641565b8355505b6001600288020188555050505b505050505050565b7f55736572206e6f7420666f756e64000000000000000000000000000000000000600082015250565b6000611783600e83610e6e565b915061178e8261174d565b602082019050919050565b600060208201905081810360008301526117b281611776565b905091905056fea2646970667358221220f02c09f4d151026e6da67287f1b36e6a8bc1adbc455fc978eb3c0da869a42fe664736f6c634300081e0033",
  "linkReferences": {},
  "deployedLinkReferences": {}
}