{
  "_format": "hh-sol-artifact-1",
  "contractName": "SupplyChain",
  "sourceName": "contracts/SupplyChain.sol",
  "abi": [
    {
      "inputs": [
        {
          "internalType": "address",
          "name": "_users",
          "type": "address"
        },
        {
          "internalType": "address",
          "name": "_products",
          "type": "address"
        }
      ],
      "stateMutability": "nonpayable",
      "type": "constructor"
    },
    {
      "inputs": [
        {
          "internalType": "address",
          "name": "seller",
          "type": "address"
        },
        {
          "internalType": "address",
          "name": "buyer",
          "type": "address"
        }
      ],
      "name": "isSaleAllowed",
      "outputs": [
        {
          "internalType": "bool",
          "name": "",
          "type": "bool"
        }
      ],
      "stateMutability": "view",
      "type": "function"
    },
    {
      "inputs": [
        {
          "internalType": "address",
          "name": "user",
          "type": "address"
        }
      ],
      "name": "isUserManufacturer",
      "outputs": [
        {
          "internalType": "bool",
          "name": "",
          "type": "bool"
        }
      ],
      "stateMutability": "view",
      "type": "function"
    },
    {
      "inputs": [],
      "name": "products",
      "outputs": [
        {
          "internalType": "contract Products",
          "name": "",
          "type": "address"
        }
      ],
      "stateMutability": "view",
      "type": "function"
    },
    {
      "inputs": [
        {
          "internalType": "string",
          "name": "_name",
          "type": "string"
        },
        {
          "internalType": "string",
          "name": "_manufacturerName",
          "type": "string"
        },
        {
          "internalType": "string",
          "name": "_barcode",
          "type": "string"
        },
        {
          "internalType": "string",
          "name": "_manufacturedTime",
          "type": "string"
        }
      ],
      "name": "registerProduct",
      "outputs": [],
      "stateMutability": "nonpayable",
      "type": "function"
    },
    {
      "inputs": [
        {
          "internalType": "string",
          "name": "_name",
          "type": "string"
        },
        {
          "internalType": "enum Types.UserRole",
          "name": "_role",
          "type": "uint8"
        }
      ],
      "name": "registerUser",
      "outputs": [],
      "stateMutability": "nonpayable",
      "type": "function"
    },
    {
      "inputs": [
        {
          "internalType": "address",
          "name": "_addr",
          "type": "address"
        }
      ],
      "name": "returnUser",
      "outputs": [
        {
          "components": [
            {
              "internalType": "address",
              "name": "userAddress",
              "type": "address"
            },
            {
              "internalType": "string",
              "name": "name",
              "type": "string"
            },
            {
              "internalType": "enum Types.UserRole",
              "name": "role",
              "type": "uint8"
            }
          ],
          "internalType": "struct Types.User",
          "name": "",
          "type": "tuple"
        }
      ],
      "stateMutability": "view",
      "type": "function"
    },
    {
      "inputs": [
        {
          "internalType": "address",
          "name": "_addr",
          "type": "address"
        }
      ],
      "name": "returnUserInfo",
      "outputs": [
        {
          "internalType": "string",
          "name": "name",
          "type": "string"
        },
        {
          "internalType": "enum Types.UserRole",
          "name": "role",
          "type": "uint8"
        }
      ],
      "stateMutability": "view",
      "type": "function"
    },
    {
      "inputs": [
        {
          "internalType": "address",
          "name": "buyer",
          "type": "address"
        },
        {
          "internalType": "string",
          "name": "_barcode",
          "type": "string"
        }
      ],
      "name": "sellProduct",
      "outputs": [],
      "stateMutability": "nonpayable",
      "type": "function"
    },
    {
      "inputs": [],
      "name": "users",
      "outputs": [
        {
          "internalType": "contract Users",
          "name": "",
          "type": "address"
        }
      ],
      "stateMutability": "view",
      "type": "function"
    }
  ],
  "bytecode": "0x608060405234801561001057600080fd5b506040516114f13803806114f1833981810160405281019061003291906101aa565b816000806101000a81548173ffffffffffffffffffffffffffffffffffffffff021916908373ffffffffffffffffffffffffffffffffffffffff16021790555080600160006101000a81548173ffffffffffffffffffffffffffffffffffffffff021916908373ffffffffffffffffffffffffffffffffffffffff160217905550600160009054906101000a900473ffffffffffffffffffffffffffffffffffffffff1673ffffffffffffffffffffffffffffffffffffffff1663c60bdc7f836040518263ffffffff1660e01b815260040161010e91906101f9565b600060405180830381600087803b15801561012857600080fd5b505af115801561013c573d6000803e3d6000fd5b505050505050610214565b600080fd5b600073ffffffffffffffffffffffffffffffffffffffff82169050919050565b60006101778261014c565b9050919050565b6101878161016c565b811461019257600080fd5b50565b6000815190506101a48161017e565b92915050565b600080604083850312156101c1576101c0610147565b5b60006101cf85828601610195565b92505060206101e085828601610195565b9150509250929050565b6101f38161016c565b82525050565b600060208201905061020e60008301846101ea565b92915050565b6112ce806102236000396000f3fe608060405234801561001057600080fd5b50600436106100935760003560e01c8063a9ea55f111610066578063a9ea55f114610131578063bb8d6b1d14610161578063c71e261f14610191578063e30d40f6146101af578063f2020275146101cb57610093565b8063338e12eb146100985780633f5e87f7146100b45780637ce7b7e0146100e45780638799d6fc14610115575b600080fd5b6100b260048036038101906100ad9190610a74565b6101e9565b005b6100ce60048036038101906100c99190610b2e565b61027c565b6040516100db9190610b89565b60405180910390f35b6100fe60048036038101906100f99190610ba4565b6104ff565b60405161010c929190610cc7565b60405180910390f35b61012f600480360381019061012a9190610cf7565b6105ac565b005b61014b60048036038101906101469190610ba4565b610647565b6040516101589190610b89565b60405180910390f35b61017b60048036038101906101769190610ba4565b61071f565b6040516101889190610e86565b60405180910390f35b6101996107cd565b6040516101a69190610f07565b60405180910390f35b6101c960048036038101906101c49190610f22565b6107f3565b005b6101d3610888565b6040516101e09190610f9f565b60405180910390f35b60008054906101000a900473ffffffffffffffffffffffffffffffffffffffff1673ffffffffffffffffffffffffffffffffffffffff166340d268543384846040518463ffffffff1660e01b815260040161024693929190610fc9565b600060405180830381600087803b15801561026057600080fd5b505af1158015610274573d6000803e3d6000fd5b505050505050565b60008060008054906101000a900473ffffffffffffffffffffffffffffffffffffffff1673ffffffffffffffffffffffffffffffffffffffff16636f77926b856040518263ffffffff1660e01b81526004016102d89190611007565b600060405180830381865afa1580156102f5573d6000803e3d6000fd5b505050506040513d6000823e3d601f19601f8201168201806040525081019061031e9190611146565b905060008060009054906101000a900473ffffffffffffffffffffffffffffffffffffffff1673ffffffffffffffffffffffffffffffffffffffff16636f77926b856040518263ffffffff1660e01b815260040161037c9190611007565b600060405180830381865afa158015610399573d6000803e3d6000fd5b505050506040513d6000823e3d601f19601f820116820180604052508101906103c29190611146565b9050600060038111156103d8576103d7610c50565b5b826040015160038111156103ef576103ee610c50565b5b03610429576001600381111561040857610407610c50565b5b8160400151600381111561041f5761041e610c50565b5b14925050506104f9565b6001600381111561043d5761043c610c50565b5b8260400151600381111561045457610453610c50565b5b0361048e576002600381111561046d5761046c610c50565b5b8160400151600381111561048457610483610c50565b5b14925050506104f9565b600260038111156104a2576104a1610c50565b5b826040015160038111156104b9576104b8610c50565b5b036104f2576003808111156104d1576104d0610c50565b5b816040015160038111156104e8576104e7610c50565b5b14925050506104f9565b6000925050505b92915050565b606060008060009054906101000a900473ffffffffffffffffffffffffffffffffffffffff1673ffffffffffffffffffffffffffffffffffffffff16636386c1c7846040518263ffffffff1660e01b815260040161055d9190611007565b600060405180830381865afa15801561057a573d6000803e3d6000fd5b505050506040513d6000823e3d601f19601f820116820180604052508101906105a3919061118f565b91509150915091565b600160009054906101000a900473ffffffffffffffffffffffffffffffffffffffff1673ffffffffffffffffffffffffffffffffffffffff1663e5e20ac933868686866040518663ffffffff1660e01b815260040161060f9594939291906111eb565b600060405180830381600087803b15801561062957600080fd5b505af115801561063d573d6000803e3d6000fd5b5050505050505050565b60008060008054906101000a900473ffffffffffffffffffffffffffffffffffffffff1673ffffffffffffffffffffffffffffffffffffffff16636f77926b846040518263ffffffff1660e01b81526004016106a39190611007565b600060405180830381865afa1580156106c0573d6000803e3d6000fd5b505050506040513d6000823e3d601f19601f820116820180604052508101906106e99190611146565b9050600060038111156106ff576106fe610c50565b5b8160400151600381111561071657610715610c50565b5b14915050919050565b6107276108ac565b60008054906101000a900473ffffffffffffffffffffffffffffffffffffffff1673ffffffffffffffffffffffffffffffffffffffff16636f77926b836040518263ffffffff1660e01b81526004016107809190611007565b600060405180830381865afa15801561079d573d6000803e3d6000fd5b505050506040513d6000823e3d601f19601f820116820180604052508101906107c69190611146565b9050919050565b600160009054906101000a900473ffffffffffffffffffffffffffffffffffffffff1681565b600160009054906101000a900473ffffffffffffffffffffffffffffffffffffffff1673ffffffffffffffffffffffffffffffffffffffff1663e0c57ec83384846040518463ffffffff1660e01b81526004016108529392919061125a565b600060405180830381600087803b15801561086c57600080fd5b505af1158015610880573d6000803e3d6000fd5b505050505050565b60008054906101000a900473ffffffffffffffffffffffffffffffffffffffff1681565b6040518060600160405280600073ffffffffffffffffffffffffffffffffffffffff16815260200160608152602001600060038111156108ef576108ee610c50565b5b81525090565b6000604051905090565b600080fd5b600080fd5b600080fd5b600080fd5b6000601f19601f8301169050919050565b7f4e487b7100000000000000000000000000000000000000000000000000000000600052604160045260246000fd5b61095c82610913565b810181811067ffffffffffffffff8211171561097b5761097a610924565b5b80604052505050565b600061098e6108f5565b905061099a8282610953565b919050565b600067ffffffffffffffff8211156109ba576109b9610924565b5b6109c382610913565b9050602081019050919050565b82818337600083830152505050565b60006109f26109ed8461099f565b610984565b905082815260208101848484011115610a0e57610a0d61090e565b5b610a198482856109d0565b509392505050565b600082601f830112610a3657610a35610909565b5b8135610a468482602086016109df565b91505092915050565b60048110610a5c57600080fd5b50565b600081359050610a6e81610a4f565b92915050565b60008060408385031215610a8b57610a8a6108ff565b5b600083013567ffffffffffffffff811115610aa957610aa8610904565b5b610ab585828601610a21565b9250506020610ac685828601610a5f565b9150509250929050565b600073ffffffffffffffffffffffffffffffffffffffff82169050919050565b6000610afb82610ad0565b9050919050565b610b0b81610af0565b8114610b1657600080fd5b50565b600081359050610b2881610b02565b92915050565b60008060408385031215610b4557610b446108ff565b5b6000610b5385828601610b19565b9250506020610b6485828601610b19565b9150509250929050565b60008115159050919050565b610b8381610b6e565b82525050565b6000602082019050610b9e6000830184610b7a565b92915050565b600060208284031215610bba57610bb96108ff565b5b6000610bc884828501610b19565b91505092915050565b600081519050919050565b600082825260208201905092915050565b60005b83811015610c0b578082015181840152602081019050610bf0565b60008484015250505050565b6000610c2282610bd1565b610c2c8185610bdc565b9350610c3c818560208601610bed565b610c4581610913565b840191505092915050565b7f4e487b7100000000000000000000000000000000000000000000000000000000600052602160045260246000fd5b60048110610c9057610c8f610c50565b5b50565b6000819050610ca182610c7f565b919050565b6000610cb182610c93565b9050919050565b610cc181610ca6565b82525050565b60006040820190508181036000830152610ce18185610c17565b9050610cf06020830184610cb8565b9392505050565b60008060008060808587031215610d1157610d106108ff565b5b600085013567ffffffffffffffff811115610d2f57610d2e610904565b5b610d3b87828801610a21565b945050602085013567ffffffffffffffff811115610d5c57610d5b610904565b5b610d6887828801610a21565b935050604085013567ffffffffffffffff811115610d8957610d88610904565b5b610d9587828801610a21565b925050606085013567ffffffffffffffff811115610db657610db5610904565b5b610dc287828801610a21565b91505092959194509250565b610dd781610af0565b82525050565b600082825260208201905092915050565b6000610df982610bd1565b610e038185610ddd565b9350610e13818560208601610bed565b610e1c81610913565b840191505092915050565b610e3081610ca6565b82525050565b6000606083016000830151610e4e6000860182610dce565b5060208301518482036020860152610e668282610dee565b9150506040830151610e7b6040860182610e27565b508091505092915050565b60006020820190508181036000830152610ea08184610e36565b905092915050565b6000819050919050565b6000610ecd610ec8610ec384610ad0565b610ea8565b610ad0565b9050919050565b6000610edf82610eb2565b9050919050565b6000610ef182610ed4565b9050919050565b610f0181610ee6565b82525050565b6000602082019050610f1c6000830184610ef8565b92915050565b60008060408385031215610f3957610f386108ff565b5b6000610f4785828601610b19565b925050602083013567ffffffffffffffff811115610f6857610f67610904565b5b610f7485828601610a21565b9150509250929050565b6000610f8982610ed4565b9050919050565b610f9981610f7e565b82525050565b6000602082019050610fb46000830184610f90565b92915050565b610fc381610af0565b82525050565b6000606082019050610fde6000830186610fba565b8181036020830152610ff08185610c17565b9050610fff6040830184610cb8565b949350505050565b600060208201905061101c6000830184610fba565b92915050565b600080fd5b600080fd5b60008151905061103b81610b02565b92915050565b600061105461104f8461099f565b610984565b9050828152602081018484840111156110705761106f61090e565b5b61107b848285610bed565b509392505050565b600082601f83011261109857611097610909565b5b81516110a8848260208601611041565b91505092915050565b6000815190506110c081610a4f565b92915050565b6000606082840312156110dc576110db611022565b5b6110e66060610984565b905060006110f68482850161102c565b600083015250602082015167ffffffffffffffff81111561111a57611119611027565b5b61112684828501611083565b602083015250604061113a848285016110b1565b60408301525092915050565b60006020828403121561115c5761115b6108ff565b5b600082015167ffffffffffffffff81111561117a57611179610904565b5b611186848285016110c6565b91505092915050565b600080604083850312156111a6576111a56108ff565b5b600083015167ffffffffffffffff8111156111c4576111c3610904565b5b6111d085828601611083565b92505060206111e1858286016110b1565b9150509250929050565b600060a0820190506112006000830188610fba565b81810360208301526112128187610c17565b905081810360408301526112268186610c17565b9050818103606083015261123a8185610c17565b9050818103608083015261124e8184610c17565b90509695505050505050565b600060608201905061126f6000830186610fba565b61127c6020830185610fba565b818103604083015261128e8184610c17565b905094935050505056fea26469706673582212200cd726ef5b96f9393f7e954b3d4e17c542fed87b97a0aa1cae4a970582aa139b64736f6c634300081e0033",
  "linkReferences": {},
  "deployedLinkReferences": {}
}