{
  "_format": "hh-sol-artifact-1",
  "contractName": "SupplyChain",
  "sourceName": "contracts/SupplyChain.sol",
  "abi": [
    {
      "inputs": [
        {
          "internalType": "address",
          "name": "_users",
          "type": "address"
        },
        {
          "internalType": "address",
          "name": "_products",
          "type": "address"
        }
      ],
      "stateMutability": "nonpayable",
      "type": "constructor"
    },
    {
      "inputs": [
        {
          "internalType": "string",
          "name": "_barcode",
          "type": "string"
        }
      ],
      "name": "getProductByBarcode",
      "outputs": [
        {
          "components": [
            {
              "internalType": "string",
              "name": "name",
              "type": "string"
            },
            {
              "internalType": "string",
              "name": "manufacturerName",
              "type": "string"
            },
            {
              "internalType": "string",
              "name": "barcode",
              "type": "string"
            },
            {
              "internalType": "string",
              "name": "manufacturedTime",
              "type": "string"
            },
            {
              "internalType": "uint256",
              "name": "volume",
              "type": "uint256"
            }
          ],
          "internalType": "struct Types.Product",
          "name": "",
          "type": "tuple"
        }
      ],
      "stateMutability": "view",
      "type": "function"
    },
    {
      "inputs": [
        {
          "internalType": "string",
          "name": "_publicKey",
          "type": "string"
        }
      ],
      "name": "getUserByPublicKey",
      "outputs": [
        {
          "components": [
            {
              "internalType": "address",
              "name": "userAddress",
              "type": "address"
            },
            {
              "internalType": "string",
              "name": "name",
              "type": "string"
            },
            {
              "internalType": "enum Types.UserRole",
              "name": "role",
              "type": "uint8"
            },
            {
              "internalType": "string",
              "name": "publicKey",
              "type": "string"
            }
          ],
          "internalType": "struct Types.User",
          "name": "",
          "type": "tuple"
        }
      ],
      "stateMutability": "view",
      "type": "function"
    },
    {
      "inputs": [
        {
          "internalType": "address",
          "name": "user",
          "type": "address"
        }
      ],
      "name": "getUserInventory",
      "outputs": [
        {
          "internalType": "string[]",
          "name": "",
          "type": "string[]"
        }
      ],
      "stateMutability": "view",
      "type": "function"
    },
    {
      "inputs": [
        {
          "internalType": "string",
          "name": "publicKey",
          "type": "string"
        }
      ],
      "name": "getUserInventoryByPublicKey",
      "outputs": [
        {
          "internalType": "string[]",
          "name": "",
          "type": "string[]"
        }
      ],
      "stateMutability": "view",
      "type": "function"
    },
    {
      "inputs": [
        {
          "internalType": "address",
          "name": "user",
          "type": "address"
        }
      ],
      "name": "getUserInventoryWithDetails",
      "outputs": [
        {
          "components": [
            {
              "internalType": "string",
              "name": "name",
              "type": "string"
            },
            {
              "internalType": "string",
              "name": "manufacturerName",
              "type": "string"
            },
            {
              "internalType": "string",
              "name": "barcode",
              "type": "string"
            },
            {
              "internalType": "string",
              "name": "manufacturedTime",
              "type": "string"
            },
            {
              "internalType": "uint256",
              "name": "volume",
              "type": "uint256"
            }
          ],
          "internalType": "struct Types.Product[]",
          "name": "",
          "type": "tuple[]"
        }
      ],
      "stateMutability": "view",
      "type": "function"
    },
    {
      "inputs": [
        {
          "internalType": "string",
          "name": "publicKey",
          "type": "string"
        }
      ],
      "name": "getUserInventoryWithDetailsByPublicKey",
      "outputs": [
        {
          "components": [
            {
              "internalType": "string",
              "name": "name",
              "type": "string"
            },
            {
              "internalType": "string",
              "name": "manufacturerName",
              "type": "string"
            },
            {
              "internalType": "string",
              "name": "barcode",
              "type": "string"
            },
            {
              "internalType": "string",
              "name": "manufacturedTime",
              "type": "string"
            },
            {
              "internalType": "uint256",
              "name": "volume",
              "type": "uint256"
            }
          ],
          "internalType": "struct Types.Product[]",
          "name": "",
          "type": "tuple[]"
        }
      ],
      "stateMutability": "view",
      "type": "function"
    },
    {
      "inputs": [
        {
          "internalType": "address",
          "name": "user",
          "type": "address"
        }
      ],
      "name": "getUserTotalVolume",
      "outputs": [
        {
          "internalType": "uint256",
          "name": "",
          "type": "uint256"
        }
      ],
      "stateMutability": "view",
      "type": "function"
    },
    {
      "inputs": [
        {
          "internalType": "string",
          "name": "publicKey",
          "type": "string"
        }
      ],
      "name": "getUserTotalVolumeByPublicKey",
      "outputs": [
        {
          "internalType": "uint256",
          "name": "",
          "type": "uint256"
        }
      ],
      "stateMutability": "view",
      "type": "function"
    },
    {
      "inputs": [
        {
          "internalType": "address",
          "name": "seller",
          "type": "address"
        },
        {
          "internalType": "address",
          "name": "buyer",
          "type": "address"
        }
      ],
      "name": "isSaleAllowed",
      "outputs": [
        {
          "internalType": "bool",
          "name": "",
          "type": "bool"
        }
      ],
      "stateMutability": "view",
      "type": "function"
    },
    {
      "inputs": [
        {
          "internalType": "string",
          "name": "sellerPublicKey",
          "type": "string"
        },
        {
          "internalType": "string",
          "name": "buyerPublicKey",
          "type": "string"
        }
      ],
      "name": "isSaleAllowedByPublicKey",
      "outputs": [
        {
          "internalType": "bool",
          "name": "",
          "type": "bool"
        }
      ],
      "stateMutability": "view",
      "type": "function"
    },
    {
      "inputs": [
        {
          "internalType": "address",
          "name": "user",
          "type": "address"
        }
      ],
      "name": "isUserManufacturer",
      "outputs": [
        {
          "internalType": "bool",
          "name": "",
          "type": "bool"
        }
      ],
      "stateMutability": "view",
      "type": "function"
    },
    {
      "inputs": [],
      "name": "products",
      "outputs": [
        {
          "internalType": "contract Products",
          "name": "",
          "type": "address"
        }
      ],
      "stateMutability": "view",
      "type": "function"
    },
    {
      "inputs": [
        {
          "internalType": "string",
          "name": "_name",
          "type": "string"
        },
        {
          "internalType": "string",
          "name": "_manufacturerName",
          "type": "string"
        },
        {
          "internalType": "string",
          "name": "_barcode",
          "type": "string"
        },
        {
          "internalType": "string",
          "name": "_manufacturedTime",
          "type": "string"
        },
        {
          "internalType": "uint256",
          "name": "_volume",
          "type": "uint256"
        }
      ],
      "name": "registerProduct",
      "outputs": [],
      "stateMutability": "nonpayable",
      "type": "function"
    },
    {
      "inputs": [
        {
          "internalType": "string",
          "name": "_name",
          "type": "string"
        },
        {
          "internalType": "enum Types.UserRole",
          "name": "_role",
          "type": "uint8"
        },
        {
          "internalType": "string",
          "name": "_publicKey",
          "type": "string"
        }
      ],
      "name": "registerUser",
      "outputs": [],
      "stateMutability": "nonpayable",
      "type": "function"
    },
    {
      "inputs": [
        {
          "internalType": "address",
          "name": "_addr",
          "type": "address"
        }
      ],
      "name": "returnUser",
      "outputs": [
        {
          "components": [
            {
              "internalType": "address",
              "name": "userAddress",
              "type": "address"
            },
            {
              "internalType": "string",
              "name": "name",
              "type": "string"
            },
            {
              "internalType": "enum Types.UserRole",
              "name": "role",
              "type": "uint8"
            },
            {
              "internalType": "string",
              "name": "publicKey",
              "type": "string"
            }
          ],
          "internalType": "struct Types.User",
          "name": "",
          "type": "tuple"
        }
      ],
      "stateMutability": "view",
      "type": "function"
    },
    {
      "inputs": [
        {
          "internalType": "address",
          "name": "_addr",
          "type": "address"
        }
      ],
      "name": "returnUserInfo",
      "outputs": [
        {
          "internalType": "string",
          "name": "name",
          "type": "string"
        },
        {
          "internalType": "enum Types.UserRole",
          "name": "role",
          "type": "uint8"
        }
      ],
      "stateMutability": "view",
      "type": "function"
    },
    {
      "inputs": [
        {
          "internalType": "address",
          "name": "buyer",
          "type": "address"
        },
        {
          "internalType": "string",
          "name": "_barcode",
          "type": "string"
        },
        {
          "internalType": "uint256",
          "name": "_volume",
          "type": "uint256"
        }
      ],
      "name": "sellProduct",
      "outputs": [],
      "stateMutability": "nonpayable",
      "type": "function"
    },
    {
      "inputs": [
        {
          "internalType": "string",
          "name": "buyerPublicKey",
          "type": "string"
        },
        {
          "internalType": "string",
          "name": "_barcode",
          "type": "string"
        },
        {
          "internalType": "uint256",
          "name": "_volume",
          "type": "uint256"
        }
      ],
      "name": "sellProductByPublicKey",
      "outputs": [],
      "stateMutability": "nonpayable",
      "type": "function"
    },
    {
      "inputs": [],
      "name": "users",
      "outputs": [
        {
          "internalType": "contract Users",
          "name": "",
          "type": "address"
        }
      ],
      "stateMutability": "view",
      "type": "function"
    }
  ],
  "bytecode": "0x608060405234801561001057600080fd5b5060405161301b38038061301b833981810160405281019061003291906101aa565b816000806101000a81548173ffffffffffffffffffffffffffffffffffffffff021916908373ffffffffffffffffffffffffffffffffffffffff16021790555080600160006101000a81548173ffffffffffffffffffffffffffffffffffffffff021916908373ffffffffffffffffffffffffffffffffffffffff160217905550600160009054906101000a900473ffffffffffffffffffffffffffffffffffffffff1673ffffffffffffffffffffffffffffffffffffffff1663c60bdc7f836040518263ffffffff1660e01b815260040161010e91906101f9565b600060405180830381600087803b15801561012857600080fd5b505af115801561013c573d6000803e3d6000fd5b505050505050610214565b600080fd5b600073ffffffffffffffffffffffffffffffffffffffff82169050919050565b60006101778261014c565b9050919050565b6101878161016c565b811461019257600080fd5b50565b6000815190506101a48161017e565b92915050565b600080604083850312156101c1576101c0610147565b5b60006101cf85828601610195565b92505060206101e085828601610195565b9150509250929050565b6101f38161016c565b82525050565b600060208201905061020e60008301846101ea565b92915050565b612df8806102236000396000f3fe608060405234801561001057600080fd5b50600436106101215760003560e01c806399940a13116100ad578063bb8d6b1d11610071578063bb8d6b1d14610377578063c71e261f146103a7578063d1d68869146103c5578063db35369a146103f5578063f20202751461042557610121565b806399940a13146102af578063a18c1fab146102df578063a2b5e320146102fb578063a9ea55f114610317578063b00aebd61461034757610121565b80633f5e87f7116100f45780633f5e87f7146101be5780635714cc8e146101ee57806375234f661461021e5780637ce7b7e01461024e57806384fb0ee21461027f57610121565b8063056a9d8a14610126578063067f046a146101425780631d6644771461015e57806334dd12921461018e575b600080fd5b610140600480360381019061013b9190611add565b610443565b005b61015c60048036038101906101579190611bc6565b6105f7565b005b61017860048036038101906101739190611c35565b61068f565b6040516101859190611c8d565b60405180910390f35b6101a860048036038101906101a39190611c35565b61084e565b6040516101b59190611dc1565b60405180910390f35b6101d860048036038101906101d39190611de3565b6108fe565b6040516101e59190611e3e565b60405180910390f35b61020860048036038101906102039190611e59565b610b81565b6040516102159190611f48565b60405180910390f35b61023860048036038101906102339190611e59565b610c2b565b60405161024591906120b7565b60405180910390f35b61026860048036038101906102639190611e59565b610cd5565b60405161027692919061219a565b60405180910390f35b61029960048036038101906102949190611c35565b610d82565b6040516102a691906120b7565b60405180910390f35b6102c960048036038101906102c49190611e59565b610f48565b6040516102d69190611c8d565b60405180910390f35b6102f960048036038101906102f491906121ca565b610fed565b005b610315600480360381019061031091906122da565b61108b565b005b610331600480360381019061032c9190611e59565b611121565b60405161033e9190611e3e565b60405180910390f35b610361600480360381019061035c9190612365565b6111f9565b60405161036e9190611e3e565b60405180910390f35b610391600480360381019061038c9190611e59565b611562565b60405161039e9190612465565b60405180910390f35b6103af611610565b6040516103bc91906124e6565b60405180910390f35b6103df60048036038101906103da9190611c35565b611636565b6040516103ec9190611f48565b60405180910390f35b61040f600480360381019061040a9190611c35565b6117fc565b60405161041c9190612465565b60405180910390f35b61042d6118aa565b60405161043a9190612522565b60405180910390f35b60008060009054906101000a900473ffffffffffffffffffffffffffffffffffffffff1673ffffffffffffffffffffffffffffffffffffffff1663db35369a856040518263ffffffff1660e01b815260040161049f919061253d565b600060405180830381865afa1580156104bc573d6000803e3d6000fd5b505050506040513d6000823e3d601f19601f820116820180604052508101906104e591906126b3565b9050600073ffffffffffffffffffffffffffffffffffffffff16816000015173ffffffffffffffffffffffffffffffffffffffff160361055a576040517f08c379a000000000000000000000000000000000000000000000000000000000815260040161055190612748565b60405180910390fd5b600160009054906101000a900473ffffffffffffffffffffffffffffffffffffffff1673ffffffffffffffffffffffffffffffffffffffff16635a1596fb33836000015186866040518563ffffffff1660e01b81526004016105bf9493929190612777565b600060405180830381600087803b1580156105d957600080fd5b505af11580156105ed573d6000803e3d6000fd5b5050505050505050565b600160009054906101000a900473ffffffffffffffffffffffffffffffffffffffff1673ffffffffffffffffffffffffffffffffffffffff16635a1596fb338585856040518563ffffffff1660e01b81526004016106589493929190612777565b600060405180830381600087803b15801561067257600080fd5b505af1158015610686573d6000803e3d6000fd5b50505050505050565b60008060008054906101000a900473ffffffffffffffffffffffffffffffffffffffff1673ffffffffffffffffffffffffffffffffffffffff1663db35369a846040518263ffffffff1660e01b81526004016106eb919061253d565b600060405180830381865afa158015610708573d6000803e3d6000fd5b505050506040513d6000823e3d601f19601f8201168201806040525081019061073191906126b3565b9050600073ffffffffffffffffffffffffffffffffffffffff16816000015173ffffffffffffffffffffffffffffffffffffffff16036107a6576040517f08c379a000000000000000000000000000000000000000000000000000000000815260040161079d9061280f565b60405180910390fd5b600160009054906101000a900473ffffffffffffffffffffffffffffffffffffffff1673ffffffffffffffffffffffffffffffffffffffff166399940a1382600001516040518263ffffffff1660e01b8152600401610805919061282f565b602060405180830381865afa158015610822573d6000803e3d6000fd5b505050506040513d601f19601f82011682018060405250810190610846919061285f565b915050919050565b6108566118ce565b600160009054906101000a900473ffffffffffffffffffffffffffffffffffffffff1673ffffffffffffffffffffffffffffffffffffffff166334dd1292836040518263ffffffff1660e01b81526004016108b1919061253d565b600060405180830381865afa1580156108ce573d6000803e3d6000fd5b505050506040513d6000823e3d601f19601f820116820180604052508101906108f79190612988565b9050919050565b60008060008054906101000a900473ffffffffffffffffffffffffffffffffffffffff1673ffffffffffffffffffffffffffffffffffffffff16636f77926b856040518263ffffffff1660e01b815260040161095a919061282f565b600060405180830381865afa158015610977573d6000803e3d6000fd5b505050506040513d6000823e3d601f19601f820116820180604052508101906109a091906126b3565b905060008060009054906101000a900473ffffffffffffffffffffffffffffffffffffffff1673ffffffffffffffffffffffffffffffffffffffff16636f77926b856040518263ffffffff1660e01b81526004016109fe919061282f565b600060405180830381865afa158015610a1b573d6000803e3d6000fd5b505050506040513d6000823e3d601f19601f82011682018060405250810190610a4491906126b3565b905060006003811115610a5a57610a59612123565b5b82604001516003811115610a7157610a70612123565b5b03610aab5760016003811115610a8a57610a89612123565b5b81604001516003811115610aa157610aa0612123565b5b1492505050610b7b565b60016003811115610abf57610abe612123565b5b82604001516003811115610ad657610ad5612123565b5b03610b105760026003811115610aef57610aee612123565b5b81604001516003811115610b0657610b05612123565b5b1492505050610b7b565b60026003811115610b2457610b23612123565b5b82604001516003811115610b3b57610b3a612123565b5b03610b7457600380811115610b5357610b52612123565b5b81604001516003811115610b6a57610b69612123565b5b1492505050610b7b565b6000925050505b92915050565b6060600160009054906101000a900473ffffffffffffffffffffffffffffffffffffffff1673ffffffffffffffffffffffffffffffffffffffff16635714cc8e836040518263ffffffff1660e01b8152600401610bde919061282f565b600060405180830381865afa158015610bfb573d6000803e3d6000fd5b505050506040513d6000823e3d601f19601f82011682018060405250810190610c249190612ab7565b9050919050565b6060600160009054906101000a900473ffffffffffffffffffffffffffffffffffffffff1673ffffffffffffffffffffffffffffffffffffffff166375234f66836040518263ffffffff1660e01b8152600401610c88919061282f565b600060405180830381865afa158015610ca5573d6000803e3d6000fd5b505050506040513d6000823e3d601f19601f82011682018060405250810190610cce9190612be1565b9050919050565b606060008060009054906101000a900473ffffffffffffffffffffffffffffffffffffffff1673ffffffffffffffffffffffffffffffffffffffff16636386c1c7846040518263ffffffff1660e01b8152600401610d33919061282f565b600060405180830381865afa158015610d50573d6000803e3d6000fd5b505050506040513d6000823e3d601f19601f82011682018060405250810190610d799190612c2a565b91509150915091565b606060008060009054906101000a900473ffffffffffffffffffffffffffffffffffffffff1673ffffffffffffffffffffffffffffffffffffffff1663db35369a846040518263ffffffff1660e01b8152600401610de0919061253d565b600060405180830381865afa158015610dfd573d6000803e3d6000fd5b505050506040513d6000823e3d601f19601f82011682018060405250810190610e2691906126b3565b9050600073ffffffffffffffffffffffffffffffffffffffff16816000015173ffffffffffffffffffffffffffffffffffffffff1603610e9b576040517f08c379a0000000000000000000000000000000000000000000000000000000008152600401610e929061280f565b60405180910390fd5b600160009054906101000a900473ffffffffffffffffffffffffffffffffffffffff1673ffffffffffffffffffffffffffffffffffffffff166375234f6682600001516040518263ffffffff1660e01b8152600401610efa919061282f565b600060405180830381865afa158015610f17573d6000803e3d6000fd5b505050506040513d6000823e3d601f19601f82011682018060405250810190610f409190612be1565b915050919050565b6000600160009054906101000a900473ffffffffffffffffffffffffffffffffffffffff1673ffffffffffffffffffffffffffffffffffffffff166399940a13836040518263ffffffff1660e01b8152600401610fa5919061282f565b602060405180830381865afa158015610fc2573d6000803e3d6000fd5b505050506040513d601f19601f82011682018060405250810190610fe6919061285f565b9050919050565b600160009054906101000a900473ffffffffffffffffffffffffffffffffffffffff1673ffffffffffffffffffffffffffffffffffffffff16639a2dc28f3387878787876040518763ffffffff1660e01b815260040161105296959493929190612c86565b600060405180830381600087803b15801561106c57600080fd5b505af1158015611080573d6000803e3d6000fd5b505050505050505050565b60008054906101000a900473ffffffffffffffffffffffffffffffffffffffff1673ffffffffffffffffffffffffffffffffffffffff166365a410a3338585856040518563ffffffff1660e01b81526004016110ea9493929190612d03565b600060405180830381600087803b15801561110457600080fd5b505af1158015611118573d6000803e3d6000fd5b50505050505050565b60008060008054906101000a900473ffffffffffffffffffffffffffffffffffffffff1673ffffffffffffffffffffffffffffffffffffffff16636f77926b846040518263ffffffff1660e01b815260040161117d919061282f565b600060405180830381865afa15801561119a573d6000803e3d6000fd5b505050506040513d6000823e3d601f19601f820116820180604052508101906111c391906126b3565b9050600060038111156111d9576111d8612123565b5b816040015160038111156111f0576111ef612123565b5b14915050919050565b60008060008054906101000a900473ffffffffffffffffffffffffffffffffffffffff1673ffffffffffffffffffffffffffffffffffffffff1663db35369a856040518263ffffffff1660e01b8152600401611255919061253d565b600060405180830381865afa158015611272573d6000803e3d6000fd5b505050506040513d6000823e3d601f19601f8201168201806040525081019061129b91906126b3565b905060008060009054906101000a900473ffffffffffffffffffffffffffffffffffffffff1673ffffffffffffffffffffffffffffffffffffffff1663db35369a856040518263ffffffff1660e01b81526004016112f9919061253d565b600060405180830381865afa158015611316573d6000803e3d6000fd5b505050506040513d6000823e3d601f19601f8201168201806040525081019061133f91906126b3565b9050600073ffffffffffffffffffffffffffffffffffffffff16826000015173ffffffffffffffffffffffffffffffffffffffff16036113b4576040517f08c379a00000000000000000000000000000000000000000000000000000000081526004016113ab90612da2565b60405180910390fd5b600073ffffffffffffffffffffffffffffffffffffffff16816000015173ffffffffffffffffffffffffffffffffffffffff1603611427576040517f08c379a000000000000000000000000000000000000000000000000000000000815260040161141e90612748565b60405180910390fd5b6000600381111561143b5761143a612123565b5b8260400151600381111561145257611451612123565b5b0361148c576001600381111561146b5761146a612123565b5b8160400151600381111561148257611481612123565b5b149250505061155c565b600160038111156114a05761149f612123565b5b826040015160038111156114b7576114b6612123565b5b036114f157600260038111156114d0576114cf612123565b5b816040015160038111156114e7576114e6612123565b5b149250505061155c565b6002600381111561150557611504612123565b5b8260400151600381111561151c5761151b612123565b5b036115555760038081111561153457611533612123565b5b8160400151600381111561154b5761154a612123565b5b149250505061155c565b6000925050505b92915050565b61156a6118fd565b60008054906101000a900473ffffffffffffffffffffffffffffffffffffffff1673ffffffffffffffffffffffffffffffffffffffff16636f77926b836040518263ffffffff1660e01b81526004016115c3919061282f565b600060405180830381865afa1580156115e0573d6000803e3d6000fd5b505050506040513d6000823e3d601f19601f8201168201806040525081019061160991906126b3565b9050919050565b600160009054906101000a900473ffffffffffffffffffffffffffffffffffffffff1681565b606060008060009054906101000a900473ffffffffffffffffffffffffffffffffffffffff1673ffffffffffffffffffffffffffffffffffffffff1663db35369a846040518263ffffffff1660e01b8152600401611694919061253d565b600060405180830381865afa1580156116b1573d6000803e3d6000fd5b505050506040513d6000823e3d601f19601f820116820180604052508101906116da91906126b3565b9050600073ffffffffffffffffffffffffffffffffffffffff16816000015173ffffffffffffffffffffffffffffffffffffffff160361174f576040517f08c379a00000000000000000000000000000000000000000000000000000000081526004016117469061280f565b60405180910390fd5b600160009054906101000a900473ffffffffffffffffffffffffffffffffffffffff1673ffffffffffffffffffffffffffffffffffffffff16635714cc8e82600001516040518263ffffffff1660e01b81526004016117ae919061282f565b600060405180830381865afa1580156117cb573d6000803e3d6000fd5b505050506040513d6000823e3d601f19601f820116820180604052508101906117f49190612ab7565b915050919050565b6118046118fd565b60008054906101000a900473ffffffffffffffffffffffffffffffffffffffff1673ffffffffffffffffffffffffffffffffffffffff1663db35369a836040518263ffffffff1660e01b815260040161185d919061253d565b600060405180830381865afa15801561187a573d6000803e3d6000fd5b505050506040513d6000823e3d601f19601f820116820180604052508101906118a391906126b3565b9050919050565b60008054906101000a900473ffffffffffffffffffffffffffffffffffffffff1681565b6040518060a0016040528060608152602001606081526020016060815260200160608152602001600081525090565b6040518060800160405280600073ffffffffffffffffffffffffffffffffffffffff16815260200160608152602001600060038111156119405761193f612123565b5b8152602001606081525090565b6000604051905090565b600080fd5b600080fd5b600080fd5b600080fd5b6000601f19601f8301169050919050565b7f4e487b7100000000000000000000000000000000000000000000000000000000600052604160045260246000fd5b6119b48261196b565b810181811067ffffffffffffffff821117156119d3576119d261197c565b5b80604052505050565b60006119e661194d565b90506119f282826119ab565b919050565b600067ffffffffffffffff821115611a1257611a1161197c565b5b611a1b8261196b565b9050602081019050919050565b82818337600083830152505050565b6000611a4a611a45846119f7565b6119dc565b905082815260208101848484011115611a6657611a65611966565b5b611a71848285611a28565b509392505050565b600082601f830112611a8e57611a8d611961565b5b8135611a9e848260208601611a37565b91505092915050565b6000819050919050565b611aba81611aa7565b8114611ac557600080fd5b50565b600081359050611ad781611ab1565b92915050565b600080600060608486031215611af657611af5611957565b5b600084013567ffffffffffffffff811115611b1457611b1361195c565b5b611b2086828701611a79565b935050602084013567ffffffffffffffff811115611b4157611b4061195c565b5b611b4d86828701611a79565b9250506040611b5e86828701611ac8565b9150509250925092565b600073ffffffffffffffffffffffffffffffffffffffff82169050919050565b6000611b9382611b68565b9050919050565b611ba381611b88565b8114611bae57600080fd5b50565b600081359050611bc081611b9a565b92915050565b600080600060608486031215611bdf57611bde611957565b5b6000611bed86828701611bb1565b935050602084013567ffffffffffffffff811115611c0e57611c0d61195c565b5b611c1a86828701611a79565b9250506040611c2b86828701611ac8565b9150509250925092565b600060208284031215611c4b57611c4a611957565b5b600082013567ffffffffffffffff811115611c6957611c6861195c565b5b611c7584828501611a79565b91505092915050565b611c8781611aa7565b82525050565b6000602082019050611ca26000830184611c7e565b92915050565b600081519050919050565b600082825260208201905092915050565b60005b83811015611ce2578082015181840152602081019050611cc7565b60008484015250505050565b6000611cf982611ca8565b611d038185611cb3565b9350611d13818560208601611cc4565b611d1c8161196b565b840191505092915050565b611d3081611aa7565b82525050565b600060a0830160008301518482036000860152611d538282611cee565b91505060208301518482036020860152611d6d8282611cee565b91505060408301518482036040860152611d878282611cee565b91505060608301518482036060860152611da18282611cee565b9150506080830151611db66080860182611d27565b508091505092915050565b60006020820190508181036000830152611ddb8184611d36565b905092915050565b60008060408385031215611dfa57611df9611957565b5b6000611e0885828601611bb1565b9250506020611e1985828601611bb1565b9150509250929050565b60008115159050919050565b611e3881611e23565b82525050565b6000602082019050611e536000830184611e2f565b92915050565b600060208284031215611e6f57611e6e611957565b5b6000611e7d84828501611bb1565b91505092915050565b600081519050919050565b600082825260208201905092915050565b6000819050602082019050919050565b6000611ebe8383611cee565b905092915050565b6000602082019050919050565b6000611ede82611e86565b611ee88185611e91565b935083602082028501611efa85611ea2565b8060005b85811015611f365784840389528151611f178582611eb2565b9450611f2283611ec6565b925060208a01995050600181019050611efe565b50829750879550505050505092915050565b60006020820190508181036000830152611f628184611ed3565b905092915050565b600081519050919050565b600082825260208201905092915050565b6000819050602082019050919050565b600060a0830160008301518482036000860152611fb38282611cee565b91505060208301518482036020860152611fcd8282611cee565b91505060408301518482036040860152611fe78282611cee565b915050606083015184820360608601526120018282611cee565b91505060808301516120166080860182611d27565b508091505092915050565b600061202d8383611f96565b905092915050565b6000602082019050919050565b600061204d82611f6a565b6120578185611f75565b93508360208202850161206985611f86565b8060005b858110156120a557848403895281516120868582612021565b945061209183612035565b925060208a0199505060018101905061206d565b50829750879550505050505092915050565b600060208201905081810360008301526120d18184612042565b905092915050565b600082825260208201905092915050565b60006120f582611ca8565b6120ff81856120d9565b935061210f818560208601611cc4565b6121188161196b565b840191505092915050565b7f4e487b7100000000000000000000000000000000000000000000000000000000600052602160045260246000fd5b6004811061216357612162612123565b5b50565b600081905061217482612152565b919050565b600061218482612166565b9050919050565b61219481612179565b82525050565b600060408201905081810360008301526121b481856120ea565b90506121c3602083018461218b565b9392505050565b600080600080600060a086880312156121e6576121e5611957565b5b600086013567ffffffffffffffff8111156122045761220361195c565b5b61221088828901611a79565b955050602086013567ffffffffffffffff8111156122315761223061195c565b5b61223d88828901611a79565b945050604086013567ffffffffffffffff81111561225e5761225d61195c565b5b61226a88828901611a79565b935050606086013567ffffffffffffffff81111561228b5761228a61195c565b5b61229788828901611a79565b92505060806122a888828901611ac8565b9150509295509295909350565b600481106122c257600080fd5b50565b6000813590506122d4816122b5565b92915050565b6000806000606084860312156122f3576122f2611957565b5b600084013567ffffffffffffffff8111156123115761231061195c565b5b61231d86828701611a79565b935050602061232e868287016122c5565b925050604084013567ffffffffffffffff81111561234f5761234e61195c565b5b61235b86828701611a79565b9150509250925092565b6000806040838503121561237c5761237b611957565b5b600083013567ffffffffffffffff81111561239a5761239961195c565b5b6123a685828601611a79565b925050602083013567ffffffffffffffff8111156123c7576123c661195c565b5b6123d385828601611a79565b9150509250929050565b6123e681611b88565b82525050565b6123f581612179565b82525050565b600060808301600083015161241360008601826123dd565b506020830151848203602086015261242b8282611cee565b915050604083015161244060408601826123ec565b50606083015184820360608601526124588282611cee565b9150508091505092915050565b6000602082019050818103600083015261247f81846123fb565b905092915050565b6000819050919050565b60006124ac6124a76124a284611b68565b612487565b611b68565b9050919050565b60006124be82612491565b9050919050565b60006124d0826124b3565b9050919050565b6124e0816124c5565b82525050565b60006020820190506124fb60008301846124d7565b92915050565b600061250c826124b3565b9050919050565b61251c81612501565b82525050565b60006020820190506125376000830184612513565b92915050565b6000602082019050818103600083015261255781846120ea565b905092915050565b600080fd5b600080fd5b60008151905061257881611b9a565b92915050565b600061259161258c846119f7565b6119dc565b9050828152602081018484840111156125ad576125ac611966565b5b6125b8848285611cc4565b509392505050565b600082601f8301126125d5576125d4611961565b5b81516125e584826020860161257e565b91505092915050565b6000815190506125fd816122b5565b92915050565b6000608082840312156126195761261861255f565b5b61262360806119dc565b9050600061263384828501612569565b600083015250602082015167ffffffffffffffff81111561265757612656612564565b5b612663848285016125c0565b6020830152506040612677848285016125ee565b604083015250606082015167ffffffffffffffff81111561269b5761269a612564565b5b6126a7848285016125c0565b60608301525092915050565b6000602082840312156126c9576126c8611957565b5b600082015167ffffffffffffffff8111156126e7576126e661195c565b5b6126f384828501612603565b91505092915050565b7f4275796572206e6f7420666f756e640000000000000000000000000000000000600082015250565b6000612732600f836120d9565b915061273d826126fc565b602082019050919050565b6000602082019050818103600083015261276181612725565b9050919050565b61277181611b88565b82525050565b600060808201905061278c6000830187612768565b6127996020830186612768565b81810360408301526127ab81856120ea565b90506127ba6060830184611c7e565b95945050505050565b7f55736572206e6f7420666f756e64000000000000000000000000000000000000600082015250565b60006127f9600e836120d9565b9150612804826127c3565b602082019050919050565b60006020820190508181036000830152612828816127ec565b9050919050565b60006020820190506128446000830184612768565b92915050565b60008151905061285981611ab1565b92915050565b60006020828403121561287557612874611957565b5b60006128838482850161284a565b91505092915050565b600060a082840312156128a2576128a161255f565b5b6128ac60a06119dc565b9050600082015167ffffffffffffffff8111156128cc576128cb612564565b5b6128d8848285016125c0565b600083015250602082015167ffffffffffffffff8111156128fc576128fb612564565b5b612908848285016125c0565b602083015250604082015167ffffffffffffffff81111561292c5761292b612564565b5b612938848285016125c0565b604083015250606082015167ffffffffffffffff81111561295c5761295b612564565b5b612968848285016125c0565b606083015250608061297c8482850161284a565b60808301525092915050565b60006020828403121561299e5761299d611957565b5b600082015167ffffffffffffffff8111156129bc576129bb61195c565b5b6129c88482850161288c565b91505092915050565b600067ffffffffffffffff8211156129ec576129eb61197c565b5b602082029050602081019050919050565b600080fd5b6000612a15612a10846129d1565b6119dc565b90508083825260208201905060208402830185811115612a3857612a376129fd565b5b835b81811015612a7f57805167ffffffffffffffff811115612a5d57612a5c611961565b5b808601612a6a89826125c0565b85526020850194505050602081019050612a3a565b5050509392505050565b600082601f830112612a9e57612a9d611961565b5b8151612aae848260208601612a02565b91505092915050565b600060208284031215612acd57612acc611957565b5b600082015167ffffffffffffffff811115612aeb57612aea61195c565b5b612af784828501612a89565b91505092915050565b600067ffffffffffffffff821115612b1b57612b1a61197c565b5b602082029050602081019050919050565b6000612b3f612b3a84612b00565b6119dc565b90508083825260208201905060208402830185811115612b6257612b616129fd565b5b835b81811015612ba957805167ffffffffffffffff811115612b8757612b86611961565b5b808601612b94898261288c565b85526020850194505050602081019050612b64565b5050509392505050565b600082601f830112612bc857612bc7611961565b5b8151612bd8848260208601612b2c565b91505092915050565b600060208284031215612bf757612bf6611957565b5b600082015167ffffffffffffffff811115612c1557612c1461195c565b5b612c2184828501612bb3565b91505092915050565b60008060408385031215612c4157612c40611957565b5b600083015167ffffffffffffffff811115612c5f57612c5e61195c565b5b612c6b858286016125c0565b9250506020612c7c858286016125ee565b9150509250929050565b600060c082019050612c9b6000830189612768565b8181036020830152612cad81886120ea565b90508181036040830152612cc181876120ea565b90508181036060830152612cd581866120ea565b90508181036080830152612ce981856120ea565b9050612cf860a0830184611c7e565b979650505050505050565b6000608082019050612d186000830187612768565b8181036020830152612d2a81866120ea565b9050612d39604083018561218b565b8181036060830152612d4b81846120ea565b905095945050505050565b7f53656c6c6572206e6f7420666f756e6400000000000000000000000000000000600082015250565b6000612d8c6010836120d9565b9150612d9782612d56565b602082019050919050565b60006020820190508181036000830152612dbb81612d7f565b905091905056fea2646970667358221220e0dd8c13f862c1c3a88fb6bfe8355279e8a71a3417c026ddc723cc5c74dfb7d164736f6c634300081e0033",
  "linkReferences": {},
  "deployedLinkReferences": {}
}