{
  "_format": "hh-sol-artifact-1",
  "contractName": "SupplyChain",
  "sourceName": "contracts/SupplyChain.sol",
  "abi": [
    {
      "inputs": [
        {
          "internalType": "address",
          "name": "_users",
          "type": "address"
        },
        {
          "internalType": "address",
          "name": "_products",
          "type": "address"
        }
      ],
      "stateMutability": "nonpayable",
      "type": "constructor"
    },
    {
      "inputs": [],
      "name": "products",
      "outputs": [
        {
          "internalType": "contract Products",
          "name": "",
          "type": "address"
        }
      ],
      "stateMutability": "view",
      "type": "function"
    },
    {
      "inputs": [
        {
          "internalType": "string",
          "name": "_name",
          "type": "string"
        },
        {
          "internalType": "string",
          "name": "_manufacturerName",
          "type": "string"
        },
        {
          "internalType": "string",
          "name": "_barcode",
          "type": "string"
        },
        {
          "internalType": "string",
          "name": "_manufacturedTime",
          "type": "string"
        }
      ],
      "name": "registerProduct",
      "outputs": [],
      "stateMutability": "nonpayable",
      "type": "function"
    },
    {
      "inputs": [
        {
          "internalType": "string",
          "name": "_name",
          "type": "string"
        },
        {
          "internalType": "enum Types.UserRole",
          "name": "_role",
          "type": "uint8"
        }
      ],
      "name": "registerUser",
      "outputs": [],
      "stateMutability": "nonpayable",
      "type": "function"
    },
    {
      "inputs": [
        {
          "internalType": "address",
          "name": "_addr",
          "type": "address"
        }
      ],
      "name": "returnUser",
      "outputs": [
        {
          "components": [
            {
              "internalType": "address",
              "name": "userAddress",
              "type": "address"
            },
            {
              "internalType": "string",
              "name": "name",
              "type": "string"
            },
            {
              "internalType": "enum Types.UserRole",
              "name": "role",
              "type": "uint8"
            }
          ],
          "internalType": "struct Types.User",
          "name": "",
          "type": "tuple"
        }
      ],
      "stateMutability": "view",
      "type": "function"
    },
    {
      "inputs": [
        {
          "internalType": "address",
          "name": "_addr",
          "type": "address"
        }
      ],
      "name": "returnUserInfo",
      "outputs": [
        {
          "internalType": "string",
          "name": "name",
          "type": "string"
        },
        {
          "internalType": "enum Types.UserRole",
          "name": "role",
          "type": "uint8"
        }
      ],
      "stateMutability": "view",
      "type": "function"
    },
    {
      "inputs": [
        {
          "internalType": "address",
          "name": "buyer",
          "type": "address"
        },
        {
          "internalType": "string",
          "name": "_barcode",
          "type": "string"
        }
      ],
      "name": "sellProduct",
      "outputs": [],
      "stateMutability": "nonpayable",
      "type": "function"
    },
    {
      "inputs": [],
      "name": "users",
      "outputs": [
        {
          "internalType": "contract Users",
          "name": "",
          "type": "address"
        }
      ],
      "stateMutability": "view",
      "type": "function"
    }
  ],
  "bytecode": "0x608060405234801561001057600080fd5b506040516110aa3803806110aa833981810160405281019061003291906101aa565b816000806101000a81548173ffffffffffffffffffffffffffffffffffffffff021916908373ffffffffffffffffffffffffffffffffffffffff16021790555080600160006101000a81548173ffffffffffffffffffffffffffffffffffffffff021916908373ffffffffffffffffffffffffffffffffffffffff160217905550600160009054906101000a900473ffffffffffffffffffffffffffffffffffffffff1673ffffffffffffffffffffffffffffffffffffffff1663c60bdc7f836040518263ffffffff1660e01b815260040161010e91906101f9565b600060405180830381600087803b15801561012857600080fd5b505af115801561013c573d6000803e3d6000fd5b505050505050610214565b600080fd5b600073ffffffffffffffffffffffffffffffffffffffff82169050919050565b60006101778261014c565b9050919050565b6101878161016c565b811461019257600080fd5b50565b6000815190506101a48161017e565b92915050565b600080604083850312156101c1576101c0610147565b5b60006101cf85828601610195565b92505060206101e085828601610195565b9150509250929050565b6101f38161016c565b82525050565b600060208201905061020e60008301846101ea565b92915050565b610e87806102236000396000f3fe608060405234801561001057600080fd5b506004361061007d5760003560e01c8063bb8d6b1d1161005b578063bb8d6b1d146100eb578063c71e261f1461011b578063e30d40f614610139578063f2020275146101555761007d565b8063338e12eb146100825780637ce7b7e01461009e5780638799d6fc146100cf575b600080fd5b61009c600480360381019061009791906106a3565b610173565b005b6100b860048036038101906100b3919061075d565b610206565b6040516100c6929190610880565b60405180910390f35b6100e960048036038101906100e491906108b0565b6102b3565b005b6101056004803603810190610100919061075d565b61034e565b6040516101129190610a3f565b60405180910390f35b6101236103fc565b6040516101309190610ac0565b60405180910390f35b610153600480360381019061014e9190610adb565b610422565b005b61015d6104b7565b60405161016a9190610b58565b60405180910390f35b60008054906101000a900473ffffffffffffffffffffffffffffffffffffffff1673ffffffffffffffffffffffffffffffffffffffff166340d268543384846040518463ffffffff1660e01b81526004016101d093929190610b82565b600060405180830381600087803b1580156101ea57600080fd5b505af11580156101fe573d6000803e3d6000fd5b505050505050565b606060008060009054906101000a900473ffffffffffffffffffffffffffffffffffffffff1673ffffffffffffffffffffffffffffffffffffffff16636386c1c7846040518263ffffffff1660e01b81526004016102649190610bc0565b600060405180830381865afa158015610281573d6000803e3d6000fd5b505050506040513d6000823e3d601f19601f820116820180604052508101906102aa9190610c60565b91509150915091565b600160009054906101000a900473ffffffffffffffffffffffffffffffffffffffff1673ffffffffffffffffffffffffffffffffffffffff1663e5e20ac933868686866040518663ffffffff1660e01b8152600401610316959493929190610cbc565b600060405180830381600087803b15801561033057600080fd5b505af1158015610344573d6000803e3d6000fd5b5050505050505050565b6103566104db565b60008054906101000a900473ffffffffffffffffffffffffffffffffffffffff1673ffffffffffffffffffffffffffffffffffffffff16636f77926b836040518263ffffffff1660e01b81526004016103af9190610bc0565b600060405180830381865afa1580156103cc573d6000803e3d6000fd5b505050506040513d6000823e3d601f19601f820116820180604052508101906103f59190610dca565b9050919050565b600160009054906101000a900473ffffffffffffffffffffffffffffffffffffffff1681565b600160009054906101000a900473ffffffffffffffffffffffffffffffffffffffff1673ffffffffffffffffffffffffffffffffffffffff1663e0c57ec83384846040518463ffffffff1660e01b815260040161048193929190610e13565b600060405180830381600087803b15801561049b57600080fd5b505af11580156104af573d6000803e3d6000fd5b505050505050565b60008054906101000a900473ffffffffffffffffffffffffffffffffffffffff1681565b6040518060600160405280600073ffffffffffffffffffffffffffffffffffffffff168152602001606081526020016000600381111561051e5761051d610809565b5b81525090565b6000604051905090565b600080fd5b600080fd5b600080fd5b600080fd5b6000601f19601f8301169050919050565b7f4e487b7100000000000000000000000000000000000000000000000000000000600052604160045260246000fd5b61058b82610542565b810181811067ffffffffffffffff821117156105aa576105a9610553565b5b80604052505050565b60006105bd610524565b90506105c98282610582565b919050565b600067ffffffffffffffff8211156105e9576105e8610553565b5b6105f282610542565b9050602081019050919050565b82818337600083830152505050565b600061062161061c846105ce565b6105b3565b90508281526020810184848401111561063d5761063c61053d565b5b6106488482856105ff565b509392505050565b600082601f83011261066557610664610538565b5b813561067584826020860161060e565b91505092915050565b6004811061068b57600080fd5b50565b60008135905061069d8161067e565b92915050565b600080604083850312156106ba576106b961052e565b5b600083013567ffffffffffffffff8111156106d8576106d7610533565b5b6106e485828601610650565b92505060206106f58582860161068e565b9150509250929050565b600073ffffffffffffffffffffffffffffffffffffffff82169050919050565b600061072a826106ff565b9050919050565b61073a8161071f565b811461074557600080fd5b50565b60008135905061075781610731565b92915050565b6000602082840312156107735761077261052e565b5b600061078184828501610748565b91505092915050565b600081519050919050565b600082825260208201905092915050565b60005b838110156107c45780820151818401526020810190506107a9565b60008484015250505050565b60006107db8261078a565b6107e58185610795565b93506107f58185602086016107a6565b6107fe81610542565b840191505092915050565b7f4e487b7100000000000000000000000000000000000000000000000000000000600052602160045260246000fd5b6004811061084957610848610809565b5b50565b600081905061085a82610838565b919050565b600061086a8261084c565b9050919050565b61087a8161085f565b82525050565b6000604082019050818103600083015261089a81856107d0565b90506108a96020830184610871565b9392505050565b600080600080608085870312156108ca576108c961052e565b5b600085013567ffffffffffffffff8111156108e8576108e7610533565b5b6108f487828801610650565b945050602085013567ffffffffffffffff81111561091557610914610533565b5b61092187828801610650565b935050604085013567ffffffffffffffff81111561094257610941610533565b5b61094e87828801610650565b925050606085013567ffffffffffffffff81111561096f5761096e610533565b5b61097b87828801610650565b91505092959194509250565b6109908161071f565b82525050565b600082825260208201905092915050565b60006109b28261078a565b6109bc8185610996565b93506109cc8185602086016107a6565b6109d581610542565b840191505092915050565b6109e98161085f565b82525050565b6000606083016000830151610a076000860182610987565b5060208301518482036020860152610a1f82826109a7565b9150506040830151610a3460408601826109e0565b508091505092915050565b60006020820190508181036000830152610a5981846109ef565b905092915050565b6000819050919050565b6000610a86610a81610a7c846106ff565b610a61565b6106ff565b9050919050565b6000610a9882610a6b565b9050919050565b6000610aaa82610a8d565b9050919050565b610aba81610a9f565b82525050565b6000602082019050610ad56000830184610ab1565b92915050565b60008060408385031215610af257610af161052e565b5b6000610b0085828601610748565b925050602083013567ffffffffffffffff811115610b2157610b20610533565b5b610b2d85828601610650565b9150509250929050565b6000610b4282610a8d565b9050919050565b610b5281610b37565b82525050565b6000602082019050610b6d6000830184610b49565b92915050565b610b7c8161071f565b82525050565b6000606082019050610b976000830186610b73565b8181036020830152610ba981856107d0565b9050610bb86040830184610871565b949350505050565b6000602082019050610bd56000830184610b73565b92915050565b6000610bee610be9846105ce565b6105b3565b905082815260208101848484011115610c0a57610c0961053d565b5b610c158482856107a6565b509392505050565b600082601f830112610c3257610c31610538565b5b8151610c42848260208601610bdb565b91505092915050565b600081519050610c5a8161067e565b92915050565b60008060408385031215610c7757610c7661052e565b5b600083015167ffffffffffffffff811115610c9557610c94610533565b5b610ca185828601610c1d565b9250506020610cb285828601610c4b565b9150509250929050565b600060a082019050610cd16000830188610b73565b8181036020830152610ce381876107d0565b90508181036040830152610cf781866107d0565b90508181036060830152610d0b81856107d0565b90508181036080830152610d1f81846107d0565b90509695505050505050565b600080fd5b600080fd5b600081519050610d4481610731565b92915050565b600060608284031215610d6057610d5f610d2b565b5b610d6a60606105b3565b90506000610d7a84828501610d35565b600083015250602082015167ffffffffffffffff811115610d9e57610d9d610d30565b5b610daa84828501610c1d565b6020830152506040610dbe84828501610c4b565b60408301525092915050565b600060208284031215610de057610ddf61052e565b5b600082015167ffffffffffffffff811115610dfe57610dfd610533565b5b610e0a84828501610d4a565b91505092915050565b6000606082019050610e286000830186610b73565b610e356020830185610b73565b8181036040830152610e4781846107d0565b905094935050505056fea2646970667358221220f934ee7f0e49944b482d71f49717326f4ffc022837a0477c43974ae722b051a264736f6c634300081e0033",
  "linkReferences": {},
  "deployedLinkReferences": {}
}