{
  "_format": "hh-sol-artifact-1",
  "contractName": "SupplyChain",
  "sourceName": "contracts/SupplyChain.sol",
  "abi": [
    {
      "inputs": [
        {
          "internalType": "address",
          "name": "_users",
          "type": "address"
        },
        {
          "internalType": "address",
          "name": "_products",
          "type": "address"
        }
      ],
      "stateMutability": "nonpayable",
      "type": "constructor"
    },
    {
      "inputs": [
        {
          "internalType": "string",
          "name": "_barcode",
          "type": "string"
        }
      ],
      "name": "getProductByBarcode",
      "outputs": [
        {
          "components": [
            {
              "internalType": "string",
              "name": "name",
              "type": "string"
            },
            {
              "internalType": "string",
              "name": "manufacturerName",
              "type": "string"
            },
            {
              "internalType": "string",
              "name": "barcode",
              "type": "string"
            },
            {
              "internalType": "string",
              "name": "manufacturedTime",
              "type": "string"
            }
          ],
          "internalType": "struct Types.Product",
          "name": "",
          "type": "tuple"
        }
      ],
      "stateMutability": "view",
      "type": "function"
    },
    {
      "inputs": [
        {
          "internalType": "string",
          "name": "_publicKey",
          "type": "string"
        }
      ],
      "name": "getUserByPublicKey",
      "outputs": [
        {
          "components": [
            {
              "internalType": "address",
              "name": "userAddress",
              "type": "address"
            },
            {
              "internalType": "string",
              "name": "name",
              "type": "string"
            },
            {
              "internalType": "enum Types.UserRole",
              "name": "role",
              "type": "uint8"
            },
            {
              "internalType": "string",
              "name": "publicKey",
              "type": "string"
            }
          ],
          "internalType": "struct Types.User",
          "name": "",
          "type": "tuple"
        }
      ],
      "stateMutability": "view",
      "type": "function"
    },
    {
      "inputs": [
        {
          "internalType": "address",
          "name": "user",
          "type": "address"
        }
      ],
      "name": "getUserInventory",
      "outputs": [
        {
          "internalType": "string[]",
          "name": "",
          "type": "string[]"
        }
      ],
      "stateMutability": "view",
      "type": "function"
    },
    {
      "inputs": [
        {
          "internalType": "string",
          "name": "publicKey",
          "type": "string"
        }
      ],
      "name": "getUserInventoryByPublicKey",
      "outputs": [
        {
          "internalType": "string[]",
          "name": "",
          "type": "string[]"
        }
      ],
      "stateMutability": "view",
      "type": "function"
    },
    {
      "inputs": [
        {
          "internalType": "address",
          "name": "user",
          "type": "address"
        }
      ],
      "name": "getUserInventoryWithDetails",
      "outputs": [
        {
          "components": [
            {
              "internalType": "string",
              "name": "name",
              "type": "string"
            },
            {
              "internalType": "string",
              "name": "manufacturerName",
              "type": "string"
            },
            {
              "internalType": "string",
              "name": "barcode",
              "type": "string"
            },
            {
              "internalType": "string",
              "name": "manufacturedTime",
              "type": "string"
            }
          ],
          "internalType": "struct Types.Product[]",
          "name": "",
          "type": "tuple[]"
        }
      ],
      "stateMutability": "view",
      "type": "function"
    },
    {
      "inputs": [
        {
          "internalType": "string",
          "name": "publicKey",
          "type": "string"
        }
      ],
      "name": "getUserInventoryWithDetailsByPublicKey",
      "outputs": [
        {
          "components": [
            {
              "internalType": "string",
              "name": "name",
              "type": "string"
            },
            {
              "internalType": "string",
              "name": "manufacturerName",
              "type": "string"
            },
            {
              "internalType": "string",
              "name": "barcode",
              "type": "string"
            },
            {
              "internalType": "string",
              "name": "manufacturedTime",
              "type": "string"
            }
          ],
          "internalType": "struct Types.Product[]",
          "name": "",
          "type": "tuple[]"
        }
      ],
      "stateMutability": "view",
      "type": "function"
    },
    {
      "inputs": [
        {
          "internalType": "address",
          "name": "seller",
          "type": "address"
        },
        {
          "internalType": "address",
          "name": "buyer",
          "type": "address"
        }
      ],
      "name": "isSaleAllowed",
      "outputs": [
        {
          "internalType": "bool",
          "name": "",
          "type": "bool"
        }
      ],
      "stateMutability": "view",
      "type": "function"
    },
    {
      "inputs": [
        {
          "internalType": "string",
          "name": "sellerPublicKey",
          "type": "string"
        },
        {
          "internalType": "string",
          "name": "buyerPublicKey",
          "type": "string"
        }
      ],
      "name": "isSaleAllowedByPublicKey",
      "outputs": [
        {
          "internalType": "bool",
          "name": "",
          "type": "bool"
        }
      ],
      "stateMutability": "view",
      "type": "function"
    },
    {
      "inputs": [
        {
          "internalType": "address",
          "name": "user",
          "type": "address"
        }
      ],
      "name": "isUserManufacturer",
      "outputs": [
        {
          "internalType": "bool",
          "name": "",
          "type": "bool"
        }
      ],
      "stateMutability": "view",
      "type": "function"
    },
    {
      "inputs": [],
      "name": "products",
      "outputs": [
        {
          "internalType": "contract Products",
          "name": "",
          "type": "address"
        }
      ],
      "stateMutability": "view",
      "type": "function"
    },
    {
      "inputs": [
        {
          "internalType": "string",
          "name": "_name",
          "type": "string"
        },
        {
          "internalType": "string",
          "name": "_manufacturerName",
          "type": "string"
        },
        {
          "internalType": "string",
          "name": "_barcode",
          "type": "string"
        },
        {
          "internalType": "string",
          "name": "_manufacturedTime",
          "type": "string"
        }
      ],
      "name": "registerProduct",
      "outputs": [],
      "stateMutability": "nonpayable",
      "type": "function"
    },
    {
      "inputs": [
        {
          "internalType": "string",
          "name": "_name",
          "type": "string"
        },
        {
          "internalType": "enum Types.UserRole",
          "name": "_role",
          "type": "uint8"
        },
        {
          "internalType": "string",
          "name": "_publicKey",
          "type": "string"
        }
      ],
      "name": "registerUser",
      "outputs": [],
      "stateMutability": "nonpayable",
      "type": "function"
    },
    {
      "inputs": [
        {
          "internalType": "address",
          "name": "_addr",
          "type": "address"
        }
      ],
      "name": "returnUser",
      "outputs": [
        {
          "components": [
            {
              "internalType": "address",
              "name": "userAddress",
              "type": "address"
            },
            {
              "internalType": "string",
              "name": "name",
              "type": "string"
            },
            {
              "internalType": "enum Types.UserRole",
              "name": "role",
              "type": "uint8"
            },
            {
              "internalType": "string",
              "name": "publicKey",
              "type": "string"
            }
          ],
          "internalType": "struct Types.User",
          "name": "",
          "type": "tuple"
        }
      ],
      "stateMutability": "view",
      "type": "function"
    },
    {
      "inputs": [
        {
          "internalType": "address",
          "name": "_addr",
          "type": "address"
        }
      ],
      "name": "returnUserInfo",
      "outputs": [
        {
          "internalType": "string",
          "name": "name",
          "type": "string"
        },
        {
          "internalType": "enum Types.UserRole",
          "name": "role",
          "type": "uint8"
        }
      ],
      "stateMutability": "view",
      "type": "function"
    },
    {
      "inputs": [
        {
          "internalType": "address",
          "name": "buyer",
          "type": "address"
        },
        {
          "internalType": "string",
          "name": "_barcode",
          "type": "string"
        }
      ],
      "name": "sellProduct",
      "outputs": [],
      "stateMutability": "nonpayable",
      "type": "function"
    },
    {
      "inputs": [
        {
          "internalType": "string",
          "name": "buyerPublicKey",
          "type": "string"
        },
        {
          "internalType": "string",
          "name": "_barcode",
          "type": "string"
        }
      ],
      "name": "sellProductByPublicKey",
      "outputs": [],
      "stateMutability": "nonpayable",
      "type": "function"
    },
    {
      "inputs": [],
      "name": "users",
      "outputs": [
        {
          "internalType": "contract Users",
          "name": "",
          "type": "address"
        }
      ],
      "stateMutability": "view",
      "type": "function"
    }
  ],
  "bytecode": "0x608060405234801561001057600080fd5b50604051612b78380380612b78833981810160405281019061003291906101aa565b816000806101000a81548173ffffffffffffffffffffffffffffffffffffffff021916908373ffffffffffffffffffffffffffffffffffffffff16021790555080600160006101000a81548173ffffffffffffffffffffffffffffffffffffffff021916908373ffffffffffffffffffffffffffffffffffffffff160217905550600160009054906101000a900473ffffffffffffffffffffffffffffffffffffffff1673ffffffffffffffffffffffffffffffffffffffff1663c60bdc7f836040518263ffffffff1660e01b815260040161010e91906101f9565b600060405180830381600087803b15801561012857600080fd5b505af115801561013c573d6000803e3d6000fd5b505050505050610214565b600080fd5b600073ffffffffffffffffffffffffffffffffffffffff82169050919050565b60006101778261014c565b9050919050565b6101878161016c565b811461019257600080fd5b50565b6000815190506101a48161017e565b92915050565b600080604083850312156101c1576101c0610147565b5b60006101cf85828601610195565b92505060206101e085828601610195565b9150509250929050565b6101f38161016c565b82525050565b600060208201905061020e60008301846101ea565b92915050565b612955806102236000396000f3fe608060405234801561001057600080fd5b506004361061010b5760003560e01c8063a2b5e320116100a2578063c71e261f11610071578063c71e261f14610315578063d1d6886914610333578063db35369a14610363578063e30d40f614610393578063f2020275146103af5761010b565b8063a2b5e32014610269578063a9ea55f114610285578063b00aebd6146102b5578063bb8d6b1d146102e55761010b565b806375234f66116100de57806375234f66146101bc5780637ce7b7e0146101ec57806384fb0ee21461021d5780638799d6fc1461024d5761010b565b806334dd1292146101105780633f5e87f7146101405780635714cc8e146101705780636a5ce948146101a0575b600080fd5b61012a600480360381019061012591906117bd565b6103cd565b60405161013791906118fd565b60405180910390f35b61015a6004803603810190610155919061197d565b61047d565b60405161016791906119d8565b60405180910390f35b61018a600480360381019061018591906119f3565b610700565b6040516101979190611ae2565b60405180910390f35b6101ba60048036038101906101b59190611b04565b6107aa565b005b6101d660048036038101906101d191906119f3565b61095b565b6040516101e39190611cb6565b60405180910390f35b610206600480360381019061020191906119f3565b610a05565b604051610214929190611d99565b60405180910390f35b610237600480360381019061023291906117bd565b610ab2565b6040516102449190611cb6565b60405180910390f35b61026760048036038101906102629190611dc9565b610c78565b005b610283600480360381019061027e9190611ec5565b610d13565b005b61029f600480360381019061029a91906119f3565b610da9565b6040516102ac91906119d8565b60405180910390f35b6102cf60048036038101906102ca9190611b04565b610e81565b6040516102dc91906119d8565b60405180910390f35b6102ff60048036038101906102fa91906119f3565b6111ea565b60405161030c9190611fd8565b60405180910390f35b61031d611298565b60405161032a9190612059565b60405180910390f35b61034d600480360381019061034891906117bd565b6112be565b60405161035a9190611ae2565b60405180910390f35b61037d600480360381019061037891906117bd565b611484565b60405161038a9190611fd8565b60405180910390f35b6103ad60048036038101906103a89190612074565b611532565b005b6103b76115c7565b6040516103c491906120f1565b60405180910390f35b6103d56115eb565b600160009054906101000a900473ffffffffffffffffffffffffffffffffffffffff1673ffffffffffffffffffffffffffffffffffffffff166334dd1292836040518263ffffffff1660e01b8152600401610430919061210c565b600060405180830381865afa15801561044d573d6000803e3d6000fd5b505050506040513d6000823e3d601f19601f820116820180604052508101906104769190612290565b9050919050565b60008060008054906101000a900473ffffffffffffffffffffffffffffffffffffffff1673ffffffffffffffffffffffffffffffffffffffff16636f77926b856040518263ffffffff1660e01b81526004016104d991906122e8565b600060405180830381865afa1580156104f6573d6000803e3d6000fd5b505050506040513d6000823e3d601f19601f8201168201806040525081019061051f91906123dd565b905060008060009054906101000a900473ffffffffffffffffffffffffffffffffffffffff1673ffffffffffffffffffffffffffffffffffffffff16636f77926b856040518263ffffffff1660e01b815260040161057d91906122e8565b600060405180830381865afa15801561059a573d6000803e3d6000fd5b505050506040513d6000823e3d601f19601f820116820180604052508101906105c391906123dd565b9050600060038111156105d9576105d8611d22565b5b826040015160038111156105f0576105ef611d22565b5b0361062a576001600381111561060957610608611d22565b5b816040015160038111156106205761061f611d22565b5b14925050506106fa565b6001600381111561063e5761063d611d22565b5b8260400151600381111561065557610654611d22565b5b0361068f576002600381111561066e5761066d611d22565b5b8160400151600381111561068557610684611d22565b5b14925050506106fa565b600260038111156106a3576106a2611d22565b5b826040015160038111156106ba576106b9611d22565b5b036106f3576003808111156106d2576106d1611d22565b5b816040015160038111156106e9576106e8611d22565b5b14925050506106fa565b6000925050505b92915050565b6060600160009054906101000a900473ffffffffffffffffffffffffffffffffffffffff1673ffffffffffffffffffffffffffffffffffffffff16635714cc8e836040518263ffffffff1660e01b815260040161075d91906122e8565b600060405180830381865afa15801561077a573d6000803e3d6000fd5b505050506040513d6000823e3d601f19601f820116820180604052508101906107a3919061250c565b9050919050565b60008060009054906101000a900473ffffffffffffffffffffffffffffffffffffffff1673ffffffffffffffffffffffffffffffffffffffff1663db35369a846040518263ffffffff1660e01b8152600401610806919061210c565b600060405180830381865afa158015610823573d6000803e3d6000fd5b505050506040513d6000823e3d601f19601f8201168201806040525081019061084c91906123dd565b9050600073ffffffffffffffffffffffffffffffffffffffff16816000015173ffffffffffffffffffffffffffffffffffffffff16036108c1576040517f08c379a00000000000000000000000000000000000000000000000000000000081526004016108b8906125a1565b60405180910390fd5b600160009054906101000a900473ffffffffffffffffffffffffffffffffffffffff1673ffffffffffffffffffffffffffffffffffffffff1663e0c57ec8338360000151856040518463ffffffff1660e01b8152600401610924939291906125c1565b600060405180830381600087803b15801561093e57600080fd5b505af1158015610952573d6000803e3d6000fd5b50505050505050565b6060600160009054906101000a900473ffffffffffffffffffffffffffffffffffffffff1673ffffffffffffffffffffffffffffffffffffffff166375234f66836040518263ffffffff1660e01b81526004016109b891906122e8565b600060405180830381865afa1580156109d5573d6000803e3d6000fd5b505050506040513d6000823e3d601f19601f820116820180604052508101906109fe91906126e0565b9050919050565b606060008060009054906101000a900473ffffffffffffffffffffffffffffffffffffffff1673ffffffffffffffffffffffffffffffffffffffff16636386c1c7846040518263ffffffff1660e01b8152600401610a6391906122e8565b600060405180830381865afa158015610a80573d6000803e3d6000fd5b505050506040513d6000823e3d601f19601f82011682018060405250810190610aa99190612729565b91509150915091565b606060008060009054906101000a900473ffffffffffffffffffffffffffffffffffffffff1673ffffffffffffffffffffffffffffffffffffffff1663db35369a846040518263ffffffff1660e01b8152600401610b10919061210c565b600060405180830381865afa158015610b2d573d6000803e3d6000fd5b505050506040513d6000823e3d601f19601f82011682018060405250810190610b5691906123dd565b9050600073ffffffffffffffffffffffffffffffffffffffff16816000015173ffffffffffffffffffffffffffffffffffffffff1603610bcb576040517f08c379a0000000000000000000000000000000000000000000000000000000008152600401610bc2906127d1565b60405180910390fd5b600160009054906101000a900473ffffffffffffffffffffffffffffffffffffffff1673ffffffffffffffffffffffffffffffffffffffff166375234f6682600001516040518263ffffffff1660e01b8152600401610c2a91906122e8565b600060405180830381865afa158015610c47573d6000803e3d6000fd5b505050506040513d6000823e3d601f19601f82011682018060405250810190610c7091906126e0565b915050919050565b600160009054906101000a900473ffffffffffffffffffffffffffffffffffffffff1673ffffffffffffffffffffffffffffffffffffffff1663e5e20ac933868686866040518663ffffffff1660e01b8152600401610cdb9594939291906127f1565b600060405180830381600087803b158015610cf557600080fd5b505af1158015610d09573d6000803e3d6000fd5b5050505050505050565b60008054906101000a900473ffffffffffffffffffffffffffffffffffffffff1673ffffffffffffffffffffffffffffffffffffffff166365a410a3338585856040518563ffffffff1660e01b8152600401610d729493929190612860565b600060405180830381600087803b158015610d8c57600080fd5b505af1158015610da0573d6000803e3d6000fd5b50505050505050565b60008060008054906101000a900473ffffffffffffffffffffffffffffffffffffffff1673ffffffffffffffffffffffffffffffffffffffff16636f77926b846040518263ffffffff1660e01b8152600401610e0591906122e8565b600060405180830381865afa158015610e22573d6000803e3d6000fd5b505050506040513d6000823e3d601f19601f82011682018060405250810190610e4b91906123dd565b905060006003811115610e6157610e60611d22565b5b81604001516003811115610e7857610e77611d22565b5b14915050919050565b60008060008054906101000a900473ffffffffffffffffffffffffffffffffffffffff1673ffffffffffffffffffffffffffffffffffffffff1663db35369a856040518263ffffffff1660e01b8152600401610edd919061210c565b600060405180830381865afa158015610efa573d6000803e3d6000fd5b505050506040513d6000823e3d601f19601f82011682018060405250810190610f2391906123dd565b905060008060009054906101000a900473ffffffffffffffffffffffffffffffffffffffff1673ffffffffffffffffffffffffffffffffffffffff1663db35369a856040518263ffffffff1660e01b8152600401610f81919061210c565b600060405180830381865afa158015610f9e573d6000803e3d6000fd5b505050506040513d6000823e3d601f19601f82011682018060405250810190610fc791906123dd565b9050600073ffffffffffffffffffffffffffffffffffffffff16826000015173ffffffffffffffffffffffffffffffffffffffff160361103c576040517f08c379a0000000000000000000000000000000000000000000000000000000008152600401611033906128ff565b60405180910390fd5b600073ffffffffffffffffffffffffffffffffffffffff16816000015173ffffffffffffffffffffffffffffffffffffffff16036110af576040517f08c379a00000000000000000000000000000000000000000000000000000000081526004016110a6906125a1565b60405180910390fd5b600060038111156110c3576110c2611d22565b5b826040015160038111156110da576110d9611d22565b5b0361111457600160038111156110f3576110f2611d22565b5b8160400151600381111561110a57611109611d22565b5b14925050506111e4565b6001600381111561112857611127611d22565b5b8260400151600381111561113f5761113e611d22565b5b03611179576002600381111561115857611157611d22565b5b8160400151600381111561116f5761116e611d22565b5b14925050506111e4565b6002600381111561118d5761118c611d22565b5b826040015160038111156111a4576111a3611d22565b5b036111dd576003808111156111bc576111bb611d22565b5b816040015160038111156111d3576111d2611d22565b5b14925050506111e4565b6000925050505b92915050565b6111f2611613565b60008054906101000a900473ffffffffffffffffffffffffffffffffffffffff1673ffffffffffffffffffffffffffffffffffffffff16636f77926b836040518263ffffffff1660e01b815260040161124b91906122e8565b600060405180830381865afa158015611268573d6000803e3d6000fd5b505050506040513d6000823e3d601f19601f8201168201806040525081019061129191906123dd565b9050919050565b600160009054906101000a900473ffffffffffffffffffffffffffffffffffffffff1681565b606060008060009054906101000a900473ffffffffffffffffffffffffffffffffffffffff1673ffffffffffffffffffffffffffffffffffffffff1663db35369a846040518263ffffffff1660e01b815260040161131c919061210c565b600060405180830381865afa158015611339573d6000803e3d6000fd5b505050506040513d6000823e3d601f19601f8201168201806040525081019061136291906123dd565b9050600073ffffffffffffffffffffffffffffffffffffffff16816000015173ffffffffffffffffffffffffffffffffffffffff16036113d7576040517f08c379a00000000000000000000000000000000000000000000000000000000081526004016113ce906127d1565b60405180910390fd5b600160009054906101000a900473ffffffffffffffffffffffffffffffffffffffff1673ffffffffffffffffffffffffffffffffffffffff16635714cc8e82600001516040518263ffffffff1660e01b815260040161143691906122e8565b600060405180830381865afa158015611453573d6000803e3d6000fd5b505050506040513d6000823e3d601f19601f8201168201806040525081019061147c919061250c565b915050919050565b61148c611613565b60008054906101000a900473ffffffffffffffffffffffffffffffffffffffff1673ffffffffffffffffffffffffffffffffffffffff1663db35369a836040518263ffffffff1660e01b81526004016114e5919061210c565b600060405180830381865afa158015611502573d6000803e3d6000fd5b505050506040513d6000823e3d601f19601f8201168201806040525081019061152b91906123dd565b9050919050565b600160009054906101000a900473ffffffffffffffffffffffffffffffffffffffff1673ffffffffffffffffffffffffffffffffffffffff1663e0c57ec83384846040518463ffffffff1660e01b8152600401611591939291906125c1565b600060405180830381600087803b1580156115ab57600080fd5b505af11580156115bf573d6000803e3d6000fd5b505050505050565b60008054906101000a900473ffffffffffffffffffffffffffffffffffffffff1681565b6040518060800160405280606081526020016060815260200160608152602001606081525090565b6040518060800160405280600073ffffffffffffffffffffffffffffffffffffffff168152602001606081526020016000600381111561165657611655611d22565b5b8152602001606081525090565b6000604051905090565b600080fd5b600080fd5b600080fd5b600080fd5b6000601f19601f8301169050919050565b7f4e487b7100000000000000000000000000000000000000000000000000000000600052604160045260246000fd5b6116ca82611681565b810181811067ffffffffffffffff821117156116e9576116e8611692565b5b80604052505050565b60006116fc611663565b905061170882826116c1565b919050565b600067ffffffffffffffff82111561172857611727611692565b5b61173182611681565b9050602081019050919050565b82818337600083830152505050565b600061176061175b8461170d565b6116f2565b90508281526020810184848401111561177c5761177b61167c565b5b61178784828561173e565b509392505050565b600082601f8301126117a4576117a3611677565b5b81356117b484826020860161174d565b91505092915050565b6000602082840312156117d3576117d261166d565b5b600082013567ffffffffffffffff8111156117f1576117f0611672565b5b6117fd8482850161178f565b91505092915050565b600081519050919050565b600082825260208201905092915050565b60005b83811015611840578082015181840152602081019050611825565b60008484015250505050565b600061185782611806565b6118618185611811565b9350611871818560208601611822565b61187a81611681565b840191505092915050565b600060808301600083015184820360008601526118a2828261184c565b915050602083015184820360208601526118bc828261184c565b915050604083015184820360408601526118d6828261184c565b915050606083015184820360608601526118f0828261184c565b9150508091505092915050565b600060208201905081810360008301526119178184611885565b905092915050565b600073ffffffffffffffffffffffffffffffffffffffff82169050919050565b600061194a8261191f565b9050919050565b61195a8161193f565b811461196557600080fd5b50565b60008135905061197781611951565b92915050565b600080604083850312156119945761199361166d565b5b60006119a285828601611968565b92505060206119b385828601611968565b9150509250929050565b60008115159050919050565b6119d2816119bd565b82525050565b60006020820190506119ed60008301846119c9565b92915050565b600060208284031215611a0957611a0861166d565b5b6000611a1784828501611968565b91505092915050565b600081519050919050565b600082825260208201905092915050565b6000819050602082019050919050565b6000611a58838361184c565b905092915050565b6000602082019050919050565b6000611a7882611a20565b611a828185611a2b565b935083602082028501611a9485611a3c565b8060005b85811015611ad05784840389528151611ab18582611a4c565b9450611abc83611a60565b925060208a01995050600181019050611a98565b50829750879550505050505092915050565b60006020820190508181036000830152611afc8184611a6d565b905092915050565b60008060408385031215611b1b57611b1a61166d565b5b600083013567ffffffffffffffff811115611b3957611b38611672565b5b611b458582860161178f565b925050602083013567ffffffffffffffff811115611b6657611b65611672565b5b611b728582860161178f565b9150509250929050565b600081519050919050565b600082825260208201905092915050565b6000819050602082019050919050565b60006080830160008301518482036000860152611bc5828261184c565b91505060208301518482036020860152611bdf828261184c565b91505060408301518482036040860152611bf9828261184c565b91505060608301518482036060860152611c13828261184c565b9150508091505092915050565b6000611c2c8383611ba8565b905092915050565b6000602082019050919050565b6000611c4c82611b7c565b611c568185611b87565b935083602082028501611c6885611b98565b8060005b85811015611ca45784840389528151611c858582611c20565b9450611c9083611c34565b925060208a01995050600181019050611c6c565b50829750879550505050505092915050565b60006020820190508181036000830152611cd08184611c41565b905092915050565b600082825260208201905092915050565b6000611cf482611806565b611cfe8185611cd8565b9350611d0e818560208601611822565b611d1781611681565b840191505092915050565b7f4e487b7100000000000000000000000000000000000000000000000000000000600052602160045260246000fd5b60048110611d6257611d61611d22565b5b50565b6000819050611d7382611d51565b919050565b6000611d8382611d65565b9050919050565b611d9381611d78565b82525050565b60006040820190508181036000830152611db38185611ce9565b9050611dc26020830184611d8a565b9392505050565b60008060008060808587031215611de357611de261166d565b5b600085013567ffffffffffffffff811115611e0157611e00611672565b5b611e0d8782880161178f565b945050602085013567ffffffffffffffff811115611e2e57611e2d611672565b5b611e3a8782880161178f565b935050604085013567ffffffffffffffff811115611e5b57611e5a611672565b5b611e678782880161178f565b925050606085013567ffffffffffffffff811115611e8857611e87611672565b5b611e948782880161178f565b91505092959194509250565b60048110611ead57600080fd5b50565b600081359050611ebf81611ea0565b92915050565b600080600060608486031215611ede57611edd61166d565b5b600084013567ffffffffffffffff811115611efc57611efb611672565b5b611f088682870161178f565b9350506020611f1986828701611eb0565b925050604084013567ffffffffffffffff811115611f3a57611f39611672565b5b611f468682870161178f565b9150509250925092565b611f598161193f565b82525050565b611f6881611d78565b82525050565b6000608083016000830151611f866000860182611f50565b5060208301518482036020860152611f9e828261184c565b9150506040830151611fb36040860182611f5f565b5060608301518482036060860152611fcb828261184c565b9150508091505092915050565b60006020820190508181036000830152611ff28184611f6e565b905092915050565b6000819050919050565b600061201f61201a6120158461191f565b611ffa565b61191f565b9050919050565b600061203182612004565b9050919050565b600061204382612026565b9050919050565b61205381612038565b82525050565b600060208201905061206e600083018461204a565b92915050565b6000806040838503121561208b5761208a61166d565b5b600061209985828601611968565b925050602083013567ffffffffffffffff8111156120ba576120b9611672565b5b6120c68582860161178f565b9150509250929050565b60006120db82612026565b9050919050565b6120eb816120d0565b82525050565b600060208201905061210660008301846120e2565b92915050565b600060208201905081810360008301526121268184611ce9565b905092915050565b600080fd5b600080fd5b600061214b6121468461170d565b6116f2565b9050828152602081018484840111156121675761216661167c565b5b612172848285611822565b509392505050565b600082601f83011261218f5761218e611677565b5b815161219f848260208601612138565b91505092915050565b6000608082840312156121be576121bd61212e565b5b6121c860806116f2565b9050600082015167ffffffffffffffff8111156121e8576121e7612133565b5b6121f48482850161217a565b600083015250602082015167ffffffffffffffff81111561221857612217612133565b5b6122248482850161217a565b602083015250604082015167ffffffffffffffff81111561224857612247612133565b5b6122548482850161217a565b604083015250606082015167ffffffffffffffff81111561227857612277612133565b5b6122848482850161217a565b60608301525092915050565b6000602082840312156122a6576122a561166d565b5b600082015167ffffffffffffffff8111156122c4576122c3611672565b5b6122d0848285016121a8565b91505092915050565b6122e28161193f565b82525050565b60006020820190506122fd60008301846122d9565b92915050565b60008151905061231281611951565b92915050565b60008151905061232781611ea0565b92915050565b6000608082840312156123435761234261212e565b5b61234d60806116f2565b9050600061235d84828501612303565b600083015250602082015167ffffffffffffffff81111561238157612380612133565b5b61238d8482850161217a565b60208301525060406123a184828501612318565b604083015250606082015167ffffffffffffffff8111156123c5576123c4612133565b5b6123d18482850161217a565b60608301525092915050565b6000602082840312156123f3576123f261166d565b5b600082015167ffffffffffffffff81111561241157612410611672565b5b61241d8482850161232d565b91505092915050565b600067ffffffffffffffff82111561244157612440611692565b5b602082029050602081019050919050565b600080fd5b600061246a61246584612426565b6116f2565b9050808382526020820190506020840283018581111561248d5761248c612452565b5b835b818110156124d457805167ffffffffffffffff8111156124b2576124b1611677565b5b8086016124bf898261217a565b8552602085019450505060208101905061248f565b5050509392505050565b600082601f8301126124f3576124f2611677565b5b8151612503848260208601612457565b91505092915050565b6000602082840312156125225761252161166d565b5b600082015167ffffffffffffffff8111156125405761253f611672565b5b61254c848285016124de565b91505092915050565b7f4275796572206e6f7420666f756e640000000000000000000000000000000000600082015250565b600061258b600f83611cd8565b915061259682612555565b602082019050919050565b600060208201905081810360008301526125ba8161257e565b9050919050565b60006060820190506125d660008301866122d9565b6125e360208301856122d9565b81810360408301526125f58184611ce9565b9050949350505050565b600067ffffffffffffffff82111561261a57612619611692565b5b602082029050602081019050919050565b600061263e612639846125ff565b6116f2565b9050808382526020820190506020840283018581111561266157612660612452565b5b835b818110156126a857805167ffffffffffffffff81111561268657612685611677565b5b80860161269389826121a8565b85526020850194505050602081019050612663565b5050509392505050565b600082601f8301126126c7576126c6611677565b5b81516126d784826020860161262b565b91505092915050565b6000602082840312156126f6576126f561166d565b5b600082015167ffffffffffffffff81111561271457612713611672565b5b612720848285016126b2565b91505092915050565b600080604083850312156127405761273f61166d565b5b600083015167ffffffffffffffff81111561275e5761275d611672565b5b61276a8582860161217a565b925050602061277b85828601612318565b9150509250929050565b7f55736572206e6f7420666f756e64000000000000000000000000000000000000600082015250565b60006127bb600e83611cd8565b91506127c682612785565b602082019050919050565b600060208201905081810360008301526127ea816127ae565b9050919050565b600060a08201905061280660008301886122d9565b81810360208301526128188187611ce9565b9050818103604083015261282c8186611ce9565b905081810360608301526128408185611ce9565b905081810360808301526128548184611ce9565b90509695505050505050565b600060808201905061287560008301876122d9565b81810360208301526128878186611ce9565b90506128966040830185611d8a565b81810360608301526128a88184611ce9565b905095945050505050565b7f53656c6c6572206e6f7420666f756e6400000000000000000000000000000000600082015250565b60006128e9601083611cd8565b91506128f4826128b3565b602082019050919050565b60006020820190508181036000830152612918816128dc565b905091905056fea2646970667358221220114ba9ce3dc5e52ef9d65ae7a86484fd0ad49c52ac5081fc6ed85bc76d1852da64736f6c634300081e0033",
  "linkReferences": {},
  "deployedLinkReferences": {}
}