{
  "_format": "hh-sol-artifact-1",
  "contractName": "SupplyChain",
  "sourceName": "contracts/SupplyChain.sol",
  "abi": [
    {
      "inputs": [
        {
          "internalType": "address",
          "name": "_users",
          "type": "address"
        },
        {
          "internalType": "address",
          "name": "_products",
          "type": "address"
        }
      ],
      "stateMutability": "nonpayable",
      "type": "constructor"
    },
    {
      "inputs": [
        {
          "internalType": "address",
          "name": "user",
          "type": "address"
        }
      ],
      "name": "isUserManufacturer",
      "outputs": [
        {
          "internalType": "bool",
          "name": "",
          "type": "bool"
        }
      ],
      "stateMutability": "view",
      "type": "function"
    },
    {
      "inputs": [],
      "name": "products",
      "outputs": [
        {
          "internalType": "contract Products",
          "name": "",
          "type": "address"
        }
      ],
      "stateMutability": "view",
      "type": "function"
    },
    {
      "inputs": [
        {
          "internalType": "string",
          "name": "_name",
          "type": "string"
        },
        {
          "internalType": "string",
          "name": "_manufacturerName",
          "type": "string"
        },
        {
          "internalType": "string",
          "name": "_barcode",
          "type": "string"
        },
        {
          "internalType": "string",
          "name": "_manufacturedTime",
          "type": "string"
        }
      ],
      "name": "registerProduct",
      "outputs": [],
      "stateMutability": "nonpayable",
      "type": "function"
    },
    {
      "inputs": [
        {
          "internalType": "string",
          "name": "_name",
          "type": "string"
        },
        {
          "internalType": "enum Types.UserRole",
          "name": "_role",
          "type": "uint8"
        }
      ],
      "name": "registerUser",
      "outputs": [],
      "stateMutability": "nonpayable",
      "type": "function"
    },
    {
      "inputs": [
        {
          "internalType": "address",
          "name": "_addr",
          "type": "address"
        }
      ],
      "name": "returnUser",
      "outputs": [
        {
          "components": [
            {
              "internalType": "address",
              "name": "userAddress",
              "type": "address"
            },
            {
              "internalType": "string",
              "name": "name",
              "type": "string"
            },
            {
              "internalType": "enum Types.UserRole",
              "name": "role",
              "type": "uint8"
            }
          ],
          "internalType": "struct Types.User",
          "name": "",
          "type": "tuple"
        }
      ],
      "stateMutability": "view",
      "type": "function"
    },
    {
      "inputs": [
        {
          "internalType": "address",
          "name": "_addr",
          "type": "address"
        }
      ],
      "name": "returnUserInfo",
      "outputs": [
        {
          "internalType": "string",
          "name": "name",
          "type": "string"
        },
        {
          "internalType": "enum Types.UserRole",
          "name": "role",
          "type": "uint8"
        }
      ],
      "stateMutability": "view",
      "type": "function"
    },
    {
      "inputs": [
        {
          "internalType": "address",
          "name": "buyer",
          "type": "address"
        },
        {
          "internalType": "string",
          "name": "_barcode",
          "type": "string"
        }
      ],
      "name": "sellProduct",
      "outputs": [],
      "stateMutability": "nonpayable",
      "type": "function"
    },
    {
      "inputs": [],
      "name": "users",
      "outputs": [
        {
          "internalType": "contract Users",
          "name": "",
          "type": "address"
        }
      ],
      "stateMutability": "view",
      "type": "function"
    }
  ],
  "bytecode": "0x608060405234801561001057600080fd5b506040516111f33803806111f3833981810160405281019061003291906101aa565b816000806101000a81548173ffffffffffffffffffffffffffffffffffffffff021916908373ffffffffffffffffffffffffffffffffffffffff16021790555080600160006101000a81548173ffffffffffffffffffffffffffffffffffffffff021916908373ffffffffffffffffffffffffffffffffffffffff160217905550600160009054906101000a900473ffffffffffffffffffffffffffffffffffffffff1673ffffffffffffffffffffffffffffffffffffffff1663c60bdc7f836040518263ffffffff1660e01b815260040161010e91906101f9565b600060405180830381600087803b15801561012857600080fd5b505af115801561013c573d6000803e3d6000fd5b505050505050610214565b600080fd5b600073ffffffffffffffffffffffffffffffffffffffff82169050919050565b60006101778261014c565b9050919050565b6101878161016c565b811461019257600080fd5b50565b6000815190506101a48161017e565b92915050565b600080604083850312156101c1576101c0610147565b5b60006101cf85828601610195565b92505060206101e085828601610195565b9150509250929050565b6101f38161016c565b82525050565b600060208201905061020e60008301846101ea565b92915050565b610fd0806102236000396000f3fe608060405234801561001057600080fd5b50600436106100885760003560e01c8063bb8d6b1d1161005b578063bb8d6b1d14610126578063c71e261f14610156578063e30d40f614610174578063f20202751461019057610088565b8063338e12eb1461008d5780637ce7b7e0146100a95780638799d6fc146100da578063a9ea55f1146100f6575b600080fd5b6100a760048036038101906100a291906107b6565b6101ae565b005b6100c360048036038101906100be9190610870565b610241565b6040516100d1929190610993565b60405180910390f35b6100f460048036038101906100ef91906109c3565b6102ee565b005b610110600480360381019061010b9190610870565b610389565b60405161011d9190610ab5565b60405180910390f35b610140600480360381019061013b9190610870565b610461565b60405161014d9190610b88565b60405180910390f35b61015e61050f565b60405161016b9190610c09565b60405180910390f35b61018e60048036038101906101899190610c24565b610535565b005b6101986105ca565b6040516101a59190610ca1565b60405180910390f35b60008054906101000a900473ffffffffffffffffffffffffffffffffffffffff1673ffffffffffffffffffffffffffffffffffffffff166340d268543384846040518463ffffffff1660e01b815260040161020b93929190610ccb565b600060405180830381600087803b15801561022557600080fd5b505af1158015610239573d6000803e3d6000fd5b505050505050565b606060008060009054906101000a900473ffffffffffffffffffffffffffffffffffffffff1673ffffffffffffffffffffffffffffffffffffffff16636386c1c7846040518263ffffffff1660e01b815260040161029f9190610d09565b600060405180830381865afa1580156102bc573d6000803e3d6000fd5b505050506040513d6000823e3d601f19601f820116820180604052508101906102e59190610da9565b91509150915091565b600160009054906101000a900473ffffffffffffffffffffffffffffffffffffffff1673ffffffffffffffffffffffffffffffffffffffff1663e5e20ac933868686866040518663ffffffff1660e01b8152600401610351959493929190610e05565b600060405180830381600087803b15801561036b57600080fd5b505af115801561037f573d6000803e3d6000fd5b5050505050505050565b60008060008054906101000a900473ffffffffffffffffffffffffffffffffffffffff1673ffffffffffffffffffffffffffffffffffffffff16636f77926b846040518263ffffffff1660e01b81526004016103e59190610d09565b600060405180830381865afa158015610402573d6000803e3d6000fd5b505050506040513d6000823e3d601f19601f8201168201806040525081019061042b9190610f13565b9050600060038111156104415761044061091c565b5b816040015160038111156104585761045761091c565b5b14915050919050565b6104696105ee565b60008054906101000a900473ffffffffffffffffffffffffffffffffffffffff1673ffffffffffffffffffffffffffffffffffffffff16636f77926b836040518263ffffffff1660e01b81526004016104c29190610d09565b600060405180830381865afa1580156104df573d6000803e3d6000fd5b505050506040513d6000823e3d601f19601f820116820180604052508101906105089190610f13565b9050919050565b600160009054906101000a900473ffffffffffffffffffffffffffffffffffffffff1681565b600160009054906101000a900473ffffffffffffffffffffffffffffffffffffffff1673ffffffffffffffffffffffffffffffffffffffff1663e0c57ec83384846040518463ffffffff1660e01b815260040161059493929190610f5c565b600060405180830381600087803b1580156105ae57600080fd5b505af11580156105c2573d6000803e3d6000fd5b505050505050565b60008054906101000a900473ffffffffffffffffffffffffffffffffffffffff1681565b6040518060600160405280600073ffffffffffffffffffffffffffffffffffffffff16815260200160608152602001600060038111156106315761063061091c565b5b81525090565b6000604051905090565b600080fd5b600080fd5b600080fd5b600080fd5b6000601f19601f8301169050919050565b7f4e487b7100000000000000000000000000000000000000000000000000000000600052604160045260246000fd5b61069e82610655565b810181811067ffffffffffffffff821117156106bd576106bc610666565b5b80604052505050565b60006106d0610637565b90506106dc8282610695565b919050565b600067ffffffffffffffff8211156106fc576106fb610666565b5b61070582610655565b9050602081019050919050565b82818337600083830152505050565b600061073461072f846106e1565b6106c6565b9050828152602081018484840111156107505761074f610650565b5b61075b848285610712565b509392505050565b600082601f8301126107785761077761064b565b5b8135610788848260208601610721565b91505092915050565b6004811061079e57600080fd5b50565b6000813590506107b081610791565b92915050565b600080604083850312156107cd576107cc610641565b5b600083013567ffffffffffffffff8111156107eb576107ea610646565b5b6107f785828601610763565b9250506020610808858286016107a1565b9150509250929050565b600073ffffffffffffffffffffffffffffffffffffffff82169050919050565b600061083d82610812565b9050919050565b61084d81610832565b811461085857600080fd5b50565b60008135905061086a81610844565b92915050565b60006020828403121561088657610885610641565b5b60006108948482850161085b565b91505092915050565b600081519050919050565b600082825260208201905092915050565b60005b838110156108d75780820151818401526020810190506108bc565b60008484015250505050565b60006108ee8261089d565b6108f881856108a8565b93506109088185602086016108b9565b61091181610655565b840191505092915050565b7f4e487b7100000000000000000000000000000000000000000000000000000000600052602160045260246000fd5b6004811061095c5761095b61091c565b5b50565b600081905061096d8261094b565b919050565b600061097d8261095f565b9050919050565b61098d81610972565b82525050565b600060408201905081810360008301526109ad81856108e3565b90506109bc6020830184610984565b9392505050565b600080600080608085870312156109dd576109dc610641565b5b600085013567ffffffffffffffff8111156109fb576109fa610646565b5b610a0787828801610763565b945050602085013567ffffffffffffffff811115610a2857610a27610646565b5b610a3487828801610763565b935050604085013567ffffffffffffffff811115610a5557610a54610646565b5b610a6187828801610763565b925050606085013567ffffffffffffffff811115610a8257610a81610646565b5b610a8e87828801610763565b91505092959194509250565b60008115159050919050565b610aaf81610a9a565b82525050565b6000602082019050610aca6000830184610aa6565b92915050565b610ad981610832565b82525050565b600082825260208201905092915050565b6000610afb8261089d565b610b058185610adf565b9350610b158185602086016108b9565b610b1e81610655565b840191505092915050565b610b3281610972565b82525050565b6000606083016000830151610b506000860182610ad0565b5060208301518482036020860152610b688282610af0565b9150506040830151610b7d6040860182610b29565b508091505092915050565b60006020820190508181036000830152610ba28184610b38565b905092915050565b6000819050919050565b6000610bcf610bca610bc584610812565b610baa565b610812565b9050919050565b6000610be182610bb4565b9050919050565b6000610bf382610bd6565b9050919050565b610c0381610be8565b82525050565b6000602082019050610c1e6000830184610bfa565b92915050565b60008060408385031215610c3b57610c3a610641565b5b6000610c498582860161085b565b925050602083013567ffffffffffffffff811115610c6a57610c69610646565b5b610c7685828601610763565b9150509250929050565b6000610c8b82610bd6565b9050919050565b610c9b81610c80565b82525050565b6000602082019050610cb66000830184610c92565b92915050565b610cc581610832565b82525050565b6000606082019050610ce06000830186610cbc565b8181036020830152610cf281856108e3565b9050610d016040830184610984565b949350505050565b6000602082019050610d1e6000830184610cbc565b92915050565b6000610d37610d32846106e1565b6106c6565b905082815260208101848484011115610d5357610d52610650565b5b610d5e8482856108b9565b509392505050565b600082601f830112610d7b57610d7a61064b565b5b8151610d8b848260208601610d24565b91505092915050565b600081519050610da381610791565b92915050565b60008060408385031215610dc057610dbf610641565b5b600083015167ffffffffffffffff811115610dde57610ddd610646565b5b610dea85828601610d66565b9250506020610dfb85828601610d94565b9150509250929050565b600060a082019050610e1a6000830188610cbc565b8181036020830152610e2c81876108e3565b90508181036040830152610e4081866108e3565b90508181036060830152610e5481856108e3565b90508181036080830152610e6881846108e3565b90509695505050505050565b600080fd5b600080fd5b600081519050610e8d81610844565b92915050565b600060608284031215610ea957610ea8610e74565b5b610eb360606106c6565b90506000610ec384828501610e7e565b600083015250602082015167ffffffffffffffff811115610ee757610ee6610e79565b5b610ef384828501610d66565b6020830152506040610f0784828501610d94565b60408301525092915050565b600060208284031215610f2957610f28610641565b5b600082015167ffffffffffffffff811115610f4757610f46610646565b5b610f5384828501610e93565b91505092915050565b6000606082019050610f716000830186610cbc565b610f7e6020830185610cbc565b8181036040830152610f9081846108e3565b905094935050505056fea264697066735822122051f420b5b6607b4927cf3f109989703952071666c78ae411024daae0c1fc5f9e64736f6c634300081e0033",
  "linkReferences": {},
  "deployedLinkReferences": {}
}