{
  "_format": "hh-sol-artifact-1",
  "contractName": "SupplyChain",
  "sourceName": "contracts/SupplyChain.sol",
  "abi": [
    {
      "inputs": [
        {
          "internalType": "address",
          "name": "_users",
          "type": "address"
        },
        {
          "internalType": "address",
          "name": "_products",
          "type": "address"
        }
      ],
      "stateMutability": "nonpayable",
      "type": "constructor"
    },
    {
      "inputs": [
        {
          "internalType": "string",
          "name": "_publicKey",
          "type": "string"
        }
      ],
      "name": "getUserByPublicKey",
      "outputs": [
        {
          "components": [
            {
              "internalType": "address",
              "name": "userAddress",
              "type": "address"
            },
            {
              "internalType": "string",
              "name": "name",
              "type": "string"
            },
            {
              "internalType": "enum Types.UserRole",
              "name": "role",
              "type": "uint8"
            },
            {
              "internalType": "string",
              "name": "publicKey",
              "type": "string"
            }
          ],
          "internalType": "struct Types.User",
          "name": "",
          "type": "tuple"
        }
      ],
      "stateMutability": "view",
      "type": "function"
    },
    {
      "inputs": [
        {
          "internalType": "address",
          "name": "seller",
          "type": "address"
        },
        {
          "internalType": "address",
          "name": "buyer",
          "type": "address"
        }
      ],
      "name": "isSaleAllowed",
      "outputs": [
        {
          "internalType": "bool",
          "name": "",
          "type": "bool"
        }
      ],
      "stateMutability": "view",
      "type": "function"
    },
    {
      "inputs": [
        {
          "internalType": "string",
          "name": "sellerPublicKey",
          "type": "string"
        },
        {
          "internalType": "string",
          "name": "buyerPublicKey",
          "type": "string"
        }
      ],
      "name": "isSaleAllowedByPublicKey",
      "outputs": [
        {
          "internalType": "bool",
          "name": "",
          "type": "bool"
        }
      ],
      "stateMutability": "view",
      "type": "function"
    },
    {
      "inputs": [
        {
          "internalType": "address",
          "name": "user",
          "type": "address"
        }
      ],
      "name": "isUserManufacturer",
      "outputs": [
        {
          "internalType": "bool",
          "name": "",
          "type": "bool"
        }
      ],
      "stateMutability": "view",
      "type": "function"
    },
    {
      "inputs": [],
      "name": "products",
      "outputs": [
        {
          "internalType": "contract Products",
          "name": "",
          "type": "address"
        }
      ],
      "stateMutability": "view",
      "type": "function"
    },
    {
      "inputs": [
        {
          "internalType": "string",
          "name": "_name",
          "type": "string"
        },
        {
          "internalType": "string",
          "name": "_manufacturerName",
          "type": "string"
        },
        {
          "internalType": "string",
          "name": "_barcode",
          "type": "string"
        },
        {
          "internalType": "string",
          "name": "_manufacturedTime",
          "type": "string"
        }
      ],
      "name": "registerProduct",
      "outputs": [],
      "stateMutability": "nonpayable",
      "type": "function"
    },
    {
      "inputs": [
        {
          "internalType": "string",
          "name": "_name",
          "type": "string"
        },
        {
          "internalType": "enum Types.UserRole",
          "name": "_role",
          "type": "uint8"
        },
        {
          "internalType": "string",
          "name": "_publicKey",
          "type": "string"
        }
      ],
      "name": "registerUser",
      "outputs": [],
      "stateMutability": "nonpayable",
      "type": "function"
    },
    {
      "inputs": [
        {
          "internalType": "address",
          "name": "_addr",
          "type": "address"
        }
      ],
      "name": "returnUser",
      "outputs": [
        {
          "components": [
            {
              "internalType": "address",
              "name": "userAddress",
              "type": "address"
            },
            {
              "internalType": "string",
              "name": "name",
              "type": "string"
            },
            {
              "internalType": "enum Types.UserRole",
              "name": "role",
              "type": "uint8"
            },
            {
              "internalType": "string",
              "name": "publicKey",
              "type": "string"
            }
          ],
          "internalType": "struct Types.User",
          "name": "",
          "type": "tuple"
        }
      ],
      "stateMutability": "view",
      "type": "function"
    },
    {
      "inputs": [
        {
          "internalType": "address",
          "name": "_addr",
          "type": "address"
        }
      ],
      "name": "returnUserInfo",
      "outputs": [
        {
          "internalType": "string",
          "name": "name",
          "type": "string"
        },
        {
          "internalType": "enum Types.UserRole",
          "name": "role",
          "type": "uint8"
        }
      ],
      "stateMutability": "view",
      "type": "function"
    },
    {
      "inputs": [
        {
          "internalType": "address",
          "name": "buyer",
          "type": "address"
        },
        {
          "internalType": "string",
          "name": "_barcode",
          "type": "string"
        }
      ],
      "name": "sellProduct",
      "outputs": [],
      "stateMutability": "nonpayable",
      "type": "function"
    },
    {
      "inputs": [
        {
          "internalType": "string",
          "name": "buyerPublicKey",
          "type": "string"
        },
        {
          "internalType": "string",
          "name": "_barcode",
          "type": "string"
        }
      ],
      "name": "sellProductByPublicKey",
      "outputs": [],
      "stateMutability": "nonpayable",
      "type": "function"
    },
    {
      "inputs": [],
      "name": "users",
      "outputs": [
        {
          "internalType": "contract Users",
          "name": "",
          "type": "address"
        }
      ],
      "stateMutability": "view",
      "type": "function"
    }
  ],
  "bytecode": "0x608060405234801561001057600080fd5b50604051611da9380380611da9833981810160405281019061003291906101aa565b816000806101000a81548173ffffffffffffffffffffffffffffffffffffffff021916908373ffffffffffffffffffffffffffffffffffffffff16021790555080600160006101000a81548173ffffffffffffffffffffffffffffffffffffffff021916908373ffffffffffffffffffffffffffffffffffffffff160217905550600160009054906101000a900473ffffffffffffffffffffffffffffffffffffffff1673ffffffffffffffffffffffffffffffffffffffff1663c60bdc7f836040518263ffffffff1660e01b815260040161010e91906101f9565b600060405180830381600087803b15801561012857600080fd5b505af115801561013c573d6000803e3d6000fd5b505050505050610214565b600080fd5b600073ffffffffffffffffffffffffffffffffffffffff82169050919050565b60006101778261014c565b9050919050565b6101878161016c565b811461019257600080fd5b50565b6000815190506101a48161017e565b92915050565b600080604083850312156101c1576101c0610147565b5b60006101cf85828601610195565b92505060206101e085828601610195565b9150509250929050565b6101f38161016c565b82525050565b600060208201905061020e60008301846101ea565b92915050565b611b86806102236000396000f3fe608060405234801561001057600080fd5b50600436106100b45760003560e01c8063b00aebd611610071578063b00aebd61461019e578063bb8d6b1d146101ce578063c71e261f146101fe578063db35369a1461021c578063e30d40f61461024c578063f202027514610268576100b4565b80633f5e87f7146100b95780636a5ce948146100e95780637ce7b7e0146101055780638799d6fc14610136578063a2b5e32014610152578063a9ea55f11461016e575b600080fd5b6100d360048036038101906100ce9190610fd6565b610286565b6040516100e09190611031565b60405180910390f35b61010360048036038101906100fe9190611192565b610509565b005b61011f600480360381019061011a919061120a565b6106ba565b60405161012d92919061132d565b60405180910390f35b610150600480360381019061014b919061135d565b610767565b005b61016c60048036038101906101679190611459565b610802565b005b6101886004803603810190610183919061120a565b610898565b6040516101959190611031565b60405180910390f35b6101b860048036038101906101b39190611192565b610970565b6040516101c59190611031565b60405180910390f35b6101e860048036038101906101e3919061120a565b610cd9565b6040516101f591906115b6565b60405180910390f35b610206610d87565b6040516102139190611637565b60405180910390f35b61023660048036038101906102319190611652565b610dad565b60405161024391906115b6565b60405180910390f35b6102666004803603810190610261919061169b565b610e5b565b005b610270610ef0565b60405161027d9190611718565b60405180910390f35b60008060008054906101000a900473ffffffffffffffffffffffffffffffffffffffff1673ffffffffffffffffffffffffffffffffffffffff16636f77926b856040518263ffffffff1660e01b81526004016102e29190611742565b600060405180830381865afa1580156102ff573d6000803e3d6000fd5b505050506040513d6000823e3d601f19601f8201168201806040525081019061032891906118b1565b905060008060009054906101000a900473ffffffffffffffffffffffffffffffffffffffff1673ffffffffffffffffffffffffffffffffffffffff16636f77926b856040518263ffffffff1660e01b81526004016103869190611742565b600060405180830381865afa1580156103a3573d6000803e3d6000fd5b505050506040513d6000823e3d601f19601f820116820180604052508101906103cc91906118b1565b9050600060038111156103e2576103e16112b6565b5b826040015160038111156103f9576103f86112b6565b5b036104335760016003811115610412576104116112b6565b5b81604001516003811115610429576104286112b6565b5b1492505050610503565b60016003811115610447576104466112b6565b5b8260400151600381111561045e5761045d6112b6565b5b036104985760026003811115610477576104766112b6565b5b8160400151600381111561048e5761048d6112b6565b5b1492505050610503565b600260038111156104ac576104ab6112b6565b5b826040015160038111156104c3576104c26112b6565b5b036104fc576003808111156104db576104da6112b6565b5b816040015160038111156104f2576104f16112b6565b5b1492505050610503565b6000925050505b92915050565b60008060009054906101000a900473ffffffffffffffffffffffffffffffffffffffff1673ffffffffffffffffffffffffffffffffffffffff1663db35369a846040518263ffffffff1660e01b815260040161056591906118fa565b600060405180830381865afa158015610582573d6000803e3d6000fd5b505050506040513d6000823e3d601f19601f820116820180604052508101906105ab91906118b1565b9050600073ffffffffffffffffffffffffffffffffffffffff16816000015173ffffffffffffffffffffffffffffffffffffffff1603610620576040517f08c379a000000000000000000000000000000000000000000000000000000000815260040161061790611968565b60405180910390fd5b600160009054906101000a900473ffffffffffffffffffffffffffffffffffffffff1673ffffffffffffffffffffffffffffffffffffffff1663e0c57ec8338360000151856040518463ffffffff1660e01b815260040161068393929190611988565b600060405180830381600087803b15801561069d57600080fd5b505af11580156106b1573d6000803e3d6000fd5b50505050505050565b606060008060009054906101000a900473ffffffffffffffffffffffffffffffffffffffff1673ffffffffffffffffffffffffffffffffffffffff16636386c1c7846040518263ffffffff1660e01b81526004016107189190611742565b600060405180830381865afa158015610735573d6000803e3d6000fd5b505050506040513d6000823e3d601f19601f8201168201806040525081019061075e91906119c6565b91509150915091565b600160009054906101000a900473ffffffffffffffffffffffffffffffffffffffff1673ffffffffffffffffffffffffffffffffffffffff1663e5e20ac933868686866040518663ffffffff1660e01b81526004016107ca959493929190611a22565b600060405180830381600087803b1580156107e457600080fd5b505af11580156107f8573d6000803e3d6000fd5b5050505050505050565b60008054906101000a900473ffffffffffffffffffffffffffffffffffffffff1673ffffffffffffffffffffffffffffffffffffffff166365a410a3338585856040518563ffffffff1660e01b81526004016108619493929190611a91565b600060405180830381600087803b15801561087b57600080fd5b505af115801561088f573d6000803e3d6000fd5b50505050505050565b60008060008054906101000a900473ffffffffffffffffffffffffffffffffffffffff1673ffffffffffffffffffffffffffffffffffffffff16636f77926b846040518263ffffffff1660e01b81526004016108f49190611742565b600060405180830381865afa158015610911573d6000803e3d6000fd5b505050506040513d6000823e3d601f19601f8201168201806040525081019061093a91906118b1565b9050600060038111156109505761094f6112b6565b5b81604001516003811115610967576109666112b6565b5b14915050919050565b60008060008054906101000a900473ffffffffffffffffffffffffffffffffffffffff1673ffffffffffffffffffffffffffffffffffffffff1663db35369a856040518263ffffffff1660e01b81526004016109cc91906118fa565b600060405180830381865afa1580156109e9573d6000803e3d6000fd5b505050506040513d6000823e3d601f19601f82011682018060405250810190610a1291906118b1565b905060008060009054906101000a900473ffffffffffffffffffffffffffffffffffffffff1673ffffffffffffffffffffffffffffffffffffffff1663db35369a856040518263ffffffff1660e01b8152600401610a7091906118fa565b600060405180830381865afa158015610a8d573d6000803e3d6000fd5b505050506040513d6000823e3d601f19601f82011682018060405250810190610ab691906118b1565b9050600073ffffffffffffffffffffffffffffffffffffffff16826000015173ffffffffffffffffffffffffffffffffffffffff1603610b2b576040517f08c379a0000000000000000000000000000000000000000000000000000000008152600401610b2290611b30565b60405180910390fd5b600073ffffffffffffffffffffffffffffffffffffffff16816000015173ffffffffffffffffffffffffffffffffffffffff1603610b9e576040517f08c379a0000000000000000000000000000000000000000000000000000000008152600401610b9590611968565b60405180910390fd5b60006003811115610bb257610bb16112b6565b5b82604001516003811115610bc957610bc86112b6565b5b03610c035760016003811115610be257610be16112b6565b5b81604001516003811115610bf957610bf86112b6565b5b1492505050610cd3565b60016003811115610c1757610c166112b6565b5b82604001516003811115610c2e57610c2d6112b6565b5b03610c685760026003811115610c4757610c466112b6565b5b81604001516003811115610c5e57610c5d6112b6565b5b1492505050610cd3565b60026003811115610c7c57610c7b6112b6565b5b82604001516003811115610c9357610c926112b6565b5b03610ccc57600380811115610cab57610caa6112b6565b5b81604001516003811115610cc257610cc16112b6565b5b1492505050610cd3565b6000925050505b92915050565b610ce1610f14565b60008054906101000a900473ffffffffffffffffffffffffffffffffffffffff1673ffffffffffffffffffffffffffffffffffffffff16636f77926b836040518263ffffffff1660e01b8152600401610d3a9190611742565b600060405180830381865afa158015610d57573d6000803e3d6000fd5b505050506040513d6000823e3d601f19601f82011682018060405250810190610d8091906118b1565b9050919050565b600160009054906101000a900473ffffffffffffffffffffffffffffffffffffffff1681565b610db5610f14565b60008054906101000a900473ffffffffffffffffffffffffffffffffffffffff1673ffffffffffffffffffffffffffffffffffffffff1663db35369a836040518263ffffffff1660e01b8152600401610e0e91906118fa565b600060405180830381865afa158015610e2b573d6000803e3d6000fd5b505050506040513d6000823e3d601f19601f82011682018060405250810190610e5491906118b1565b9050919050565b600160009054906101000a900473ffffffffffffffffffffffffffffffffffffffff1673ffffffffffffffffffffffffffffffffffffffff1663e0c57ec83384846040518463ffffffff1660e01b8152600401610eba93929190611988565b600060405180830381600087803b158015610ed457600080fd5b505af1158015610ee8573d6000803e3d6000fd5b505050505050565b60008054906101000a900473ffffffffffffffffffffffffffffffffffffffff1681565b6040518060800160405280600073ffffffffffffffffffffffffffffffffffffffff1681526020016060815260200160006003811115610f5757610f566112b6565b5b8152602001606081525090565b6000604051905090565b600080fd5b600080fd5b600073ffffffffffffffffffffffffffffffffffffffff82169050919050565b6000610fa382610f78565b9050919050565b610fb381610f98565b8114610fbe57600080fd5b50565b600081359050610fd081610faa565b92915050565b60008060408385031215610fed57610fec610f6e565b5b6000610ffb85828601610fc1565b925050602061100c85828601610fc1565b9150509250929050565b60008115159050919050565b61102b81611016565b82525050565b60006020820190506110466000830184611022565b92915050565b600080fd5b600080fd5b6000601f19601f8301169050919050565b7f4e487b7100000000000000000000000000000000000000000000000000000000600052604160045260246000fd5b61109f82611056565b810181811067ffffffffffffffff821117156110be576110bd611067565b5b80604052505050565b60006110d1610f64565b90506110dd8282611096565b919050565b600067ffffffffffffffff8211156110fd576110fc611067565b5b61110682611056565b9050602081019050919050565b82818337600083830152505050565b6000611135611130846110e2565b6110c7565b90508281526020810184848401111561115157611150611051565b5b61115c848285611113565b509392505050565b600082601f8301126111795761117861104c565b5b8135611189848260208601611122565b91505092915050565b600080604083850312156111a9576111a8610f6e565b5b600083013567ffffffffffffffff8111156111c7576111c6610f73565b5b6111d385828601611164565b925050602083013567ffffffffffffffff8111156111f4576111f3610f73565b5b61120085828601611164565b9150509250929050565b6000602082840312156112205761121f610f6e565b5b600061122e84828501610fc1565b91505092915050565b600081519050919050565b600082825260208201905092915050565b60005b83811015611271578082015181840152602081019050611256565b60008484015250505050565b600061128882611237565b6112928185611242565b93506112a2818560208601611253565b6112ab81611056565b840191505092915050565b7f4e487b7100000000000000000000000000000000000000000000000000000000600052602160045260246000fd5b600481106112f6576112f56112b6565b5b50565b6000819050611307826112e5565b919050565b6000611317826112f9565b9050919050565b6113278161130c565b82525050565b60006040820190508181036000830152611347818561127d565b9050611356602083018461131e565b9392505050565b6000806000806080858703121561137757611376610f6e565b5b600085013567ffffffffffffffff81111561139557611394610f73565b5b6113a187828801611164565b945050602085013567ffffffffffffffff8111156113c2576113c1610f73565b5b6113ce87828801611164565b935050604085013567ffffffffffffffff8111156113ef576113ee610f73565b5b6113fb87828801611164565b925050606085013567ffffffffffffffff81111561141c5761141b610f73565b5b61142887828801611164565b91505092959194509250565b6004811061144157600080fd5b50565b60008135905061145381611434565b92915050565b60008060006060848603121561147257611471610f6e565b5b600084013567ffffffffffffffff8111156114905761148f610f73565b5b61149c86828701611164565b93505060206114ad86828701611444565b925050604084013567ffffffffffffffff8111156114ce576114cd610f73565b5b6114da86828701611164565b9150509250925092565b6114ed81610f98565b82525050565b600082825260208201905092915050565b600061150f82611237565b61151981856114f3565b9350611529818560208601611253565b61153281611056565b840191505092915050565b6115468161130c565b82525050565b600060808301600083015161156460008601826114e4565b506020830151848203602086015261157c8282611504565b9150506040830151611591604086018261153d565b50606083015184820360608601526115a98282611504565b9150508091505092915050565b600060208201905081810360008301526115d0818461154c565b905092915050565b6000819050919050565b60006115fd6115f86115f384610f78565b6115d8565b610f78565b9050919050565b600061160f826115e2565b9050919050565b600061162182611604565b9050919050565b61163181611616565b82525050565b600060208201905061164c6000830184611628565b92915050565b60006020828403121561166857611667610f6e565b5b600082013567ffffffffffffffff81111561168657611685610f73565b5b61169284828501611164565b91505092915050565b600080604083850312156116b2576116b1610f6e565b5b60006116c085828601610fc1565b925050602083013567ffffffffffffffff8111156116e1576116e0610f73565b5b6116ed85828601611164565b9150509250929050565b600061170282611604565b9050919050565b611712816116f7565b82525050565b600060208201905061172d6000830184611709565b92915050565b61173c81610f98565b82525050565b60006020820190506117576000830184611733565b92915050565b600080fd5b600080fd5b60008151905061177681610faa565b92915050565b600061178f61178a846110e2565b6110c7565b9050828152602081018484840111156117ab576117aa611051565b5b6117b6848285611253565b509392505050565b600082601f8301126117d3576117d261104c565b5b81516117e384826020860161177c565b91505092915050565b6000815190506117fb81611434565b92915050565b6000608082840312156118175761181661175d565b5b61182160806110c7565b9050600061183184828501611767565b600083015250602082015167ffffffffffffffff81111561185557611854611762565b5b611861848285016117be565b6020830152506040611875848285016117ec565b604083015250606082015167ffffffffffffffff81111561189957611898611762565b5b6118a5848285016117be565b60608301525092915050565b6000602082840312156118c7576118c6610f6e565b5b600082015167ffffffffffffffff8111156118e5576118e4610f73565b5b6118f184828501611801565b91505092915050565b60006020820190508181036000830152611914818461127d565b905092915050565b7f4275796572206e6f7420666f756e640000000000000000000000000000000000600082015250565b6000611952600f83611242565b915061195d8261191c565b602082019050919050565b6000602082019050818103600083015261198181611945565b9050919050565b600060608201905061199d6000830186611733565b6119aa6020830185611733565b81810360408301526119bc818461127d565b9050949350505050565b600080604083850312156119dd576119dc610f6e565b5b600083015167ffffffffffffffff8111156119fb576119fa610f73565b5b611a07858286016117be565b9250506020611a18858286016117ec565b9150509250929050565b600060a082019050611a376000830188611733565b8181036020830152611a49818761127d565b90508181036040830152611a5d818661127d565b90508181036060830152611a71818561127d565b90508181036080830152611a85818461127d565b90509695505050505050565b6000608082019050611aa66000830187611733565b8181036020830152611ab8818661127d565b9050611ac7604083018561131e565b8181036060830152611ad9818461127d565b905095945050505050565b7f53656c6c6572206e6f7420666f756e6400000000000000000000000000000000600082015250565b6000611b1a601083611242565b9150611b2582611ae4565b602082019050919050565b60006020820190508181036000830152611b4981611b0d565b905091905056fea2646970667358221220de1b1887edb502517a9d55049310c424353667d32f5a10e7cb9e7e457a661f4d64736f6c634300081e0033",
  "linkReferences": {},
  "deployedLinkReferences": {}
}