{
  "_format": "hh3-artifact-1",
  "contractName": "Products",
  "sourceName": "contracts/Products.sol",
  "abi": [
    {
      "anonymous": false,
      "inputs": [
        {
          "indexed": false,
          "internalType": "string",
          "name": "name",
          "type": "string"
        },
        {
          "indexed": false,
          "internalType": "string",
          "name": "manufacturerName",
          "type": "string"
        },
        {
          "indexed": false,
          "internalType": "string",
          "name": "barcode",
          "type": "string"
        },
        {
          "indexed": false,
          "internalType": "string",
          "name": "manufacturedTime",
          "type": "string"
        }
      ],
      "name": "NewProduct",
      "type": "event"
    },
    {
      "anonymous": false,
      "inputs": [
        {
          "indexed": false,
          "internalType": "string",
          "name": "name",
          "type": "string"
        },
        {
          "indexed": false,
          "internalType": "string",
          "name": "manufacturerName",
          "type": "string"
        },
        {
          "indexed": false,
          "internalType": "string",
          "name": "barcode",
          "type": "string"
        },
        {
          "indexed": false,
          "internalType": "string",
          "name": "buyerName",
          "type": "string"
        },
        {
          "indexed": false,
          "internalType": "string",
          "name": "sellerName",
          "type": "string"
        },
        {
          "indexed": false,
          "internalType": "uint256",
          "name": "transferTime",
          "type": "uint256"
        }
      ],
      "name": "ProductOwnershipTransfer",
      "type": "event"
    },
    {
      "inputs": [
        {
          "internalType": "string",
          "name": "_name",
          "type": "string"
        },
        {
          "internalType": "string",
          "name": "_manufacturerName",
          "type": "string"
        },
        {
          "internalType": "string",
          "name": "_barcode",
          "type": "string"
        },
        {
          "internalType": "string",
          "name": "_manufacturedTime",
          "type": "string"
        }
      ],
      "name": "addProduct",
      "outputs": [],
      "stateMutability": "nonpayable",
      "type": "function"
    },
    {
      "inputs": [
        {
          "internalType": "string",
          "name": "",
          "type": "string"
        },
        {
          "internalType": "uint256",
          "name": "",
          "type": "uint256"
        }
      ],
      "name": "productHistory",
      "outputs": [
        {
          "internalType": "address",
          "name": "owner",
          "type": "address"
        },
        {
          "internalType": "uint256",
          "name": "timestamp",
          "type": "uint256"
        }
      ],
      "stateMutability": "view",
      "type": "function"
    },
    {
      "inputs": [
        {
          "internalType": "uint256",
          "name": "",
          "type": "uint256"
        }
      ],
      "name": "products",
      "outputs": [
        {
          "internalType": "string",
          "name": "name",
          "type": "string"
        },
        {
          "internalType": "string",
          "name": "manufacturerName",
          "type": "string"
        },
        {
          "internalType": "string",
          "name": "barcode",
          "type": "string"
        },
        {
          "internalType": "string",
          "name": "manufacturedTime",
          "type": "string"
        }
      ],
      "stateMutability": "view",
      "type": "function"
    },
    {
      "inputs": [
        {
          "internalType": "address",
          "name": "buyer",
          "type": "address"
        },
        {
          "internalType": "string",
          "name": "_barcode",
          "type": "string"
        }
      ],
      "name": "sell",
      "outputs": [],
      "stateMutability": "nonpayable",
      "type": "function"
    },
    {
      "inputs": [
        {
          "internalType": "address",
          "name": "_users",
          "type": "address"
        }
      ],
      "name": "setUsersContract",
      "outputs": [],
      "stateMutability": "nonpayable",
      "type": "function"
    },
    {
      "inputs": [
        {
          "internalType": "address",
          "name": "",
          "type": "address"
        },
        {
          "internalType": "uint256",
          "name": "",
          "type": "uint256"
        }
      ],
      "name": "userProducts",
      "outputs": [
        {
          "internalType": "string",
          "name": "",
          "type": "string"
        }
      ],
      "stateMutability": "view",
      "type": "function"
    },
    {
      "inputs": [],
      "name": "users",
      "outputs": [
        {
          "internalType": "contract Users",
          "name": "",
          "type": "address"
        }
      ],
      "stateMutability": "view",
      "type": "function"
    }
  ],
  "bytecode": "0x6080604052348015600e575f5ffd5b506121e58061001c5f395ff3fe608060405234801561000f575f5ffd5b506004361061007b575f3560e01c80637acc0b20116100595780637acc0b20146100fc578063c60bdc7f1461012f578063f20202751461014b578063fde74e81146101695761007b565b806301970b111461007f5780633d527883146100b0578063655f272e146100e0575b5f5ffd5b6100996004803603810190610094919061147f565b610185565b6040516100a7929190611527565b60405180910390f35b6100ca60048036038101906100c59190611578565b6101f6565b6040516100d79190611616565b60405180910390f35b6100fa60048036038101906100f59190611636565b6102a7565b005b61011660048036038101906101119190611690565b610a1d565b60405161012694939291906116bb565b60405180910390f35b6101496004803603810190610144919061171a565b610c70565b005b610153610cb2565b60405161016091906117a0565b60405180910390f35b610183600480360381019061017e91906117b9565b610cd6565b005b60038280516020810182018051848252602083016020850120818352809550505050505081815481106101b6575f80fd5b905f5260205f2090600202015f9150915050805f015f9054906101000a900473ffffffffffffffffffffffffffffffffffffffff16908060010154905082565b6002602052815f5260405f20818154811061020f575f80fd5b905f5260205f20015f91509150508054610228906118ba565b80601f0160208091040260200160405190810160405280929190818152602001828054610254906118ba565b801561029f5780601f106102765761010080835404028352916020019161029f565b820191905f5260205f20905b81548152906001019060200180831161028257829003601f168201915b505050505081565b6102af61127f565b5f5f90505f5f90505b60018054905081101561058c578380519060200120600182815481106102e1576102e06118ea565b5b905f5260205f2090600402016002016040516102fd91906119b3565b60405180910390200361057f576001818154811061031e5761031d6118ea565b5b905f5260205f2090600402016040518060800160405290815f82018054610344906118ba565b80601f0160208091040260200160405190810160405280929190818152602001828054610370906118ba565b80156103bb5780601f10610392576101008083540402835291602001916103bb565b820191905f5260205f20905b81548152906001019060200180831161039e57829003601f168201915b505050505081526020016001820180546103d4906118ba565b80601f0160208091040260200160405190810160405280929190818152602001828054610400906118ba565b801561044b5780601f106104225761010080835404028352916020019161044b565b820191905f5260205f20905b81548152906001019060200180831161042e57829003601f168201915b50505050508152602001600282018054610464906118ba565b80601f0160208091040260200160405190810160405280929190818152602001828054610490906118ba565b80156104db5780601f106104b2576101008083540402835291602001916104db565b820191905f5260205f20905b8154815290600101906020018083116104be57829003601f168201915b505050505081526020016003820180546104f4906118ba565b80601f0160208091040260200160405190810160405280929190818152602001828054610520906118ba565b801561056b5780601f106105425761010080835404028352916020019161056b565b820191905f5260205f20905b81548152906001019060200180831161054e57829003601f168201915b50505050508152505092506001915061058c565b80806001019150506102b8565b50806105cd576040517f08c379a00000000000000000000000000000000000000000000000000000000081526004016105c490611a13565b60405180910390fd5b5f60025f3373ffffffffffffffffffffffffffffffffffffffff1673ffffffffffffffffffffffffffffffffffffffff1681526020019081526020015f2090505f818054905090505f5f90505b8280549050811015610678578580519060200120838281548110610641576106406118ea565b5b905f5260205f200160405161065691906119b3565b60405180910390200361066b57809150610678565b808060010191505061061a565b50818054905081106106bf576040517f08c379a00000000000000000000000000000000000000000000000000000000081526004016106b690611a7b565b60405180910390fd5b600182805490506106d09190611ac6565b81101561072b5781600183805490506106e99190611ac6565b815481106106fa576106f96118ea565b5b905f5260205f2001828281548110610715576107146118ea565b5b905f5260205f200190816107299190611cb7565b505b8180548061073c5761073b611d9c565b5b600190038181905f5260205f20015f61075591906112a7565b905560025f8773ffffffffffffffffffffffffffffffffffffffff1673ffffffffffffffffffffffffffffffffffffffff1681526020019081526020015f2085908060018154018082558091505060019003905f5260205f20015f9091909190915090816107c39190611dc9565b506003856040516107d49190611ed2565b908152602001604051809103902060405180604001604052808873ffffffffffffffffffffffffffffffffffffffff16815260200142815250908060018154018082558091505060019003905f5260205f2090600202015f909190919091505f820151815f015f6101000a81548173ffffffffffffffffffffffffffffffffffffffff021916908373ffffffffffffffffffffffffffffffffffffffff1602179055506020820151816001015550505f5f5f9054906101000a900473ffffffffffffffffffffffffffffffffffffffff1673ffffffffffffffffffffffffffffffffffffffff16636f77926b886040518263ffffffff1660e01b81526004016108dd9190611ee8565b5f60405180830381865afa1580156108f7573d5f5f3e3d5ffd5b505050506040513d5f823e3d601f19601f8201168201806040525081019061091f919061202b565b6020015190505f5f5f9054906101000a900473ffffffffffffffffffffffffffffffffffffffff1673ffffffffffffffffffffffffffffffffffffffff16636f77926b336040518263ffffffff1660e01b815260040161097f9190611ee8565b5f60405180830381865afa158015610999573d5f5f3e3d5ffd5b505050506040513d5f823e3d601f19601f820116820180604052508101906109c1919061202b565b6020015190507fb09bd448f452afeabbdf6078f66a59e7b184526893c0d0246f81bcce51990801865f015187602001518860400151858542604051610a0b96959493929190612072565b60405180910390a15050505050505050565b60018181548110610a2c575f80fd5b905f5260205f2090600402015f91509050805f018054610a4b906118ba565b80601f0160208091040260200160405190810160405280929190818152602001828054610a77906118ba565b8015610ac25780601f10610a9957610100808354040283529160200191610ac2565b820191905f5260205f20905b815481529060010190602001808311610aa557829003601f168201915b505050505090806001018054610ad7906118ba565b80601f0160208091040260200160405190810160405280929190818152602001828054610b03906118ba565b8015610b4e5780601f10610b2557610100808354040283529160200191610b4e565b820191905f5260205f20905b815481529060010190602001808311610b3157829003601f168201915b505050505090806002018054610b63906118ba565b80601f0160208091040260200160405190810160405280929190818152602001828054610b8f906118ba565b8015610bda5780601f10610bb157610100808354040283529160200191610bda565b820191905f5260205f20905b815481529060010190602001808311610bbd57829003601f168201915b505050505090806003018054610bef906118ba565b80601f0160208091040260200160405190810160405280929190818152602001828054610c1b906118ba565b8015610c665780601f10610c3d57610100808354040283529160200191610c66565b820191905f5260205f20905b815481529060010190602001808311610c4957829003601f168201915b5050505050905084565b805f5f6101000a81548173ffffffffffffffffffffffffffffffffffffffff021916908373ffffffffffffffffffffffffffffffffffffffff16021790555050565b5f5f9054906101000a900473ffffffffffffffffffffffffffffffffffffffff1681565b5f5f5f9054906101000a900473ffffffffffffffffffffffffffffffffffffffff1673ffffffffffffffffffffffffffffffffffffffff16636f77926b336040518263ffffffff1660e01b8152600401610d309190611ee8565b5f60405180830381865afa158015610d4a573d5f5f3e3d5ffd5b505050506040513d5f823e3d601f19601f82011682018060405250810190610d72919061202b565b90505f6003811115610d8757610d866120f4565b5b81604001516003811115610d9e57610d9d6120f4565b5b14610dde576040517f08c379a0000000000000000000000000000000000000000000000000000000008152600401610dd590612191565b60405180910390fd5b6001604051806080016040528087815260200186815260200185815260200184815250908060018154018082558091505060019003905f5260205f2090600402015f909190919091505f820151815f019081610e3a9190611dc9565b506020820151816001019081610e509190611dc9565b506040820151816002019081610e669190611dc9565b506060820151816003019081610e7c9190611dc9565b5050505f6001808080549050610e929190611ac6565b81548110610ea357610ea26118ea565b5b905f5260205f2090600402016040518060800160405290815f82018054610ec9906118ba565b80601f0160208091040260200160405190810160405280929190818152602001828054610ef5906118ba565b8015610f405780601f10610f1757610100808354040283529160200191610f40565b820191905f5260205f20905b815481529060010190602001808311610f2357829003601f168201915b50505050508152602001600182018054610f59906118ba565b80601f0160208091040260200160405190810160405280929190818152602001828054610f85906118ba565b8015610fd05780601f10610fa757610100808354040283529160200191610fd0565b820191905f5260205f20905b815481529060010190602001808311610fb357829003601f168201915b50505050508152602001600282018054610fe9906118ba565b80601f0160208091040260200160405190810160405280929190818152602001828054611015906118ba565b80156110605780601f1061103757610100808354040283529160200191611060565b820191905f5260205f20905b81548152906001019060200180831161104357829003601f168201915b50505050508152602001600382018054611079906118ba565b80601f01602080910402602001604051908101604052809291908181526020018280546110a5906118ba565b80156110f05780601f106110c7576101008083540402835291602001916110f0565b820191905f5260205f20905b8154815290600101906020018083116110d357829003601f168201915b505050505081525050905060025f3373ffffffffffffffffffffffffffffffffffffffff1673ffffffffffffffffffffffffffffffffffffffff1681526020019081526020015f2084908060018154018082558091505060019003905f5260205f20015f9091909190915090816111679190611dc9565b506003816040015160405161117c9190611ed2565b908152602001604051809103902060405180604001604052803373ffffffffffffffffffffffffffffffffffffffff16815260200142815250908060018154018082558091505060019003905f5260205f2090600202015f909190919091505f820151815f015f6101000a81548173ffffffffffffffffffffffffffffffffffffffff021916908373ffffffffffffffffffffffffffffffffffffffff1602179055506020820151816001015550507f11563e9d0c09817a487768ace63943d092729823f906f1244b854ab350a51f1e815f015182602001518360400151846060015160405161126f94939291906116bb565b60405180910390a1505050505050565b6040518060800160405280606081526020016060815260200160608152602001606081525090565b5080546112b3906118ba565b5f825580601f106112c457506112e1565b601f0160209004905f5260205f20908101906112e091906112e4565b5b50565b5b808211156112fb575f815f9055506001016112e5565b5090565b5f604051905090565b5f5ffd5b5f5ffd5b5f5ffd5b5f5ffd5b5f601f19601f8301169050919050565b7f4e487b71000000000000000000000000000000000000000000000000000000005f52604160045260245ffd5b61135e82611318565b810181811067ffffffffffffffff8211171561137d5761137c611328565b5b80604052505050565b5f61138f6112ff565b905061139b8282611355565b919050565b5f67ffffffffffffffff8211156113ba576113b9611328565b5b6113c382611318565b9050602081019050919050565b828183375f83830152505050565b5f6113f06113eb846113a0565b611386565b90508281526020810184848401111561140c5761140b611314565b5b6114178482856113d0565b509392505050565b5f82601f83011261143357611432611310565b5b81356114438482602086016113de565b91505092915050565b5f819050919050565b61145e8161144c565b8114611468575f5ffd5b50565b5f8135905061147981611455565b92915050565b5f5f6040838503121561149557611494611308565b5b5f83013567ffffffffffffffff8111156114b2576114b161130c565b5b6114be8582860161141f565b92505060206114cf8582860161146b565b9150509250929050565b5f73ffffffffffffffffffffffffffffffffffffffff82169050919050565b5f611502826114d9565b9050919050565b611512816114f8565b82525050565b6115218161144c565b82525050565b5f60408201905061153a5f830185611509565b6115476020830184611518565b9392505050565b611557816114f8565b8114611561575f5ffd5b50565b5f813590506115728161154e565b92915050565b5f5f6040838503121561158e5761158d611308565b5b5f61159b85828601611564565b92505060206115ac8582860161146b565b9150509250929050565b5f81519050919050565b5f82825260208201905092915050565b8281835e5f83830152505050565b5f6115e8826115b6565b6115f281856115c0565b93506116028185602086016115d0565b61160b81611318565b840191505092915050565b5f6020820190508181035f83015261162e81846115de565b905092915050565b5f5f6040838503121561164c5761164b611308565b5b5f61165985828601611564565b925050602083013567ffffffffffffffff81111561167a5761167961130c565b5b6116868582860161141f565b9150509250929050565b5f602082840312156116a5576116a4611308565b5b5f6116b28482850161146b565b91505092915050565b5f6080820190508181035f8301526116d381876115de565b905081810360208301526116e781866115de565b905081810360408301526116fb81856115de565b9050818103606083015261170f81846115de565b905095945050505050565b5f6020828403121561172f5761172e611308565b5b5f61173c84828501611564565b91505092915050565b5f819050919050565b5f61176861176361175e846114d9565b611745565b6114d9565b9050919050565b5f6117798261174e565b9050919050565b5f61178a8261176f565b9050919050565b61179a81611780565b82525050565b5f6020820190506117b35f830184611791565b92915050565b5f5f5f5f608085870312156117d1576117d0611308565b5b5f85013567ffffffffffffffff8111156117ee576117ed61130c565b5b6117fa8782880161141f565b945050602085013567ffffffffffffffff81111561181b5761181a61130c565b5b6118278782880161141f565b935050604085013567ffffffffffffffff8111156118485761184761130c565b5b6118548782880161141f565b925050606085013567ffffffffffffffff8111156118755761187461130c565b5b6118818782880161141f565b91505092959194509250565b7f4e487b71000000000000000000000000000000000000000000000000000000005f52602260045260245ffd5b5f60028204905060018216806118d157607f821691505b6020821081036118e4576118e361188d565b5b50919050565b7f4e487b71000000000000000000000000000000000000000000000000000000005f52603260045260245ffd5b5f81905092915050565b5f819050815f5260205f209050919050565b5f815461193f816118ba565b6119498186611917565b9450600182165f81146119635760018114611978576119aa565b60ff19831686528115158202860193506119aa565b61198185611921565b5f5b838110156119a257815481890152600182019150602081019050611983565b838801955050505b50505092915050565b5f6119be8284611933565b915081905092915050565b7f50726f64756374206e6f7420666f756e640000000000000000000000000000005f82015250565b5f6119fd6011836115c0565b9150611a08826119c9565b602082019050919050565b5f6020820190508181035f830152611a2a816119f1565b9050919050565b7f50726f64756374206e6f7420696e2073656c6c657220696e76656e746f7279005f82015250565b5f611a65601f836115c0565b9150611a7082611a31565b602082019050919050565b5f6020820190508181035f830152611a9281611a59565b9050919050565b7f4e487b71000000000000000000000000000000000000000000000000000000005f52601160045260245ffd5b5f611ad08261144c565b9150611adb8361144c565b9250828203905081811115611af357611af2611a99565b5b92915050565b5f81549050611b07816118ba565b9050919050565b5f819050815f5260205f209050919050565b5f819050815f5260205f209050919050565b5f6020601f8301049050919050565b5f82821b905092915050565b5f60088302611b7c7fffffffffffffffffffffffffffffffffffffffffffffffffffffffffffffffff82611b41565b611b868683611b41565b95508019841693508086168417925050509392505050565b5f611bb8611bb3611bae8461144c565b611745565b61144c565b9050919050565b5f819050919050565b611bd183611b9e565b611be5611bdd82611bbf565b848454611b4d565b825550505050565b5f5f905090565b611bfc611bed565b611c07818484611bc8565b505050565b5b81811015611c2a57611c1f5f82611bf4565b600181019050611c0d565b5050565b601f821115611c6f57611c4081611b0e565b611c4984611b32565b81016020851015611c58578190505b611c6c611c6485611b32565b830182611c0c565b50505b505050565b5f82821c905092915050565b5f611c8f5f1984600802611c74565b1980831691505092915050565b5f611ca78383611c80565b9150826002028217905092915050565b818103611cc5575050611d9a565b611cce82611af9565b67ffffffffffffffff811115611ce757611ce6611328565b5b611cf182546118ba565b611cfc828285611c2e565b5f601f831160018114611d29575f8415611d17578287015490505b611d218582611c9c565b865550611d93565b601f198416611d3787611b20565b9650611d4286611b0e565b5f5b82811015611d6957848901548255600182019150600185019450602081019050611d44565b86831015611d865784890154611d82601f891682611c80565b8355505b6001600288020188555050505b5050505050505b565b7f4e487b71000000000000000000000000000000000000000000000000000000005f52603160045260245ffd5b611dd2826115b6565b67ffffffffffffffff811115611deb57611dea611328565b5b611df582546118ba565b611e00828285611c2e565b5f60209050601f831160018114611e31575f8415611e1f578287015190505b611e298582611c9c565b865550611e90565b601f198416611e3f86611b0e565b5f5b82811015611e6657848901518255600182019150602085019450602081019050611e41565b86831015611e835784890151611e7f601f891682611c80565b8355505b6001600288020188555050505b505050505050565b5f81905092915050565b5f611eac826115b6565b611eb68185611e98565b9350611ec68185602086016115d0565b80840191505092915050565b5f611edd8284611ea2565b915081905092915050565b5f602082019050611efb5f830184611509565b92915050565b5f5ffd5b5f5ffd5b5f81519050611f178161154e565b92915050565b5f611f2f611f2a846113a0565b611386565b905082815260208101848484011115611f4b57611f4a611314565b5b611f568482856115d0565b509392505050565b5f82601f830112611f7257611f71611310565b5b8151611f82848260208601611f1d565b91505092915050565b60048110611f97575f5ffd5b50565b5f81519050611fa881611f8b565b92915050565b5f60608284031215611fc357611fc2611f01565b5b611fcd6060611386565b90505f611fdc84828501611f09565b5f83015250602082015167ffffffffffffffff811115611fff57611ffe611f05565b5b61200b84828501611f5e565b602083015250604061201f84828501611f9a565b60408301525092915050565b5f602082840312156120405761203f611308565b5b5f82015167ffffffffffffffff81111561205d5761205c61130c565b5b61206984828501611fae565b91505092915050565b5f60c0820190508181035f83015261208a81896115de565b9050818103602083015261209e81886115de565b905081810360408301526120b281876115de565b905081810360608301526120c681866115de565b905081810360808301526120da81856115de565b90506120e960a0830184611518565b979650505050505050565b7f4e487b71000000000000000000000000000000000000000000000000000000005f52602160045260245ffd5b7f4f6e6c79206d616e7566616374757265722063616e206164642070726f6475635f8201527f74732e0000000000000000000000000000000000000000000000000000000000602082015250565b5f61217b6023836115c0565b915061218682612121565b604082019050919050565b5f6020820190508181035f8301526121a88161216f565b905091905056fea264697066735822122056117f20566805ff537985584b0ba0938eb9d8f89a12f6d830e662d549d7e3e464736f6c634300081e0033",
  "linkReferences": {},
  "deployedLinkReferences": {},
  "immutableReferences": {},
  "inputSourceName": "project/contracts/Products.sol",
  "buildInfoId": "solc-0_8_30-972082e6b455d4a9bc67c3d799dc97418f8bf30d"
}