{
  "_format": "hh-sol-artifact-1",
  "contractName": "Products",
  "sourceName": "contracts/Products.sol",
  "abi": [
    {
      "anonymous": false,
      "inputs": [
        {
          "indexed": false,
          "internalType": "address",
          "name": "manufacturer",
          "type": "address"
        },
        {
          "indexed": false,
          "internalType": "string",
          "name": "name",
          "type": "string"
        },
        {
          "indexed": false,
          "internalType": "string",
          "name": "manufacturerName",
          "type": "string"
        },
        {
          "indexed": false,
          "internalType": "string",
          "name": "barcode",
          "type": "string"
        },
        {
          "indexed": false,
          "internalType": "string",
          "name": "manufacturedTime",
          "type": "string"
        },
        {
          "indexed": false,
          "internalType": "uint256",
          "name": "volume",
          "type": "uint256"
        }
      ],
      "name": "NewProduct",
      "type": "event"
    },
    {
      "anonymous": false,
      "inputs": [
        {
          "indexed": false,
          "internalType": "string",
          "name": "barcode",
          "type": "string"
        },
        {
          "indexed": false,
          "internalType": "address",
          "name": "buyer",
          "type": "address"
        },
        {
          "indexed": false,
          "internalType": "address",
          "name": "seller",
          "type": "address"
        },
        {
          "indexed": false,
          "internalType": "uint256",
          "name": "transferTime",
          "type": "uint256"
        },
        {
          "indexed": false,
          "internalType": "uint256",
          "name": "volume",
          "type": "uint256"
        }
      ],
      "name": "ProductSold",
      "type": "event"
    },
    {
      "inputs": [
        {
          "internalType": "address",
          "name": "_manufacturer",
          "type": "address"
        },
        {
          "internalType": "string",
          "name": "_name",
          "type": "string"
        },
        {
          "internalType": "string",
          "name": "_manufacturerName",
          "type": "string"
        },
        {
          "internalType": "string",
          "name": "_barcode",
          "type": "string"
        },
        {
          "internalType": "string",
          "name": "_manufacturedTime",
          "type": "string"
        },
        {
          "internalType": "uint256",
          "name": "_volume",
          "type": "uint256"
        }
      ],
      "name": "addProduct",
      "outputs": [],
      "stateMutability": "nonpayable",
      "type": "function"
    },
    {
      "inputs": [
        {
          "internalType": "string",
          "name": "",
          "type": "string"
        }
      ],
      "name": "barcodeToProduct",
      "outputs": [
        {
          "internalType": "string",
          "name": "name",
          "type": "string"
        },
        {
          "internalType": "string",
          "name": "manufacturerName",
          "type": "string"
        },
        {
          "internalType": "string",
          "name": "barcode",
          "type": "string"
        },
        {
          "internalType": "string",
          "name": "manufacturedTime",
          "type": "string"
        },
        {
          "internalType": "uint256",
          "name": "volume",
          "type": "uint256"
        }
      ],
      "stateMutability": "view",
      "type": "function"
    },
    {
      "inputs": [
        {
          "internalType": "string",
          "name": "_barcode",
          "type": "string"
        }
      ],
      "name": "getProductByBarcode",
      "outputs": [
        {
          "components": [
            {
              "internalType": "string",
              "name": "name",
              "type": "string"
            },
            {
              "internalType": "string",
              "name": "manufacturerName",
              "type": "string"
            },
            {
              "internalType": "string",
              "name": "barcode",
              "type": "string"
            },
            {
              "internalType": "string",
              "name": "manufacturedTime",
              "type": "string"
            },
            {
              "internalType": "uint256",
              "name": "volume",
              "type": "uint256"
            }
          ],
          "internalType": "struct Types.Product",
          "name": "",
          "type": "tuple"
        }
      ],
      "stateMutability": "view",
      "type": "function"
    },
    {
      "inputs": [
        {
          "internalType": "address",
          "name": "user",
          "type": "address"
        }
      ],
      "name": "getUserInventory",
      "outputs": [
        {
          "internalType": "string[]",
          "name": "",
          "type": "string[]"
        }
      ],
      "stateMutability": "view",
      "type": "function"
    },
    {
      "inputs": [
        {
          "internalType": "address",
          "name": "user",
          "type": "address"
        }
      ],
      "name": "getUserInventoryWithDetails",
      "outputs": [
        {
          "components": [
            {
              "internalType": "string",
              "name": "name",
              "type": "string"
            },
            {
              "internalType": "string",
              "name": "manufacturerName",
              "type": "string"
            },
            {
              "internalType": "string",
              "name": "barcode",
              "type": "string"
            },
            {
              "internalType": "string",
              "name": "manufacturedTime",
              "type": "string"
            },
            {
              "internalType": "uint256",
              "name": "volume",
              "type": "uint256"
            }
          ],
          "internalType": "struct Types.Product[]",
          "name": "",
          "type": "tuple[]"
        }
      ],
      "stateMutability": "view",
      "type": "function"
    },
    {
      "inputs": [
        {
          "internalType": "address",
          "name": "user",
          "type": "address"
        }
      ],
      "name": "getUserProductCount",
      "outputs": [
        {
          "internalType": "uint256",
          "name": "",
          "type": "uint256"
        }
      ],
      "stateMutability": "view",
      "type": "function"
    },
    {
      "inputs": [
        {
          "internalType": "address",
          "name": "user",
          "type": "address"
        }
      ],
      "name": "getUserTotalVolume",
      "outputs": [
        {
          "internalType": "uint256",
          "name": "",
          "type": "uint256"
        }
      ],
      "stateMutability": "view",
      "type": "function"
    },
    {
      "inputs": [
        {
          "internalType": "address",
          "name": "user",
          "type": "address"
        }
      ],
      "name": "isUserManufacturer",
      "outputs": [
        {
          "internalType": "bool",
          "name": "",
          "type": "bool"
        }
      ],
      "stateMutability": "view",
      "type": "function"
    },
    {
      "inputs": [
        {
          "internalType": "string",
          "name": "",
          "type": "string"
        }
      ],
      "name": "productExists",
      "outputs": [
        {
          "internalType": "bool",
          "name": "",
          "type": "bool"
        }
      ],
      "stateMutability": "view",
      "type": "function"
    },
    {
      "inputs": [
        {
          "internalType": "uint256",
          "name": "",
          "type": "uint256"
        }
      ],
      "name": "products",
      "outputs": [
        {
          "internalType": "string",
          "name": "name",
          "type": "string"
        },
        {
          "internalType": "string",
          "name": "manufacturerName",
          "type": "string"
        },
        {
          "internalType": "string",
          "name": "barcode",
          "type": "string"
        },
        {
          "internalType": "string",
          "name": "manufacturedTime",
          "type": "string"
        },
        {
          "internalType": "uint256",
          "name": "volume",
          "type": "uint256"
        }
      ],
      "stateMutability": "view",
      "type": "function"
    },
    {
      "inputs": [
        {
          "internalType": "address",
          "name": "_seller",
          "type": "address"
        },
        {
          "internalType": "address",
          "name": "_buyer",
          "type": "address"
        },
        {
          "internalType": "string",
          "name": "_barcode",
          "type": "string"
        },
        {
          "internalType": "uint256",
          "name": "_volume",
          "type": "uint256"
        }
      ],
      "name": "sell",
      "outputs": [],
      "stateMutability": "nonpayable",
      "type": "function"
    },
    {
      "inputs": [
        {
          "internalType": "address",
          "name": "_users",
          "type": "address"
        }
      ],
      "name": "setUsersContract",
      "outputs": [],
      "stateMutability": "nonpayable",
      "type": "function"
    },
    {
      "inputs": [
        {
          "internalType": "address",
          "name": "",
          "type": "address"
        },
        {
          "internalType": "uint256",
          "name": "",
          "type": "uint256"
        }
      ],
      "name": "userProducts",
      "outputs": [
        {
          "internalType": "string",
          "name": "",
          "type": "string"
        }
      ],
      "stateMutability": "view",
      "type": "function"
    },
    {
      "inputs": [],
      "name": "users",
      "outputs": [
        {
          "internalType": "contract Users",
          "name": "",
          "type": "address"
        }
      ],
      "stateMutability": "view",
      "type": "function"
    }
  ],
  "bytecode": "0x6080604052348015600f57600080fd5b50613ef18061001f6000396000f3fe608060405234801561001057600080fd5b50600436106100ea5760003560e01c80638addc0511161008c578063a9ea55f111610066578063a9ea55f1146102af578063c60bdc7f146102df578063f2020275146102fb578063f9b8cc1b14610319576100ea565b80638addc0511461023357806399940a13146102635780639a2dc28f14610293576100ea565b80635a1596fb116100c85780635a1596fb1461017f5780636e2b48961461019b57806375234f66146101cf5780637acc0b20146101ff576100ea565b806334dd1292146100ef5780633d5278831461011f5780635714cc8e1461014f575b600080fd5b61010960048036038101906101049190612761565b610349565b60405161011691906128cd565b60405180910390f35b61013960048036038101906101349190612979565b61063e565b6040516101469190612a03565b60405180910390f35b61016960048036038101906101649190612a25565b6106f7565b6040516101769190612b14565b60405180910390f35b61019960048036038101906101949190612b36565b61080f565b005b6101b560048036038101906101b09190612761565b611256565b6040516101c6959493929190612bc8565b60405180910390f35b6101e960048036038101906101e49190612a25565b6114c2565b6040516101f69190612d84565b60405180910390f35b61021960048036038101906102149190612da6565b611907565b60405161022a959493929190612bc8565b60405180910390f35b61024d60048036038101906102489190612761565b611b6d565b60405161025a9190612dee565b60405180910390f35b61027d60048036038101906102789190612a25565b611ba3565b60405161028a9190612e09565b60405180910390f35b6102ad60048036038101906102a89190612e24565b611d25565b005b6102c960048036038101906102c49190612a25565b6121e8565b6040516102d69190612dee565b60405180910390f35b6102f960048036038101906102f49190612a25565b6122c0565b005b610303612303565b6040516103109190612f80565b60405180910390f35b610333600480360381019061032e9190612a25565b612327565b6040516103409190612e09565b60405180910390f35b61035161257b565b6003826040516103619190612fd7565b908152602001604051809103902060009054906101000a900460ff166103bc576040517f08c379a00000000000000000000000000000000000000000000000000000000081526004016103b39061303a565b60405180910390fd5b6004826040516103cc9190612fd7565b90815260200160405180910390206040518060a00160405290816000820180546103f590613089565b80601f016020809104026020016040519081016040528092919081815260200182805461042190613089565b801561046e5780601f106104435761010080835404028352916020019161046e565b820191906000526020600020905b81548152906001019060200180831161045157829003601f168201915b5050505050815260200160018201805461048790613089565b80601f01602080910402602001604051908101604052809291908181526020018280546104b390613089565b80156105005780601f106104d557610100808354040283529160200191610500565b820191906000526020600020905b8154815290600101906020018083116104e357829003601f168201915b5050505050815260200160028201805461051990613089565b80601f016020809104026020016040519081016040528092919081815260200182805461054590613089565b80156105925780601f1061056757610100808354040283529160200191610592565b820191906000526020600020905b81548152906001019060200180831161057557829003601f168201915b505050505081526020016003820180546105ab90613089565b80601f01602080910402602001604051908101604052809291908181526020018280546105d790613089565b80156106245780601f106105f957610100808354040283529160200191610624565b820191906000526020600020905b81548152906001019060200180831161060757829003601f168201915b505050505081526020016004820154815250509050919050565b6002602052816000526040600020818154811061065a57600080fd5b9060005260206000200160009150915050805461067690613089565b80601f01602080910402602001604051908101604052809291908181526020018280546106a290613089565b80156106ef5780601f106106c4576101008083540402835291602001916106ef565b820191906000526020600020905b8154815290600101906020018083116106d257829003601f168201915b505050505081565b6060600260008373ffffffffffffffffffffffffffffffffffffffff1673ffffffffffffffffffffffffffffffffffffffff168152602001908152602001600020805480602002602001604051908101604052809291908181526020016000905b8282101561080457838290600052602060002001805461077790613089565b80601f01602080910402602001604051908101604052809291908181526020018280546107a390613089565b80156107f05780601f106107c5576101008083540402835291602001916107f0565b820191906000526020600020905b8154815290600101906020018083116107d357829003601f168201915b505050505081526020019060010190610758565b505050509050919050565b8360008060009054906101000a900473ffffffffffffffffffffffffffffffffffffffff1673ffffffffffffffffffffffffffffffffffffffff16636f77926b836040518263ffffffff1660e01b815260040161086c91906130c9565b600060405180830381865afa158015610889573d6000803e3d6000fd5b505050506040513d6000823e3d601f19601f820116820180604052508101906108b29190613248565b90506000816020015151116108fc576040517f08c379a00000000000000000000000000000000000000000000000000000000081526004016108f3906132dd565b60405180910390fd5b8460008060009054906101000a900473ffffffffffffffffffffffffffffffffffffffff1673ffffffffffffffffffffffffffffffffffffffff16636f77926b836040518263ffffffff1660e01b815260040161095991906130c9565b600060405180830381865afa158015610976573d6000803e3d6000fd5b505050506040513d6000823e3d601f19601f8201168201806040525081019061099f9190613248565b90506000816020015151116109e9576040517f08c379a00000000000000000000000000000000000000000000000000000000081526004016109e0906132dd565b60405180910390fd5b6003866040516109f99190612fd7565b908152602001604051809103902060009054906101000a900460ff16610a54576040517f08c379a0000000000000000000000000000000000000000000000000000000008152600401610a4b9061303a565b60405180910390fd5b8673ffffffffffffffffffffffffffffffffffffffff168873ffffffffffffffffffffffffffffffffffffffff1603610ac2576040517f08c379a0000000000000000000000000000000000000000000000000000000008152600401610ab990613349565b60405180910390fd5b60008511610b05576040517f08c379a0000000000000000000000000000000000000000000000000000000008152600401610afc906133b5565b60405180910390fd5b6000600487604051610b179190612fd7565b908152602001604051809103902090508581600401541015610b6e576040517f08c379a0000000000000000000000000000000000000000000000000000000008152600401610b6590613421565b60405180910390fd5b60008060009054906101000a900473ffffffffffffffffffffffffffffffffffffffff1673ffffffffffffffffffffffffffffffffffffffff16636f77926b8b6040518263ffffffff1660e01b8152600401610bca91906130c9565b600060405180830381865afa158015610be7573d6000803e3d6000fd5b505050506040513d6000823e3d601f19601f82011682018060405250810190610c109190613248565b905060008060009054906101000a900473ffffffffffffffffffffffffffffffffffffffff1673ffffffffffffffffffffffffffffffffffffffff16636f77926b8b6040518263ffffffff1660e01b8152600401610c6e91906130c9565b600060405180830381865afa158015610c8b573d6000803e3d6000fd5b505050506040513d6000823e3d601f19601f82011682018060405250810190610cb49190613248565b9050610cc882604001518260400151612373565b600080600260008e73ffffffffffffffffffffffffffffffffffffffff1673ffffffffffffffffffffffffffffffffffffffff168152602001908152602001600020905060005b8180549050811015610d70578b80519060200120828281548110610d3657610d35613441565b5b90600052602060002001604051610d4d9190613513565b604051809103902003610d635760019250610d70565b8080600101915050610d0f565b5081610db1576040517f08c379a0000000000000000000000000000000000000000000000000000000008152600401610da890613576565b60405180910390fd5b84600401548a03610f1a5760005b8180549050811015610ea2578b80519060200120828281548110610de657610de5613441565b5b90600052602060002001604051610dfd9190613513565b604051809103902003610e95578160018380549050610e1c91906135c5565b81548110610e2d57610e2c613441565b5b90600052602060002001828281548110610e4a57610e49613441565b5b906000526020600020019081610e6091906137c6565b5081805480610e7257610e716138ae565b5b600190038181906000526020600020016000610e8e91906125aa565b9055610ea2565b8080600101915050610dbf565b50600260008d73ffffffffffffffffffffffffffffffffffffffff1673ffffffffffffffffffffffffffffffffffffffff1681526020019081526020016000208b908060018154018082558091505060019003906000526020600020016000909190919091509081610f1491906138dd565b50611208565b89856004016000828254610f2e91906135c5565b9250508190555060006040518060a00160405280876000018054610f5190613089565b80601f0160208091040260200160405190810160405280929190818152602001828054610f7d90613089565b8015610fca5780601f10610f9f57610100808354040283529160200191610fca565b820191906000526020600020905b815481529060010190602001808311610fad57829003601f168201915b50505050508152602001876001018054610fe390613089565b80601f016020809104026020016040519081016040528092919081815260200182805461100f90613089565b801561105c5780601f106110315761010080835404028352916020019161105c565b820191906000526020600020905b81548152906001019060200180831161103f57829003601f168201915b505050505081526020018d815260200187600301805461107b90613089565b80601f01602080910402602001604051908101604052809291908181526020018280546110a790613089565b80156110f45780601f106110c9576101008083540402835291602001916110f4565b820191906000526020600020905b8154815290600101906020018083116110d757829003601f168201915b505050505081526020018c81525090506001819080600181540180825580915050600190039060005260206000209060050201600090919091909150600082015181600001908161114591906138dd565b50602082015181600101908161115b91906138dd565b50604082015181600201908161117191906138dd565b50606082015181600301908161118791906138dd565b50608082015181600401555050600260008e73ffffffffffffffffffffffffffffffffffffffff1673ffffffffffffffffffffffffffffffffffffffff1681526020019081526020016000208c90806001815401808255809150506001900390600052602060002001600090919091909150908161120591906138dd565b50505b7f079b7a63527adab4101bbfb5c19c260af7230b99938d82d25c4091c5c923dce78b8d8f428e60405161123f9594939291906139af565b60405180910390a150505050505050505050505050565b60048180516020810182018051848252602083016020850120818352809550505050505060009150905080600001805461128f90613089565b80601f01602080910402602001604051908101604052809291908181526020018280546112bb90613089565b80156113085780601f106112dd57610100808354040283529160200191611308565b820191906000526020600020905b8154815290600101906020018083116112eb57829003601f168201915b50505050509080600101805461131d90613089565b80601f016020809104026020016040519081016040528092919081815260200182805461134990613089565b80156113965780601f1061136b57610100808354040283529160200191611396565b820191906000526020600020905b81548152906001019060200180831161137957829003601f168201915b5050505050908060020180546113ab90613089565b80601f01602080910402602001604051908101604052809291908181526020018280546113d790613089565b80156114245780601f106113f957610100808354040283529160200191611424565b820191906000526020600020905b81548152906001019060200180831161140757829003601f168201915b50505050509080600301805461143990613089565b80601f016020809104026020016040519081016040528092919081815260200182805461146590613089565b80156114b25780601f10611487576101008083540402835291602001916114b2565b820191906000526020600020905b81548152906001019060200180831161149557829003601f168201915b5050505050908060040154905085565b60606000600260008473ffffffffffffffffffffffffffffffffffffffff1673ffffffffffffffffffffffffffffffffffffffff168152602001908152602001600020805480602002602001604051908101604052809291908181526020016000905b828210156115d157838290600052602060002001805461154490613089565b80601f016020809104026020016040519081016040528092919081815260200182805461157090613089565b80156115bd5780601f10611592576101008083540402835291602001916115bd565b820191906000526020600020905b8154815290600101906020018083116115a057829003601f168201915b505050505081526020019060010190611525565b5050505090506000815167ffffffffffffffff8111156115f4576115f3612636565b5b60405190808252806020026020018201604052801561162d57816020015b61161a61257b565b8152602001906001900390816116125790505b50905060005b82518110156118fc57600483828151811061165157611650613441565b5b60200260200101516040516116669190612fd7565b90815260200160405180910390206040518060a001604052908160008201805461168f90613089565b80601f01602080910402602001604051908101604052809291908181526020018280546116bb90613089565b80156117085780601f106116dd57610100808354040283529160200191611708565b820191906000526020600020905b8154815290600101906020018083116116eb57829003601f168201915b5050505050815260200160018201805461172190613089565b80601f016020809104026020016040519081016040528092919081815260200182805461174d90613089565b801561179a5780601f1061176f5761010080835404028352916020019161179a565b820191906000526020600020905b81548152906001019060200180831161177d57829003601f168201915b505050505081526020016002820180546117b390613089565b80601f01602080910402602001604051908101604052809291908181526020018280546117df90613089565b801561182c5780601f106118015761010080835404028352916020019161182c565b820191906000526020600020905b81548152906001019060200180831161180f57829003601f168201915b5050505050815260200160038201805461184590613089565b80601f016020809104026020016040519081016040528092919081815260200182805461187190613089565b80156118be5780601f10611893576101008083540402835291602001916118be565b820191906000526020600020905b8154815290600101906020018083116118a157829003601f168201915b505050505081526020016004820154815250508282815181106118e4576118e3613441565b5b60200260200101819052508080600101915050611633565b508092505050919050565b6001818154811061191757600080fd5b906000526020600020906005020160009150905080600001805461193a90613089565b80601f016020809104026020016040519081016040528092919081815260200182805461196690613089565b80156119b35780601f10611988576101008083540402835291602001916119b3565b820191906000526020600020905b81548152906001019060200180831161199657829003601f168201915b5050505050908060010180546119c890613089565b80601f01602080910402602001604051908101604052809291908181526020018280546119f490613089565b8015611a415780601f10611a1657610100808354040283529160200191611a41565b820191906000526020600020905b815481529060010190602001808311611a2457829003601f168201915b505050505090806002018054611a5690613089565b80601f0160208091040260200160405190810160405280929190818152602001828054611a8290613089565b8015611acf5780601f10611aa457610100808354040283529160200191611acf565b820191906000526020600020905b815481529060010190602001808311611ab257829003601f168201915b505050505090806003018054611ae490613089565b80601f0160208091040260200160405190810160405280929190818152602001828054611b1090613089565b8015611b5d5780601f10611b3257610100808354040283529160200191611b5d565b820191906000526020600020905b815481529060010190602001808311611b4057829003601f168201915b5050505050908060040154905085565b6003818051602081018201805184825260208301602085012081835280955050505050506000915054906101000a900460ff1681565b600080600260008473ffffffffffffffffffffffffffffffffffffffff1673ffffffffffffffffffffffffffffffffffffffff168152602001908152602001600020805480602002602001604051908101604052809291908181526020016000905b82821015611cb1578382906000526020600020018054611c2490613089565b80601f0160208091040260200160405190810160405280929190818152602001828054611c5090613089565b8015611c9d5780601f10611c7257610100808354040283529160200191611c9d565b820191906000526020600020905b815481529060010190602001808311611c8057829003601f168201915b505050505081526020019060010190611c05565b5050505090506000805b8251811015611d1a576004838281518110611cd957611cd8613441565b5b6020026020010151604051611cee9190612fd7565b90815260200160405180910390206004015482611d0b9190613a09565b91508080600101915050611cbb565b508092505050919050565b8560008060009054906101000a900473ffffffffffffffffffffffffffffffffffffffff1673ffffffffffffffffffffffffffffffffffffffff16636f77926b836040518263ffffffff1660e01b8152600401611d8291906130c9565b600060405180830381865afa158015611d9f573d6000803e3d6000fd5b505050506040513d6000823e3d601f19601f82011682018060405250810190611dc89190613248565b905060006003811115611dde57611ddd613a3d565b5b81604001516003811115611df557611df4613a3d565b5b14611e35576040517f08c379a0000000000000000000000000000000000000000000000000000000008152600401611e2c90613ade565b60405180910390fd5b600081602001515111611e7d576040517f08c379a0000000000000000000000000000000000000000000000000000000008152600401611e74906132dd565b60405180910390fd5b600385604051611e8d9190612fd7565b908152602001604051809103902060009054906101000a900460ff1615611ee9576040517f08c379a0000000000000000000000000000000000000000000000000000000008152600401611ee090613b70565b60405180910390fd5b6000875111611f2d576040517f08c379a0000000000000000000000000000000000000000000000000000000008152600401611f2490613bdc565b60405180910390fd5b6000855111611f71576040517f08c379a0000000000000000000000000000000000000000000000000000000008152600401611f6890613c48565b60405180910390fd5b60008311611fb4576040517f08c379a0000000000000000000000000000000000000000000000000000000008152600401611fab906133b5565b60405180910390fd5b60006040518060a001604052808981526020018881526020018781526020018681526020018581525090506001819080600181540180825580915050600190039060005260206000209060050201600090919091909150600082015181600001908161202091906138dd565b50602082015181600101908161203691906138dd565b50604082015181600201908161204c91906138dd565b50606082015181600301908161206291906138dd565b50608082015181600401555050806004876040516120809190612fd7565b908152602001604051809103902060008201518160000190816120a391906138dd565b5060208201518160010190816120b991906138dd565b5060408201518160020190816120cf91906138dd565b5060608201518160030190816120e591906138dd565b506080820151816004015590505060016003876040516121059190612fd7565b908152602001604051809103902060006101000a81548160ff021916908315150217905550600260008a73ffffffffffffffffffffffffffffffffffffffff1673ffffffffffffffffffffffffffffffffffffffff1681526020019081526020016000208690806001815401808255809150506001900390600052602060002001600090919091909150908161219b91906138dd565b507fbd644db212e06d57c51196dea9531db7ce6b0ac4af17a72390c2dc317350c8878989898989896040516121d596959493929190613c68565b60405180910390a1505050505050505050565b60008060008054906101000a900473ffffffffffffffffffffffffffffffffffffffff1673ffffffffffffffffffffffffffffffffffffffff16636f77926b846040518263ffffffff1660e01b815260040161224491906130c9565b600060405180830381865afa158015612261573d6000803e3d6000fd5b505050506040513d6000823e3d601f19601f8201168201806040525081019061228a9190613248565b9050600060038111156122a05761229f613a3d565b5b816040015160038111156122b7576122b6613a3d565b5b14915050919050565b806000806101000a81548173ffffffffffffffffffffffffffffffffffffffff021916908373ffffffffffffffffffffffffffffffffffffffff16021790555050565b60008054906101000a900473ffffffffffffffffffffffffffffffffffffffff1681565b6000600260008373ffffffffffffffffffffffffffffffffffffffff1673ffffffffffffffffffffffffffffffffffffffff168152602001908152602001600020805490509050919050565b6000600381111561238757612386613a3d565b5b82600381111561239a57612399613a3d565b5b0361240b57600160038111156123b3576123b2613a3d565b5b8160038111156123c6576123c5613a3d565b5b14612406576040517f08c379a00000000000000000000000000000000000000000000000000000000081526004016123fd90613d57565b60405180910390fd5b612577565b6001600381111561241f5761241e613a3d565b5b82600381111561243257612431613a3d565b5b036124a3576002600381111561244b5761244a613a3d565b5b81600381111561245e5761245d613a3d565b5b1461249e576040517f08c379a000000000000000000000000000000000000000000000000000000000815260040161249590613dc3565b60405180910390fd5b612576565b600260038111156124b7576124b6613a3d565b5b8260038111156124ca576124c9613a3d565b5b0361253a576003808111156124e2576124e1613a3d565b5b8160038111156124f5576124f4613a3d565b5b14612535576040517f08c379a000000000000000000000000000000000000000000000000000000000815260040161252c90613e2f565b60405180910390fd5b612575565b6040517f08c379a000000000000000000000000000000000000000000000000000000000815260040161256c90613e9b565b60405180910390fd5b5b5b5050565b6040518060a0016040528060608152602001606081526020016060815260200160608152602001600081525090565b5080546125b690613089565b6000825580601f106125c857506125e7565b601f0160209004906000526020600020908101906125e691906125ea565b5b50565b5b808211156126035760008160009055506001016125eb565b5090565b6000604051905090565b600080fd5b600080fd5b600080fd5b600080fd5b6000601f19601f8301169050919050565b7f4e487b7100000000000000000000000000000000000000000000000000000000600052604160045260246000fd5b61266e82612625565b810181811067ffffffffffffffff8211171561268d5761268c612636565b5b80604052505050565b60006126a0612607565b90506126ac8282612665565b919050565b600067ffffffffffffffff8211156126cc576126cb612636565b5b6126d582612625565b9050602081019050919050565b82818337600083830152505050565b60006127046126ff846126b1565b612696565b9050828152602081018484840111156127205761271f612620565b5b61272b8482856126e2565b509392505050565b600082601f8301126127485761274761261b565b5b81356127588482602086016126f1565b91505092915050565b60006020828403121561277757612776612611565b5b600082013567ffffffffffffffff81111561279557612794612616565b5b6127a184828501612733565b91505092915050565b600081519050919050565b600082825260208201905092915050565b60005b838110156127e45780820151818401526020810190506127c9565b60008484015250505050565b60006127fb826127aa565b61280581856127b5565b93506128158185602086016127c6565b61281e81612625565b840191505092915050565b6000819050919050565b61283c81612829565b82525050565b600060a083016000830151848203600086015261285f82826127f0565b9150506020830151848203602086015261287982826127f0565b9150506040830151848203604086015261289382826127f0565b915050606083015184820360608601526128ad82826127f0565b91505060808301516128c26080860182612833565b508091505092915050565b600060208201905081810360008301526128e78184612842565b905092915050565b600073ffffffffffffffffffffffffffffffffffffffff82169050919050565b600061291a826128ef565b9050919050565b61292a8161290f565b811461293557600080fd5b50565b60008135905061294781612921565b92915050565b61295681612829565b811461296157600080fd5b50565b6000813590506129738161294d565b92915050565b600080604083850312156129905761298f612611565b5b600061299e85828601612938565b92505060206129af85828601612964565b9150509250929050565b600082825260208201905092915050565b60006129d5826127aa565b6129df81856129b9565b93506129ef8185602086016127c6565b6129f881612625565b840191505092915050565b60006020820190508181036000830152612a1d81846129ca565b905092915050565b600060208284031215612a3b57612a3a612611565b5b6000612a4984828501612938565b91505092915050565b600081519050919050565b600082825260208201905092915050565b6000819050602082019050919050565b6000612a8a83836127f0565b905092915050565b6000602082019050919050565b6000612aaa82612a52565b612ab48185612a5d565b935083602082028501612ac685612a6e565b8060005b85811015612b025784840389528151612ae38582612a7e565b9450612aee83612a92565b925060208a01995050600181019050612aca565b50829750879550505050505092915050565b60006020820190508181036000830152612b2e8184612a9f565b905092915050565b60008060008060808587031215612b5057612b4f612611565b5b6000612b5e87828801612938565b9450506020612b6f87828801612938565b935050604085013567ffffffffffffffff811115612b9057612b8f612616565b5b612b9c87828801612733565b9250506060612bad87828801612964565b91505092959194509250565b612bc281612829565b82525050565b600060a0820190508181036000830152612be281886129ca565b90508181036020830152612bf681876129ca565b90508181036040830152612c0a81866129ca565b90508181036060830152612c1e81856129ca565b9050612c2d6080830184612bb9565b9695505050505050565b600081519050919050565b600082825260208201905092915050565b6000819050602082019050919050565b600060a0830160008301518482036000860152612c8082826127f0565b91505060208301518482036020860152612c9a82826127f0565b91505060408301518482036040860152612cb482826127f0565b91505060608301518482036060860152612cce82826127f0565b9150506080830151612ce36080860182612833565b508091505092915050565b6000612cfa8383612c63565b905092915050565b6000602082019050919050565b6000612d1a82612c37565b612d248185612c42565b935083602082028501612d3685612c53565b8060005b85811015612d725784840389528151612d538582612cee565b9450612d5e83612d02565b925060208a01995050600181019050612d3a565b50829750879550505050505092915050565b60006020820190508181036000830152612d9e8184612d0f565b905092915050565b600060208284031215612dbc57612dbb612611565b5b6000612dca84828501612964565b91505092915050565b60008115159050919050565b612de881612dd3565b82525050565b6000602082019050612e036000830184612ddf565b92915050565b6000602082019050612e1e6000830184612bb9565b92915050565b60008060008060008060c08789031215612e4157612e40612611565b5b6000612e4f89828a01612938565b965050602087013567ffffffffffffffff811115612e7057612e6f612616565b5b612e7c89828a01612733565b955050604087013567ffffffffffffffff811115612e9d57612e9c612616565b5b612ea989828a01612733565b945050606087013567ffffffffffffffff811115612eca57612ec9612616565b5b612ed689828a01612733565b935050608087013567ffffffffffffffff811115612ef757612ef6612616565b5b612f0389828a01612733565b92505060a0612f1489828a01612964565b9150509295509295509295565b6000819050919050565b6000612f46612f41612f3c846128ef565b612f21565b6128ef565b9050919050565b6000612f5882612f2b565b9050919050565b6000612f6a82612f4d565b9050919050565b612f7a81612f5f565b82525050565b6000602082019050612f956000830184612f71565b92915050565b600081905092915050565b6000612fb1826127aa565b612fbb8185612f9b565b9350612fcb8185602086016127c6565b80840191505092915050565b6000612fe38284612fa6565b915081905092915050565b7f50726f64756374206e6f7420666f756e64000000000000000000000000000000600082015250565b60006130246011836129b9565b915061302f82612fee565b602082019050919050565b6000602082019050818103600083015261305381613017565b9050919050565b7f4e487b7100000000000000000000000000000000000000000000000000000000600052602260045260246000fd5b600060028204905060018216806130a157607f821691505b6020821081036130b4576130b361305a565b5b50919050565b6130c38161290f565b82525050565b60006020820190506130de60008301846130ba565b92915050565b600080fd5b600080fd5b6000815190506130fd81612921565b92915050565b6000613116613111846126b1565b612696565b90508281526020810184848401111561313257613131612620565b5b61313d8482856127c6565b509392505050565b600082601f83011261315a5761315961261b565b5b815161316a848260208601613103565b91505092915050565b6004811061318057600080fd5b50565b60008151905061319281613173565b92915050565b6000608082840312156131ae576131ad6130e4565b5b6131b86080612696565b905060006131c8848285016130ee565b600083015250602082015167ffffffffffffffff8111156131ec576131eb6130e9565b5b6131f884828501613145565b602083015250604061320c84828501613183565b604083015250606082015167ffffffffffffffff8111156132305761322f6130e9565b5b61323c84828501613145565b60608301525092915050565b60006020828403121561325e5761325d612611565b5b600082015167ffffffffffffffff81111561327c5761327b612616565b5b61328884828501613198565b91505092915050565b7f55736572206e6f74207265676973746572656400000000000000000000000000600082015250565b60006132c76013836129b9565b91506132d282613291565b602082019050919050565b600060208201905081810360008301526132f6816132ba565b9050919050565b7f43616e6e6f742073656c6c20746f20796f757273656c66000000000000000000600082015250565b60006133336017836129b9565b915061333e826132fd565b602082019050919050565b6000602082019050818103600083015261336281613326565b9050919050565b7f566f6c756d65206d7573742062652067726561746572207468616e207a65726f600082015250565b600061339f6020836129b9565b91506133aa82613369565b602082019050919050565b600060208201905081810360008301526133ce81613392565b9050919050565b7f496e73756666696369656e7420766f6c756d6520746f2073656c6c0000000000600082015250565b600061340b601b836129b9565b9150613416826133d5565b602082019050919050565b6000602082019050818103600083015261343a816133fe565b9050919050565b7f4e487b7100000000000000000000000000000000000000000000000000000000600052603260045260246000fd5b600081905092915050565b60008190508160005260206000209050919050565b6000815461349d81613089565b6134a78186613470565b945060018216600081146134c257600181146134d75761350a565b60ff198316865281151582028601935061350a565b6134e08561347b565b60005b83811015613502578154818901526001820191506020810190506134e3565b838801955050505b50505092915050565b600061351f8284613490565b915081905092915050565b7f53656c6c657220646f6573206e6f74206f776e20746869732070726f64756374600082015250565b60006135606020836129b9565b915061356b8261352a565b602082019050919050565b6000602082019050818103600083015261358f81613553565b9050919050565b7f4e487b7100000000000000000000000000000000000000000000000000000000600052601160045260246000fd5b60006135d082612829565b91506135db83612829565b92508282039050818111156135f3576135f2613596565b5b92915050565b60008154905061360881613089565b9050919050565b60008190508160005260206000209050919050565b60008190508160005260206000209050919050565b60006020601f8301049050919050565b600082821b905092915050565b6000600883026136867fffffffffffffffffffffffffffffffffffffffffffffffffffffffffffffffff82613649565b6136908683613649565b95508019841693508086168417925050509392505050565b60006136c36136be6136b984612829565b612f21565b612829565b9050919050565b6000819050919050565b6136dd836136a8565b6136f16136e9826136ca565b848454613656565b825550505050565b600090565b6137066136f9565b6137118184846136d4565b505050565b5b818110156137355761372a6000826136fe565b600181019050613717565b5050565b601f82111561377a5761374b8161360f565b61375484613639565b81016020851015613763578190505b61377761376f85613639565b830182613716565b50505b505050565b600082821c905092915050565b600061379d6000198460080261377f565b1980831691505092915050565b60006137b6838361378c565b9150826002028217905092915050565b8181036137d45750506138ac565b6137dd826135f9565b67ffffffffffffffff8111156137f6576137f5612636565b5b6138008254613089565b61380b828285613739565b6000601f83116001811461383a5760008415613828578287015490505b61383285826137aa565b8655506138a5565b601f19841661384887613624565b96506138538661360f565b60005b8281101561387b57848901548255600182019150600185019450602081019050613856565b868310156138985784890154613894601f89168261378c565b8355505b6001600288020188555050505b5050505050505b565b7f4e487b7100000000000000000000000000000000000000000000000000000000600052603160045260246000fd5b6138e6826127aa565b67ffffffffffffffff8111156138ff576138fe612636565b5b6139098254613089565b613914828285613739565b600060209050601f8311600181146139475760008415613935578287015190505b61393f85826137aa565b8655506139a7565b601f1984166139558661360f565b60005b8281101561397d57848901518255600182019150602085019450602081019050613958565b8683101561399a5784890151613996601f89168261378c565b8355505b6001600288020188555050505b505050505050565b600060a08201905081810360008301526139c981886129ca565b90506139d860208301876130ba565b6139e560408301866130ba565b6139f26060830185612bb9565b6139ff6080830184612bb9565b9695505050505050565b6000613a1482612829565b9150613a1f83612829565b9250828201905080821115613a3757613a36613596565b5b92915050565b7f4e487b7100000000000000000000000000000000000000000000000000000000600052602160045260246000fd5b7f4f6e6c79206d616e7566616374757265722063616e206164642070726f64756360008201527f7473000000000000000000000000000000000000000000000000000000000000602082015250565b6000613ac86022836129b9565b9150613ad382613a6c565b604082019050919050565b60006020820190508181036000830152613af781613abb565b9050919050565b7f50726f647563742077697468207468697320626172636f646520616c7265616460008201527f7920657869737473000000000000000000000000000000000000000000000000602082015250565b6000613b5a6028836129b9565b9150613b6582613afe565b604082019050919050565b60006020820190508181036000830152613b8981613b4d565b9050919050565b7f50726f64756374206e616d652063616e6e6f7420626520656d70747900000000600082015250565b6000613bc6601c836129b9565b9150613bd182613b90565b602082019050919050565b60006020820190508181036000830152613bf581613bb9565b9050919050565b7f426172636f64652063616e6e6f7420626520656d707479000000000000000000600082015250565b6000613c326017836129b9565b9150613c3d82613bfc565b602082019050919050565b60006020820190508181036000830152613c6181613c25565b9050919050565b600060c082019050613c7d60008301896130ba565b8181036020830152613c8f81886129ca565b90508181036040830152613ca381876129ca565b90508181036060830152613cb781866129ca565b90508181036080830152613ccb81856129ca565b9050613cda60a0830184612bb9565b979650505050505050565b7f4d616e7566616374757265722063616e206f6e6c792073656c6c20746f20537560008201527f70706c6965720000000000000000000000000000000000000000000000000000602082015250565b6000613d416026836129b9565b9150613d4c82613ce5565b604082019050919050565b60006020820190508181036000830152613d7081613d34565b9050919050565b7f537570706c6965722063616e206f6e6c792073656c6c20746f2056656e646f72600082015250565b6000613dad6020836129b9565b9150613db882613d77565b602082019050919050565b60006020820190508181036000830152613ddc81613da0565b9050919050565b7f56656e646f722063616e206f6e6c792073656c6c20746f20437573746f6d6572600082015250565b6000613e196020836129b9565b9150613e2482613de3565b602082019050919050565b60006020820190508181036000830152613e4881613e0c565b9050919050565b7f437573746f6d65722063616e6e6f742073656c6c207468652070726f64756374600082015250565b6000613e856020836129b9565b9150613e9082613e4f565b602082019050919050565b60006020820190508181036000830152613eb481613e78565b905091905056fea2646970667358221220f9f531463db945f505c1522a27a58f5268423e971711267c55285f7b9f819e0864736f6c634300081e0033",
  "linkReferences": {},
  "deployedLinkReferences": {}
}