{
  "_format": "hh-sol-artifact-1",
  "contractName": "Products",
  "sourceName": "contracts/Products.sol",
  "abi": [
    {
      "anonymous": false,
      "inputs": [
        {
          "indexed": false,
          "internalType": "address",
          "name": "manufacturer",
          "type": "address"
        },
        {
          "indexed": false,
          "internalType": "string",
          "name": "name",
          "type": "string"
        },
        {
          "indexed": false,
          "internalType": "string",
          "name": "manufacturerName",
          "type": "string"
        },
        {
          "indexed": false,
          "internalType": "string",
          "name": "barcode",
          "type": "string"
        },
        {
          "indexed": false,
          "internalType": "string",
          "name": "manufacturedTime",
          "type": "string"
        }
      ],
      "name": "NewProduct",
      "type": "event"
    },
    {
      "anonymous": false,
      "inputs": [
        {
          "indexed": false,
          "internalType": "string",
          "name": "barcode",
          "type": "string"
        },
        {
          "indexed": false,
          "internalType": "address",
          "name": "buyer",
          "type": "address"
        },
        {
          "indexed": false,
          "internalType": "address",
          "name": "seller",
          "type": "address"
        },
        {
          "indexed": false,
          "internalType": "uint256",
          "name": "transferTime",
          "type": "uint256"
        }
      ],
      "name": "ProductOwnershipTransfer",
      "type": "event"
    },
    {
      "inputs": [
        {
          "internalType": "address",
          "name": "_manufacturer",
          "type": "address"
        },
        {
          "internalType": "string",
          "name": "_name",
          "type": "string"
        },
        {
          "internalType": "string",
          "name": "_manufacturerName",
          "type": "string"
        },
        {
          "internalType": "string",
          "name": "_barcode",
          "type": "string"
        },
        {
          "internalType": "string",
          "name": "_manufacturedTime",
          "type": "string"
        }
      ],
      "name": "addProduct",
      "outputs": [],
      "stateMutability": "nonpayable",
      "type": "function"
    },
    {
      "inputs": [
        {
          "internalType": "string",
          "name": "",
          "type": "string"
        }
      ],
      "name": "barcodeToProduct",
      "outputs": [
        {
          "internalType": "string",
          "name": "name",
          "type": "string"
        },
        {
          "internalType": "string",
          "name": "manufacturerName",
          "type": "string"
        },
        {
          "internalType": "string",
          "name": "barcode",
          "type": "string"
        },
        {
          "internalType": "string",
          "name": "manufacturedTime",
          "type": "string"
        }
      ],
      "stateMutability": "view",
      "type": "function"
    },
    {
      "inputs": [
        {
          "internalType": "string",
          "name": "_barcode",
          "type": "string"
        }
      ],
      "name": "getProductByBarcode",
      "outputs": [
        {
          "components": [
            {
              "internalType": "string",
              "name": "name",
              "type": "string"
            },
            {
              "internalType": "string",
              "name": "manufacturerName",
              "type": "string"
            },
            {
              "internalType": "string",
              "name": "barcode",
              "type": "string"
            },
            {
              "internalType": "string",
              "name": "manufacturedTime",
              "type": "string"
            }
          ],
          "internalType": "struct Types.Product",
          "name": "",
          "type": "tuple"
        }
      ],
      "stateMutability": "view",
      "type": "function"
    },
    {
      "inputs": [
        {
          "internalType": "string",
          "name": "_barcode",
          "type": "string"
        }
      ],
      "name": "getProductHistory",
      "outputs": [
        {
          "components": [
            {
              "internalType": "address",
              "name": "owner",
              "type": "address"
            },
            {
              "internalType": "uint256",
              "name": "timestamp",
              "type": "uint256"
            }
          ],
          "internalType": "struct Types.ProductHistory[]",
          "name": "",
          "type": "tuple[]"
        }
      ],
      "stateMutability": "view",
      "type": "function"
    },
    {
      "inputs": [
        {
          "internalType": "string",
          "name": "_barcode",
          "type": "string"
        }
      ],
      "name": "getProductHistoryLength",
      "outputs": [
        {
          "internalType": "uint256",
          "name": "",
          "type": "uint256"
        }
      ],
      "stateMutability": "view",
      "type": "function"
    },
    {
      "inputs": [
        {
          "internalType": "address",
          "name": "user",
          "type": "address"
        }
      ],
      "name": "getUserProductCount",
      "outputs": [
        {
          "internalType": "uint256",
          "name": "",
          "type": "uint256"
        }
      ],
      "stateMutability": "view",
      "type": "function"
    },
    {
      "inputs": [
        {
          "internalType": "address",
          "name": "user",
          "type": "address"
        }
      ],
      "name": "isUserManufacturer",
      "outputs": [
        {
          "internalType": "bool",
          "name": "",
          "type": "bool"
        }
      ],
      "stateMutability": "view",
      "type": "function"
    },
    {
      "inputs": [
        {
          "internalType": "string",
          "name": "",
          "type": "string"
        }
      ],
      "name": "productExists",
      "outputs": [
        {
          "internalType": "bool",
          "name": "",
          "type": "bool"
        }
      ],
      "stateMutability": "view",
      "type": "function"
    },
    {
      "inputs": [
        {
          "internalType": "string",
          "name": "",
          "type": "string"
        },
        {
          "internalType": "uint256",
          "name": "",
          "type": "uint256"
        }
      ],
      "name": "productHistory",
      "outputs": [
        {
          "internalType": "address",
          "name": "owner",
          "type": "address"
        },
        {
          "internalType": "uint256",
          "name": "timestamp",
          "type": "uint256"
        }
      ],
      "stateMutability": "view",
      "type": "function"
    },
    {
      "inputs": [
        {
          "internalType": "uint256",
          "name": "",
          "type": "uint256"
        }
      ],
      "name": "products",
      "outputs": [
        {
          "internalType": "string",
          "name": "name",
          "type": "string"
        },
        {
          "internalType": "string",
          "name": "manufacturerName",
          "type": "string"
        },
        {
          "internalType": "string",
          "name": "barcode",
          "type": "string"
        },
        {
          "internalType": "string",
          "name": "manufacturedTime",
          "type": "string"
        }
      ],
      "stateMutability": "view",
      "type": "function"
    },
    {
      "inputs": [
        {
          "internalType": "address",
          "name": "_seller",
          "type": "address"
        },
        {
          "internalType": "address",
          "name": "_buyer",
          "type": "address"
        },
        {
          "internalType": "string",
          "name": "_barcode",
          "type": "string"
        }
      ],
      "name": "sell",
      "outputs": [],
      "stateMutability": "nonpayable",
      "type": "function"
    },
    {
      "inputs": [
        {
          "internalType": "address",
          "name": "_users",
          "type": "address"
        }
      ],
      "name": "setUsersContract",
      "outputs": [],
      "stateMutability": "nonpayable",
      "type": "function"
    },
    {
      "inputs": [
        {
          "internalType": "address",
          "name": "",
          "type": "address"
        },
        {
          "internalType": "uint256",
          "name": "",
          "type": "uint256"
        }
      ],
      "name": "userProducts",
      "outputs": [
        {
          "internalType": "string",
          "name": "",
          "type": "string"
        }
      ],
      "stateMutability": "view",
      "type": "function"
    },
    {
      "inputs": [],
      "name": "users",
      "outputs": [
        {
          "internalType": "contract Users",
          "name": "",
          "type": "address"
        }
      ],
      "stateMutability": "view",
      "type": "function"
    }
  ],
  "bytecode": "0x6080604052348015600f57600080fd5b506136be8061001f6000396000f3fe608060405234801561001057600080fd5b50600436106100ea5760003560e01c8063a9ea55f11161008c578063e0c57ec811610066578063e0c57ec8146102c2578063e5e20ac9146102de578063f2020275146102fa578063f9b8cc1b14610318576100ea565b8063a9ea55f114610246578063c60bdc7f14610276578063d4f5045314610292576100ea565b80633d527883116100c85780633d527883146101805780636e2b4896146101b05780637acc0b20146101e35780638addc05114610216576100ea565b806301970b11146100ef57806306433b291461012057806334dd129214610150575b600080fd5b610109600480360381019061010491906120c4565b610348565b604051610117929190612170565b60405180910390f35b61013a60048036038101906101359190612199565b6103bf565b60405161014791906121e2565b60405180910390f35b61016a60048036038101906101659190612199565b6103ea565b60405161017791906122f4565b60405180910390f35b61019a60048036038101906101959190612342565b6106d5565b6040516101a791906123cc565b60405180910390f35b6101ca60048036038101906101c59190612199565b61078e565b6040516101da94939291906123ee565b60405180910390f35b6101fd60048036038101906101f8919061244f565b6109f4565b60405161020d94939291906123ee565b60405180910390f35b610230600480360381019061022b9190612199565b610c54565b60405161023d9190612497565b60405180910390f35b610260600480360381019061025b91906124b2565b610c8a565b60405161026d9190612497565b60405180910390f35b610290600480360381019061028b91906124b2565b610d62565b005b6102ac60048036038101906102a79190612199565b610da5565b6040516102b991906125db565b60405180910390f35b6102dc60048036038101906102d791906125fd565b610eed565b005b6102f860048036038101906102f3919061266c565b611527565b005b610302611a4f565b60405161030f91906127b6565b60405180910390f35b610332600480360381019061032d91906124b2565b611a73565b60405161033f91906121e2565b60405180910390f35b600382805160208101820180518482526020830160208501208183528095505050505050818154811061037a57600080fd5b9060005260206000209060020201600091509150508060000160009054906101000a900473ffffffffffffffffffffffffffffffffffffffff16908060010154905082565b60006003826040516103d1919061280d565b9081526020016040518091039020805490509050919050565b6103f2611eaf565b600482604051610402919061280d565b908152602001604051809103902060009054906101000a900460ff1661045d576040517f08c379a000000000000000000000000000000000000000000000000000000000815260040161045490612870565b60405180910390fd5b60058260405161046d919061280d565b9081526020016040518091039020604051806080016040529081600082018054610496906128bf565b80601f01602080910402602001604051908101604052809291908181526020018280546104c2906128bf565b801561050f5780601f106104e45761010080835404028352916020019161050f565b820191906000526020600020905b8154815290600101906020018083116104f257829003601f168201915b50505050508152602001600182018054610528906128bf565b80601f0160208091040260200160405190810160405280929190818152602001828054610554906128bf565b80156105a15780601f10610576576101008083540402835291602001916105a1565b820191906000526020600020905b81548152906001019060200180831161058457829003601f168201915b505050505081526020016002820180546105ba906128bf565b80601f01602080910402602001604051908101604052809291908181526020018280546105e6906128bf565b80156106335780601f1061060857610100808354040283529160200191610633565b820191906000526020600020905b81548152906001019060200180831161061657829003601f168201915b5050505050815260200160038201805461064c906128bf565b80601f0160208091040260200160405190810160405280929190818152602001828054610678906128bf565b80156106c55780601f1061069a576101008083540402835291602001916106c5565b820191906000526020600020905b8154815290600101906020018083116106a857829003601f168201915b5050505050815250509050919050565b600260205281600052604060002081815481106106f157600080fd5b9060005260206000200160009150915050805461070d906128bf565b80601f0160208091040260200160405190810160405280929190818152602001828054610739906128bf565b80156107865780601f1061075b57610100808354040283529160200191610786565b820191906000526020600020905b81548152906001019060200180831161076957829003601f168201915b505050505081565b6005818051602081018201805184825260208301602085012081835280955050505050506000915090508060000180546107c7906128bf565b80601f01602080910402602001604051908101604052809291908181526020018280546107f3906128bf565b80156108405780601f1061081557610100808354040283529160200191610840565b820191906000526020600020905b81548152906001019060200180831161082357829003601f168201915b505050505090806001018054610855906128bf565b80601f0160208091040260200160405190810160405280929190818152602001828054610881906128bf565b80156108ce5780601f106108a3576101008083540402835291602001916108ce565b820191906000526020600020905b8154815290600101906020018083116108b157829003601f168201915b5050505050908060020180546108e3906128bf565b80601f016020809104026020016040519081016040528092919081815260200182805461090f906128bf565b801561095c5780601f106109315761010080835404028352916020019161095c565b820191906000526020600020905b81548152906001019060200180831161093f57829003601f168201915b505050505090806003018054610971906128bf565b80601f016020809104026020016040519081016040528092919081815260200182805461099d906128bf565b80156109ea5780601f106109bf576101008083540402835291602001916109ea565b820191906000526020600020905b8154815290600101906020018083116109cd57829003601f168201915b5050505050905084565b60018181548110610a0457600080fd5b9060005260206000209060040201600091509050806000018054610a27906128bf565b80601f0160208091040260200160405190810160405280929190818152602001828054610a53906128bf565b8015610aa05780601f10610a7557610100808354040283529160200191610aa0565b820191906000526020600020905b815481529060010190602001808311610a8357829003601f168201915b505050505090806001018054610ab5906128bf565b80601f0160208091040260200160405190810160405280929190818152602001828054610ae1906128bf565b8015610b2e5780601f10610b0357610100808354040283529160200191610b2e565b820191906000526020600020905b815481529060010190602001808311610b1157829003601f168201915b505050505090806002018054610b43906128bf565b80601f0160208091040260200160405190810160405280929190818152602001828054610b6f906128bf565b8015610bbc5780601f10610b9157610100808354040283529160200191610bbc565b820191906000526020600020905b815481529060010190602001808311610b9f57829003601f168201915b505050505090806003018054610bd1906128bf565b80601f0160208091040260200160405190810160405280929190818152602001828054610bfd906128bf565b8015610c4a5780601f10610c1f57610100808354040283529160200191610c4a565b820191906000526020600020905b815481529060010190602001808311610c2d57829003601f168201915b5050505050905084565b6004818051602081018201805184825260208301602085012081835280955050505050506000915054906101000a900460ff1681565b60008060008054906101000a900473ffffffffffffffffffffffffffffffffffffffff1673ffffffffffffffffffffffffffffffffffffffff16636f77926b846040518263ffffffff1660e01b8152600401610ce691906128f0565b600060405180830381865afa158015610d03573d6000803e3d6000fd5b505050506040513d6000823e3d601f19601f82011682018060405250810190610d2c9190612a3f565b905060006003811115610d4257610d41612a88565b5b81604001516003811115610d5957610d58612a88565b5b14915050919050565b806000806101000a81548173ffffffffffffffffffffffffffffffffffffffff021916908373ffffffffffffffffffffffffffffffffffffffff16021790555050565b6060600482604051610db7919061280d565b908152602001604051809103902060009054906101000a900460ff16610e12576040517f08c379a0000000000000000000000000000000000000000000000000000000008152600401610e0990612870565b60405180910390fd5b600382604051610e22919061280d565b9081526020016040518091039020805480602002602001604051908101604052809291908181526020016000905b82821015610ee257838290600052602060002090600202016040518060400160405290816000820160009054906101000a900473ffffffffffffffffffffffffffffffffffffffff1673ffffffffffffffffffffffffffffffffffffffff1673ffffffffffffffffffffffffffffffffffffffff16815260200160018201548152505081526020019060010190610e50565b505050509050919050565b8260008060009054906101000a900473ffffffffffffffffffffffffffffffffffffffff1673ffffffffffffffffffffffffffffffffffffffff16636f77926b836040518263ffffffff1660e01b8152600401610f4a91906128f0565b600060405180830381865afa158015610f67573d6000803e3d6000fd5b505050506040513d6000823e3d601f19601f82011682018060405250810190610f909190612a3f565b9050600081602001515111610fda576040517f08c379a0000000000000000000000000000000000000000000000000000000008152600401610fd190612b03565b60405180910390fd5b8360008060009054906101000a900473ffffffffffffffffffffffffffffffffffffffff1673ffffffffffffffffffffffffffffffffffffffff16636f77926b836040518263ffffffff1660e01b815260040161103791906128f0565b600060405180830381865afa158015611054573d6000803e3d6000fd5b505050506040513d6000823e3d601f19601f8201168201806040525081019061107d9190612a3f565b90506000816020015151116110c7576040517f08c379a00000000000000000000000000000000000000000000000000000000081526004016110be90612b03565b60405180910390fd5b6004856040516110d7919061280d565b908152602001604051809103902060009054906101000a900460ff16611132576040517f08c379a000000000000000000000000000000000000000000000000000000000815260040161112990612870565b60405180910390fd5b8573ffffffffffffffffffffffffffffffffffffffff168773ffffffffffffffffffffffffffffffffffffffff16036111a0576040517f08c379a000000000000000000000000000000000000000000000000000000000815260040161119790612b6f565b60405180910390fd5b60008060009054906101000a900473ffffffffffffffffffffffffffffffffffffffff1673ffffffffffffffffffffffffffffffffffffffff16636f77926b896040518263ffffffff1660e01b81526004016111fc91906128f0565b600060405180830381865afa158015611219573d6000803e3d6000fd5b505050506040513d6000823e3d601f19601f820116820180604052508101906112429190612a3f565b905060008060009054906101000a900473ffffffffffffffffffffffffffffffffffffffff1673ffffffffffffffffffffffffffffffffffffffff16636f77926b896040518263ffffffff1660e01b81526004016112a091906128f0565b600060405180830381865afa1580156112bd573d6000803e3d6000fd5b505050506040513d6000823e3d601f19601f820116820180604052508101906112e69190612a3f565b905060006003886040516112fa919061280d565b908152602001604051809103902090506000818054905011611351576040517f08c379a000000000000000000000000000000000000000000000000000000000815260040161134890612bdb565b60405180910390fd5b600081600183805490506113659190612c2a565b8154811061137657611375612c5e565b5b906000526020600020906002020160000160009054906101000a900473ffffffffffffffffffffffffffffffffffffffff1690508a73ffffffffffffffffffffffffffffffffffffffff168173ffffffffffffffffffffffffffffffffffffffff1614611418576040517f08c379a000000000000000000000000000000000000000000000000000000000815260040161140f90612cff565b60405180910390fd5b61142a84604001518460400151611abf565b6114358b8b8b611cc7565b8160405180604001604052808c73ffffffffffffffffffffffffffffffffffffffff16815260200142815250908060018154018082558091505060019003906000526020600020906002020160009091909190915060008201518160000160006101000a81548173ffffffffffffffffffffffffffffffffffffffff021916908373ffffffffffffffffffffffffffffffffffffffff1602179055506020820151816001015550507fc93af01e622623062f967117ed8e198e915af492c8f3aabebec794730cf64dee898b8d426040516115129493929190612d1f565b60405180910390a15050505050505050505050565b8460008060009054906101000a900473ffffffffffffffffffffffffffffffffffffffff1673ffffffffffffffffffffffffffffffffffffffff16636f77926b836040518263ffffffff1660e01b815260040161158491906128f0565b600060405180830381865afa1580156115a1573d6000803e3d6000fd5b505050506040513d6000823e3d601f19601f820116820180604052508101906115ca9190612a3f565b9050600060038111156115e0576115df612a88565b5b816040015160038111156115f7576115f6612a88565b5b14611637576040517f08c379a000000000000000000000000000000000000000000000000000000000815260040161162e90612ddd565b60405180910390fd5b60008160200151511161167f576040517f08c379a000000000000000000000000000000000000000000000000000000000815260040161167690612b03565b60405180910390fd5b60048460405161168f919061280d565b908152602001604051809103902060009054906101000a900460ff16156116eb576040517f08c379a00000000000000000000000000000000000000000000000000000000081526004016116e290612e6f565b60405180910390fd5b600086511161172f576040517f08c379a000000000000000000000000000000000000000000000000000000000815260040161172690612edb565b60405180910390fd5b6000845111611773576040517f08c379a000000000000000000000000000000000000000000000000000000000815260040161176a90612f47565b60405180910390fd5b60006040518060800160405280888152602001878152602001868152602001858152509050600181908060018154018082558091505060019003906000526020600020906004020160009091909190915060008201518160000190816117d99190613109565b5060208201518160010190816117ef9190613109565b5060408201518160020190816118059190613109565b50606082015181600301908161181b9190613109565b5050508060058660405161182f919061280d565b908152602001604051809103902060008201518160000190816118529190613109565b5060208201518160010190816118689190613109565b50604082015181600201908161187e9190613109565b5060608201518160030190816118949190613109565b5090505060016004866040516118aa919061280d565b908152602001604051809103902060006101000a81548160ff021916908315150217905550600260008973ffffffffffffffffffffffffffffffffffffffff1673ffffffffffffffffffffffffffffffffffffffff168152602001908152602001600020859080600181540180825580915050600190039060005260206000200160009091909190915090816119409190613109565b50600385604051611951919061280d565b908152602001604051809103902060405180604001604052808a73ffffffffffffffffffffffffffffffffffffffff16815260200142815250908060018154018082558091505060019003906000526020600020906002020160009091909190915060008201518160000160006101000a81548173ffffffffffffffffffffffffffffffffffffffff021916908373ffffffffffffffffffffffffffffffffffffffff1602179055506020820151816001015550507f1c6dd0df93e82aba12c0d62842d917c64dbefd30f23b8628e4908641d03775dd8888888888604051611a3d9594939291906131db565b60405180910390a15050505050505050565b60008054906101000a900473ffffffffffffffffffffffffffffffffffffffff1681565b6000600260008373ffffffffffffffffffffffffffffffffffffffff1673ffffffffffffffffffffffffffffffffffffffff168152602001908152602001600020805490509050919050565b60006003811115611ad357611ad2612a88565b5b826003811115611ae657611ae5612a88565b5b03611b575760016003811115611aff57611afe612a88565b5b816003811115611b1257611b11612a88565b5b14611b52576040517f08c379a0000000000000000000000000000000000000000000000000000000008152600401611b49906132bc565b60405180910390fd5b611cc3565b60016003811115611b6b57611b6a612a88565b5b826003811115611b7e57611b7d612a88565b5b03611bef5760026003811115611b9757611b96612a88565b5b816003811115611baa57611ba9612a88565b5b14611bea576040517f08c379a0000000000000000000000000000000000000000000000000000000008152600401611be190613328565b60405180910390fd5b611cc2565b60026003811115611c0357611c02612a88565b5b826003811115611c1657611c15612a88565b5b03611c8657600380811115611c2e57611c2d612a88565b5b816003811115611c4157611c40612a88565b5b14611c81576040517f08c379a0000000000000000000000000000000000000000000000000000000008152600401611c7890613394565b60405180910390fd5b611cc1565b6040517f08c379a0000000000000000000000000000000000000000000000000000000008152600401611cb890613400565b60405180910390fd5b5b5b5050565b6000600260008573ffffffffffffffffffffffffffffffffffffffff1673ffffffffffffffffffffffffffffffffffffffff16815260200190815260200160002090506000805b8280549050811015611df5578380519060200120838281548110611d3557611d34612c5e565b5b90600052602060002001604051611d4c91906134c3565b604051809103902003611de8578260018480549050611d6b9190612c2a565b81548110611d7c57611d7b612c5e565b5b90600052602060002001838281548110611d9957611d98612c5e565b5b906000526020600020019081611daf9190613505565b5082805480611dc157611dc06135ed565b5b600190038181906000526020600020016000611ddd9190611ed7565b905560019150611df5565b8080600101915050611d0e565b5080611e36576040517f08c379a0000000000000000000000000000000000000000000000000000000008152600401611e2d90613668565b60405180910390fd5b600260008573ffffffffffffffffffffffffffffffffffffffff1673ffffffffffffffffffffffffffffffffffffffff16815260200190815260200160002083908060018154018082558091505060019003906000526020600020016000909190919091509081611ea79190613109565b505050505050565b6040518060800160405280606081526020016060815260200160608152602001606081525090565b508054611ee3906128bf565b6000825580601f10611ef55750611f14565b601f016020900490600052602060002090810190611f139190611f17565b5b50565b5b80821115611f30576000816000905550600101611f18565b5090565b6000604051905090565b600080fd5b600080fd5b600080fd5b600080fd5b6000601f19601f8301169050919050565b7f4e487b7100000000000000000000000000000000000000000000000000000000600052604160045260246000fd5b611f9b82611f52565b810181811067ffffffffffffffff82111715611fba57611fb9611f63565b5b80604052505050565b6000611fcd611f34565b9050611fd98282611f92565b919050565b600067ffffffffffffffff821115611ff957611ff8611f63565b5b61200282611f52565b9050602081019050919050565b82818337600083830152505050565b600061203161202c84611fde565b611fc3565b90508281526020810184848401111561204d5761204c611f4d565b5b61205884828561200f565b509392505050565b600082601f83011261207557612074611f48565b5b813561208584826020860161201e565b91505092915050565b6000819050919050565b6120a18161208e565b81146120ac57600080fd5b50565b6000813590506120be81612098565b92915050565b600080604083850312156120db576120da611f3e565b5b600083013567ffffffffffffffff8111156120f9576120f8611f43565b5b61210585828601612060565b9250506020612116858286016120af565b9150509250929050565b600073ffffffffffffffffffffffffffffffffffffffff82169050919050565b600061214b82612120565b9050919050565b61215b81612140565b82525050565b61216a8161208e565b82525050565b60006040820190506121856000830185612152565b6121926020830184612161565b9392505050565b6000602082840312156121af576121ae611f3e565b5b600082013567ffffffffffffffff8111156121cd576121cc611f43565b5b6121d984828501612060565b91505092915050565b60006020820190506121f76000830184612161565b92915050565b600081519050919050565b600082825260208201905092915050565b60005b8381101561223757808201518184015260208101905061221c565b60008484015250505050565b600061224e826121fd565b6122588185612208565b9350612268818560208601612219565b61227181611f52565b840191505092915050565b600060808301600083015184820360008601526122998282612243565b915050602083015184820360208601526122b38282612243565b915050604083015184820360408601526122cd8282612243565b915050606083015184820360608601526122e78282612243565b9150508091505092915050565b6000602082019050818103600083015261230e818461227c565b905092915050565b61231f81612140565b811461232a57600080fd5b50565b60008135905061233c81612316565b92915050565b6000806040838503121561235957612358611f3e565b5b60006123678582860161232d565b9250506020612378858286016120af565b9150509250929050565b600082825260208201905092915050565b600061239e826121fd565b6123a88185612382565b93506123b8818560208601612219565b6123c181611f52565b840191505092915050565b600060208201905081810360008301526123e68184612393565b905092915050565b600060808201905081810360008301526124088187612393565b9050818103602083015261241c8186612393565b905081810360408301526124308185612393565b905081810360608301526124448184612393565b905095945050505050565b60006020828403121561246557612464611f3e565b5b6000612473848285016120af565b91505092915050565b60008115159050919050565b6124918161247c565b82525050565b60006020820190506124ac6000830184612488565b92915050565b6000602082840312156124c8576124c7611f3e565b5b60006124d68482850161232d565b91505092915050565b600081519050919050565b600082825260208201905092915050565b6000819050602082019050919050565b61251481612140565b82525050565b6125238161208e565b82525050565b60408201600082015161253f600085018261250b565b506020820151612552602085018261251a565b50505050565b60006125648383612529565b60408301905092915050565b6000602082019050919050565b6000612588826124df565b61259281856124ea565b935061259d836124fb565b8060005b838110156125ce5781516125b58882612558565b97506125c083612570565b9250506001810190506125a1565b5085935050505092915050565b600060208201905081810360008301526125f5818461257d565b905092915050565b60008060006060848603121561261657612615611f3e565b5b60006126248682870161232d565b93505060206126358682870161232d565b925050604084013567ffffffffffffffff81111561265657612655611f43565b5b61266286828701612060565b9150509250925092565b600080600080600060a0868803121561268857612687611f3e565b5b60006126968882890161232d565b955050602086013567ffffffffffffffff8111156126b7576126b6611f43565b5b6126c388828901612060565b945050604086013567ffffffffffffffff8111156126e4576126e3611f43565b5b6126f088828901612060565b935050606086013567ffffffffffffffff81111561271157612710611f43565b5b61271d88828901612060565b925050608086013567ffffffffffffffff81111561273e5761273d611f43565b5b61274a88828901612060565b9150509295509295909350565b6000819050919050565b600061277c61277761277284612120565b612757565b612120565b9050919050565b600061278e82612761565b9050919050565b60006127a082612783565b9050919050565b6127b081612795565b82525050565b60006020820190506127cb60008301846127a7565b92915050565b600081905092915050565b60006127e7826121fd565b6127f181856127d1565b9350612801818560208601612219565b80840191505092915050565b600061281982846127dc565b915081905092915050565b7f50726f64756374206e6f7420666f756e64000000000000000000000000000000600082015250565b600061285a601183612382565b915061286582612824565b602082019050919050565b600060208201905081810360008301526128898161284d565b9050919050565b7f4e487b7100000000000000000000000000000000000000000000000000000000600052602260045260246000fd5b600060028204905060018216806128d757607f821691505b6020821081036128ea576128e9612890565b5b50919050565b60006020820190506129056000830184612152565b92915050565b600080fd5b600080fd5b60008151905061292481612316565b92915050565b600061293d61293884611fde565b611fc3565b90508281526020810184848401111561295957612958611f4d565b5b612964848285612219565b509392505050565b600082601f83011261298157612980611f48565b5b815161299184826020860161292a565b91505092915050565b600481106129a757600080fd5b50565b6000815190506129b98161299a565b92915050565b6000606082840312156129d5576129d461290b565b5b6129df6060611fc3565b905060006129ef84828501612915565b600083015250602082015167ffffffffffffffff811115612a1357612a12612910565b5b612a1f8482850161296c565b6020830152506040612a33848285016129aa565b60408301525092915050565b600060208284031215612a5557612a54611f3e565b5b600082015167ffffffffffffffff811115612a7357612a72611f43565b5b612a7f848285016129bf565b91505092915050565b7f4e487b7100000000000000000000000000000000000000000000000000000000600052602160045260246000fd5b7f55736572206e6f74207265676973746572656400000000000000000000000000600082015250565b6000612aed601383612382565b9150612af882612ab7565b602082019050919050565b60006020820190508181036000830152612b1c81612ae0565b9050919050565b7f43616e6e6f742073656c6c20746f20796f757273656c66000000000000000000600082015250565b6000612b59601783612382565b9150612b6482612b23565b602082019050919050565b60006020820190508181036000830152612b8881612b4c565b9050919050565b7f50726f6475637420686173206e6f20686973746f727900000000000000000000600082015250565b6000612bc5601683612382565b9150612bd082612b8f565b602082019050919050565b60006020820190508181036000830152612bf481612bb8565b9050919050565b7f4e487b7100000000000000000000000000000000000000000000000000000000600052601160045260246000fd5b6000612c358261208e565b9150612c408361208e565b9250828203905081811115612c5857612c57612bfb565b5b92915050565b7f4e487b7100000000000000000000000000000000000000000000000000000000600052603260045260246000fd5b7f4f6e6c792063757272656e74206f776e65722063616e2073656c6c2070726f6460008201527f7563740000000000000000000000000000000000000000000000000000000000602082015250565b6000612ce9602383612382565b9150612cf482612c8d565b604082019050919050565b60006020820190508181036000830152612d1881612cdc565b9050919050565b60006080820190508181036000830152612d398187612393565b9050612d486020830186612152565b612d556040830185612152565b612d626060830184612161565b95945050505050565b7f4f6e6c79206d616e7566616374757265722063616e206164642070726f64756360008201527f74732e0000000000000000000000000000000000000000000000000000000000602082015250565b6000612dc7602383612382565b9150612dd282612d6b565b604082019050919050565b60006020820190508181036000830152612df681612dba565b9050919050565b7f50726f647563742077697468207468697320626172636f646520616c7265616460008201527f7920657869737473000000000000000000000000000000000000000000000000602082015250565b6000612e59602883612382565b9150612e6482612dfd565b604082019050919050565b60006020820190508181036000830152612e8881612e4c565b9050919050565b7f50726f64756374206e616d652063616e6e6f7420626520656d70747900000000600082015250565b6000612ec5601c83612382565b9150612ed082612e8f565b602082019050919050565b60006020820190508181036000830152612ef481612eb8565b9050919050565b7f426172636f64652063616e6e6f7420626520656d707479000000000000000000600082015250565b6000612f31601783612382565b9150612f3c82612efb565b602082019050919050565b60006020820190508181036000830152612f6081612f24565b9050919050565b60008190508160005260206000209050919050565b60006020601f8301049050919050565b600082821b905092915050565b600060088302612fc97fffffffffffffffffffffffffffffffffffffffffffffffffffffffffffffffff82612f8c565b612fd38683612f8c565b95508019841693508086168417925050509392505050565b6000613006613001612ffc8461208e565b612757565b61208e565b9050919050565b6000819050919050565b61302083612feb565b61303461302c8261300d565b848454612f99565b825550505050565b600090565b61304961303c565b613054818484613017565b505050565b5b818110156130785761306d600082613041565b60018101905061305a565b5050565b601f8211156130bd5761308e81612f67565b61309784612f7c565b810160208510156130a6578190505b6130ba6130b285612f7c565b830182613059565b50505b505050565b600082821c905092915050565b60006130e0600019846008026130c2565b1980831691505092915050565b60006130f983836130cf565b9150826002028217905092915050565b613112826121fd565b67ffffffffffffffff81111561312b5761312a611f63565b5b61313582546128bf565b61314082828561307c565b600060209050601f8311600181146131735760008415613161578287015190505b61316b85826130ed565b8655506131d3565b601f19841661318186612f67565b60005b828110156131a957848901518255600182019150602085019450602081019050613184565b868310156131c657848901516131c2601f8916826130cf565b8355505b6001600288020188555050505b505050505050565b600060a0820190506131f06000830188612152565b81810360208301526132028187612393565b905081810360408301526132168186612393565b9050818103606083015261322a8185612393565b9050818103608083015261323e8184612393565b90509695505050505050565b7f4d616e7566616374757265722063616e206f6e6c792073656c6c20746f20537560008201527f70706c6965720000000000000000000000000000000000000000000000000000602082015250565b60006132a6602683612382565b91506132b18261324a565b604082019050919050565b600060208201905081810360008301526132d581613299565b9050919050565b7f537570706c6965722063616e206f6e6c792073656c6c20746f2056656e646f72600082015250565b6000613312602083612382565b915061331d826132dc565b602082019050919050565b6000602082019050818103600083015261334181613305565b9050919050565b7f56656e646f722063616e206f6e6c792073656c6c20746f20437573746f6d6572600082015250565b600061337e602083612382565b915061338982613348565b602082019050919050565b600060208201905081810360008301526133ad81613371565b9050919050565b7f437573746f6d65722063616e6e6f742073656c6c207468652070726f64756374600082015250565b60006133ea602083612382565b91506133f5826133b4565b602082019050919050565b60006020820190508181036000830152613419816133dd565b9050919050565b600081905092915050565b60008190508160005260206000209050919050565b6000815461344d816128bf565b6134578186613420565b945060018216600081146134725760018114613487576134ba565b60ff19831686528115158202860193506134ba565b6134908561342b565b60005b838110156134b257815481890152600182019150602081019050613493565b838801955050505b50505092915050565b60006134cf8284613440565b915081905092915050565b6000815490506134e9816128bf565b9050919050565b60008190508160005260206000209050919050565b8181036135135750506135eb565b61351c826134da565b67ffffffffffffffff81111561353557613534611f63565b5b61353f82546128bf565b61354a82828561307c565b6000601f8311600181146135795760008415613567578287015490505b61357185826130ed565b8655506135e4565b601f198416613587876134f0565b965061359286612f67565b60005b828110156135ba57848901548255600182019150600185019450602081019050613595565b868310156135d757848901546135d3601f8916826130cf565b8355505b6001600288020188555050505b5050505050505b565b7f4e487b7100000000000000000000000000000000000000000000000000000000600052603160045260246000fd5b7f50726f64756374206e6f7420696e2073656c6c657220696e76656e746f727900600082015250565b6000613652601f83612382565b915061365d8261361c565b602082019050919050565b6000602082019050818103600083015261368181613645565b905091905056fea26469706673582212208c4b9cfc4506067f2e9e868509b480a4f0d0873f6196ed4ede3d1431ab2a3e4364736f6c634300081e0033",
  "linkReferences": {},
  "deployedLinkReferences": {}
}