{
  "_format": "hh-sol-artifact-1",
  "contractName": "Products",
  "sourceName": "contracts/Products.sol",
  "abi": [
    {
      "anonymous": false,
      "inputs": [
        {
          "indexed": false,
          "internalType": "address",
          "name": "manufacturer",
          "type": "address"
        },
        {
          "indexed": false,
          "internalType": "string",
          "name": "name",
          "type": "string"
        },
        {
          "indexed": false,
          "internalType": "string",
          "name": "manufacturerName",
          "type": "string"
        },
        {
          "indexed": false,
          "internalType": "string",
          "name": "barcode",
          "type": "string"
        },
        {
          "indexed": false,
          "internalType": "string",
          "name": "manufacturedTime",
          "type": "string"
        }
      ],
      "name": "NewProduct",
      "type": "event"
    },
    {
      "anonymous": false,
      "inputs": [
        {
          "indexed": false,
          "internalType": "string",
          "name": "barcode",
          "type": "string"
        },
        {
          "indexed": false,
          "internalType": "address",
          "name": "buyer",
          "type": "address"
        },
        {
          "indexed": false,
          "internalType": "address",
          "name": "seller",
          "type": "address"
        },
        {
          "indexed": false,
          "internalType": "uint256",
          "name": "transferTime",
          "type": "uint256"
        }
      ],
      "name": "ProductOwnershipTransfer",
      "type": "event"
    },
    {
      "inputs": [
        {
          "internalType": "address",
          "name": "_manufacturer",
          "type": "address"
        },
        {
          "internalType": "string",
          "name": "_name",
          "type": "string"
        },
        {
          "internalType": "string",
          "name": "_manufacturerName",
          "type": "string"
        },
        {
          "internalType": "string",
          "name": "_barcode",
          "type": "string"
        },
        {
          "internalType": "string",
          "name": "_manufacturedTime",
          "type": "string"
        }
      ],
      "name": "addProduct",
      "outputs": [],
      "stateMutability": "nonpayable",
      "type": "function"
    },
    {
      "inputs": [
        {
          "internalType": "string",
          "name": "",
          "type": "string"
        }
      ],
      "name": "barcodeToProduct",
      "outputs": [
        {
          "internalType": "string",
          "name": "name",
          "type": "string"
        },
        {
          "internalType": "string",
          "name": "manufacturerName",
          "type": "string"
        },
        {
          "internalType": "string",
          "name": "barcode",
          "type": "string"
        },
        {
          "internalType": "string",
          "name": "manufacturedTime",
          "type": "string"
        }
      ],
      "stateMutability": "view",
      "type": "function"
    },
    {
      "inputs": [
        {
          "internalType": "string",
          "name": "_barcode",
          "type": "string"
        }
      ],
      "name": "getProductByBarcode",
      "outputs": [
        {
          "components": [
            {
              "internalType": "string",
              "name": "name",
              "type": "string"
            },
            {
              "internalType": "string",
              "name": "manufacturerName",
              "type": "string"
            },
            {
              "internalType": "string",
              "name": "barcode",
              "type": "string"
            },
            {
              "internalType": "string",
              "name": "manufacturedTime",
              "type": "string"
            }
          ],
          "internalType": "struct Types.Product",
          "name": "",
          "type": "tuple"
        }
      ],
      "stateMutability": "view",
      "type": "function"
    },
    {
      "inputs": [
        {
          "internalType": "string",
          "name": "_barcode",
          "type": "string"
        }
      ],
      "name": "getProductHistory",
      "outputs": [
        {
          "components": [
            {
              "internalType": "address",
              "name": "owner",
              "type": "address"
            },
            {
              "internalType": "uint256",
              "name": "timestamp",
              "type": "uint256"
            }
          ],
          "internalType": "struct Types.ProductHistory[]",
          "name": "",
          "type": "tuple[]"
        }
      ],
      "stateMutability": "view",
      "type": "function"
    },
    {
      "inputs": [
        {
          "internalType": "string",
          "name": "_barcode",
          "type": "string"
        }
      ],
      "name": "getProductHistoryLength",
      "outputs": [
        {
          "internalType": "uint256",
          "name": "",
          "type": "uint256"
        }
      ],
      "stateMutability": "view",
      "type": "function"
    },
    {
      "inputs": [
        {
          "internalType": "address",
          "name": "user",
          "type": "address"
        }
      ],
      "name": "getUserInventory",
      "outputs": [
        {
          "internalType": "string[]",
          "name": "",
          "type": "string[]"
        }
      ],
      "stateMutability": "view",
      "type": "function"
    },
    {
      "inputs": [
        {
          "internalType": "address",
          "name": "user",
          "type": "address"
        }
      ],
      "name": "getUserInventoryWithDetails",
      "outputs": [
        {
          "components": [
            {
              "internalType": "string",
              "name": "name",
              "type": "string"
            },
            {
              "internalType": "string",
              "name": "manufacturerName",
              "type": "string"
            },
            {
              "internalType": "string",
              "name": "barcode",
              "type": "string"
            },
            {
              "internalType": "string",
              "name": "manufacturedTime",
              "type": "string"
            }
          ],
          "internalType": "struct Types.Product[]",
          "name": "",
          "type": "tuple[]"
        }
      ],
      "stateMutability": "view",
      "type": "function"
    },
    {
      "inputs": [
        {
          "internalType": "address",
          "name": "user",
          "type": "address"
        }
      ],
      "name": "getUserProductCount",
      "outputs": [
        {
          "internalType": "uint256",
          "name": "",
          "type": "uint256"
        }
      ],
      "stateMutability": "view",
      "type": "function"
    },
    {
      "inputs": [
        {
          "internalType": "address",
          "name": "user",
          "type": "address"
        }
      ],
      "name": "isUserManufacturer",
      "outputs": [
        {
          "internalType": "bool",
          "name": "",
          "type": "bool"
        }
      ],
      "stateMutability": "view",
      "type": "function"
    },
    {
      "inputs": [
        {
          "internalType": "string",
          "name": "",
          "type": "string"
        }
      ],
      "name": "productExists",
      "outputs": [
        {
          "internalType": "bool",
          "name": "",
          "type": "bool"
        }
      ],
      "stateMutability": "view",
      "type": "function"
    },
    {
      "inputs": [
        {
          "internalType": "string",
          "name": "",
          "type": "string"
        },
        {
          "internalType": "uint256",
          "name": "",
          "type": "uint256"
        }
      ],
      "name": "productHistory",
      "outputs": [
        {
          "internalType": "address",
          "name": "owner",
          "type": "address"
        },
        {
          "internalType": "uint256",
          "name": "timestamp",
          "type": "uint256"
        }
      ],
      "stateMutability": "view",
      "type": "function"
    },
    {
      "inputs": [
        {
          "internalType": "uint256",
          "name": "",
          "type": "uint256"
        }
      ],
      "name": "products",
      "outputs": [
        {
          "internalType": "string",
          "name": "name",
          "type": "string"
        },
        {
          "internalType": "string",
          "name": "manufacturerName",
          "type": "string"
        },
        {
          "internalType": "string",
          "name": "barcode",
          "type": "string"
        },
        {
          "internalType": "string",
          "name": "manufacturedTime",
          "type": "string"
        }
      ],
      "stateMutability": "view",
      "type": "function"
    },
    {
      "inputs": [
        {
          "internalType": "address",
          "name": "_seller",
          "type": "address"
        },
        {
          "internalType": "address",
          "name": "_buyer",
          "type": "address"
        },
        {
          "internalType": "string",
          "name": "_barcode",
          "type": "string"
        }
      ],
      "name": "sell",
      "outputs": [],
      "stateMutability": "nonpayable",
      "type": "function"
    },
    {
      "inputs": [
        {
          "internalType": "address",
          "name": "_users",
          "type": "address"
        }
      ],
      "name": "setUsersContract",
      "outputs": [],
      "stateMutability": "nonpayable",
      "type": "function"
    },
    {
      "inputs": [
        {
          "internalType": "address",
          "name": "",
          "type": "address"
        },
        {
          "internalType": "uint256",
          "name": "",
          "type": "uint256"
        }
      ],
      "name": "userProducts",
      "outputs": [
        {
          "internalType": "string",
          "name": "",
          "type": "string"
        }
      ],
      "stateMutability": "view",
      "type": "function"
    },
    {
      "inputs": [],
      "name": "users",
      "outputs": [
        {
          "internalType": "contract Users",
          "name": "",
          "type": "address"
        }
      ],
      "stateMutability": "view",
      "type": "function"
    }
  ],
  "bytecode": "0x6080604052348015600f57600080fd5b50613ef78061001f6000396000f3fe608060405234801561001057600080fd5b50600436106101005760003560e01c80638addc05111610097578063e0c57ec811610066578063e0c57ec814610338578063e5e20ac914610354578063f202027514610370578063f9b8cc1b1461038e57610100565b80638addc0511461028c578063a9ea55f1146102bc578063c60bdc7f146102ec578063d4f504531461030857610100565b80635714cc8e116100d35780635714cc8e146101c65780636e2b4896146101f657806375234f66146102295780637acc0b201461025957610100565b806301970b111461010557806306433b291461013657806334dd1292146101665780633d52788314610196575b600080fd5b61011f600480360381019061011a919061268d565b6103be565b60405161012d929190612739565b60405180910390f35b610150600480360381019061014b9190612762565b610435565b60405161015d91906127ab565b60405180910390f35b610180600480360381019061017b9190612762565b610460565b60405161018d91906128bd565b60405180910390f35b6101b060048036038101906101ab919061290b565b61074b565b6040516101bd9190612995565b60405180910390f35b6101e060048036038101906101db91906129b7565b610804565b6040516101ed9190612aa6565b60405180910390f35b610210600480360381019061020b9190612762565b61091c565b6040516102209493929190612ac8565b60405180910390f35b610243600480360381019061023e91906129b7565b610b82565b6040516102509190612c63565b60405180910390f35b610273600480360381019061026e9190612c85565b610fbd565b6040516102839493929190612ac8565b60405180910390f35b6102a660048036038101906102a19190612762565b61121d565b6040516102b39190612ccd565b60405180910390f35b6102d660048036038101906102d191906129b7565b611253565b6040516102e39190612ccd565b60405180910390f35b610306600480360381019061030191906129b7565b61132b565b005b610322600480360381019061031d9190612762565b61136e565b60405161032f9190612de4565b60405180910390f35b610352600480360381019061034d9190612e06565b6114b6565b005b61036e60048036038101906103699190612e75565b611af0565b005b610378612018565b6040516103859190612fbf565b60405180910390f35b6103a860048036038101906103a391906129b7565b61203c565b6040516103b591906127ab565b60405180910390f35b60038280516020810182018051848252602083016020850120818352809550505050505081815481106103f057600080fd5b9060005260206000209060020201600091509150508060000160009054906101000a900473ffffffffffffffffffffffffffffffffffffffff16908060010154905082565b60006003826040516104479190613016565b9081526020016040518091039020805490509050919050565b610468612478565b6004826040516104789190613016565b908152602001604051809103902060009054906101000a900460ff166104d3576040517f08c379a00000000000000000000000000000000000000000000000000000000081526004016104ca90613079565b60405180910390fd5b6005826040516104e39190613016565b908152602001604051809103902060405180608001604052908160008201805461050c906130c8565b80601f0160208091040260200160405190810160405280929190818152602001828054610538906130c8565b80156105855780601f1061055a57610100808354040283529160200191610585565b820191906000526020600020905b81548152906001019060200180831161056857829003601f168201915b5050505050815260200160018201805461059e906130c8565b80601f01602080910402602001604051908101604052809291908181526020018280546105ca906130c8565b80156106175780601f106105ec57610100808354040283529160200191610617565b820191906000526020600020905b8154815290600101906020018083116105fa57829003601f168201915b50505050508152602001600282018054610630906130c8565b80601f016020809104026020016040519081016040528092919081815260200182805461065c906130c8565b80156106a95780601f1061067e576101008083540402835291602001916106a9565b820191906000526020600020905b81548152906001019060200180831161068c57829003601f168201915b505050505081526020016003820180546106c2906130c8565b80601f01602080910402602001604051908101604052809291908181526020018280546106ee906130c8565b801561073b5780601f106107105761010080835404028352916020019161073b565b820191906000526020600020905b81548152906001019060200180831161071e57829003601f168201915b5050505050815250509050919050565b6002602052816000526040600020818154811061076757600080fd5b90600052602060002001600091509150508054610783906130c8565b80601f01602080910402602001604051908101604052809291908181526020018280546107af906130c8565b80156107fc5780601f106107d1576101008083540402835291602001916107fc565b820191906000526020600020905b8154815290600101906020018083116107df57829003601f168201915b505050505081565b6060600260008373ffffffffffffffffffffffffffffffffffffffff1673ffffffffffffffffffffffffffffffffffffffff168152602001908152602001600020805480602002602001604051908101604052809291908181526020016000905b82821015610911578382906000526020600020018054610884906130c8565b80601f01602080910402602001604051908101604052809291908181526020018280546108b0906130c8565b80156108fd5780601f106108d2576101008083540402835291602001916108fd565b820191906000526020600020905b8154815290600101906020018083116108e057829003601f168201915b505050505081526020019060010190610865565b505050509050919050565b600581805160208101820180518482526020830160208501208183528095505050505050600091509050806000018054610955906130c8565b80601f0160208091040260200160405190810160405280929190818152602001828054610981906130c8565b80156109ce5780601f106109a3576101008083540402835291602001916109ce565b820191906000526020600020905b8154815290600101906020018083116109b157829003601f168201915b5050505050908060010180546109e3906130c8565b80601f0160208091040260200160405190810160405280929190818152602001828054610a0f906130c8565b8015610a5c5780601f10610a3157610100808354040283529160200191610a5c565b820191906000526020600020905b815481529060010190602001808311610a3f57829003601f168201915b505050505090806002018054610a71906130c8565b80601f0160208091040260200160405190810160405280929190818152602001828054610a9d906130c8565b8015610aea5780601f10610abf57610100808354040283529160200191610aea565b820191906000526020600020905b815481529060010190602001808311610acd57829003601f168201915b505050505090806003018054610aff906130c8565b80601f0160208091040260200160405190810160405280929190818152602001828054610b2b906130c8565b8015610b785780601f10610b4d57610100808354040283529160200191610b78565b820191906000526020600020905b815481529060010190602001808311610b5b57829003601f168201915b5050505050905084565b60606000600260008473ffffffffffffffffffffffffffffffffffffffff1673ffffffffffffffffffffffffffffffffffffffff168152602001908152602001600020805480602002602001604051908101604052809291908181526020016000905b82821015610c91578382906000526020600020018054610c04906130c8565b80601f0160208091040260200160405190810160405280929190818152602001828054610c30906130c8565b8015610c7d5780601f10610c5257610100808354040283529160200191610c7d565b820191906000526020600020905b815481529060010190602001808311610c6057829003601f168201915b505050505081526020019060010190610be5565b5050505090506000815167ffffffffffffffff811115610cb457610cb361252c565b5b604051908082528060200260200182016040528015610ced57816020015b610cda612478565b815260200190600190039081610cd25790505b50905060005b8251811015610fb2576005838281518110610d1157610d106130f9565b5b6020026020010151604051610d269190613016565b9081526020016040518091039020604051806080016040529081600082018054610d4f906130c8565b80601f0160208091040260200160405190810160405280929190818152602001828054610d7b906130c8565b8015610dc85780601f10610d9d57610100808354040283529160200191610dc8565b820191906000526020600020905b815481529060010190602001808311610dab57829003601f168201915b50505050508152602001600182018054610de1906130c8565b80601f0160208091040260200160405190810160405280929190818152602001828054610e0d906130c8565b8015610e5a5780601f10610e2f57610100808354040283529160200191610e5a565b820191906000526020600020905b815481529060010190602001808311610e3d57829003601f168201915b50505050508152602001600282018054610e73906130c8565b80601f0160208091040260200160405190810160405280929190818152602001828054610e9f906130c8565b8015610eec5780601f10610ec157610100808354040283529160200191610eec565b820191906000526020600020905b815481529060010190602001808311610ecf57829003601f168201915b50505050508152602001600382018054610f05906130c8565b80601f0160208091040260200160405190810160405280929190818152602001828054610f31906130c8565b8015610f7e5780601f10610f5357610100808354040283529160200191610f7e565b820191906000526020600020905b815481529060010190602001808311610f6157829003601f168201915b505050505081525050828281518110610f9a57610f996130f9565b5b60200260200101819052508080600101915050610cf3565b508092505050919050565b60018181548110610fcd57600080fd5b9060005260206000209060040201600091509050806000018054610ff0906130c8565b80601f016020809104026020016040519081016040528092919081815260200182805461101c906130c8565b80156110695780601f1061103e57610100808354040283529160200191611069565b820191906000526020600020905b81548152906001019060200180831161104c57829003601f168201915b50505050509080600101805461107e906130c8565b80601f01602080910402602001604051908101604052809291908181526020018280546110aa906130c8565b80156110f75780601f106110cc576101008083540402835291602001916110f7565b820191906000526020600020905b8154815290600101906020018083116110da57829003601f168201915b50505050509080600201805461110c906130c8565b80601f0160208091040260200160405190810160405280929190818152602001828054611138906130c8565b80156111855780601f1061115a57610100808354040283529160200191611185565b820191906000526020600020905b81548152906001019060200180831161116857829003601f168201915b50505050509080600301805461119a906130c8565b80601f01602080910402602001604051908101604052809291908181526020018280546111c6906130c8565b80156112135780601f106111e857610100808354040283529160200191611213565b820191906000526020600020905b8154815290600101906020018083116111f657829003601f168201915b5050505050905084565b6004818051602081018201805184825260208301602085012081835280955050505050506000915054906101000a900460ff1681565b60008060008054906101000a900473ffffffffffffffffffffffffffffffffffffffff1673ffffffffffffffffffffffffffffffffffffffff16636f77926b846040518263ffffffff1660e01b81526004016112af9190613128565b600060405180830381865afa1580156112cc573d6000803e3d6000fd5b505050506040513d6000823e3d601f19601f820116820180604052508101906112f591906132a7565b90506000600381111561130b5761130a6132f0565b5b81604001516003811115611322576113216132f0565b5b14915050919050565b806000806101000a81548173ffffffffffffffffffffffffffffffffffffffff021916908373ffffffffffffffffffffffffffffffffffffffff16021790555050565b60606004826040516113809190613016565b908152602001604051809103902060009054906101000a900460ff166113db576040517f08c379a00000000000000000000000000000000000000000000000000000000081526004016113d290613079565b60405180910390fd5b6003826040516113eb9190613016565b9081526020016040518091039020805480602002602001604051908101604052809291908181526020016000905b828210156114ab57838290600052602060002090600202016040518060400160405290816000820160009054906101000a900473ffffffffffffffffffffffffffffffffffffffff1673ffffffffffffffffffffffffffffffffffffffff1673ffffffffffffffffffffffffffffffffffffffff16815260200160018201548152505081526020019060010190611419565b505050509050919050565b8260008060009054906101000a900473ffffffffffffffffffffffffffffffffffffffff1673ffffffffffffffffffffffffffffffffffffffff16636f77926b836040518263ffffffff1660e01b81526004016115139190613128565b600060405180830381865afa158015611530573d6000803e3d6000fd5b505050506040513d6000823e3d601f19601f8201168201806040525081019061155991906132a7565b90506000816020015151116115a3576040517f08c379a000000000000000000000000000000000000000000000000000000000815260040161159a9061336b565b60405180910390fd5b8360008060009054906101000a900473ffffffffffffffffffffffffffffffffffffffff1673ffffffffffffffffffffffffffffffffffffffff16636f77926b836040518263ffffffff1660e01b81526004016116009190613128565b600060405180830381865afa15801561161d573d6000803e3d6000fd5b505050506040513d6000823e3d601f19601f8201168201806040525081019061164691906132a7565b9050600081602001515111611690576040517f08c379a00000000000000000000000000000000000000000000000000000000081526004016116879061336b565b60405180910390fd5b6004856040516116a09190613016565b908152602001604051809103902060009054906101000a900460ff166116fb576040517f08c379a00000000000000000000000000000000000000000000000000000000081526004016116f290613079565b60405180910390fd5b8573ffffffffffffffffffffffffffffffffffffffff168773ffffffffffffffffffffffffffffffffffffffff1603611769576040517f08c379a0000000000000000000000000000000000000000000000000000000008152600401611760906133d7565b60405180910390fd5b60008060009054906101000a900473ffffffffffffffffffffffffffffffffffffffff1673ffffffffffffffffffffffffffffffffffffffff16636f77926b896040518263ffffffff1660e01b81526004016117c59190613128565b600060405180830381865afa1580156117e2573d6000803e3d6000fd5b505050506040513d6000823e3d601f19601f8201168201806040525081019061180b91906132a7565b905060008060009054906101000a900473ffffffffffffffffffffffffffffffffffffffff1673ffffffffffffffffffffffffffffffffffffffff16636f77926b896040518263ffffffff1660e01b81526004016118699190613128565b600060405180830381865afa158015611886573d6000803e3d6000fd5b505050506040513d6000823e3d601f19601f820116820180604052508101906118af91906132a7565b905060006003886040516118c39190613016565b90815260200160405180910390209050600081805490501161191a576040517f08c379a000000000000000000000000000000000000000000000000000000000815260040161191190613443565b60405180910390fd5b6000816001838054905061192e9190613492565b8154811061193f5761193e6130f9565b5b906000526020600020906002020160000160009054906101000a900473ffffffffffffffffffffffffffffffffffffffff1690508a73ffffffffffffffffffffffffffffffffffffffff168173ffffffffffffffffffffffffffffffffffffffff16146119e1576040517f08c379a00000000000000000000000000000000000000000000000000000000081526004016119d890613538565b60405180910390fd5b6119f384604001518460400151612088565b6119fe8b8b8b612290565b8160405180604001604052808c73ffffffffffffffffffffffffffffffffffffffff16815260200142815250908060018154018082558091505060019003906000526020600020906002020160009091909190915060008201518160000160006101000a81548173ffffffffffffffffffffffffffffffffffffffff021916908373ffffffffffffffffffffffffffffffffffffffff1602179055506020820151816001015550507fc93af01e622623062f967117ed8e198e915af492c8f3aabebec794730cf64dee898b8d42604051611adb9493929190613558565b60405180910390a15050505050505050505050565b8460008060009054906101000a900473ffffffffffffffffffffffffffffffffffffffff1673ffffffffffffffffffffffffffffffffffffffff16636f77926b836040518263ffffffff1660e01b8152600401611b4d9190613128565b600060405180830381865afa158015611b6a573d6000803e3d6000fd5b505050506040513d6000823e3d601f19601f82011682018060405250810190611b9391906132a7565b905060006003811115611ba957611ba86132f0565b5b81604001516003811115611bc057611bbf6132f0565b5b14611c00576040517f08c379a0000000000000000000000000000000000000000000000000000000008152600401611bf790613616565b60405180910390fd5b600081602001515111611c48576040517f08c379a0000000000000000000000000000000000000000000000000000000008152600401611c3f9061336b565b60405180910390fd5b600484604051611c589190613016565b908152602001604051809103902060009054906101000a900460ff1615611cb4576040517f08c379a0000000000000000000000000000000000000000000000000000000008152600401611cab906136a8565b60405180910390fd5b6000865111611cf8576040517f08c379a0000000000000000000000000000000000000000000000000000000008152600401611cef90613714565b60405180910390fd5b6000845111611d3c576040517f08c379a0000000000000000000000000000000000000000000000000000000008152600401611d3390613780565b60405180910390fd5b6000604051806080016040528088815260200187815260200186815260200185815250905060018190806001815401808255809150506001900390600052602060002090600402016000909190919091506000820151816000019081611da29190613942565b506020820151816001019081611db89190613942565b506040820151816002019081611dce9190613942565b506060820151816003019081611de49190613942565b50505080600586604051611df89190613016565b90815260200160405180910390206000820151816000019081611e1b9190613942565b506020820151816001019081611e319190613942565b506040820151816002019081611e479190613942565b506060820151816003019081611e5d9190613942565b509050506001600486604051611e739190613016565b908152602001604051809103902060006101000a81548160ff021916908315150217905550600260008973ffffffffffffffffffffffffffffffffffffffff1673ffffffffffffffffffffffffffffffffffffffff16815260200190815260200160002085908060018154018082558091505060019003906000526020600020016000909190919091509081611f099190613942565b50600385604051611f1a9190613016565b908152602001604051809103902060405180604001604052808a73ffffffffffffffffffffffffffffffffffffffff16815260200142815250908060018154018082558091505060019003906000526020600020906002020160009091909190915060008201518160000160006101000a81548173ffffffffffffffffffffffffffffffffffffffff021916908373ffffffffffffffffffffffffffffffffffffffff1602179055506020820151816001015550507f1c6dd0df93e82aba12c0d62842d917c64dbefd30f23b8628e4908641d03775dd8888888888604051612006959493929190613a14565b60405180910390a15050505050505050565b60008054906101000a900473ffffffffffffffffffffffffffffffffffffffff1681565b6000600260008373ffffffffffffffffffffffffffffffffffffffff1673ffffffffffffffffffffffffffffffffffffffff168152602001908152602001600020805490509050919050565b6000600381111561209c5761209b6132f0565b5b8260038111156120af576120ae6132f0565b5b0361212057600160038111156120c8576120c76132f0565b5b8160038111156120db576120da6132f0565b5b1461211b576040517f08c379a000000000000000000000000000000000000000000000000000000000815260040161211290613af5565b60405180910390fd5b61228c565b60016003811115612134576121336132f0565b5b826003811115612147576121466132f0565b5b036121b857600260038111156121605761215f6132f0565b5b816003811115612173576121726132f0565b5b146121b3576040517f08c379a00000000000000000000000000000000000000000000000000000000081526004016121aa90613b61565b60405180910390fd5b61228b565b600260038111156121cc576121cb6132f0565b5b8260038111156121df576121de6132f0565b5b0361224f576003808111156121f7576121f66132f0565b5b81600381111561220a576122096132f0565b5b1461224a576040517f08c379a000000000000000000000000000000000000000000000000000000000815260040161224190613bcd565b60405180910390fd5b61228a565b6040517f08c379a000000000000000000000000000000000000000000000000000000000815260040161228190613c39565b60405180910390fd5b5b5b5050565b6000600260008573ffffffffffffffffffffffffffffffffffffffff1673ffffffffffffffffffffffffffffffffffffffff16815260200190815260200160002090506000805b82805490508110156123be5783805190602001208382815481106122fe576122fd6130f9565b5b906000526020600020016040516123159190613cfc565b6040518091039020036123b15782600184805490506123349190613492565b81548110612345576123446130f9565b5b90600052602060002001838281548110612362576123616130f9565b5b9060005260206000200190816123789190613d3e565b508280548061238a57612389613e26565b5b6001900381819060005260206000200160006123a691906124a0565b9055600191506123be565b80806001019150506122d7565b50806123ff576040517f08c379a00000000000000000000000000000000000000000000000000000000081526004016123f690613ea1565b60405180910390fd5b600260008573ffffffffffffffffffffffffffffffffffffffff1673ffffffffffffffffffffffffffffffffffffffff168152602001908152602001600020839080600181540180825580915050600190039060005260206000200160009091909190915090816124709190613942565b505050505050565b6040518060800160405280606081526020016060815260200160608152602001606081525090565b5080546124ac906130c8565b6000825580601f106124be57506124dd565b601f0160209004906000526020600020908101906124dc91906124e0565b5b50565b5b808211156124f95760008160009055506001016124e1565b5090565b6000604051905090565b600080fd5b600080fd5b600080fd5b600080fd5b6000601f19601f8301169050919050565b7f4e487b7100000000000000000000000000000000000000000000000000000000600052604160045260246000fd5b6125648261251b565b810181811067ffffffffffffffff821117156125835761258261252c565b5b80604052505050565b60006125966124fd565b90506125a2828261255b565b919050565b600067ffffffffffffffff8211156125c2576125c161252c565b5b6125cb8261251b565b9050602081019050919050565b82818337600083830152505050565b60006125fa6125f5846125a7565b61258c565b90508281526020810184848401111561261657612615612516565b5b6126218482856125d8565b509392505050565b600082601f83011261263e5761263d612511565b5b813561264e8482602086016125e7565b91505092915050565b6000819050919050565b61266a81612657565b811461267557600080fd5b50565b60008135905061268781612661565b92915050565b600080604083850312156126a4576126a3612507565b5b600083013567ffffffffffffffff8111156126c2576126c161250c565b5b6126ce85828601612629565b92505060206126df85828601612678565b9150509250929050565b600073ffffffffffffffffffffffffffffffffffffffff82169050919050565b6000612714826126e9565b9050919050565b61272481612709565b82525050565b61273381612657565b82525050565b600060408201905061274e600083018561271b565b61275b602083018461272a565b9392505050565b60006020828403121561277857612777612507565b5b600082013567ffffffffffffffff8111156127965761279561250c565b5b6127a284828501612629565b91505092915050565b60006020820190506127c0600083018461272a565b92915050565b600081519050919050565b600082825260208201905092915050565b60005b838110156128005780820151818401526020810190506127e5565b60008484015250505050565b6000612817826127c6565b61282181856127d1565b93506128318185602086016127e2565b61283a8161251b565b840191505092915050565b60006080830160008301518482036000860152612862828261280c565b9150506020830151848203602086015261287c828261280c565b91505060408301518482036040860152612896828261280c565b915050606083015184820360608601526128b0828261280c565b9150508091505092915050565b600060208201905081810360008301526128d78184612845565b905092915050565b6128e881612709565b81146128f357600080fd5b50565b600081359050612905816128df565b92915050565b6000806040838503121561292257612921612507565b5b6000612930858286016128f6565b925050602061294185828601612678565b9150509250929050565b600082825260208201905092915050565b6000612967826127c6565b612971818561294b565b93506129818185602086016127e2565b61298a8161251b565b840191505092915050565b600060208201905081810360008301526129af818461295c565b905092915050565b6000602082840312156129cd576129cc612507565b5b60006129db848285016128f6565b91505092915050565b600081519050919050565b600082825260208201905092915050565b6000819050602082019050919050565b6000612a1c838361280c565b905092915050565b6000602082019050919050565b6000612a3c826129e4565b612a4681856129ef565b935083602082028501612a5885612a00565b8060005b85811015612a945784840389528151612a758582612a10565b9450612a8083612a24565b925060208a01995050600181019050612a5c565b50829750879550505050505092915050565b60006020820190508181036000830152612ac08184612a31565b905092915050565b60006080820190508181036000830152612ae2818761295c565b90508181036020830152612af6818661295c565b90508181036040830152612b0a818561295c565b90508181036060830152612b1e818461295c565b905095945050505050565b600081519050919050565b600082825260208201905092915050565b6000819050602082019050919050565b60006080830160008301518482036000860152612b72828261280c565b91505060208301518482036020860152612b8c828261280c565b91505060408301518482036040860152612ba6828261280c565b91505060608301518482036060860152612bc0828261280c565b9150508091505092915050565b6000612bd98383612b55565b905092915050565b6000602082019050919050565b6000612bf982612b29565b612c038185612b34565b935083602082028501612c1585612b45565b8060005b85811015612c515784840389528151612c328582612bcd565b9450612c3d83612be1565b925060208a01995050600181019050612c19565b50829750879550505050505092915050565b60006020820190508181036000830152612c7d8184612bee565b905092915050565b600060208284031215612c9b57612c9a612507565b5b6000612ca984828501612678565b91505092915050565b60008115159050919050565b612cc781612cb2565b82525050565b6000602082019050612ce26000830184612cbe565b92915050565b600081519050919050565b600082825260208201905092915050565b6000819050602082019050919050565b612d1d81612709565b82525050565b612d2c81612657565b82525050565b604082016000820151612d486000850182612d14565b506020820151612d5b6020850182612d23565b50505050565b6000612d6d8383612d32565b60408301905092915050565b6000602082019050919050565b6000612d9182612ce8565b612d9b8185612cf3565b9350612da683612d04565b8060005b83811015612dd7578151612dbe8882612d61565b9750612dc983612d79565b925050600181019050612daa565b5085935050505092915050565b60006020820190508181036000830152612dfe8184612d86565b905092915050565b600080600060608486031215612e1f57612e1e612507565b5b6000612e2d868287016128f6565b9350506020612e3e868287016128f6565b925050604084013567ffffffffffffffff811115612e5f57612e5e61250c565b5b612e6b86828701612629565b9150509250925092565b600080600080600060a08688031215612e9157612e90612507565b5b6000612e9f888289016128f6565b955050602086013567ffffffffffffffff811115612ec057612ebf61250c565b5b612ecc88828901612629565b945050604086013567ffffffffffffffff811115612eed57612eec61250c565b5b612ef988828901612629565b935050606086013567ffffffffffffffff811115612f1a57612f1961250c565b5b612f2688828901612629565b925050608086013567ffffffffffffffff811115612f4757612f4661250c565b5b612f5388828901612629565b9150509295509295909350565b6000819050919050565b6000612f85612f80612f7b846126e9565b612f60565b6126e9565b9050919050565b6000612f9782612f6a565b9050919050565b6000612fa982612f8c565b9050919050565b612fb981612f9e565b82525050565b6000602082019050612fd46000830184612fb0565b92915050565b600081905092915050565b6000612ff0826127c6565b612ffa8185612fda565b935061300a8185602086016127e2565b80840191505092915050565b60006130228284612fe5565b915081905092915050565b7f50726f64756374206e6f7420666f756e64000000000000000000000000000000600082015250565b600061306360118361294b565b915061306e8261302d565b602082019050919050565b6000602082019050818103600083015261309281613056565b9050919050565b7f4e487b7100000000000000000000000000000000000000000000000000000000600052602260045260246000fd5b600060028204905060018216806130e057607f821691505b6020821081036130f3576130f2613099565b5b50919050565b7f4e487b7100000000000000000000000000000000000000000000000000000000600052603260045260246000fd5b600060208201905061313d600083018461271b565b92915050565b600080fd5b600080fd5b60008151905061315c816128df565b92915050565b6000613175613170846125a7565b61258c565b90508281526020810184848401111561319157613190612516565b5b61319c8482856127e2565b509392505050565b600082601f8301126131b9576131b8612511565b5b81516131c9848260208601613162565b91505092915050565b600481106131df57600080fd5b50565b6000815190506131f1816131d2565b92915050565b60006080828403121561320d5761320c613143565b5b613217608061258c565b905060006132278482850161314d565b600083015250602082015167ffffffffffffffff81111561324b5761324a613148565b5b613257848285016131a4565b602083015250604061326b848285016131e2565b604083015250606082015167ffffffffffffffff81111561328f5761328e613148565b5b61329b848285016131a4565b60608301525092915050565b6000602082840312156132bd576132bc612507565b5b600082015167ffffffffffffffff8111156132db576132da61250c565b5b6132e7848285016131f7565b91505092915050565b7f4e487b7100000000000000000000000000000000000000000000000000000000600052602160045260246000fd5b7f55736572206e6f74207265676973746572656400000000000000000000000000600082015250565b600061335560138361294b565b91506133608261331f565b602082019050919050565b6000602082019050818103600083015261338481613348565b9050919050565b7f43616e6e6f742073656c6c20746f20796f757273656c66000000000000000000600082015250565b60006133c160178361294b565b91506133cc8261338b565b602082019050919050565b600060208201905081810360008301526133f0816133b4565b9050919050565b7f50726f6475637420686173206e6f20686973746f727900000000000000000000600082015250565b600061342d60168361294b565b9150613438826133f7565b602082019050919050565b6000602082019050818103600083015261345c81613420565b9050919050565b7f4e487b7100000000000000000000000000000000000000000000000000000000600052601160045260246000fd5b600061349d82612657565b91506134a883612657565b92508282039050818111156134c0576134bf613463565b5b92915050565b7f4f6e6c792063757272656e74206f776e65722063616e2073656c6c2070726f6460008201527f7563740000000000000000000000000000000000000000000000000000000000602082015250565b600061352260238361294b565b915061352d826134c6565b604082019050919050565b6000602082019050818103600083015261355181613515565b9050919050565b60006080820190508181036000830152613572818761295c565b9050613581602083018661271b565b61358e604083018561271b565b61359b606083018461272a565b95945050505050565b7f4f6e6c79206d616e7566616374757265722063616e206164642070726f64756360008201527f7473000000000000000000000000000000000000000000000000000000000000602082015250565b600061360060228361294b565b915061360b826135a4565b604082019050919050565b6000602082019050818103600083015261362f816135f3565b9050919050565b7f50726f647563742077697468207468697320626172636f646520616c7265616460008201527f7920657869737473000000000000000000000000000000000000000000000000602082015250565b600061369260288361294b565b915061369d82613636565b604082019050919050565b600060208201905081810360008301526136c181613685565b9050919050565b7f50726f64756374206e616d652063616e6e6f7420626520656d70747900000000600082015250565b60006136fe601c8361294b565b9150613709826136c8565b602082019050919050565b6000602082019050818103600083015261372d816136f1565b9050919050565b7f426172636f64652063616e6e6f7420626520656d707479000000000000000000600082015250565b600061376a60178361294b565b915061377582613734565b602082019050919050565b600060208201905081810360008301526137998161375d565b9050919050565b60008190508160005260206000209050919050565b60006020601f8301049050919050565b600082821b905092915050565b6000600883026138027fffffffffffffffffffffffffffffffffffffffffffffffffffffffffffffffff826137c5565b61380c86836137c5565b95508019841693508086168417925050509392505050565b600061383f61383a61383584612657565b612f60565b612657565b9050919050565b6000819050919050565b61385983613824565b61386d61386582613846565b8484546137d2565b825550505050565b600090565b613882613875565b61388d818484613850565b505050565b5b818110156138b1576138a660008261387a565b600181019050613893565b5050565b601f8211156138f6576138c7816137a0565b6138d0846137b5565b810160208510156138df578190505b6138f36138eb856137b5565b830182613892565b50505b505050565b600082821c905092915050565b6000613919600019846008026138fb565b1980831691505092915050565b60006139328383613908565b9150826002028217905092915050565b61394b826127c6565b67ffffffffffffffff8111156139645761396361252c565b5b61396e82546130c8565b6139798282856138b5565b600060209050601f8311600181146139ac576000841561399a578287015190505b6139a48582613926565b865550613a0c565b601f1984166139ba866137a0565b60005b828110156139e2578489015182556001820191506020850194506020810190506139bd565b868310156139ff57848901516139fb601f891682613908565b8355505b6001600288020188555050505b505050505050565b600060a082019050613a29600083018861271b565b8181036020830152613a3b818761295c565b90508181036040830152613a4f818661295c565b90508181036060830152613a63818561295c565b90508181036080830152613a77818461295c565b90509695505050505050565b7f4d616e7566616374757265722063616e206f6e6c792073656c6c20746f20537560008201527f70706c6965720000000000000000000000000000000000000000000000000000602082015250565b6000613adf60268361294b565b9150613aea82613a83565b604082019050919050565b60006020820190508181036000830152613b0e81613ad2565b9050919050565b7f537570706c6965722063616e206f6e6c792073656c6c20746f2056656e646f72600082015250565b6000613b4b60208361294b565b9150613b5682613b15565b602082019050919050565b60006020820190508181036000830152613b7a81613b3e565b9050919050565b7f56656e646f722063616e206f6e6c792073656c6c20746f20437573746f6d6572600082015250565b6000613bb760208361294b565b9150613bc282613b81565b602082019050919050565b60006020820190508181036000830152613be681613baa565b9050919050565b7f437573746f6d65722063616e6e6f742073656c6c207468652070726f64756374600082015250565b6000613c2360208361294b565b9150613c2e82613bed565b602082019050919050565b60006020820190508181036000830152613c5281613c16565b9050919050565b600081905092915050565b60008190508160005260206000209050919050565b60008154613c86816130c8565b613c908186613c59565b94506001821660008114613cab5760018114613cc057613cf3565b60ff1983168652811515820286019350613cf3565b613cc985613c64565b60005b83811015613ceb57815481890152600182019150602081019050613ccc565b838801955050505b50505092915050565b6000613d088284613c79565b915081905092915050565b600081549050613d22816130c8565b9050919050565b60008190508160005260206000209050919050565b818103613d4c575050613e24565b613d5582613d13565b67ffffffffffffffff811115613d6e57613d6d61252c565b5b613d7882546130c8565b613d838282856138b5565b6000601f831160018114613db25760008415613da0578287015490505b613daa8582613926565b865550613e1d565b601f198416613dc087613d29565b9650613dcb866137a0565b60005b82811015613df357848901548255600182019150600185019450602081019050613dce565b86831015613e105784890154613e0c601f891682613908565b8355505b6001600288020188555050505b5050505050505b565b7f4e487b7100000000000000000000000000000000000000000000000000000000600052603160045260246000fd5b7f50726f64756374206e6f7420696e2073656c6c657220696e76656e746f727900600082015250565b6000613e8b601f8361294b565b9150613e9682613e55565b602082019050919050565b60006020820190508181036000830152613eba81613e7e565b905091905056fea2646970667358221220be1aad70404c903ced3da99766ffc8a28cd4c20892dbaf6d31a705fac42ca03364736f6c634300081e0033",
  "linkReferences": {},
  "deployedLinkReferences": {}
}