{
  "_format": "hh-sol-artifact-1",
  "contractName": "Products",
  "sourceName": "contracts/Products.sol",
  "abi": [
    {
      "anonymous": false,
      "inputs": [
        {
          "indexed": false,
          "internalType": "address",
          "name": "manufacturer",
          "type": "address"
        },
        {
          "indexed": false,
          "internalType": "string",
          "name": "name",
          "type": "string"
        },
        {
          "indexed": false,
          "internalType": "string",
          "name": "manufacturerName",
          "type": "string"
        },
        {
          "indexed": false,
          "internalType": "string",
          "name": "barcode",
          "type": "string"
        },
        {
          "indexed": false,
          "internalType": "string",
          "name": "manufacturedTime",
          "type": "string"
        }
      ],
      "name": "NewProduct",
      "type": "event"
    },
    {
      "anonymous": false,
      "inputs": [
        {
          "indexed": false,
          "internalType": "string",
          "name": "name",
          "type": "string"
        },
        {
          "indexed": false,
          "internalType": "string",
          "name": "manufacturerName",
          "type": "string"
        },
        {
          "indexed": false,
          "internalType": "string",
          "name": "barcode",
          "type": "string"
        },
        {
          "indexed": false,
          "internalType": "address",
          "name": "buyer",
          "type": "address"
        },
        {
          "indexed": false,
          "internalType": "address",
          "name": "seller",
          "type": "address"
        },
        {
          "indexed": false,
          "internalType": "uint256",
          "name": "transferTime",
          "type": "uint256"
        }
      ],
      "name": "ProductOwnershipTransfer",
      "type": "event"
    },
    {
      "inputs": [
        {
          "internalType": "address",
          "name": "_manufacturer",
          "type": "address"
        },
        {
          "internalType": "string",
          "name": "_name",
          "type": "string"
        },
        {
          "internalType": "string",
          "name": "_manufacturerName",
          "type": "string"
        },
        {
          "internalType": "string",
          "name": "_barcode",
          "type": "string"
        },
        {
          "internalType": "string",
          "name": "_manufacturedTime",
          "type": "string"
        }
      ],
      "name": "addProduct",
      "outputs": [],
      "stateMutability": "nonpayable",
      "type": "function"
    },
    {
      "inputs": [
        {
          "internalType": "string",
          "name": "",
          "type": "string"
        }
      ],
      "name": "barcodeToProduct",
      "outputs": [
        {
          "internalType": "string",
          "name": "name",
          "type": "string"
        },
        {
          "internalType": "string",
          "name": "manufacturerName",
          "type": "string"
        },
        {
          "internalType": "string",
          "name": "barcode",
          "type": "string"
        },
        {
          "internalType": "string",
          "name": "manufacturedTime",
          "type": "string"
        }
      ],
      "stateMutability": "view",
      "type": "function"
    },
    {
      "inputs": [
        {
          "internalType": "string",
          "name": "_barcode",
          "type": "string"
        }
      ],
      "name": "getProductByBarcode",
      "outputs": [
        {
          "components": [
            {
              "internalType": "string",
              "name": "name",
              "type": "string"
            },
            {
              "internalType": "string",
              "name": "manufacturerName",
              "type": "string"
            },
            {
              "internalType": "string",
              "name": "barcode",
              "type": "string"
            },
            {
              "internalType": "string",
              "name": "manufacturedTime",
              "type": "string"
            }
          ],
          "internalType": "struct Types.Product",
          "name": "",
          "type": "tuple"
        }
      ],
      "stateMutability": "view",
      "type": "function"
    },
    {
      "inputs": [
        {
          "internalType": "string",
          "name": "_barcode",
          "type": "string"
        }
      ],
      "name": "getProductHistoryLength",
      "outputs": [
        {
          "internalType": "uint256",
          "name": "",
          "type": "uint256"
        }
      ],
      "stateMutability": "view",
      "type": "function"
    },
    {
      "inputs": [
        {
          "internalType": "address",
          "name": "user",
          "type": "address"
        }
      ],
      "name": "getUserProductCount",
      "outputs": [
        {
          "internalType": "uint256",
          "name": "",
          "type": "uint256"
        }
      ],
      "stateMutability": "view",
      "type": "function"
    },
    {
      "inputs": [
        {
          "internalType": "address",
          "name": "user",
          "type": "address"
        }
      ],
      "name": "isUserManufacturer",
      "outputs": [
        {
          "internalType": "bool",
          "name": "",
          "type": "bool"
        }
      ],
      "stateMutability": "view",
      "type": "function"
    },
    {
      "inputs": [
        {
          "internalType": "string",
          "name": "",
          "type": "string"
        }
      ],
      "name": "productExists",
      "outputs": [
        {
          "internalType": "bool",
          "name": "",
          "type": "bool"
        }
      ],
      "stateMutability": "view",
      "type": "function"
    },
    {
      "inputs": [
        {
          "internalType": "string",
          "name": "",
          "type": "string"
        },
        {
          "internalType": "uint256",
          "name": "",
          "type": "uint256"
        }
      ],
      "name": "productHistory",
      "outputs": [
        {
          "internalType": "address",
          "name": "owner",
          "type": "address"
        },
        {
          "internalType": "uint256",
          "name": "timestamp",
          "type": "uint256"
        }
      ],
      "stateMutability": "view",
      "type": "function"
    },
    {
      "inputs": [
        {
          "internalType": "uint256",
          "name": "",
          "type": "uint256"
        }
      ],
      "name": "products",
      "outputs": [
        {
          "internalType": "string",
          "name": "name",
          "type": "string"
        },
        {
          "internalType": "string",
          "name": "manufacturerName",
          "type": "string"
        },
        {
          "internalType": "string",
          "name": "barcode",
          "type": "string"
        },
        {
          "internalType": "string",
          "name": "manufacturedTime",
          "type": "string"
        }
      ],
      "stateMutability": "view",
      "type": "function"
    },
    {
      "inputs": [
        {
          "internalType": "address",
          "name": "_seller",
          "type": "address"
        },
        {
          "internalType": "address",
          "name": "_buyer",
          "type": "address"
        },
        {
          "internalType": "string",
          "name": "_barcode",
          "type": "string"
        }
      ],
      "name": "sell",
      "outputs": [],
      "stateMutability": "nonpayable",
      "type": "function"
    },
    {
      "inputs": [
        {
          "internalType": "address",
          "name": "_users",
          "type": "address"
        }
      ],
      "name": "setUsersContract",
      "outputs": [],
      "stateMutability": "nonpayable",
      "type": "function"
    },
    {
      "inputs": [
        {
          "internalType": "address",
          "name": "",
          "type": "address"
        },
        {
          "internalType": "uint256",
          "name": "",
          "type": "uint256"
        }
      ],
      "name": "userProducts",
      "outputs": [
        {
          "internalType": "string",
          "name": "",
          "type": "string"
        }
      ],
      "stateMutability": "view",
      "type": "function"
    },
    {
      "inputs": [],
      "name": "users",
      "outputs": [
        {
          "internalType": "contract Users",
          "name": "",
          "type": "address"
        }
      ],
      "stateMutability": "view",
      "type": "function"
    }
  ],
  "bytecode": "0x6080604052348015600f57600080fd5b50612daf8061001f6000396000f3fe608060405234801561001057600080fd5b50600436106100cf5760003560e01c80638addc0511161008c578063e0c57ec811610066578063e0c57ec814610277578063e5e20ac914610293578063f2020275146102af578063f9b8cc1b146102cd576100cf565b80638addc051146101fb578063a9ea55f11461022b578063c60bdc7f1461025b576100cf565b806301970b11146100d457806306433b291461010557806334dd1292146101355780633d527883146101655780636e2b4896146101955780637acc0b20146101c8575b600080fd5b6100ee60048036038101906100e99190611af9565b6102fd565b6040516100fc929190611ba5565b60405180910390f35b61011f600480360381019061011a9190611bce565b610374565b60405161012c9190611c17565b60405180910390f35b61014f600480360381019061014a9190611bce565b61039f565b60405161015c9190611d29565b60405180910390f35b61017f600480360381019061017a9190611d77565b61068a565b60405161018c9190611e01565b60405180910390f35b6101af60048036038101906101aa9190611bce565b610743565b6040516101bf9493929190611e23565b60405180910390f35b6101e260048036038101906101dd9190611e84565b6109a9565b6040516101f29493929190611e23565b60405180910390f35b61021560048036038101906102109190611bce565b610c09565b6040516102229190611ecc565b60405180910390f35b61024560048036038101906102409190611ee7565b610c3f565b6040516102529190611ecc565b60405180910390f35b61027560048036038101906102709190611ee7565b610d17565b005b610291600480360381019061028c9190611f14565b610d5a565b005b6102ad60048036038101906102a89190611f83565b61134c565b005b6102b7611874565b6040516102c491906120cd565b60405180910390f35b6102e760048036038101906102e29190611ee7565b611898565b6040516102f49190611c17565b60405180910390f35b600382805160208101820180518482526020830160208501208183528095505050505050818154811061032f57600080fd5b9060005260206000209060020201600091509150508060000160009054906101000a900473ffffffffffffffffffffffffffffffffffffffff16908060010154905082565b60006003826040516103869190612124565b9081526020016040518091039020805490509050919050565b6103a76118e4565b6004826040516103b79190612124565b908152602001604051809103902060009054906101000a900460ff16610412576040517f08c379a000000000000000000000000000000000000000000000000000000000815260040161040990612187565b60405180910390fd5b6005826040516104229190612124565b908152602001604051809103902060405180608001604052908160008201805461044b906121d6565b80601f0160208091040260200160405190810160405280929190818152602001828054610477906121d6565b80156104c45780601f10610499576101008083540402835291602001916104c4565b820191906000526020600020905b8154815290600101906020018083116104a757829003601f168201915b505050505081526020016001820180546104dd906121d6565b80601f0160208091040260200160405190810160405280929190818152602001828054610509906121d6565b80156105565780601f1061052b57610100808354040283529160200191610556565b820191906000526020600020905b81548152906001019060200180831161053957829003601f168201915b5050505050815260200160028201805461056f906121d6565b80601f016020809104026020016040519081016040528092919081815260200182805461059b906121d6565b80156105e85780601f106105bd576101008083540402835291602001916105e8565b820191906000526020600020905b8154815290600101906020018083116105cb57829003601f168201915b50505050508152602001600382018054610601906121d6565b80601f016020809104026020016040519081016040528092919081815260200182805461062d906121d6565b801561067a5780601f1061064f5761010080835404028352916020019161067a565b820191906000526020600020905b81548152906001019060200180831161065d57829003601f168201915b5050505050815250509050919050565b600260205281600052604060002081815481106106a657600080fd5b906000526020600020016000915091505080546106c2906121d6565b80601f01602080910402602001604051908101604052809291908181526020018280546106ee906121d6565b801561073b5780601f106107105761010080835404028352916020019161073b565b820191906000526020600020905b81548152906001019060200180831161071e57829003601f168201915b505050505081565b60058180516020810182018051848252602083016020850120818352809550505050505060009150905080600001805461077c906121d6565b80601f01602080910402602001604051908101604052809291908181526020018280546107a8906121d6565b80156107f55780601f106107ca576101008083540402835291602001916107f5565b820191906000526020600020905b8154815290600101906020018083116107d857829003601f168201915b50505050509080600101805461080a906121d6565b80601f0160208091040260200160405190810160405280929190818152602001828054610836906121d6565b80156108835780601f1061085857610100808354040283529160200191610883565b820191906000526020600020905b81548152906001019060200180831161086657829003601f168201915b505050505090806002018054610898906121d6565b80601f01602080910402602001604051908101604052809291908181526020018280546108c4906121d6565b80156109115780601f106108e657610100808354040283529160200191610911565b820191906000526020600020905b8154815290600101906020018083116108f457829003601f168201915b505050505090806003018054610926906121d6565b80601f0160208091040260200160405190810160405280929190818152602001828054610952906121d6565b801561099f5780601f106109745761010080835404028352916020019161099f565b820191906000526020600020905b81548152906001019060200180831161098257829003601f168201915b5050505050905084565b600181815481106109b957600080fd5b90600052602060002090600402016000915090508060000180546109dc906121d6565b80601f0160208091040260200160405190810160405280929190818152602001828054610a08906121d6565b8015610a555780601f10610a2a57610100808354040283529160200191610a55565b820191906000526020600020905b815481529060010190602001808311610a3857829003601f168201915b505050505090806001018054610a6a906121d6565b80601f0160208091040260200160405190810160405280929190818152602001828054610a96906121d6565b8015610ae35780601f10610ab857610100808354040283529160200191610ae3565b820191906000526020600020905b815481529060010190602001808311610ac657829003601f168201915b505050505090806002018054610af8906121d6565b80601f0160208091040260200160405190810160405280929190818152602001828054610b24906121d6565b8015610b715780601f10610b4657610100808354040283529160200191610b71565b820191906000526020600020905b815481529060010190602001808311610b5457829003601f168201915b505050505090806003018054610b86906121d6565b80601f0160208091040260200160405190810160405280929190818152602001828054610bb2906121d6565b8015610bff5780601f10610bd457610100808354040283529160200191610bff565b820191906000526020600020905b815481529060010190602001808311610be257829003601f168201915b5050505050905084565b6004818051602081018201805184825260208301602085012081835280955050505050506000915054906101000a900460ff1681565b60008060008054906101000a900473ffffffffffffffffffffffffffffffffffffffff1673ffffffffffffffffffffffffffffffffffffffff16636f77926b846040518263ffffffff1660e01b8152600401610c9b9190612207565b600060405180830381865afa158015610cb8573d6000803e3d6000fd5b505050506040513d6000823e3d601f19601f82011682018060405250810190610ce19190612356565b905060006003811115610cf757610cf661239f565b5b81604001516003811115610d0e57610d0d61239f565b5b14915050919050565b806000806101000a81548173ffffffffffffffffffffffffffffffffffffffff021916908373ffffffffffffffffffffffffffffffffffffffff16021790555050565b8260008060009054906101000a900473ffffffffffffffffffffffffffffffffffffffff1673ffffffffffffffffffffffffffffffffffffffff16636f77926b836040518263ffffffff1660e01b8152600401610db79190612207565b600060405180830381865afa158015610dd4573d6000803e3d6000fd5b505050506040513d6000823e3d601f19601f82011682018060405250810190610dfd9190612356565b9050600081602001515111610e47576040517f08c379a0000000000000000000000000000000000000000000000000000000008152600401610e3e9061241a565b60405180910390fd5b8360008060009054906101000a900473ffffffffffffffffffffffffffffffffffffffff1673ffffffffffffffffffffffffffffffffffffffff16636f77926b836040518263ffffffff1660e01b8152600401610ea49190612207565b600060405180830381865afa158015610ec1573d6000803e3d6000fd5b505050506040513d6000823e3d601f19601f82011682018060405250810190610eea9190612356565b9050600081602001515111610f34576040517f08c379a0000000000000000000000000000000000000000000000000000000008152600401610f2b9061241a565b60405180910390fd5b600485604051610f449190612124565b908152602001604051809103902060009054906101000a900460ff16610f9f576040517f08c379a0000000000000000000000000000000000000000000000000000000008152600401610f9690612187565b60405180910390fd5b8573ffffffffffffffffffffffffffffffffffffffff168773ffffffffffffffffffffffffffffffffffffffff160361100d576040517f08c379a000000000000000000000000000000000000000000000000000000000815260040161100490612486565b60405180910390fd5b6000600260008973ffffffffffffffffffffffffffffffffffffffff1673ffffffffffffffffffffffffffffffffffffffff16815260200190815260200160002090506000808280549050905060005b83805490508110156110c1578880519060200120848281548110611084576110836124a6565b5b9060005260206000200160405161109b9190612578565b6040518091039020036110b457809150600192506110c1565b808060010191505061105d565b5081611102576040517f08c379a00000000000000000000000000000000000000000000000000000000081526004016110f9906125db565b60405180910390fd5b8260018480549050611114919061262a565b81548110611125576111246124a6565b5b90600052602060002001838281548110611142576111416124a6565b5b906000526020600020019081611158919061282b565b508280548061116a57611169612913565b5b600190038181906000526020600020016000611186919061190c565b9055600260008a73ffffffffffffffffffffffffffffffffffffffff1673ffffffffffffffffffffffffffffffffffffffff168152602001908152602001600020889080600181540180825580915050600190039060005260206000200160009091909190915090816111f99190612942565b5060038860405161120a9190612124565b908152602001604051809103902060405180604001604052808b73ffffffffffffffffffffffffffffffffffffffff16815260200142815250908060018154018082558091505060019003906000526020600020906002020160009091909190915060008201518160000160006101000a81548173ffffffffffffffffffffffffffffffffffffffff021916908373ffffffffffffffffffffffffffffffffffffffff1602179055506020820151816001015550507ff1a45fa7f75bd961b42f13b6aa3442145db6a280fa2e9743042b26b08626c3e76005896040516112f09190612124565b908152602001604051809103902060000160058a6040516113119190612124565b90815260200160405180910390206001018a8c8e4260405161133896959493929190612a98565b60405180910390a150505050505050505050565b8460008060009054906101000a900473ffffffffffffffffffffffffffffffffffffffff1673ffffffffffffffffffffffffffffffffffffffff16636f77926b836040518263ffffffff1660e01b81526004016113a99190612207565b600060405180830381865afa1580156113c6573d6000803e3d6000fd5b505050506040513d6000823e3d601f19601f820116820180604052508101906113ef9190612356565b9050600060038111156114055761140461239f565b5b8160400151600381111561141c5761141b61239f565b5b1461145c576040517f08c379a000000000000000000000000000000000000000000000000000000000815260040161145390612b80565b60405180910390fd5b6000816020015151116114a4576040517f08c379a000000000000000000000000000000000000000000000000000000000815260040161149b9061241a565b60405180910390fd5b6004846040516114b49190612124565b908152602001604051809103902060009054906101000a900460ff1615611510576040517f08c379a000000000000000000000000000000000000000000000000000000000815260040161150790612c12565b60405180910390fd5b6000865111611554576040517f08c379a000000000000000000000000000000000000000000000000000000000815260040161154b90612c7e565b60405180910390fd5b6000845111611598576040517f08c379a000000000000000000000000000000000000000000000000000000000815260040161158f90612cea565b60405180910390fd5b60006040518060800160405280888152602001878152602001868152602001858152509050600181908060018154018082558091505060019003906000526020600020906004020160009091909190915060008201518160000190816115fe9190612942565b5060208201518160010190816116149190612942565b50604082015181600201908161162a9190612942565b5060608201518160030190816116409190612942565b505050806005866040516116549190612124565b908152602001604051809103902060008201518160000190816116779190612942565b50602082015181600101908161168d9190612942565b5060408201518160020190816116a39190612942565b5060608201518160030190816116b99190612942565b5090505060016004866040516116cf9190612124565b908152602001604051809103902060006101000a81548160ff021916908315150217905550600260008973ffffffffffffffffffffffffffffffffffffffff1673ffffffffffffffffffffffffffffffffffffffff168152602001908152602001600020859080600181540180825580915050600190039060005260206000200160009091909190915090816117659190612942565b506003856040516117769190612124565b908152602001604051809103902060405180604001604052808a73ffffffffffffffffffffffffffffffffffffffff16815260200142815250908060018154018082558091505060019003906000526020600020906002020160009091909190915060008201518160000160006101000a81548173ffffffffffffffffffffffffffffffffffffffff021916908373ffffffffffffffffffffffffffffffffffffffff1602179055506020820151816001015550507f1c6dd0df93e82aba12c0d62842d917c64dbefd30f23b8628e4908641d03775dd8888888888604051611862959493929190612d0a565b60405180910390a15050505050505050565b60008054906101000a900473ffffffffffffffffffffffffffffffffffffffff1681565b6000600260008373ffffffffffffffffffffffffffffffffffffffff1673ffffffffffffffffffffffffffffffffffffffff168152602001908152602001600020805490509050919050565b6040518060800160405280606081526020016060815260200160608152602001606081525090565b508054611918906121d6565b6000825580601f1061192a5750611949565b601f016020900490600052602060002090810190611948919061194c565b5b50565b5b8082111561196557600081600090555060010161194d565b5090565b6000604051905090565b600080fd5b600080fd5b600080fd5b600080fd5b6000601f19601f8301169050919050565b7f4e487b7100000000000000000000000000000000000000000000000000000000600052604160045260246000fd5b6119d082611987565b810181811067ffffffffffffffff821117156119ef576119ee611998565b5b80604052505050565b6000611a02611969565b9050611a0e82826119c7565b919050565b600067ffffffffffffffff821115611a2e57611a2d611998565b5b611a3782611987565b9050602081019050919050565b82818337600083830152505050565b6000611a66611a6184611a13565b6119f8565b905082815260208101848484011115611a8257611a81611982565b5b611a8d848285611a44565b509392505050565b600082601f830112611aaa57611aa961197d565b5b8135611aba848260208601611a53565b91505092915050565b6000819050919050565b611ad681611ac3565b8114611ae157600080fd5b50565b600081359050611af381611acd565b92915050565b60008060408385031215611b1057611b0f611973565b5b600083013567ffffffffffffffff811115611b2e57611b2d611978565b5b611b3a85828601611a95565b9250506020611b4b85828601611ae4565b9150509250929050565b600073ffffffffffffffffffffffffffffffffffffffff82169050919050565b6000611b8082611b55565b9050919050565b611b9081611b75565b82525050565b611b9f81611ac3565b82525050565b6000604082019050611bba6000830185611b87565b611bc76020830184611b96565b9392505050565b600060208284031215611be457611be3611973565b5b600082013567ffffffffffffffff811115611c0257611c01611978565b5b611c0e84828501611a95565b91505092915050565b6000602082019050611c2c6000830184611b96565b92915050565b600081519050919050565b600082825260208201905092915050565b60005b83811015611c6c578082015181840152602081019050611c51565b60008484015250505050565b6000611c8382611c32565b611c8d8185611c3d565b9350611c9d818560208601611c4e565b611ca681611987565b840191505092915050565b60006080830160008301518482036000860152611cce8282611c78565b91505060208301518482036020860152611ce88282611c78565b91505060408301518482036040860152611d028282611c78565b91505060608301518482036060860152611d1c8282611c78565b9150508091505092915050565b60006020820190508181036000830152611d438184611cb1565b905092915050565b611d5481611b75565b8114611d5f57600080fd5b50565b600081359050611d7181611d4b565b92915050565b60008060408385031215611d8e57611d8d611973565b5b6000611d9c85828601611d62565b9250506020611dad85828601611ae4565b9150509250929050565b600082825260208201905092915050565b6000611dd382611c32565b611ddd8185611db7565b9350611ded818560208601611c4e565b611df681611987565b840191505092915050565b60006020820190508181036000830152611e1b8184611dc8565b905092915050565b60006080820190508181036000830152611e3d8187611dc8565b90508181036020830152611e518186611dc8565b90508181036040830152611e658185611dc8565b90508181036060830152611e798184611dc8565b905095945050505050565b600060208284031215611e9a57611e99611973565b5b6000611ea884828501611ae4565b91505092915050565b60008115159050919050565b611ec681611eb1565b82525050565b6000602082019050611ee16000830184611ebd565b92915050565b600060208284031215611efd57611efc611973565b5b6000611f0b84828501611d62565b91505092915050565b600080600060608486031215611f2d57611f2c611973565b5b6000611f3b86828701611d62565b9350506020611f4c86828701611d62565b925050604084013567ffffffffffffffff811115611f6d57611f6c611978565b5b611f7986828701611a95565b9150509250925092565b600080600080600060a08688031215611f9f57611f9e611973565b5b6000611fad88828901611d62565b955050602086013567ffffffffffffffff811115611fce57611fcd611978565b5b611fda88828901611a95565b945050604086013567ffffffffffffffff811115611ffb57611ffa611978565b5b61200788828901611a95565b935050606086013567ffffffffffffffff81111561202857612027611978565b5b61203488828901611a95565b925050608086013567ffffffffffffffff81111561205557612054611978565b5b61206188828901611a95565b9150509295509295909350565b6000819050919050565b600061209361208e61208984611b55565b61206e565b611b55565b9050919050565b60006120a582612078565b9050919050565b60006120b78261209a565b9050919050565b6120c7816120ac565b82525050565b60006020820190506120e260008301846120be565b92915050565b600081905092915050565b60006120fe82611c32565b61210881856120e8565b9350612118818560208601611c4e565b80840191505092915050565b600061213082846120f3565b915081905092915050565b7f50726f64756374206e6f7420666f756e64000000000000000000000000000000600082015250565b6000612171601183611db7565b915061217c8261213b565b602082019050919050565b600060208201905081810360008301526121a081612164565b9050919050565b7f4e487b7100000000000000000000000000000000000000000000000000000000600052602260045260246000fd5b600060028204905060018216806121ee57607f821691505b602082108103612201576122006121a7565b5b50919050565b600060208201905061221c6000830184611b87565b92915050565b600080fd5b600080fd5b60008151905061223b81611d4b565b92915050565b600061225461224f84611a13565b6119f8565b9050828152602081018484840111156122705761226f611982565b5b61227b848285611c4e565b509392505050565b600082601f8301126122985761229761197d565b5b81516122a8848260208601612241565b91505092915050565b600481106122be57600080fd5b50565b6000815190506122d0816122b1565b92915050565b6000606082840312156122ec576122eb612222565b5b6122f660606119f8565b905060006123068482850161222c565b600083015250602082015167ffffffffffffffff81111561232a57612329612227565b5b61233684828501612283565b602083015250604061234a848285016122c1565b60408301525092915050565b60006020828403121561236c5761236b611973565b5b600082015167ffffffffffffffff81111561238a57612389611978565b5b612396848285016122d6565b91505092915050565b7f4e487b7100000000000000000000000000000000000000000000000000000000600052602160045260246000fd5b7f55736572206e6f74207265676973746572656400000000000000000000000000600082015250565b6000612404601383611db7565b915061240f826123ce565b602082019050919050565b60006020820190508181036000830152612433816123f7565b9050919050565b7f43616e6e6f742073656c6c20746f20796f757273656c66000000000000000000600082015250565b6000612470601783611db7565b915061247b8261243a565b602082019050919050565b6000602082019050818103600083015261249f81612463565b9050919050565b7f4e487b7100000000000000000000000000000000000000000000000000000000600052603260045260246000fd5b600081905092915050565b60008190508160005260206000209050919050565b60008154612502816121d6565b61250c81866124d5565b94506001821660008114612527576001811461253c5761256f565b60ff198316865281151582028601935061256f565b612545856124e0565b60005b8381101561256757815481890152600182019150602081019050612548565b838801955050505b50505092915050565b600061258482846124f5565b915081905092915050565b7f50726f64756374206e6f7420696e2073656c6c657220696e76656e746f727900600082015250565b60006125c5601f83611db7565b91506125d08261258f565b602082019050919050565b600060208201905081810360008301526125f4816125b8565b9050919050565b7f4e487b7100000000000000000000000000000000000000000000000000000000600052601160045260246000fd5b600061263582611ac3565b915061264083611ac3565b9250828203905081811115612658576126576125fb565b5b92915050565b60008154905061266d816121d6565b9050919050565b60008190508160005260206000209050919050565b60008190508160005260206000209050919050565b60006020601f8301049050919050565b600082821b905092915050565b6000600883026126eb7fffffffffffffffffffffffffffffffffffffffffffffffffffffffffffffffff826126ae565b6126f586836126ae565b95508019841693508086168417925050509392505050565b600061272861272361271e84611ac3565b61206e565b611ac3565b9050919050565b6000819050919050565b6127428361270d565b61275661274e8261272f565b8484546126bb565b825550505050565b600090565b61276b61275e565b612776818484612739565b505050565b5b8181101561279a5761278f600082612763565b60018101905061277c565b5050565b601f8211156127df576127b081612674565b6127b98461269e565b810160208510156127c8578190505b6127dc6127d48561269e565b83018261277b565b50505b505050565b600082821c905092915050565b6000612802600019846008026127e4565b1980831691505092915050565b600061281b83836127f1565b9150826002028217905092915050565b818103612839575050612911565b6128428261265e565b67ffffffffffffffff81111561285b5761285a611998565b5b61286582546121d6565b61287082828561279e565b6000601f83116001811461289f576000841561288d578287015490505b612897858261280f565b86555061290a565b601f1984166128ad87612689565b96506128b886612674565b60005b828110156128e0578489015482556001820191506001850194506020810190506128bb565b868310156128fd57848901546128f9601f8916826127f1565b8355505b6001600288020188555050505b5050505050505b565b7f4e487b7100000000000000000000000000000000000000000000000000000000600052603160045260246000fd5b61294b82611c32565b67ffffffffffffffff81111561296457612963611998565b5b61296e82546121d6565b61297982828561279e565b600060209050601f8311600181146129ac576000841561299a578287015190505b6129a4858261280f565b865550612a0c565b601f1984166129ba86612674565b60005b828110156129e2578489015182556001820191506020850194506020810190506129bd565b868310156129ff57848901516129fb601f8916826127f1565b8355505b6001600288020188555050505b505050505050565b60008154612a21816121d6565b612a2b8186611db7565b94506001821660008114612a465760018114612a5c57612a8f565b60ff198316865281151560200286019350612a8f565b612a6585612674565b60005b83811015612a8757815481890152600182019150602081019050612a68565b808801955050505b50505092915050565b600060c0820190508181036000830152612ab28189612a14565b90508181036020830152612ac68188612a14565b90508181036040830152612ada8187611dc8565b9050612ae96060830186611b87565b612af66080830185611b87565b612b0360a0830184611b96565b979650505050505050565b7f4f6e6c79206d616e7566616374757265722063616e206164642070726f64756360008201527f74732e0000000000000000000000000000000000000000000000000000000000602082015250565b6000612b6a602383611db7565b9150612b7582612b0e565b604082019050919050565b60006020820190508181036000830152612b9981612b5d565b9050919050565b7f50726f647563742077697468207468697320626172636f646520616c7265616460008201527f7920657869737473000000000000000000000000000000000000000000000000602082015250565b6000612bfc602883611db7565b9150612c0782612ba0565b604082019050919050565b60006020820190508181036000830152612c2b81612bef565b9050919050565b7f50726f64756374206e616d652063616e6e6f7420626520656d70747900000000600082015250565b6000612c68601c83611db7565b9150612c7382612c32565b602082019050919050565b60006020820190508181036000830152612c9781612c5b565b9050919050565b7f426172636f64652063616e6e6f7420626520656d707479000000000000000000600082015250565b6000612cd4601783611db7565b9150612cdf82612c9e565b602082019050919050565b60006020820190508181036000830152612d0381612cc7565b9050919050565b600060a082019050612d1f6000830188611b87565b8181036020830152612d318187611dc8565b90508181036040830152612d458186611dc8565b90508181036060830152612d598185611dc8565b90508181036080830152612d6d8184611dc8565b9050969550505050505056fea26469706673582212204ab7794cd2a3f783e8061579751cd07c9574a890835f35f2d677650938a1d67c64736f6c634300081e0033",
  "linkReferences": {},
  "deployedLinkReferences": {}
}